:020000040000FA
:06000000020A520201C2D7
:03002B0002208E22
:030033000206942E
:030043000208C0F0
:03004B0002075E4B
:0300530002011592
:03005B0002076D2C
:0300630002077918
:03006B0002067A10
:1000830002015E0101FF01010503010F10FEFF03E1
:100093000003000300030003000300030003000345
:1000A3000005000A00140028004F009E000000A570
:1000B30013A513A513A51361125B12A513AB22009D
:1000C3000000004922000000000C0000000C0001A9
:1000D30000001315000000000000AF150000000031
:1000E30000000000A305FF010200E8110000005B0F
:1000F3001264000202000800000502071E02051E2A
:10010300020A03B80B02803E0103320002FFFF0222
:100113000206C0E074F21203D4E5A7F8E5A1F9588A
:1001230054106008121C8153A1EF802AE8A2E0C09A
:10013300D0E9A2E092F012098F158182F050179056
:100143006198E0F8901565E0C398A2D265D033506A
:1001530002E8F053A1FE7F01020433C0E074F212FF
:1001630003D49061A4E0F8759B00E59158540860AE
:10017300087591F7121CC3802AE591585410600842
:100183007591EF121CC9801BE8A2E0C0D0E591A2D3
:10019300E092F012098F158182F05007E0C2E0F07F
:1001A300121DE99061A3E0F8E5E9585404600E12CA
:1001B3001DBF75E9FB906193E0A2E640F28097C012
:1001C300E074F21203D49061A5E0F8E5BF5854043B
:1001D300600653BFFB121E01020159C3E498F8E401
:1001E30099F912021F8026C3E49AFAE49BFBE920E3
:1001F300E7E912021FE498F8E499F922C3E498F8B6
:10020300E499F912021FE498F8E499F9C3E49AFA1D
:10021300E49BFB22EB20E7CFE920E7E0B90010BB2A
:100223000008E88AF084F8AAF022E4FBC8FA22EB7B
:1002330070227B10C833C8C933C9335007C39AC36C
:10024300DBF280069A50012ADBEAC833F4C8C933CB
:10025300F4C9FA2275F008E4C833C8C933C933C9ED
:100263009AC99B5004C92AC93BD5F0ECFBC833F4A7
:10027300C8E4C9FA22080808EAC0E0EBC0E086F047
:10028300E7A4FA180986F0E7A42AFA180986F0E722
:10029300A42AFA180986F0E7A42AFA1986F0E7A433
:1002A300FBE5F02AFA190886F0E7A42BFBE5F03A00
:1002B300FA190886F0E7A42BFBE5F03AFA181809B7
:1002C30086F0E7A4C5F02BFBE43AFA1908E7C5F07A
:1002D300C6A426F6E5F03BFBE43AFA1886F0E7A459
:1002E300F6E5F00826F6E43B08F6E43A08F6D0E033
:1002F300FBD0E0FA22E4CFC0E0E4CEC0E0E4CDC01E
:10030300E0E4CCC0E075F020C3E633F608E633F64C
:1003130008E633F608E633F6181818EC33FCED3329
:10032300FDEE33FEEF33FFC3EC9709ED9709EE972C
:1003330009EF97191919400FFFEC97FC09ED97FD89
:1003430009EE97FE191906D5F0BEECF709EDF7098A
:10035300EEF709EFF7191919D0E0FCD0E0FDD0E072
:10036300FED0E0FF222518C582C0E0E51934FFC5A1
:1003730083C0E0E518C3958224F810AF088583197C
:100383008582188008858319858218D2AFCEF0A3A1
:10039300E520F0A37808E608F0A3DEFAEFF0A3E582
:1003A3008124FAF8E608F0A3E608F0A3E608F0A330
:1003B3000808E608F0A3E608F0A315811581D0E04C
:1003C300FED0E0F8158115811581E8C0E0EEC0E0AC
:1003D30022C0D02518C582C0E0E51934FFC583C00B
:1003E300E0E518C3958224F310AF0885831985824D
:1003F300188008858319858218D2AFC8F0A3E9F065
:10040300A3EAF0A3EBF0A37908E709F0A3D8FAEC89
:10041300F0A3EDF0A3EEF0A3EFF0A3D0E0F0A3D0B0
:10042300E0F0A3D0E0F0A3E520F0A3E5F0F0A322F1
:10043300851983851882E0C0E0A3E0F9A3E0FAA35D
:10044300E0FBA37808E0F608A3DFFAE0FCA3E0FDF5
:10045300A3E0FEA3E0FFA3E0C0E0A3E0C0E0A3E0CD
:10046300F5D0A3E0F520A3E0A3F5F010AF08858352
:10047300198582188008858319858218D2AFD082A6
:10048300D083D0E0F8D0E032120AB4B900030204FA
:10049300CDE490030178E679188002F0A3D8FCD963
:1004A300FA901AE6AA82AB8390008678907901804D
:1004B30015E493A3AC82AD838A828B83F0A3AA82D3
:1004C300AB838C828D83D8E9D9E77582C07583E0CD
:1004D300740312052F758289758320740012052F0A
:1004E300D083D082ECC0E0EDC0E0E493A3FCE493BE
:1004F300A3FDED4C600D120605EC24FFFCED34FF6B
:10050300FD80EFE493A3FCE493A3FDED4C600D1297
:100513000709EC24FFFCED34FFFD80EFD0E0FDD0B4
:10052300E0FCE493A3C0E0E493C0E022C0F0F5F064
:10053300E59F5407C0E0E59F54F845F0D0F0F59FE0
:10054300E473859FF053F0F8D0E045F0F59F22D097
:1005530083D082E59F5407C0E0E493C0E074019325
:10056300C0E07402935407C0F0F5F0E59F54F845DA
:10057300F0D0F0F59F22851983851882E0A3FEE071
:10058300A3F5207808E0A3F608DFFAE0A3FFE0A3D1
:10059300C0E0E0A3C0E0E0A3C0E0E0A3C0E0E0A3CC
:1005A300C0E010AF088582188583198008858218FA
:1005B300858319D2AFD083D082020545D083D08200
:1005C300E9C0E0E493A3C386F0C5F095F0F908E42D
:1005D30093A386F0C5F095F0700BE493A3C3994001
:1005E30005E9048002A3E475F002A42582F582E5FF
:1005F300F03583F583D0E0F9E493A3C0E0E493C03E
:10060300E022C0E0C3E49396087401939618400F68
:10061300E49366700808740193661870007019A358
:10062300A3C3E49396087401939618A3A3400DD033
:10063300E0D0E0D0E002051FA3A3A3A3A3A3D0E0CF
:1006430022D083D082C5F0E493A3C5F0C395F0F51F
:10065300F0E493A3C395F04005E5F0048001E4754D
:10066300F002A42582F582E5F03583F583E493A3B4
:10067300C0E0E493C0E022C0E074F21203D4E58941
:10068300A2E15003121B3D758900C2C57F0102041C
:1006930033C0E074F21203D4E58BA2E05003121BC3
:1006A3003D758B00C2E880E474048004740280000A
:1006B300CCC0E0EDC0E0E518C39CCCAD1950011DE2
:1006C30010AF068C188D1980068C188D19D2AF12B5
:1006D30007A7D0E0FDD0E0FC2274028000CCC0E08C
:1006E300EDC0E0E518C39CCCAD1950011D10AF0659
:1006F3008C188D1980068C188D19D2AF120785D0EE
:10070300E0FDD0E0FC22C0E0C0F088F0E493667026
:10071300080874019366187000A8F0A3A3700BD0A7
:10072300F0D0E0D0E0D0E002051FA3A3D0F0D0E0EA
:1007330022D083D082CCC0E0E493A360061207E703
:100743001470FAE493A360061208D71470FAD0E089
:10075300FCE493A3C0E0E493C0E022C0E074F2128F
:1007630003D4121BC17F01020433C0E074F21203ED
:10077300D4121BC780EFC0E074F21203D4121BCD56
:1007830080E3CAC0E0E493A3C582CCC582C583CD10
:10079300C583F0A3C582CCC582C583CDC583DAE505
:1007A300D0E0CA22CAC0E0E0A3C582CCC582C5831B
:1007B300CDC583F0A3C582CCC582C583CDC583DAFD
:1007C300E6D0E0CA22700908080822601618181833
:1007D300C6C333C608C633C608C633C608C633C63F
:1007E300D5E0EA22C0E0E493A3D39C5010E493A3A2
:1007F300C39C400AD0E0D0E0D0E0020751A3A3A3FA
:10080300D0E022C008C3E096F50808A3E0964208AA
:1008130008A3E096420808A3E09645087001D3D0E8
:1008230008222518F58210AF08F518400215198023
:1008330008F51840021519D2AF8519832274048074
:100843000A74038006740280027401C0E0F4041287
:100853000825D0E0120A8F22C0D0251810AF08F562
:1008630018500205198008F51850020519D2AFD0A7
:10087300D022BB0102E722C082C08389828A83BB64
:100883000003E08002E493D083D08222601608083C
:1008930008C6C313C618C613C618C613C618C6138C
:1008A300C6D5E0EA22C3E0C696F608A3E0C696F6EC
:1008B30008A3E0C696F608A3E0C696F622C0E07445
:1008C300F21203D4C2C0E5D1A2E45003121BF77F96
:1008D30001020433C0E0E493A36C7009D0E0D0E0DC
:1008E300D0E0020751A3A3D0E022251810AF08F5EA
:1008F30018400215198008F51840021519D2AF22C5
:10090300E066701008A3E066700A08A3E06670044E
:1009130008A3E06622C3E09608A3E09608A3E09646
:1009230008A3E096A2D265D03322C3E7960809E76D
:10093300960809E7960809E796A2D265D03322C341
:10094300E096F008A3E096F008A3E096F008A3E091
:1009530096F022E026F008A3E036F008A3E036F094
:1009630008A3E036F022E627F60809E637F6080979
:10097300E637F60809E637F622E026F608A3E0365E
:10098300F608A3E036F608A3E036F622C0E0E8C096
:10099300E0E58124FCF8E6A2E7D0E0F8D0E022709D
:1009A3000422600D18C6C333C608C633C6D5E0F4A7
:1009B3001822E657F60809E657F60809E657F60837
:1009C30009E657F622E056F608A3E056F608A3E038
:1009D30056F608A3E056F622E056F008A3E056F0D8
:1009E30008A3E056F008A3E056F022E647F608090C
:1009F300E647F60809E647F60809E647F622E4C3A0
:100A030096F608E496F608E496F608E496F622C30A
:100A1300E7960809E7960809E7960809E79622C6C4
:100A2300F4C608C6F4C608C6F4C608C6F4C62260EF
:100A33000D08C6A2E713C618C613C6D5E0F322C332
:100A4300E09608A3E09608A3E09608A3E096227533
:100A5300D0007581407518017519030002048B607D
:100A63000C08C6C313C618C613C6D5E0F422E6F0B5
:100A730008A3E6F008A3E6F008A3E6F022E0F608F0
:100A8300A3E0F608A3E0F608A3E0F622CAC0E0E676
:100A9300F0A308DAFAD0E0FA22E0FAA3E0FBA3E03D
:100AA300FCA3E0FD22EAF0A3EBF0A3ECF0A3EDF04E
:100AB30022E5C754F84401F5C77901222518F582C8
:100AC300E43519F58322120552E5DD02120552B011
:100AD300DE021205527EDF02120552D6E102120532
:100AE3005242E302120552DEE302120552B9E40256
:100AF300120552D7E402120552D824001205520BF4
:100B030025001205522A25001205524C2500120514
:100B1300525E25001205527D2500120552EE250076
:100B23001205528826001205525A2700120552A6B2
:100B33002700120552E5270012055202280012056C
:100B4300524C2800120552872800120552A2280091
:100B5300120552C6280012055201290012055241FE
:100B63002900120552622900120552AF290012050D
:100B730052892A001205523A2B00120552CA2B0041
:100B8300120552BA2C00120552FD2C0012055222F6
:100B93002D00120552782D001205529D2D001205CD
:100BA30052C22E00120552362F00120552592F0041
:100BB3001205527C2F00120552A42F00120552B6C3
:100BC3002F00120552C02F001205524430001205A7
:100BD30052B330001205525C3100120552643100E9
:100BE300120552CE31001205521032001205522066
:100BF30032001205520833001205529333001205D6
:100C030052F33300120552BF340012055236350039
:100C1300120552733500120552D235001205521FC8
:100C230037001205523B37001205529D370012055B
:100C3300523A38001205528138001205521C39000D
:100C4300120552C93900120552073A0012055277AC
:100C53003A00120552C23A00120552FB3A0012053D
:100C6300522B3C001205527E3D00120552DF3D001F
:100C7300120552283E00120552503E00120552D36F
:100C83003E00120552533F00120552CD3F0012059C
:100C930052F23F001205526840001205520C410007
:100CA300120552A24100120552C94100120552EE2B
:100CB30042001205520143001205529643001205E9
:100CC30052B64300120552624400120552AC44006E
:100CD300120552EE4400120552DA4500120552DDA8
:100CE3004700120552E74700120552F1470012056B
:100CF30052FB47001205520548001205521F4800D7
:100D03001205522948001205523348001205523D7C
:100D130048001205525E4800120552AC4800120505
:100D230052B64800120552DA4800120552FE480036
:100D33001205525B4900120552A64900120552C41E
:100D43004900120552344A00120552714A00120535
:100D530052B84A00120552204B00120552C44B00F0
:100D6300120552914D00120552B44D0012055286E0
:100D73004E00120552AC4E001205528C4F00120564
:100D8300522452001205528653001205524D55004B
:100D93001205529F5500120552985600120552E54E
:100DA30056001205525057001205525A57001205A9
:100DB30052165900120552455A00120552A55A00FF
:100DC3001205525B5B00120552435C001205520090
:100DD3005E001205521F5E001205527B5E00120573
:100DE30052535F00120552785F00120552C95F002B
:100DF300120552AB6000120552E360001205522344
:100E03006100120552866100120552A262001205AA
:100E130052026300120552E86300120552F06500A6
:100E23001205520C6600120552B16700120552F703
:100E33006700120552D568001205522F690012058A
:100E430052776900120552E76900120552756A006C
:100E5300120552F96A00120552656B0012055265BC
:100E63008701120552B78701120552F18901120554
:100E7300523D8A011205520F8B011205527E8B01DE
:100E8300120552C18C011205520E8F011205523503
:100E930090011205529C98011205521999011205ED
:100EA30052999B01120552859C01120552319D01F5
:100EB300120552629E01120552559F011205526C92
:100EC300A2011205526EA401120552CEA40112050D
:100ED300528FA501120552BAA5011205525BA60154
:100EE3001205523FA7011205521AA801120552AE6C
:100EF300A801120552DBA801120552FDA801120533
:100F030052F0AA01120552D0AB011205521DAC01D9
:100F13001205527EAC0112055240AD011205527505
:100F2300AD01120552C3AD01120552F3AD01120515
:100F33005231AE0112055289AE011205528EAE0135
:100F4300120552E9AE0112055211AF0112055230DA
:100F5300B0011205529CB00112055206B1011205EF
:100F63005292B101120552A9B40112055275B5018D
:100F7300120552E5B60112055239B901120552E1C3
:100F8300B90112055296BA0112055224BC01120589
:100F930052C1BC0112055209BD01120552A5BE0181
:100FA300120552B9BE01120552C6BE01120552E125
:100FB300BE01120552EDBE011205520BBF0112050F
:100FC30052CFC0011205522EC10112055284C10134
:100FD3001205528FC201120552EBC201120552DEF5
:100FE300C30112055222C401120552A5C401120500
:100FF30052A6C50112055264C60112055203C80167
:10100300120552D8C80112055279C90112055209B5
:10101300CA0112055220CA0112055259CA0112050A
:101023005263CA011205526FCA011205528DCA01D9
:10103300120552D1CA0112055222CB0112055243A5
:10104300CB011205525DCB01120552D5CB0112051E
:101053005216CD0112055260CD0112055253CE0135
:101063001205526FCE01120552D2CE01120552273C
:10107300CF01120552E5CF01120552F4D00112053A
:1010830052A0D10112055277D201120552E3D201C7
:1010930012055277D30112055247D4011205527635
:1010A300D401120552D5D40112055283D50112057C
:1010B30052A9D50112055221D60112055246D60175
:1010C30012055269D601120552A4D60112055282A5
:1010D300D80112055265D9011205521DDA01120514
:1010E30052B2DB0112055206DC0112055249DC0142
:1010F300120552B8DC011205522CDD01120552858E
:10110300DD01120552ABDD01120552E6DD011205C8
:101113005212DE011205525DDE01120552B6DE01E6
:1011230012055232DF0112055210E001120552A2DC
:10113300E1011205520FE20112055238E2011205D4
:10114300529EE201120552F5E2011205522EE3010D
:1011530012055283E301120552A8E301120552EE70
:10116300E3011205520BE401120552B5E401120525
:101173005299FF03120552E4FF031205526C8002D9
:10118300120552A080021205527681021205524ABC
:101193008202120552758302120552F98402120566
:1011A300527785021205523E86021205525F87026C
:1011B300120552D187021205523388021205528159
:1011C30088021205528B8802120552C98802120541
:1011D30052328902120552D189021205524F8A02F4
:1011E300120552048B02120552768B021205529C91
:1011F3008B02120552CC8B02120552F98B02120597
:10120300529F8C02120552AF8C02120552028D02BC
:101213001205520E8D021205521A8D021205522327
:101223008D02120552848D02120552E48D021205BD
:1012330052358E02120552508E02120552808E02D2
:10124300120552A18E02120552AD8E02120552EE04
:101253008F021205520C900212055275900212056C
:10126300528890021205529F900212055232910247
:101273001205523192021205522D9302120552AFFA
:101283009302120552B993021205521C94021205DD
:10129300522D9402120552709402120552B7940211
:1012A300120552ED94021205522395021205524182
:1012B3009502120552659502120552A69502120572
:1012C30052999602120552DF96021205521A97029C
:1012D300120552799702120552A19702120552DAAA
:1012E3009702120552E89702120552499802120515
:1012F30052869802120552C89802120552F99802B2
:101303001205522D990212055238990212055256AE
:1013130099021205521E9A02120552289A021205C8
:10132300526D9A02120552D79A02120552EB9A0293
:10133300120552E39B02120552F69B021205520B51
:101343009C02120552AB9C021205520F9D0212051C
:1013530052D29D02120552DD9D02120552FC9E02DD
:10136300120552189F02120552709F02120552A7CE
:101373009F02120552C19F0212055235A0021205A7
:1013830052C6A0021205520EA10212055229A3024F
:1013930012055293A302120552FEA30212055257DD
:1013A300A60212055267A6021205526AA602120588
:1013B3005276A6021205528AA60212055292A6027C
:1013C300120552C7A60212055275A702120552E56D
:1013D300A70212055249A802120552E2A8021205F9
:1013E300527CA902120552AAA90212055240AA026E
:1013F3001205526FAA0212055291AA02120552B89F
:10140300AA021205521EAB0212055288AC02120543
:10141300528BAC0212055202AD02120552EEAD021E
:10142300120552C6AE0212055250AF021205528582
:10143300B00212055237B10212055270B102120501
:1014430052A1B102120552AAB10212055296B2027A
:1014530012055212B302120552A2B3021205526CC4
:10146300B402120552F0B40212055226B502120557
:10147300526FB502120552009F031205520E9F03CD
:10148300120552779F03120552AF9F0312055202B2
:10149300A0031205529EA1031205527EA303120557
:1014A300525DA60312055289A603120552A9A6038B
:1014B30012055207A70312055245A70312055283CB
:1014C300A703120552C9A70312055283DD031205B0
:1014D300520BDE0312055297DE0312055244DF035B
:1014E3001205527DE003120552F5F903120552135A
:1014F300FA0312055264FA0312055221D8021205A7
:101503005253FB03120552D6F6031205521BF8037E
:10151300120552E5B70312055268B8031205527259
:10152300B80312055299B803120552ADB803120558
:101533005213B90312055243B90312055245BA03B4
:1015430012055215BB0312055275BB03120552BE99
:10155300BB03120552B0DD021205525EBC03120535
:10156300528ABC0312055215BD031205526FBD0307
:1015730012055231F5031205524AF503120552C4FE
:10158300F50312055271F60312055299F60312057B
:1015930052ADE30312055227E40312055232E4036A
:1015A30012055253E40312055289F5011205528CB8
:1015B300F5011205524DF6011205527BF601120593
:1015C30052D6F601120552FAF6011205521AF70124
:1015D30012055264F70112055292F701120552C126
:1015E300F801120552F0F80112055211F901120522
:1015F300526CF9011205522FFA011205524FFA01EA
:10160300120552C4FB011205525CFC01120552651E
:10161300FD01120552CEFD01120552FCFD0112051A
:1016230052C1FE01120552F6FE0112055229FF01B5
:1016330012055265F0021205526FF002120552B7FD
:10164300F00212055225F10212055248F102120569
:1016530052E8F10212055297F402120552A0F40265
:10166300120552EDF40212055216F50212055276D6
:10167300F5021205520CF60212055240F60212054B
:10168300528DF602120552E7F60212055215F702C1
:101693001205529DF702120552E2F702120552217A
:1016A300F80212055256F80212055268F8021205A2
:1016B300527AF80212055299F80212055250F902B1
:1016C30012055290F9021205523083041205522E6C
:1016D3008404120552C1EF0312055225F0031205CB
:1016E3005249F00312055242F103120552EFE4018D
:1016F300120552CEE5011205520AE601120552A760
:10170300E701120552E9E7011205529DE9011205AD
:1017130052E1E901120552C2EA011205524FEB01EF
:10172300120552DAEB0112055230EC011205527028
:10173300EC0112055212EE011205529BEF01120544
:1017430052B2F101120552C0F10112055225F20104
:101753001205526FF20112055248F501120552DCCF
:101763007F00120552F27F001205522CDA03120594
:10177300523FDA03120552DDDA0312055218DB0376
:1017830012055233DB0312055258DB031205529D37
:10179300DB03120552CEDB03120552FFDB031205F6
:1017A3005276DD0312055272F803120552E6F8036E
:1017B30012055228F90312055238F903120552D0C3
:1017C300F903120552DAF903120552F2F90312056D
:1017D300520EE5021205525CE50212055253E6026F
:1017E30012055212E70212055227E702120552713F
:1017F300E702120552C0E702120552D3E7021205AF
:10180300521FE8021205527CE80212055290E802C8
:10181300120552C4E802120552DCE9021205525FB6
:10182300EA021205526EEA02120552AFEA021205EB
:1018330052E3EA0212055243EB0212055261EB0234
:10184300120552C4EB0212055243ED021205526512
:10185300ED021205529AED02120552C5ED02120570
:1018630052D5ED02120552E1ED02120552E4ED02EA
:1018730012055230EE02120552D5EE02120552FA4B
:10188300EE0212055204EF0212055214EF02120582
:101893005288EF02120552A3EF02120552C5EF025E
:1018A30012055200F0021205520FF0021205521AED
:1018B300F0021205527E8404120552968404120526
:1018C3005241B00312055290B00312055234B203D1
:1018D300120552EAB30312055232B40312055278C9
:1018E300B503120552C3B603120552E5B60312053A
:1018F300522FB703120552B1B703120552008003EA
:10190300120552218003120552AB80031205523493
:101913008103120552B0810312055213820312058B
:10192300525F8203120552CE82031205525883037B
:10193300120552CF8303120552118403120552D1AB
:101943008703120552AE8903120552E78903120574
:1019530052A18A03120552A48A03120552848B03EF
:10196300120552C98C03120552638E03120552BF2E
:1019730090031205524691031205523C920312053D
:1019830052A69503120552B69503120552169703F4
:10199300120552919703120552E49803120552025D
:1019A3009A03120552969A03120552B76B00120559
:1019B30052766C00120552ED6C00120552FC6C005D
:1019C300120552816D00120552EA6D00120552EAAA
:1019D3006E00120552136F00120552AC6F00120510
:1019E30052EF6F001205524C70001205522673001D
:1019F300120552E07300120552457400120552ECB1
:101A03007500120552A076001205523B77001205AD
:101A130052947700120552FF77001205520F790096
:101A2300120552CC7A00120552037C001205529C17
:101A33007C00120552067D00120552FC7D00120542
:101A430052B9F90212055225FA021205528EFA0210
:101A5300120552F9FA0212055231FB02120552A580
:101A6300FB0212055221FC0212055253FC0212051D
:101A7300526CFC02120552CDFC0212055221FD02EA
:101A830012055299FD021205529EFD021205520AD9
:101A9300FE021205527EFF021205520FE9031205E0
:101AA300525EE90312055217EA031205527DEA0357
:101AB300120552EEEA0312055234E1031205528D68
:101AC300E1031205520CE303120552C0FC03120595
:101AD30052FAFC03120552B5FD031205527FF303BC
:101AE3001205528DF303120552D485041205526573
:101AF300FF0112055275FF0112055293FF011205F2
:101B030052F4FF011205520080041205522780048B
:101B1300120552AC8004120552058104120552DDF0
:101B23009E031205521E81041205524081041205C0
:101B330052AA8104120552B58104120552F9810497
:101B4300120552EEC203120552FCC20312055238AB
:101B5300C30312055252C303120552CFC303120526
:101B630052C9C403120552EEC4031205520BC50336
:101B730012055228C5031205524DC50312055275AD
:101B8300C503120552C4C5031205523EC60312050E
:101B930052E2C603120552C7D603120552D5D60325
:101BA3001205524FD7031205521BD803120552C711
:101BB300D90312055268FB03120552A1FB03120558
:101BC30052BEFB031205521CFC0312055281FC0397
:101BD3001205528EBD03120552FBBD03120552B20C
:101BE300BE031205521FBF031205523CC003120568
:101BF30052D8C1031205523CC20312055291C203CB
:101C03001205529AC203120552A9C203120552BC0D
:101C1300C203120552D2C203120552DBC2031205DC
:101C230052A1C703120552F4C703120552FCC9039C
:101C33001205522ECA0312055250CA0312055269E5
:101C4300CA0312055282CA0312055284CB0312053A
:101C53005212CC03120552B0F103120552E2F10302
:101C6300120552EEF10312055221F20312055252EC
:101C7300F20312055280F203120552F5F203120524
:101C83005224F30312055279E6031205529FE60329
:101C9300120552DCE603120552EEE6031205520A60
:101CA300E70312055278E70312055281E703120591
:101CB30052E0E70312055204E803120552C3E80396
:101CC300120552D0E803120552E1E8031205522D22
:101CD300FF031205527AFF031205529FD303120525
:101CE30052E7D403120552F4D40312055207D50365
:101CF30012055226D5031205523CD5031205525044
:101D0300D503120552CAD50312055260D603120534
:101D130052A8D603120552B8D603120552437F00C8
:101D2300120552677F001205528F7F00120552B7CA
:101D33007F0012055271EB031205528AEB03120561
:101D43005296EB03120552AAEB03120552C8EB039A
:101D5300120552D2EB03120552DCEB03120552EFCC
:101D6300EB0312055243EC031205527CEC031205FC
:101D730052ABEC03120552F9EC0312055248ED0382
:101D830012055263ED031205526DED031205527EE7
:101D9300ED03120552C4ED03120552CB8404120560
:101DA3005207A80312055233A8031205524FA80382
:101DB30012055262A80312055278A803120552E4D1
:101DC300A80312055217A90312055274AC03120596
:101DD300529FAD03120552D2AD0312055237AE0323
:101DE3001205521FAF0312055247AF031205525C8F
:101DF300AF031205526CAF03120552B0AF031205C5
:101E03005205B00312055215B003120552FAFD0331
:101E130012055215FE031205523EFE0312055258D7
:101E2300FE031205527DFE031205529CFE031205AA
:101E330052B4FE03120552E2FE03120552FCFE03E6
:101E4300120552138504120552D9CF03120552E02D
:101E5300CF03120552ECD0031205521CD103120515
:101E63005242D10312055275D10312055287D10391
:101E7300120552C1D10312055227D2031205526033
:101E8300D203120552ACD203120552D9D203120562
:101E930052F9D203120552CFED03120552E7ED03B7
:101EA300120552D9EE031205523082041205528FE5
:101EB3008204120552CD82041205520E83041205C8
:101EC300522C9B031205524B9B03120552969B0304
:101ED300120552B29B03120552EA9B03120552F7F5
:101EE3009B03120552149C03120552F79C0312051F
:101EF300522E9D03120552359E03120552409E0336
:101F0300120552529E031205525B9E03120552653F
:101F13009E0312055251CC03120552CBCF03120577
:101F230052898504120552538504120552D6FF02C5
:101F3300120552B68504120552C6D5021205526A1D
:101F4300D402120552BED30212055205D202120563
:101F53005215D002120552A6CF021205524BCF02E0
:101F6300120552D8CE02120552AECE021205529C71
:101F7300CC0212055274CC0212055219CC0212057E
:101F830052F6CB0212055225CB02120552CDCA02DC
:101F930012055237C90212055234C90212055234CE
:101FA300C80212055214C80212055264C702120570
:101FB30052E6C502120552ADC5021205527DDD027D
:101FC3001205525EDD02120552F6DC02120552A51D
:101FD300DC02120552E9DB021205527EC50212052C
:101FE300527BC5021205526DC50212055259C50234
:101FF3001205525BDB0212055246C5021205524816
:10200300C402120552D8C3021205529EC30212051E
:1020130052FBBB031205524EDB0212055246C302AA
:1020230012055215C3021205522DC002120552EBBE
:10203300BF02120552DFBF0212055252BF02120540
:1020430052A0BE021205523FBC02120552A9B902A8
:1020530012055273B90212055207B802120552B3A0
:10206300B702120552F7B602120552CAB60212059A
:10207300521CB602120552EFB502120552B5B50253
:10208300120552A9FA0300000080FBC2C732E473B1
:1020930000013636010100010201000103010001C4
:1020A3000401060605020000070100340801000FC1
:1020B300090401010D0100FF0E08000017020000D2
:1020C300190100FF1A0100011B0100FE1C01000899
:1020D3001D0200001F010001200100012102000078
:1020E3002301000F2402000026010001270100083C
:1020F300280200FF2A0100072B0102402C010000E7
:102103002D0100012E0100012F0100FF30010B1CE6
:10211300310800003A0100083B01000F2F010000C5
:102123000302710230016002110270020102020215
:1021330002028002100261023A004100630273024C
:10214300720262024302000213023800000200021C
:10215300040212020002000200020002040204024E
:10216300370037003C02440200023900000200023B
:102173006502000235028102000205028202830227
:10218300000201017101010101011101010131018C
:10219300010101018001100161013B001400630191
:1021A30073017201620143010001130106013D0144
:1021B30035000401120100010001000100010401C6
:1021C3000401330133013C014401320136000001B3
:1021D3000001650100013500810100010501820153
:1021E30083010001030471040204600411047004F8
:1021F3000204020401040204100461040004140430
:1022030063047304720462044304000413040604A5
:102213000004000404041204000400040004000485
:102223005104640000040004000444040004000496
:1022330000040004650400043504810464000504FB
:102243000004830400040103710301030103010378
:10225300010301032203020301031003000300032C
:1022630000030003000300030003420300032403ED
:1022730006030003000304031203250323032503BA
:1022830023030403040300030003000344030003C4
:1022930000032303000365032100350381030003C7
:1022A3000503000300030003030071003001600015
:1022B30011007000310220035004800010006100FF
:1022C300000014006300730072006200430000000A
:1022D30013000600000000000400120000000000CC
:1022E3000000000004000400370037003C024400F3
:1022F30000000000000000006500000035008100C0
:102303000000050000008300000036000100060005
:1023130000000F00000000000000000000000000AB
:1023230003FFFF00000403FFFF0000FFFF0FF401A2
:102333000005C4040320000100000B00000000009E
:1023430000000003010F0000E719130063190100E7
:10235300E71902001B1903002119040027190500BE
:102363002D19060039191100571914005D191500AC
:102373004B19FFFF0000019B0E06CB0E08C50E0B89
:10238300D70E10230E02A10E05B90E07A70E0C835C
:102393000E0D8F0EFF000003000300040008001061
:1023A300001F003E007B00F600EC01D703AF075D82
:1023B3000FB91E713D0000BB12EB12C112C712E52B
:1023C30012D912D312F112F712FD120913CD12B55D
:1023D30012AF1203EAF5E5D5D5C5B5A59595858563
:1023E3007575656555554545353525251515059C83
:1023F30036063A703DD9404344AD47174B814EEA08
:102403005100160F00000B150B020002220F3200C1
:102413000006000102030405060708090A0B0C0D58
:102423000E0FA513B713BD138512C3137F128B129F
:10243300171435143B141D1429142314BF11B91197
:10244300F511FB11EF11A711303017181921301BAB
:102453001D1F3000034948424D1817250502003857
:102463003C3E363B3B352B432C303016181920238A
:102473001A1C1E300C0E020B040B0A0708000F0077
:1024830001191618161615230300DF1203132F1450
:102493000F1315130B14C913CF13DB13D513CB1160
:1024A300D111C51101120005150D09100804000012
:1024B30000000000D711E91100BE040A0E00150048
:1024C3000400010309280C05100C0A090004000C80
:1024D300040F10080874F612036874FF1208EDE481
:1024E300851882851983F085820885830978081207
:1024F30008487508017509007808120848123D2D2F
:1025030012085B740102445A74F61203688C088D36
:1025130009780812084875080B750900780812082D
:1025230048123D2D02445A74F61203688C088D0933
:10253300780812084875080B7509007808120848CE
:10254300123D38123C2302445AC082C0838A828BD4
:1025530083E0D2E7F01218850244A5C082C08379D4
:1025630000124E57900332125688C3EA9CEB9D50DB
:1025730006122CE26001090244A574F7120368EA0B
:1025830012553EEB1258E11227DBAEF075F00BED5E
:10259300A42EFD900334E02CFEA3E03DFFEA2403C8
:1025A300FCEB3400FD740169600574026970278ACD
:1025B300828B83A3124E618E828F83A312419C74FC
:1025C3000269701DECFAEDFB120B4DE97013E48EFA
:1025D300828F83F0800BEE2403FAEF3400FB120B9F
:1025E30047EEFAEFFB120B0B02379874F2120368F3
:1025F3008A088B09EA240BF50CEB125B4679008AF7
:10260300828B83E0606F890A890B805EE50A75F02F
:102613000BA4FAACF075F00BE50B122A747048AEFC
:1026230082AF838508828509831265BF122B2EA38F
:102633001258E712442AE5082403FCE5093400FD97
:10264300EE24030A0A0AEF3400FB120B47850C82BF
:10265300850D83E50AF0A3E50B1249A0120B0B7954
:1026630001900332125DE912267B122A6CE50A9A65
:10267300E50B9B4097024107E50A2401F50AE50BA8
:102683003400F50B2274F1120368EAFEEBFF740FBA
:10269300120ABF123D25750E01850882F583A385B5
:1026A300820C85830DEE240BF8EF3400F9EC7001F6
:1026B300ED6030EC12553EED1241927901EEFAEFE6
:1026C300FB120B17E5087002E50970030227538517
:1026D3000C82850D83125B4B7902AA08AB09120B9E
:1026E30017806DEE2403F50AEF122683E5087002C6
:1026F300E509603312553CE509124192E5082403CC
:10270300FAE5093400122A64700CEEFAEFFB120B9F
:102713001DE9F50E80B9AA0AAB0B122A657031794F
:1027230003EEFAEFFB80B78E828F83A3E064FE7023
:1027330004A3E064FF700A0A0A0AAB0B122A65704D
:102743000CEEFAEFFB120B1DE9F50E8003750E007C
:10275300A90E7F0702057974F712036890033212FA
:10276300419CEA7001EB6031EA75F00BA4FAACF01E
:1027730075F00BEBA42CFBEAFEEBFF1216E19003C2
:102783003412419C900334E07002A3E06012EEFC2B
:10279300EFFD79001216458007900334E4F0A3F0AF
:1027A30002379874F61203687508007509007808F3
:1027B3001208489003321227DBAAF075F00BEDA440
:1027C3002AFD7A237B00121747740212085BE9FE85
:1027D3006003120B35023AB3125910EC75F00BA4D7
:1027E300FC2274F71203687E007F00800AEEFAEF82
:1027F300FB120AF912399E12284040F102379874ED
:10280300F71203687E007F008016EEF8EFF91228B6
:102813002BFCA3E039FDEEFAEFFB120B0512399EF8
:1028230012284040E5023798E875F00BA4F8AAF0A7
:1028330075F00BE9A42AF9900334E02822900332BF
:102843001247D9C3EE98EF992274F71203687E00FA
:102853007F008028EEF8EFF9E875F00BA4F8AAF0F2
:1028630075F00BE9122B29A2E7500EC2E7F0AC82F8
:10287300AD83EEFAEFFB120AFF12399E1228404095
:10288300D3023798C082C083EC7001ED6005121E3D
:10289300BB80097C087D0079001216450244A574AB
:1028A300F61203687900EA7001EB60147C008C086F
:1028B30012609A600479017C080CECC3940840EE22
:1028C30002445D74F712036874F31208EDECFEED35
:1028D300FFE4851882851983F07401120ABF123D43
:1028E30076120B6B7403120ABFAC82AD83EEFAEF60
:1028F300FB120B47EEFAEFFB120B4D02379374F703
:1029030012036874F31208EDECFEEDFFE485188200
:10291300851983F0EAFCEBFD7403120ABF123DAB89
:102923007401120ABF1258E712442B74FE68700335
:1029330074FF69600479018002790002379374F7A8
:10294300120368EAFEEBFF12298F701012299A64B2
:10295300FFFC8A828B83E05CF0120B0B02406374F2
:10296300F7120368EAFEEBFF7508008E828F83E09F
:10297300601712298F701212299AFC8A828B83E0C6
:102983005C7006E04CF0120B0B024063120B11E972
:10299300F5087401650822EE1243681247D912281C
:1029A3002BFAA3E039FB8E828F83E02274F01203AB
:1029B300688A088B09EA2403FEEB3400FF7C007D60
:1029C300000A0A0AFB120B47E508240BF50CE5097C
:1029D300125B467900850882850983A385820A856F
:1029E300830BE064FE7004A3E064FF6065890889DB
:1029F300098054E50875F00BA4FAACF075F00BE50B
:102A030009122A74603E850A82850B8312679EA38E
:102A1300E06C7003A3E06D702BEA2403F50EEB3436
:102A230000F50F122A61700BAC0EAD0FEEFAEFFB3F
:102A3300120B47850C82850D83125A1B7901900373
:102A430032123D25124431122A6CE5089AE5099B9E
:102A530040A18005740D12085B7F080205790A0AFC
:102A63000AFB120B4DE9640122900332124E6BC331
:102A730022A42CFB900334E02AFAA3E03BFB8A82D6
:102A83008B83E0540F2274EF1203688A828B83A333
:102A930085820E85830F125B4BEA240BF508EB123C
:102AA3004439850882125B49751000EA2403F50C4A
:102AB300EB3400F50D122A617065750A00750B0081
:102AC3008055E50A75F00BA4F8AAF075F00BE50B39
:102AD300122B29540F603DAE82AF83EE2403FCEF2B
:102AE3003400FDAA0CAB0D121EB5E9640170258EEE
:102AF300828F83A3124378850E82850F83E8F0A328
:102B0300E9122B2EE50AF0A3E50BF07510019003F3
:102B130032125DE912267B900332123C1640A3A9C0
:102B2300107F09020579122BB8E022122B3222F012
:102B33008508828509832274F3120368EAFEEBFF9A
:102B43008E828F83A385820A85830B125B4BEE24CF
:102B530003F508EF1244397C007D000A0A0AFB12D0
:102B63000B47EEFAEFFB120B11E9F50C7401650C40
:102B7300703EEE12553EEF122BC275F00BA4F8AA6D
:102B8300F075F00BE9122BB8A3124E61850A82850A
:102B93000B8312419CE82403FEE93400FFEEFAEFB5
:102BA300122A64700BEEFCEFFDAA08AB09120B4767
:102BB300A90C023835122837F8A3E039024D7212F6
:102BC300436D1247D9E82274EE12036874E61208C3
:102BD300EDEAFEEBFFEE240BF50AEF122683850ADE
:102BE30082125B49750E01750800750900751000A6
:102BF300751100E4851882851983F0EE2403FCEF38
:102C03003400FD7403120ABFAA82AB83120B478EF2
:102C1300828F83A385820C85830D85188285198312
:102C2300AA82AB83120B71E964017034740B120A2C
:102C3300BF124378850A82850B8312442B740112D9
:102C43000ABF124378850C82850D83E0687003A365
:102C5300E069605585188285198385820885830913
:102C6300740D120ABFE4125A0CF8A3E0F9740E12A1
:102C73000ABF12442B740D120ABFAA82AB83120B34
:102C83006BE96401700B740D120ABF858210858392
:102C9300117810120848AC08AD09EEFAEFFB120BDD
:102CA30023740212085BE9F50EEEFAEFFB120B65D3
:102CB300A90E741A0256DDC082C0837800790080A1
:102CC300031235C9122A6CE89AE99B500DE8FAE918
:102CD300FB122CE270EB7900800279010244A5EA31
:102CE30075F00BA4FAACF075F00BEBA42CFB90037E
:102CF30034126926F583E0540F22C082C0839024E6
:102D0300C1123733EC75F012A4FCAAF075F012ED82
:102D1300A42AFD79FF7A8F7B151216450244A57408
:102D2300F61203687E007F007C007D0080348C08EF
:102D33008D09E50875F012A4F508ABF075F012E5FE
:102D430009A42BF509E5082493F582E5093415F563
:102D530083E0FBC3994008EAC39B400312399E12E8
:102D630033C41231FFC3EC9508ED950940C0EEFA68
:102D7300EFFB02445DC082C08378007900800312B8
:102D830035C99024C1123913500912314064FF70C0
:102D9300EE80047A007B000244A574F01203687489
:102DA300F31208ED8A0A8B0BECFEEDFF890CEE7033
:102DB30001EF6011EEFAEFFB120BBF8A088B09EAF1
:102DC3007001EB7050120B958A088B09EA7001EBC6
:102DD30060437401851882851983F0120ABFE50ADE
:102DE300F0A3E50BF0EEFCEFFD7403120ABF122F04
:102DF3002F740B120ABF124378124423E48508820E
:102E0300850983A3A3A3A3A3A3125908AA0AAB0BFF
:102E13001210FF800BE5087002E5097003022EA76C
:102E23007A00E50C6007C3940550027A0485088292
:102E3300850983125A3AA3A3A3E50CF0EA85088215
:102E4300850983A3A3A3A3A3F0740285088285093C
:102E530083A3A3A3A3A3A3A3A3F0740185088285DB
:102E63000983A3A3A3A3A3A3A3A3122EBBA3A3A3D7
:102E7300F0E5082410F582E5091258E1E4F0122E7A
:102E8300BBF012553CE5091258E1E4F0908749780C
:102E93000C120A80E508240CF582E5091258E17842
:102EA3000C120A711230A14005E4901AEAF0120FD5
:102EB300D9AA08AB09022A57A31243870258FA7406
:102EC300F212036874F31208ED8A088B09ECFEED25
:102ED300FF750A00EEFAEFFB120BBF8A0C8B0DA8ED
:102EE3000CA90DE87001E9603E88828983E06508DA
:102EF3007004A3E06509602F88828983A3A3A3A339
:102F0300E0C394055021125A17740185188285195C
:102F130083F0120ABF125A1BEEFCEFFD7403120A70
:102F2300BF122F2F750A01A90A024102123DB212E4
:102F33000B7D2274F6120368122F9A7002E58360E8
:102F430010A3A3A3A3E06009C394055004790180EF
:102F530002790002445D74F6120368122F9A70021C
:102F6300E5836010A3A3A3A3E06009C39403500403
:102F730079018002790002445D74F6120368122F0E
:102F83009A7002E583600BA3A3A3A3E07004790105
:102F93008002790002445D120BB98A828B83E58239
:102FA30022C082C083EAFCEBFD7A007B00120BC5D2
:102FB3000244A5C082C0837C007D0080F074F212BD
:102FC300036874F31208ED8A0C8B0D8C0A8D0B7E4B
:102FD300007F0080211234AE120ABF123038601312
:102FE3007403120ABFAC82AD83AA0CAB0D121EB5DB
:102FF300E9703512399E9024C11239AE5030123324
:103003007860F0E50C7002E50D70CA74FF650A7014
:103013000474FF650B60DC850882850983E0650A1B
:103023007004A3E0650B70CBAA08AB0980047A0097
:103033007B00024102E8F0A3E9123DD6120B77E9C7
:103043002274F412036874F31208ED750800120B6E
:10305300BF8A0A8B0BAE0AAF0BEE7001EF602A74C6
:10306300018518828519831243B0F8A3E0F9740B24
:10307300120ABF123DCE120B5F7C127D0079FFEE68
:10308300FAEFFB1216457508011230A150097401BD
:10309300901AEAF0120FD9A908740D0244E67A04D3
:1030A3007900120B8F9024C11239B4EA98EB99225C
:1030B30074F7120368E9FE74FE6A700374FF6B7899
:1030C3000079007005804D1235C99024C11235BCBA
:1030D3005042E8FCE9FDEC75F012A4FCAFF075F08A
:1030E30012EDA42FFDEC248FFCED3415FD8C828DA5
:1030F30083A3A3A3A3E064FF60CD8C828D83E06AE6
:103103007003A3E06B70C08008EC6005C3940540B6
:103113001C1235C99024C1123913501A123140FCC4
:10312300EE70E674016C600574036C70E48A828B44
:1031330083124E6180047AFE7BFF023798E8FAE936
:10314300FBEA75F012A4FAACF075F012EBA42C12A2
:1031530033E322120BD10244A5C082C083790180DC
:10316300F274F01203688A0A8B0B7A047901120B4A
:103173008F8A0CEA7001EB6040EAC333FAEB33FB4E
:103183001216E18A088B09AE08AF09EE7001EF60F1
:10319300237AFE7BFF120BD774FE6A700374FF6BF6
:1031A300601B85088285098312419CE5082402126D
:1031B300443580E1750C0080047E007F00850A821F
:1031C300850B83E50C1249A0022A5C74F61203688E
:1031D30075080075090078081208481231FF740356
:1031E30078081209A212336C7B001217477402127B
:1031F300085BE9FE6003120BE9023AB39024C112A3
:10320300320622E493F508740193F5092274F61249
:10321300036874FE1208ED123AE602443E74F41297
:10322300036874DF1208ED7E008518828519838593
:10323300820885830978081208487508028E097880
:10324300081208487C007D00123C2112085BE960EB
:10325300030232F61232FD124372C3EA98EB99501D
:10326300030232F68077740F120ABF8582088583C2
:1032730009780812084875080875090078081208C3
:10328300487403780A1209A27402250AFCE4350B78
:10329300FD123C2112085BE970427402120ABF74EA
:1032A30001F07411120ABF124378740D120ABF128F
:1032B300442B7402120ABFAA82AB83120B77E96014
:1032C3001B7413120ABFE0F97405120ABFAC82AD76
:1032D30083740F120ABF124E61120B9B0E8E8285EE
:1032E300820A750B00124372C3E50A98E4995003EE
:1032F300023269EEF974210244E69024C1E493FAA0
:10330300740193FB2274F612036874FE1208ED85B0
:103313001882851983E4F0A3F0FE803312337860BA
:103323002B780812084875080875090078081208F0
:10333300487404120ABF123D25740378081209A2C7
:1033430012336C123D3012085B123D151239A3FF84
:103353009024C11239AE40C48518828519838582B1
:1033630008858309780802443E74022508FCE43585
:1033730009FD7A2222EEF8EFF9E875F012A4F8AA13
:10338300F075F012E9123493A3A3A3A3E064FF2220
:1033930074F71203687C007D008004191233C41291
:1033A30033BB500D1233CDC3940550F0E970EC805C
:1033B300047A007B000237981232FDC3EC9AED9B2E
:1033C30022EC24010CED3400FD22ECFAEDFBEA754E
:1033D300F012A4FAAEF075F012EBA42E1233E3222E
:1033E300FBEA248FFAEB3415FB8A828B8302629704
:1033F30074F312036874F31208ED750A00750B0079
:103403008052E50C1258CE8E828F83125A93E06855
:103413007003A3E06960257401120ABFE0687003BA
:10342300A3E0696017EE2402FCEF3400FD7403127D
:103433000ABFAA82AB83121EB5E96007EEFAEFFB5F
:1034430012110B050C9024CBE493FAE50CC39A40BC
:10345300B112267B1234A6E50A98E50B99502CE5A8
:103463000A75F012A4F8AAF075F012E50B12349362
:10347300E064FF7004A3E064FF60D61234AE120A66
:10348300BF12303860CB750C0080BA740D0238322D
:10349300A42AF9E8248FF508E93415F5098508828B
:1034A300F583229024C1E41239B522740185188270
:1034B3008519831243871247D9740B2274F61203BA
:1034C30068123AB8123733EC8508F0A4CCAAF08519
:1034D30009F0A42AFA8508F0EDA42AFD79FF7AA65B
:1034E3007B1A1216459003377419F0A3740CF090ED
:1034F30003397413F0A3740CF090033B743DF0A3F1
:10350300740CF090033D744FF0A3740CF090033FE0
:103513007455F0A3740CF0900341745BF0A3740C26
:10352300F09003437461F0A3740CF0E4900336F05D
:1035330002445DC082C0837800790080031235C9DC
:103543001239105024E8FAE9FBEA75F00EA4FAAC3C
:10355300F075F00EEBA42CFBEA24A6F582EB123FE8
:10356300C570DAAA82AB8380047A007B000244A58B
:1035730074F71203687A007B0078007900802FE8E3
:10358300FCE9FDEC75F00EA4FCAEF075F00EEDA4B5
:103593002EFDEC24A6F582ED123FC5600EA3A3A376
:1035A300A3A3E0FCEA2CFAEB3400FB1235C9902408
:1035B300C31235BC40C9023798E493FC740193FDF0
:1035C300C3E89CE99D22E8240108E93400F9227448
:1035D300EC12036889108A088B098C0D8D0C741406
:1035E300120ABF125DE97E007F00120C79AA08ABB4
:1035F30009120C7F8A0E8B0F850882850983A3A38A
:10360300A3A3A3A3A3A3E0640170077508018E0914
:1036130080058E08850D0974FE650E700474FF65C0
:103623000F70030237168E0D8002050D850D129063
:1036330024C31265E05071E50D75F00EA424A6FEB7
:10364300E5F0123A71651070E1A3E0650870DB8E56
:10365300828F83A3A3E0650E7004A3E0650F70CA95
:103663008E828F83A3A3A3A3E0650970BD750D00AC
:10367300E50DC3950C4003023716E50DC333F8E49B
:1036830033F9E50A28F508E50B39F50985088212AF
:1036930063E0120C25E9700C8508828509831263A7
:1036A300E2120C31050D80C8120C0D8A128B13AE79
:1036B30012AF13EE7001EF605A8E828F83E510F024
:1036C300A3E508124414A3E50EF0A3E50F12441476
:1036D300A3A3A3E509F09024D3E493C3950C50046A
:1036E300E493F50C8E828F83A3A3A3A3A3E50CF02D
:1036F300850A08850B09750A007808120844E50C49
:10370300C333FCE433FDEE2406FAEF3400125A33DC
:1037130012085BEEFAEFFB7F0C020579C082C083CF
:1037230012373079FF12164579010244A59024BF60
:10373300E493FC740193FD2274F7120368EA7001A9
:10374300EB60498A828B83A3A3A3A3A3A3E582701F
:1037530002E58360377E0080010E8A828B83A3A3F8
:10376300A3A3A3E0FFEEC39F5022EEC333F8E433D9
:10377300F9EA28F582EB39F583A3A3A3A3A3A3E076
:103783006C7003A3E06D70D179018002790080052C
:10379300740D12085B7F0102057974F3120368EA62
:1037A3002405F8EB3400F9E8FEE9FFEA7001EB6069
:1037B3006F8E828F83E06073EA240608EB3400F98E
:1037C300E0F50B750A00800B8E828F83E014F060A6
:1037D3005A050AE50AC3950B5046E50AC333F508B3
:1037E300E433F509EA2508F508EB3509F50974060C
:1037F3002508F508E43509F509850882F583E06CA9
:103803007003A3E06D60C1850882850983E0F50834
:10381300A3E0125A15E824020808E93400F980B13C
:103823008E828F83E0600479018002790080031225
:10383300085B7F0502057974F7120368EA7001EBF0
:10384300603712678CC0E09024D3E493FED0E0C3CA
:103853009E502688828983E0C333FEE433FFEA2E39
:10386300F582EB3FF583A3A3A3A3A3A3ECF0A3EDFE
:1038730012629D04F079018002790002379874F294
:1038830012036889088C091239BD7005125DE58041
:103893000312399674FE650A700474FF650B700693
:1038A3007A007B0080647800790080187401650CCD
:1038B300700F8C828D83E0650A7004A3E0650B6052
:1038C300491235C912391050D7123D5A8A828B8357
:1038D300E0650870ECA3E0F50CEA2402FCEB34008D
:1038E300FD8E828F83E0640160C2E50C70D38C820D
:1038F3008D83E0650A7004A3E0650B70C48A828B34
:1039030083A3A3A3A3E0650970B70241079024C36F
:10391300123300C3E89AE99B2274F2120368EA2483
:1039230008F8EB1243A764017005125DE5800312EA
:10393300399674FE650A700474FF650B60527E004D
:103943007F008047EEF8EFF9E875F00EA4F8AAF0CF
:1039530075F00EE9A42AF9E824A6FAE9341AFB85DE
:103963000882850983E06401701B8A828B83A3E04C
:10397300640170148A828B83A3A3E0650A7004A395
:10398300E0650B7003120C1F12399E1239AB40B461
:10399300024107120C678A0A8B0B221239A3FF22FA
:1039A300EE24010EEF3400229024C31239B402280E
:1039B30047E493F8740193F9C322EA2408F8EB125D
:1039C3005B32E064012274F3120368890C8A0A8B68
:1039D3000B7508007509007E007F00801B123CF206
:1039E300650C7011AC0AAD0BAA82AB83120C25E9EE
:1039F300600312443112399E1239AB40E0AA08AB7E
:103A03000902383574F1120368890D8A0A8B0B8C0D
:103A13000E750C007508007509008005050C12442D
:103A2300319024C31234A9E50898E509995038E583
:103A33000875F00EA4F8AAF075F00EE509A42AF9AA
:103A4300E824A6FEE9123A71650D70D2AC0AAD0BFB
:103A5300EEFAEFFB120C25E960C4E50CC3950E40AA
:103A6300BBEEFAEFFB80047A007B00022755341A81
:103A7300FF0229A974F61203687508007509007816
:103A830008120848123AB8123CCFE9A42AF9758300
:103A9300247582BFE49328FCA3E49339FD7A417B28
:103AA30000121747740212085BE9FE6003120C55FB
:103AB300EEF902445D9024BF1232069024C32274AF
:103AC300F612036874FE1208ED123AE612084875FE
:103AD300080275090078081208487C007D007A41C5
:103AE300024452851882851983E4F0A3123D4E8562
:103AF300820885830978082274F412036874E71234
:103B030008ED7E007F0085188285198385820885EC
:103B1300830978081208487508028E097808120884
:103B2300487C007D007A41123C2312085BE9600364
:103B3300023C058E0A8E0B80587402120ABFAC82B7
:103B4300AD83740D120ABF124E61120C6D740A120A
:103B53000ABFE060397411120ABF858208858309A0
:103B630078081208487412120ABFE0FD7411120A91
:103B7300BFE0FC7404120ABFAA82AB83740D120A5D
:103B8300BFE0F9120C19740212085B12399E122657
:103B93007B851882851983123C165066740B120AB2
:103BA300BF85820885830978081208489024BF12CC
:103BB30006DC9024BF123C0EE8850AF0A4C8AAF0E4
:103BC300850BF0A42AFA850AF0123CE4123C231276
:103BD300085BE970B9740A120ABFE4F0740C120AA4
:103BE300BFE07003023B3C740A120ABF7401F07415
:103BF3000D120ABF1243787402120ABF12442B0239
:103C03003B58EEFAEFFB74190244E6E493F87401AF
:103C130093F9221247D9C3E50A98E50B99227A2230
:103C23007B0012175974042274F512036874F0129E
:103C330008ED851882851983E4F0A3F0FE805A12FB
:103C43003CF264FF6050858208858309750A007819
:103C5300081208441237307405120ABFAA82AB83D4
:103C6300125A3412085B7402120ABF8582088583D4
:103C73000978081208489024BF1206DC7404120A5B
:103C8300BF123D259024BF123CCF123CE4123D30BD
:103C930012085B123D151239A3FF1239AB40A08500
:103CA3001882851983858208858309780812084854
:103CB30075080275090078081208487C007D007AAF
:103CC30041123D3012085B7410023FA1123C0EE812
:103CD3008508F0A4C8AAF08509F0A42AFA8508F09B
:103CE30022E9A42AF9740228FCE439FD7A4122125C
:103CF3003CF7E022EEF8EFF9E875F00EA4F8AAF02D
:103D030075F00EE9A42AF9E824A6F582E9341AF538
:103D13008322851882851983E02401F0A3E034000F
:103D2300F022E0F508A3E0F50922123D387B0012EA
:103D33001753740422EA75F00BA4FAACF075F00B78
:103D4300EBA42CFBEAFCEBFD7A2322123D5222F07A
:103D530085188285198322E8FAE9FBEA75F00EA437
:103D6300FAACF075F00EEBA42CFBEA24A6FAEB34C4
:103D73001AFB22EAF0A3EB123DD622C082C0837461
:103D8300F31208ED123F3F6402700E123DC4120A93
:103D9300BF123DCE120B6B800CEAFCEBFD740312D9
:103DA3000ABF123DAB02449A123DB2120B7122AA12
:103DB30082AB83120B47851882851983AA82AB8352
:103DC300228A828B831247D9740122E8F0A3E91275
:103DD3003DD622123DDA22123D5280E074F71203DF
:103DE3006874F31208EDECFEEDFF74048518828508
:103DF3001983F0740B120ABFEAF0A3EB12303CF5FF
:103E030008601D74038E828F83A3A3A3A3A3A3A31C
:103E1300A3F0120ABFAC82AD83EEFAEFFB121EBB16
:103E2300A908023793C082C08374F31208ED7404A7
:103E3300851882851983F0740B120ABF123D76121E
:103E43000B77740102449C124E6B740D2274F612AC
:103E5300036874F31208ED900336E0706E74048502
:103E63001882851983F0900375123DC8120ABF1298
:103E7300442B120F9DEAFCEBFD7403120ABF122FB1
:103E83002F120FA98A088B09A808A9097401120A1D
:103E9300BFE0687003A3E069602B74FE687003746D
:103EA300FF6960217401120ABF12442B7403120AC2
:103EB300BFAA82AB83120FAF851882851983AA82AA
:103EC300AB83120B7D7401900336F0740D02445AD8
:103ED300C082C08374F31208ED123F3FFC74026C7E
:103EE300701E123DC4120ABFE8F0A3E912574870CE
:103EF30048851882851983AA82AB83120B7D80398A
:103F030074036C7011EAFCEBFD7403120ABF123DDB
:103F1300ABE9702580DB74016C70128A828B83128B
:103F23004378740B120ABFE8F0A3E9800B740B12F9
:103F33000ABF74FEF0A374FFF002449A7404851858
:103F430082851983F08A828B83A3A3A3A30262973A
:103F530074F512036878007900880888097C007D6D
:103F63000080031233C49024C3E493FE740193FFCF
:103F7300C3EC9EED9F5021ECFEED123FA960E4AE31
:103F830008AF0974012EF508E43FF509EA6E7002E3
:103F9300EB6F70CFA882A983E8FAE9FB80031208CC
:103FA3005B7F03020579FFEE75F00EA4FE85F00A30
:103FB30075F00EEFA4250AFFEE24A6F582EF123F5B
:103FC300C522341AF583E064FF22C082C0839003C4
:103FD3004A74B3F0A3740EF090034C74ADF0A37461
:103FE3000EF090035074E5F0A3740CF00244A57432
:103FF300F7120368EAFEEBFF900384E0FA74086AA1
:10400300601974046A60148E828F83E064017046C1
:10401300124363124F7FE06406703B8E828F83A34B
:10402300A312437874FE68700374FF6960289003D9
:1040330075E0687003A3E069700BEE2415F582EF59
:104043001260A0600AEEFA120F61E9F508800AEE29
:10405300FA120F6780F47508C2EEFAEFFB1216E747
:10406300A90802379874F21203688A088B098A82B6
:104073008B83A385820A85830B8A828B83E0F885F1
:104083000A82850B83E028FAE43400FB1216E18AE6
:104093000C8B0DAE0CAF0DEE7001EF605C850882EA
:1040A300850983E0FC7D0079001216458E828F839B
:1040B300A3A3125B4B120FA38E828F83A3A3A3A38D
:1040C30012419C850882850983E0F8EE28F8EF34D5
:1040D30000F91243631247BCC0E01258DBD0E0F092
:1040E300120FB5EE240E1258DEE9124383E0C0E04E
:1040F300EE24111258DED0E0F0EEFAEFFB800574E7
:104103000D12085B7F0602057974F412036874EBE1
:104113001208EDEAFEEBFF900346E07002A3E070A5
:10412300677A077B001216E190034612419C9003C5
:1041330046E07002A3E0604C9003461256888F83DA
:104143008E8274071207A78E828F837808120A80E3
:104153008518828519837808120A718E828F83A34A
:10416300A3A3A3E0C0E07405120ABFD0E0126294D7
:10417300C0E07404120ABFD0E0F07407120ABF1241
:1041830042DC800679108002790174150244E6123C
:10419300436D124E6B88828983EAF0A3EBF022C051
:1041A30082C083900346E07002A3E0601090034650
:1041B300124E611216E7900346E4F0A3F0120ED1FB
:1041C3001210AB0244A574F312036874EB1208EDEA
:1041D300ECFEEDFF7422120ABF7808120A807426DF
:1041E300120ABFE0FC7427120ABFE0FD7428120A0A
:1041F300BFE0F50C740F6C7005740F6D6012901BAB
:1042030063E06402700579C10242D7ECC39D40F6B6
:104213009003857808120A71E990038BF0EC900300
:1042230089F0ED90038AF0E50C90038CF074FF6A3B
:10423300700374FF6B701F901B70E064FF7004A326
:10424300E064FF7005121657800C901B7012437CBC
:10425300E8F0A3E98007900382EAF0A3EBF0EE70A5
:1042630001EF6017EEFAEFFB12116BE96401700BBB
:10427300EEFCEFFD7A967B03121EBB900375E4F010
:10428300A3F0900378F0A3F0900395F0901B63E004
:104293006402700A740F900389F090038AF0740526
:1042A300900384F07404120ABFE4F0900385780845
:1042B300120A808518828519837808120A7190037F
:1042C3008BE0C0E07405120ABFD0E0F07407120A55
:1042D300BF1242DC7415023832E41242E122123D6D
:1042E300DA121EE522E0F912178F22C082C08390F2
:1042F3000345E07003121951120CB50244A5C082A4
:10430300C083900345E07007E4901AE9F0803174AC
:1043130001901AE9F0900345E064FF60237C41E0DB
:10432300C394415002E0FCECFAE0C39AF0EC75F060
:10433300E8A4CCAAF075F003A42AFD7A8012434FB7
:104343007AE97B1A7941121ED30244A57B009003BC
:10435300D0E0F912178322F582EF12436D74012224
:10436300EE12436822240BF582EF3400F583228595
:1043730018828519831247D9221247D990038222C2
:1043830012438722F0850882850983A3A322F8A319
:10439300E0F922C082C083EB90038CF0120EBF02BF
:1043A30044A5F8EF1245D28882F583E0221244181F
:1043B300A3E02274F712036874F81208EDEAFEEB27
:1043C300FF7900900384E0640870418518828519A1
:1043D3008374FD125B4D120F9D7402120ABF1241CA
:1043E3009C7405120ABFE4124414E0C0E074041282
:1043F3000ABFD0E012441FC0E07406120ABFD0E027
:10440300F07407120ABF1247CD120FF77408023770
:104413009512441822F08E828F83A322F00229A9D9
:10442300850882850983A3A3E8F0A3E9F022E508C0
:104433002401F508E5093400F50922120848750836
:104443000275090078081208487C007D007A221260
:104453003D3012085B740212085B7F02020579C0CB
:1044630082C083900356746FF0A3740DF09003FC25
:104473007451F0A37410F090035A749FF0A3740D59
:10448300F090035C746FF0A3740DF090035E74A559
:10449300F0A3740DF0800B740B120ABF123E4A1284
:1044A300085BD083D08202054574F412036874F963
:1044B3001208ED8A088B098C0A8D0B8518828519E1
:1044C300837808120A717404120ABFE9F0740512A2
:1044D3000ABFE4F07406120ABF1247CD120C9D7492
:1044E30007800012085B7F0402057974F0120368E9
:1044F3008A828B83125C3DEE7001EF70030245CF1D
:10450300EA2402F8EB1245D2900312E07002A3E012
:10451300601388828983E0F9EEFAEFFB90031212AD
:104523004F7F122091EE2406F8EF3400F9880A89B0
:104533000BEE2409080808EF3400F9880C890D886C
:1045430082F583E06402704B850A82850B83E05415
:10455300026052850882850983E064E96047EE249E
:104563000A08EF126791700A901B65E0048882893C
:1045730083F0E014F07404850C82850D83F0901BA6
:10458300661258F5E8F0A3E91267A67001EB700311
:10459300126279850C82850D83E0FA74026A6005E4
:1045A30074066A7027850A82850B83E0A2E0501C9B
:1045B300850882850983E0F9EEFAEFFB121F7B85FC
:1045C3000A82850B83E054FEF0A3E0F0022A5C34F8
:1045D30000F9880889092274EC12036874DD120853
:1045E300EDEAFEEBFF8C128D137437120ABF780CC1
:1045F300120A807510007405120ABFAC82AD8312D3
:104603000AD5EE240BF508EF1244397405120ABFDC
:10461300E0A2E55019751001AC82AD83850882854F
:104623000983124E61121F87E960030247757405FF
:10463300120ABFE0A2E650227406120ABFE0540336
:1046430070187405120ABFE0540CFA740C6A600AFD
:1046530074086A60057511018003751100740512F1
:104663000ABFE05403FA74026A7013AC82AD838507
:104673000882850983124E61120AE7024775EE2408
:1046830006F50AEF12268374016A7037E511600399
:104693001247AB7405120ABFA882A9837403120AD6
:1046A300BFE8F0A3E91247D2851882851983124720
:1046B300BCC0E07402120ABFD0E01247CE122065DC
:1046C300024775EA600302477590036CE06401706A
:1046D3000C850A82850B83E07003024775742212EE
:1046E3000ABF74021247D2741A120ABF12442BE58E
:1046F3001160087405120ABF1247AB7405120ABF92
:10470300E0540C64047073EE240FF582EF1260A082
:10471300C0E07417120ABFD0E0F0900314E07002F7
:10472300A3E0604E120FA38A088B09A808A9097495
:104733001A120ABFE0687003A3E0697035780C129F
:104743000840E510F508780812084C78121208485A
:10475300A911740C120ABFAC82AD837421120ABF73
:10476300AA82AB83900314124F7F12209174071215
:10477300085B742312085B02371A780C120840781E
:10478300121208489003821206AFA9107422120A6B
:10479300BFAC82AD83740D120ABFAA82AB83121F12
:1047A3006F740812085B80CAAC82AD83850882856A
:1047B3000983124E6B120ADB22E8F0A3E91247C405
:1047C30022F0850A82850B83E022E4123DD6221271
:1047D3002B321247D922E0024391C082C0831218C0
:1047E300430244A5C082C0831218490244A5C08273
:1047F300C08312184F0244A5C082C0831218550209
:1048030044A574F71203687409120ABFE0F5087827
:104813000812084C1218617401023795C082C083D4
:1048230012186D0244A5C082C0831218730244A5F6
:10483300C082C0831218790244A574F7120368EA90
:10484300FEEBFF74016970107900120DE17C1E7993
:1048530000EEFAEFFB120D5D02379874F412036851
:1048630074F91208ED8A088B098C0A8D0B741312E4
:104873000ABF124E6190121BE07002A3E06027E9A9
:10488300851882851983F07401120ABF7808120A09
:1048930071EAF8EBF97405120ABF123DCE90121BB0
:1048A300124F7F1220910244E2C082C0831218A9E2
:1048B3000244A574F7120368901AECE0F97F0080B4
:1048C3000B124AF3540D64017001190F124AB050D0
:1048D30003E970ED02379874F7120368901AEDE05C
:1048E300F97F00800B124AF3548D64817001190F14
:1048F300124AB05003E970ED02379874F31203685B
:10490300890CE975F006A4F8A9F0740C28F508E4FD
:1049130039F509EA2508FAE43509FB1216E18A0A92
:104923008B0BAE0AAF0BEE7001EF6025AC08AD093F
:104933007900121645124363E50CF0EE2508F8EFF3
:104943003509F98E828F83A3A3A3A3A3A3A3124440
:1049530029EEFAEFFB02383574F6120368EAFEEB30
:10496300FF120D39901AEBE0FAE9C39A400990035C
:1049730052124E61120D3FEE2402F8EF1245D2900F
:104983000354E088828983F0900354E0041249A021
:10499300120D45850882850983E0023AB4F0EEFAE8
:1049A300EFFB22C082C08379009003528001091279
:1049B3004E618A828B83E5827002E58370F0024444
:1049C300A574F7120368EAFEEBFFEE7001EF605E79
:1049D300900352E07002A3E060549003521252120B
:1049E3007A007B00800FAA82AB83125212E5827099
:1049F30002E5836039EE65827003EF658370E78EAD
:104A0300828F83124378900352125688EE6C7002A1
:104A1300EF6D700590035280048A828B8312442BBE
:104A2300EEFAEFFB122035EEFAEFFB1216E7023730
:104A330098C082C083900352E0F8A3E08003ECF8AF
:104A4300EDF9E87001E96009125684EC7001ED702C
:104A5300ED8A828B83E4F0A3F0E87001E9600688B5
:104A6300828983800390035212419C0244A574F708
:104A730012036890035280048A828B83125B417015
:104A830001EB60227F0080010F124AB050EAEF75FC
:104A9300F006A4FCADF0EA2CFCEB3DFD7410124BC8
:104AA300076970E480047A007B00023798124B1484
:104AB300FCEFC39C2274F71203687800800108128C
:104AC3004B10FDE8C39D5025E875F006A4FEAFF03A
:104AD300EA2EFEEB3FFFEE2410F582EF1260A06991
:104AE30070DCEE2411F582EF1260A04CF0023798CF
:104AF300EF75F006A4FCADF0EA2CFCEB3DFD741160
:104B0300124B07222CF582E43DF583E022124B146D
:104B130022EA240BF582EB3400F583E02274F612CB
:104B23000368120E597A008010EA125A8E124BB1A2
:104B3300125A99F0124D6AF00A9024C91265D940AD
:104B4300E87A00801E8A0875090074037808120940
:104B5300A212608F88828983124BB1A3A3A3A3A35C
:104B6300A3F00A9024D61265D940DA7A00801A8A13
:104B730008750900740378081209A2E5082431F5C1
:104B830082E509341A125B490A1265D640E1902482
:104B9300C5E493900360F0124BA002445D7CE87D72
:104BA300037A107B009003D0E0F912178922124B8D
:104BB300B522A374FEF0A374FFF0E488828983A373
:104BC3002274F012036874F51208ED8A088B0989C0
:104BD3000A8C0BE9A2E050147508FC7509FFA2E1E9
:104BE3005005D2E4024C8ED2E3024C8E120E3B8A65
:104BF3000C8B0DA80CA90D900375E0687003A3E05E
:104C03006970057900024D65AC0A7902AA08AB09FF
:104C1300120E35E960EDE50AF50C780C12084C79B3
:104C2300027CFE7DFFAA08AB0912538012085BE9E0
:104C33006003024D63E50AC2E5F50A9003C2E07022
:104C43004CE50AA2E640467403120ABFAC82AD8368
:104C5300AA08AB09120B53E9702D124E71F8EBF948
:104C6300EA7001EB6027E82402FEE93400FF0A0A38
:104C7300FB120B4DE96016EEFCEFFD7403120ABF45
:104C8300AA82AB83121EBBE50AD2E5F50A9003554F
:104C9300E0F50C900375E0F50EA3E0F50F780E1226
:104CA30008487D017C00900355E0F9AA0EAB0F1272
:104CB3000DED740212085BE9FA900355E004F0EA83
:104CC3006003024D63E50AA2E550047A0E80027A7E
:104CD300067401120ABF125DF88A0E8B0FAE0EAF77
:104CE3000FEE7001EF6075124D78124364123DC8E8
:104CF30088828983F07478550A124D6AA3A3E50C60
:104D03001260A4E508F0E50988828983A3A3A3A31D
:104D1300F0E488828983A3A3A3A3A3F0E50AA2E511
:104D230050147403120ABFAC82AD83E82406FAE977
:104D33003400FB121EBB8E828F83A3A374FD125B10
:104D43004DE50B600EC3941E5009EE24131258DE7A
:104D5300E50BF0EEFAEFFB120C918006791080025E
:104D630079C7740B022A59A3124D6F22F08001F9FF
:104D73008882898322EE241712436A7401F0120F8A
:104D83009DEE241A12436AEAF0A3EBF0EE22C082EE
:104D9300C0839012BCE06401901B647006E0FC7950
:104DA300018004E0FC79037A007B00120D5D02446C
:104DB300A574F41203688A088B09E9FE12102DE921
:104DC30060067AFF7BFF8078901B63E06402706368
:104DD3007900124E46EA7001EB604212678CFC7454
:104DE300016C7022900374E08A828B83A3A3A3A334
:104DF300F08A828B83A3A3124E6174FE6A700374DC
:104E0300FF6B6010803A74036C601A74046C700456
:104E13007AFE80B088828983E0640270089003C1BF
:104E2300E06402700E124E717001EB6006AA08ABCB
:104E330009800DAA08AB09900356124F7F122091E7
:104E43000244E9AA08AB09124E4E22120E3BEEF9B8
:104E5300120E2F22EA240BF582EB3400F583124E57
:104E63006B22850E82850F83E0FAA3E0FB22124EAC
:104E7300791210EDEA22900382E0FCA3E0FDAA0878
:104E8300AB092274F7120368EAFEEBFF120BA7E9E2
:104E9300700AEEFAEFFB120BB3E96006EEFAEFFBD2
:104EA30080047AFE7BFF02379874F21203688A0843
:104EB3008B098C0A8D0BE9FE7F0012102DE9790016
:104EC3006003024F75AA08AB091269177002E583E4
:104ED3006017A3A3A3A3A3E0FA74026A704F90031D
:104EE300C1E064027003024F73AA08AB0990035C2C
:104EF300124F7F122091120BB98A0C8B0DA80CA9AB
:104F03000DE87001E96069E82405F582E91260A003
:104F1300A2E0505C750C01A2E1501C7901AC08AD14
:104F230009AA0AAB0B120D8DE9700F804374036A53
:104F3300703E750C028003D2E1F0900375E0650AC0
:104F43007004A3E0650B700E7C1EEEF9AA08AB0992
:104F5300120D5D0F801AA90CAC08AD09AA0AAB0BA0
:104F6300120D8DE9700A0FEEF9AA08AB09120DE1D3
:104F7300EFF9024107EEFAEFFB900358124F832239
:104F8300E0F8A3E0F58388822274E812036874F0E2
:104F93001208ED8A148B158C088D097428120ABF28
:104FA300E0F510A3E0F511900402E07002A3E060C5
:104FB3001212691D7002E5836009A3E07005790090
:104FC3000251F1E514241DF516E5153400F5178596
:104FD3001682125210A3E0F50A8882898312536065
:104FE300FA88828983A3A3A3A3E0F9EAFEE9FFAACF
:104FF30008AB09120DE7E9FA125218E02AF50B5330
:105003000A78E514240BF50EE5153400F50F78083E
:105013001208487D0012520312085BE9FA74036A0E
:10502300609CEA70407418550A700302510FE50A38
:10503300D2E0F50AA2E45004D2E1F50AE50AF50D3F
:10504300780D12084C1251F612085BE9701785109F
:105053008285118374FFF0A3F0850E82850F83127E
:105063004E61121867851082851183E064FF700416
:10507300A3E064FF60399003C1E064027003024F50
:10508300C1850E82850F83E0FAA3E0124F7B1220C5
:1050930091EA65087003EB65096003024FC1124F83
:1050A30078122091851082851183EAF0A3EBF078C2
:1050B300081208487D0112520312085BA90AEEFA8E
:1050C300EFFB120E3B8A088B09A808A90990037508
:1050D300E0687003A3E06960030251E8EEFAEFFBB6
:1050E300122F9A7002E5836064A3A3A3A3E0FA746A
:1050F300016A600574026A7054851882851983AC4D
:1051030082AD83EEFAEFFB120B53805590036EE0F2
:10511300600FE50AF50D780D12084C1251F61208CE
:105123005BE50AF50D780D12084C79027CFE7DFFD4
:10513300EEFAEFFB12538012085BE960030250683A
:1051430085108285118374FFF0A30250B1120F9D65
:10515300EAFCEBFD851882851983AA82AB83121EB4
:10516300BB851482851583A3A3A3A3A3A3A3A3E051
:105173006401701AE5142415F582E5151258E1123D
:1051830056887408120ABFAA82AB83121EBB851607
:1051930082851783124F7FA3E04430F50878081205
:1051A300084C7401120ABF858208858309780812A6
:1051B3000848740B120ABF85820885830978081290
:1051C3000848E50CF508780812084C7900EEFCEF66
:1051D300FD850E82850F83124E61120D87740612B0
:1051E300085B024FC1125218E50BF0120FB5741091
:1051F3000265B77901AC08AD09124E6512538022DE
:10520300AC0BA90C124E65120DED740222F583123C
:1052130047D9024D73851682851783124F8302582F
:10522300FA74EE12036874F01208ED8A108B11EA17
:10523300241DF50EEB3400F50F850E821252101269
:105243005360FC88828983A3A3A3A3E0FBECFEEB5A
:10525300FF88828983A3A3A3A3A3E0FC8882898315
:10526300A3A3A3A3A3A3E0FAE4CAFBECF508EBF51D
:105273000988828983A3A3A3A3A3A3A3E0F50A8830
:10528300828983A3E05478F50BA2E45016E824083E
:10529300FCE93400FD7408120ABFAA82AB83121E14
:1052A300BB7A08E50BA2E55024EAF8850E82850F48
:1052B30083E028F8A3E03400F9740828FCE439FDFE
:1052C300851882851983AA82AB83121EBBAC0AA9F7
:1052D3000CEEFAEFFB120DF3E9FA74036A607990AE
:1052E3000375E06E7003A3E06F605EEA7054E50B34
:1052F300F50D780D12084C12536C12085BE97058C7
:10530300780B12084C7401120ABF85820E85830F35
:10531300780E120848740B120ABF85820E85830F1C
:10532300780E120848E50CF50B780B12084CA90A05
:10533300AC08AD09EEFAEFFB120D87740612085B99
:10534300801674046A701180B7E50BF50A780A12A7
:10535300084C12536C12085B74100256DDA3A3E0D1
:10536300F50C888289830262987901E510240BF594
:1053730082E51112436D124E7C12538022120DAB43
:1053830074012274E812036874F51208EDEAFEEB67
:10539300FF8C088D0989127423120ABFE0F50F747C
:1053A30024120ABFE0F516A3E0F5177428120ABF0A
:1053B300E0F50EA90F120DF98A108B117401120A70
:1053C300BF7408F0E50EA2E450037410F0E50EA2DA
:1053D300E55004E02408F0851882851983AA82AB7E
:1053E300831210158A0C8B0DEA7001EB70030255C2
:1053F30037EA2417F582EB12435DF0120F9DE50C9B
:10540300241AF582E50D1258E112419CE50C24188B
:10541300F514E50D3400F515E50C2416F50AE50D34
:105423001226837403120ABFAC82AD83AA10AB1198
:10543300120B53E9601E7401850A82850B83F07495
:1054430003120ABFA882A983851482851583E8F015
:10545300A3E98025E50EA2E45020E5106E7003E574
:10546300116F70167401850A82850B83F08514828F
:10547300851583E516F0A3E517F0E50C12553EE517
:105483000D1258E1125DE97402850A82850B83F0DF
:10549300A3E50E125543E50FF0EE850A82850B83D3
:1054A300A3A3A3F0EF850A82850B83A3A3A3A3126F
:1054B3005543A3A3A3E508F0E509850A82850B8379
:1054C300A3A3A3A3A3A3F0AA10AB11120DE7E9258D
:1054D30012850A82850B83A3A3A3A3A3A3A3F075B9
:1054E3000800E50EA2E45014AC16AD17E50A240833
:1054F300FAE50B3400FB121EBB750808E50EA2E5A6
:10550300501C7426120ABF125688E50A2508F8E5CE
:105513000B3400F9740828FAE439FB121EBB850C1E
:1055230082850D83A3A3E510F0A3E511F0AA0CABCC
:105533000D120C91740B0265B7E508240BF582225A
:10554300F0850A82850B83A3A32274F21203688A6F
:10555300088B09ECFEEDFF890A7900120E3B9003DC
:1055630075122BC56A7002E96B70047901802A7584
:105573000B01E865087003E965096012A90AEEFCEE
:10558300EFFDAA08AB09121069E9F50B800979014F
:10559300EEFAEFFB120D0FA90B02410774F512038C
:1055A300687E797F187A1012568C7001EB700312A3
:1055B3004BA0900360E014F0700C9024C5E493902A
:1055C3000360F0120E47750A008052EE2404F58240
:1055D300EF1260A0603D14F07039EE24051243A56C
:1055E3006403701579028E828F831256888E828FA0
:1055F30083A3A3124E61120D8D850882850983E072
:105603006401600F8E828F83125B4BE48508828571
:105613000983F0050AEE2407FEEF3400FF9024C847
:1056230012567C40A6750A00802C850A087509006D
:10563300740378081209A212608A2407F582E9121A
:1056430060A014F0700E88828983A3125B4BE488F8
:10565300828983F0050A9024D612567C40CC750AC1
:1056630000800BE50A125A23600214F0050A902405
:10567300C912567C40ED023FA4E493FAE50AC39AAB
:105683002288828983125910227B009003D0E0F98B
:10569300121795EA2274F6120368E97024790090D0
:1056A300035A124F7F1220918A088B09AE08AF0963
:1056B30074FE6E700374FF6F701A9024CFE49360CE
:1056C30013790190035A124F7F1220918A088B0994
:1056D300AE08AF09120FD9022D7112085B7F0A02BF
:1056E300057974F612036874F31208ED1216578ADB
:1056F300088B09AE08AF09900375E06E7003A3E051
:105703006F60E9120FA9EA6E7002EB6F60DEEEFACA
:10571300EFFB12102DE970D4EE7001EF60CEE4853B
:105723001882851983F07401120ABFEEF0A3EF12F9
:10573300574870B874FE6E700374FF6F60AEEEFA74
:10574300EFFB023ECE123DD6120B6BE922C082C0A4
:1057530083120FD90244A574F2120368EAFEEBFF29
:105763008C088D09890A740E120ABFE0F50B74FCCC
:105773006E700374FF6F70057900024107790012A0
:105783000E3B8A0C8B0DAE0CAF0D900375E06E7063
:1057930003A3E06F7006E50BA2E650DCA90B1258D9
:1057A300C17001E9701279007AFE7BFF1258C17053
:1057B30001E97004790280C288828983EEF0A3EF45
:1057C300F074FE6508700474FF65096009888289B6
:1057D30083A3A3125A1BE82406F582E91258E1E5D4
:1057E3000BF0A2E05003D2E2F0E82404FAE934001B
:1057F300FBE82405F8E93400F97401650A7026749E
:105803000188828983F0900374E08A828B83125922
:1058130008AA08AB09121117EA7001EB60030257DB
:105823007B7C00801E88828983E0640170030257B9
:105833007B900373E08A828B83124D6BE50AF0023F
:10584300577B0C9024CBE493FAECC39A40030257A2
:105853007B7B0080010B9024C812617F40F7EC1220
:1058630058CEEB75F007A4247BF582E5F0341812CB
:1058730058E5E0687003A3E069700302577B902446
:10588300C8E4936B70BC7C177D007900EEFAEFFBE4
:105893001216458E828F83125A1B9003821258F57B
:1058A300A3A3A3A3A3A3E8F0A3E91259007401F0EF
:1058B300EE240E12435AF01258DB74028080120E4B
:1058C3002F8A0C8B0DA80CA90DE82275F017A424C0
:1058D30009FEE5F03417FF22EE240DF582EF1243A3
:1058E3006D22F5831258EB22E0F8A3E0F98E828F44
:1058F30083221258EB8001A3A3A3A3A322F0EE24D7
:105903000F12436A22F090038212591022E0FCA383
:10591300E0FD2274EF1203688A088B098910ECFEFC
:10592300EDFF9024CC1269E0400579050259FCAAE9
:10593300081218AFAA08AB09125A83F50A68700156
:10594300E470097AFE7BFF120DBDE9F8C3E8950AFE
:10595300E49400C365D03340030259FAE875F006B6
:10596300A42491F50AE5F03419F50BE50A2404F5AE
:105973000CE50B125B3C7001EB60031216E7E510BC
:10598300C333F50EE433F50FE5106011AA0EAB0F28
:105993001259FF7002A3E0700E7901805C850C82BE
:1059A300850D83E4F0A3F0850A82850B83A3A312FC
:1059B3005A1B850A82850B83A3A882A983E510F06D
:1059C3009003CAE0850A82850B8312629D60248559
:1059D3000C82850D83125B417001EB60168E088F7C
:1059E30009750A007808120844AC0EAD0F125A3438
:1059F30012085B790080027907022B241216E185D5
:105A03000C82850D83EAF0A3EBF0850C82850D8370
:105A1300E022F50988828983E508F0A3E509F022ED
:105A230075F006A42491F582E5F03419F583E0229C
:105A3300FB121639740322E50AF0A3E50B122B328D
:105A4300A32274F6120368ECFEEDFF740A120ABF78
:105A530012437888088909125A83FAC3E89AE494AE
:105A630000C365D0335014E8125A8E1265BF125A20
:105A730099125A9312442B79008002790402445DEF
:105A8300120DBDE9F89024C9E49322125B24A322EA
:105A93001247D9022B33125A9D22F088828983023E
:105AA30058FB74F7120368750800801BE50875F04E
:105AB30006A42493F582E5F03419F583E06A7003B4
:105AC300A3E06B605905089024C9E493FCE508C37F
:105AD3009C40D9E4936508704574FE6A700374FFB3
:105AE3006B703B750800800205089024C9E493FAA3
:105AF300E508C39A5028E508125B24E070EAA3A3E3
:105B0300125B4BE82404F8E9125B32125B4170012B
:105B1300EB600B1216E78E828F83E4F0A3F0024052
