:020000040000FA
:06000000020A420201C2E7
:03002B000220723E
:030033000206942E
:030043000208C0F0
:03004B0002075E4B
:0300530002011592
:03005B0002076D2C
:0300630002077918
:03006B0002067A10
:1000830002015E0101FF01010503010F10FEFF03E1
:100093000003000300030003000300030003000345
:1000A3000005000A00140028004F009E0000008F86
:1000B300138F138F138F134B1245128F138F22003D
:1000C3000000002D22000000000C0000000C0001C5
:1000D3000000FD140000000000009915000000005E
:1000E30000000000BB07FF010200001400000073C2
:1000F3001464000202000800000502071E02051E28
:10010300020A03B80B02803E0103320002FFFF0222
:100113000206C0E074F21203D4E5A7F8E5A1F9588A
:1001230054106008121C6553A1EF802AE8A2E0C0B6
:10013300D0E9A2E092F0120969158182F05017907C
:100143006198E0F890177DE0C398A2D265D0335050
:1001530002E8F053A1FE7F01020433C0E074F212FF
:1001630003D49061A4E0F8759B00E59158540860AE
:10017300087591F7121CA7802AE59158541060085E
:100183007591EF121CAD801BE8A2E0C0D0E591A2EF
:10019300E092F0120969158182F05007E0C2E0F0A5
:1001A300121DCD9061A3E0F8E5E9585404600E12E6
:1001B3001DA375E9FB906193E0A2E640F28097C02E
:1001C300E074F21203D49061A5E0F8E5BF5854043B
:1001D300600653BFFB121DE5020159C3E498F8E41E
:1001E30099F912021F8026C3E49AFAE49BFBE920E3
:1001F300E7E912021FE498F8E499F922C3E498F8B6
:10020300E499F912021FE498F8E499F9C3E49AFA1D
:10021300E49BFB22EB20E7CFE920E7E0B90010BB2A
:100223000008E88AF084F8AAF022E4FBC8FA22EB7B
:1002330070227B10C833C8C933C9335007C39AC36C
:10024300DBF280069A50012ADBEAC833F4C8C933CB
:10025300F4C9FA2275F008E4C833C8C933C933C9ED
:100263009AC99B5004C92AC93BD5F0ECFBC833F4A7
:10027300C8E4C9FA22080808EAC0E0EBC0E086F047
:10028300E7A4FA180986F0E7A42AFA180986F0E722
:10029300A42AFA180986F0E7A42AFA1986F0E7A433
:1002A300FBE5F02AFA190886F0E7A42BFBE5F03A00
:1002B300FA190886F0E7A42BFBE5F03AFA181809B7
:1002C30086F0E7A4C5F02BFBE43AFA1908E7C5F07A
:1002D300C6A426F6E5F03BFBE43AFA1886F0E7A459
:1002E300F6E5F00826F6E43B08F6E43A08F6D0E033
:1002F300FBD0E0FA22E4CFC0E0E4CEC0E0E4CDC01E
:10030300E0E4CCC0E075F020C3E633F608E633F64C
:1003130008E633F608E633F6181818EC33FCED3329
:10032300FDEE33FEEF33FFC3EC9709ED9709EE972C
:1003330009EF97191919400FFFEC97FC09ED97FD89
:1003430009EE97FE191906D5F0BEECF709EDF7098A
:10035300EEF709EFF7191919D0E0FCD0E0FDD0E072
:10036300FED0E0FF222518C582C0E0E51934FFC5A1
:1003730083C0E0E518C3958224F810AF088583197C
:100383008582188008858319858218D2AFCEF0A3A1
:10039300E520F0A37808E608F0A3DEFAEFF0A3E582
:1003A3008124FAF8E608F0A3E608F0A3E608F0A330
:1003B3000808E608F0A3E608F0A315811581D0E04C
:1003C300FED0E0F8158115811581E8C0E0EEC0E0AC
:1003D30022C0D02518C582C0E0E51934FFC583C00B
:1003E300E0E518C3958224F310AF0885831985824D
:1003F300188008858319858218D2AFC8F0A3E9F065
:10040300A3EAF0A3EBF0A37908E709F0A3D8FAEC89
:10041300F0A3EDF0A3EEF0A3EFF0A3D0E0F0A3D0B0
:10042300E0F0A3D0E0F0A3E520F0A3E5F0F0A322F1
:10043300851983851882E0C0E0A3E0F9A3E0FAA35D
:10044300E0FBA37808E0F608A3DFFAE0FCA3E0FDF5
:10045300A3E0FEA3E0FFA3E0C0E0A3E0C0E0A3E0CD
:10046300F5D0A3E0F520A3E0A3F5F010AF08858352
:10047300198582188008858319858218D2AFD082A6
:10048300D083D0E0F8D0E032120AA4B9000302040A
:10049300CDE490030178FE791A8002F0A3D8FCD949
:1004A300FA901CFEAA82AB83900086789079018033
:1004B30015E493A3AC82AD838A828B83F0A3AA82D3
:1004C300AB838C828D83D8E9D9E775828D7583E000
:1004D300740312052F75826D758320740012052F26
:1004E300D083D082ECC0E0EDC0E0E493A3FCE493BE
:1004F300A3FDED4C600D120605EC24FFFCED34FF6B
:10050300FD80EFE493A3FCE493A3FDED4C600D1297
:100513000709EC24FFFCED34FFFD80EFD0E0FDD0B4
:10052300E0FCE493A3C0E0E493C0E022C0F0F5F064
:10053300E59F5407C0E0E59F54F845F0D0F0F59FE0
:10054300E473859FF053F0F8D0E045F0F59F22D097
:1005530083D082E59F5407C0E0E493C0E074019325
:10056300C0E07402935407C0F0F5F0E59F54F845DA
:10057300F0D0F0F59F22851983851882E0A3FEE071
:10058300A3F5207808E0A3F608DFFAE0A3FFE0A3D1
:10059300C0E0E0A3C0E0E0A3C0E0E0A3C0E0E0A3CC
:1005A300C0E010AF088582188583198008858218FA
:1005B300858319D2AFD083D082020545D083D08200
:1005C300E9C0E0E493A3C386F0C5F095F0F908E42D
:1005D30093A386F0C5F095F0700BE493A3C3994001
:1005E30005E9048002A3E475F002A42582F582E5FF
:1005F300F03583F583D0E0F9E493A3C0E0E493C03E
:10060300E022C0E0C3E49396087401939618400F68
:10061300E49366700808740193661870007019A358
:10062300A3C3E49396087401939618A3A3400DD033
:10063300E0D0E0D0E002051FA3A3A3A3A3A3D0E0CF
:1006430022D083D082C5F0E493A3C5F0C395F0F51F
:10065300F0E493A3C395F04005E5F0048001E4754D
:10066300F002A42582F582E5F03583F583E493A3B4
:10067300C0E0E493C0E022C0E074F21203D4E58941
:10068300A2E15003121B21758900C2C57F01020438
:1006930033C0E074F21203D4E58BA2E05003121BC3
:1006A30021758B00C2E880E4740480047402800026
:1006B300CCC0E0EDC0E0E518C39CCCAD1950011DE2
:1006C30010AF068C188D1980068C188D19D2AF12B5
:1006D30007A7D0E0FDD0E0FC2274028000CCC0E08C
:1006E300EDC0E0E518C39CCCAD1950011D10AF0659
:1006F3008C188D1980068C188D19D2AF120785D0EE
:10070300E0FDD0E0FC22C0E0C0F088F0E493667026
:10071300080874019366187000A8F0A3A3700BD0A7
:10072300F0D0E0D0E0D0E002051FA3A3D0F0D0E0EA
:1007330022D083D082CCC0E0E493A360061207E703
:100743001470FAE493A360061208D71470FAD0E089
:10075300FCE493A3C0E0E493C0E022C0E074F2128F
:1007630003D4121BA57F01020433C0E074F2120309
:10077300D4121BAB80EFC0E074F21203D4121BB18E
:1007830080E3CAC0E0E493A3C582CCC582C583CD10
:10079300C583F0A3C582CCC582C583CDC583DAE505
:1007A300D0E0CA22CAC0E0E0A3C582CCC582C5831B
:1007B300CDC583F0A3C582CCC582C583CDC583DAFD
:1007C300E6D0E0CA22700908080822601618181833
:1007D300C6C333C608C633C608C633C608C633C63F
:1007E300D5E0EA22C0E0E493A3D39C5010E493A3A2
:1007F300C39C400AD0E0D0E0D0E0020751A3A3A3FA
:10080300D0E022C008C3E096F50808A3E0964208AA
:1008130008A3E096420808A3E09645087001D3D0E8
:1008230008227404800A740380067402800274012F
:10083300C0E0F404120840D0E0120A7F222518F524
:100843008210AF08F518400215198008F518400208
:100853001519D2AF85198322C0D0251810AF08F51A
:1008630018500205198008F51850020519D2AFD0A7
:10087300D022BB0102E722C082C08389828A83BB64
:100883000003E08002E493D083D08222601608083C
:1008930008C6C313C618C613C618C613C618C6138C
:1008A300C6D5E0EA22C3E0C696F608A3E0C696F6EC
:1008B30008A3E0C696F608A3E0C696F622C0E07445
:1008C300F21203D4C2C0E5D1A2E45003121BDB7FB2
:1008D30001020433C0E0E493A36C7009D0E0D0E0DC
:1008E300D0E0020751A3A3D0E022251810AF08F5EA
:1008F30018400215198008F51840021519D2AF22C5
:10090300E066701008A3E066700A08A3E06670044E
:1009130008A3E06622C3E09608A3E09608A3E09646
:1009230008A3E096A2D265D03322C3E7960809E76D
:10093300960809E7960809E796A2D265D03322C341
:10094300E096F008A3E096F008A3E096F008A3E091
:1009530096F022E026F008A3E036F008A3E036F094
:1009630008A3E036F022C0E0E8C0E0E58124FCF80B
:10097300E6A2E7D0E0F8D0E022E647F60809E6472A
:10098300F60809E647F60809E647F622E026F608E0
:10099300A3E036F608A3E036F608A3E036F622E62F
:1009A30027F60809E637F60809E637F60809E637B1
:1009B300F622E657F60809E657F60809E657F60859
:1009C30009E657F622E056F608A3E056F608A3E038
:1009D30056F608A3E056F622E056F008A3E056F0D8
:1009E30008A3E056F008A3E056F022700422600D3D
:1009F30018C6C333C608C633C6D5E0F41822E4C309
:100A030096F608E496F608E496F608E496F622C607
:100A1300F4C608C6F4C608C6F4C608C6F4C622C39C
:100A2300E7960809E7960809E7960809E79622C3B7
:100A3300E09608A3E09608A3E09608A3E096227543
:100A4300D0007581407518017519030002048B608D
:100A53000C08C6C313C618C613C6D5E0F422E6F0C5
:100A630008A3E6F008A3E6F008A3E6F022E0F60800
:100A7300A3E0F608A3E0F608A3E0F622CAC0E0E686
:100A8300F0A308DAFAD0E0FA22E0FAA3E0FBA3E04D
:100A9300FCA3E0FD22EAF0A3EBF0A3ECF0A3EDF05E
:100AA30022E5C754F84401F5C77901222518F582D8
:100AB300E43519F58322120552B0DD02120552E521
:100AC300DD02120552B0DE021205527EDF0212056C
:100AD30052D6E10212055242E302120552DEE3024C
:100AE300120552B9E402120552D7E402120552BCB0
:100AF3002400120552EF24001205520E25001205A0
:100B0300523025001205524225001205526125007C
:100B1300120552D225001205526C26001205523ED0
:100B230027001205528A2700120552C92700120511
:100B330052E627001205523028001205526B280096
:100B4300120552862800120552AA2800120552E502
:100B530028001205522529001205524629001205C4
:100B6300529329001205526D2A001205521E2B00C2
:100B7300120552AE2B001205529E2C00120552E1B3
:100B83002C00120552062D001205525C2D00120591
:100B930052812D00120552A62E001205521A2F0063
:100BA3001205523D2F00120552602F001205528884
:100BB3002F001205529A2F00120552A42F0012057E
:100BC300522830001205529730001205524031006E
:100BD300120552483100120552B23100120552F487
:100BE3003100120552043200120552EC3200120594
:100BF30052773300120552D73300120552A3340043
:100C03001205521A3500120552573500120552B615
:100C130035001205520337001205521F3700120523
:100C2300528137001205521E3800120552653800F2
:100C3300120552003900120552AD3900120552EB6C
:100C430039001205525B3A00120552A63A0012050A
:100C530052DF3A001205520F3C00120552623D006A
:100C6300120552C33D001205520C3E0012055234C8
:100C73003E00120552B73E00120552373F001205DF
:100C830052B13F00120552D63F001205524C4000AC
:100C9300120552F04000120552864100120552AD72
:100CA3004100120552D24200120552E542001205DC
:100CB300527A43001205529A4300120552464400E9
:100CC300120552904400120552D24400120552BE3E
:100CD3004500120552C14700120552CB47001205C9
:100CE30052D54700120552DF4700120552E947006B
:100CF3001205520348001205520D480012055217FF
:100D030048001205522148001205524248001205BC
:100D1300529048001205529A4800120552BE4800EC
:100D2300120552E248001205523F49001205528A49
:100D33004900120552A84900120552184A0012052B
:100D430052554A001205529C4A00120552044B00A8
:100D5300120552A84B00120552754D001205529808
:100D63004D001205526A4E00120552904E001205B4
:100D730052704F001205520852001205526A530076
:100D83001205523155001205528355001205527C4B
:100D93005600120552C95600120552345700120567
:100DA300523E5700120552FA5800120552295A00B2
:100DB300120552895A001205523F5B001205522751
:100DC3005C00120552E45D00120552035E00120539
:100DD300525F5E00120552375F001205525C5F00DE
:100DE300120552AD5F001205528F6000120552C703
:100DF30060001205520761001205526A6100120574
:100E030052866200120552E66200120552CC63005C
:100E1300120552D46500120552F065001205529571
:100E23006700120552DB6700120552B9680012050C
:100E3300521369001205525B6900120552CB690017
:100E4300120552596A00120552DD6A001205524911
:100E53006B00120552758701120552C787011205EF
:100E630052018A011205524D8A011205521F8B014C
:100E73001205528E8B01120552D18C011205521E9E
:100E83008F01120552459001120552AC98011205CB
:100E930052299901120552A99B01120552959C01F1
:100EA300120552419D01120552729E0112055265AF
:100EB3009F011205527CA2011205527EA401120564
:100EC30052DEA4011205529FA501120552CAA501C3
:100ED3001205526BA6011205524FA7011205522AA1
:100EE300A801120552BEA801120552EBA801120572
:100EF300520DA90112055200AB01120552E0AB01DC
:100F03001205522DAC011205528EAC01120552503E
:100F1300AD0112055285AD01120552D3AD01120583
:100F23005203AE0112055241AE0112055299AE01B0
:100F33001205529EAE01120552F9AE01120552215D
:100F4300AF0112055240B001120552ACB0011205B7
:100F53005216B101120552A2B101120552B9B401E0
:100F630012055285B501120552F5B6011205524913
:100F7300B901120552F1B901120552A6BA011205BF
:100F83005234BC01120552D1BC0112055219BD01E4
:100F9300120552B5BE01120552C9BE01120552D641
:100FA300BE01120552F1BE01120552FDBE0112052A
:100FB300521BBF01120552DFC0011205523EC1018F
:100FC30012055294C1011205529FC201120552FB30
:100FD300C201120552EEC30112055232C4011205B9
:100FE30052B5C401120552B6C50112055274C601A9
:100FF30012055213C801120552E8C801120552899D
:10100300C90112055219CA0112055230CA0112054B
:101013005269CA0112055273CA011205527FCA01ED
:101023001205529DCA01120552E1CA01120552323C
:10103300CB0112055253CB011205526DCB011205A0
:1010430052E5CB0112055226CD0112055270CD0196
:1010530012055263CE011205527FCE01120552E2F0
:10106300CE0112055237CF01120552F5CF011205F9
:101073005204D101120552B0D10112055287D20197
:10108300120552F3D20112055287D30112055257AA
:10109300D40112055286D401120552E5D40112057A
:1010A3005293D501120552B9D50112055231D60119
:1010B30012055256D60112055279D601120552B4C1
:1010C300D60112055292D80112055275D9011205A3
:1010D300522DDA01120552C2DB0112055216DC0150
:1010E30012055259DC01120552C8DC011205523CAB
:1010F300DD0112055295DD01120552BBDD0112051A
:1011030052F6DD0112055222DE011205526DDE0197
:10111300120552C6DE0112055242DF0112055220AA
:10112300E001120552B2E1011205521FE20112055C
:101133005248E201120552AEE20112055205E301E3
:101143001205523EE30112055293E301120552B810
:10115300E301120552FEE3011205521BE4011205DD
:1011630052C5E4011205526C8002120552A080029E
:101173001205527681021205524A820212055275F5
:101183008302120552F98402120552778502120571
:10119300523E86021205525F8702120552D1870220
:1011A3001205523388021205528188021205528BAE
:1011B3008802120552C988021205523289021205A9
:1011C30052D189021205524F8A02120552048B0230
:1011D300120552768B021205529C8B02120552CCD9
:1011E3008B02120552F98B021205529F8C021205D3
:1011F30052AF8C02120552028D021205520E8D025D
:101203001205521A8D02120552238D0212055284C1
:101213008D02120552E48D02120552358E0212051B
:1012230052508E02120552808E02120552A18E0276
:10123300120552AD8E02120552EE8F021205520CA8
:1012430090021205527590021205528890021205FF
:10125300529F9002120552329102120552319202AC
:101263001205522D9302120552AF9302120552B981
:1012730093021205521C94021205522D9402120578
:1012830052709402120552B79402120552ED940261
:101293001205522395021205524195021205526519
:1012A3009502120552A6950212055299960212054D
:1012B30052DF96021205521A9702120552799702CB
:1012C300120552A19702120552DA9702120552E84B
:1012D3009702120552499802120552869802120586
:1012E30052C89802120552F998021205522D99021A
:1012F3001205523899021205525699021205521ECE
:101303009A02120552289A021205526D9A02120588
:1013130052D79A02120552EB9A02120552E39B022C
:10132300120552F69B021205520B9C02120552AB98
:101333009C021205520F9D02120552D29D02120504
:1013430052DD9D02120552FC9E02120552189F02A5
:10135300120552709F02120552A79F02120552C135
:101363009F0212055235A002120552C6A0021205B1
:10137300520EA10212055229A30212055293A3028F
:10138300120552FEA30212055257A6021205526716
:10139300A6021205526AA60212055276A602120589
:1013A300528AA60212055292A602120552C7A6023B
:1013B30012055275A702120552E5A70212055249FA
:1013C300A802120552E2A8021205527CA9021205D4
:1013D30052AAA90212055240AA021205526FAA028A
:1013E30012055291AA02120552B8AA021205521E00
:1013F300AB0212055288AC021205528BAC021205E5
:101403005202AD02120552EEAD02120552C6AE02F1
:1014130012055250AF0212055285B002120552371F
:10142300B10212055270B102120552A1B1021205A6
:1014330052AAB10212055296B20212055212B30217
:10144300120552A2B3021205526CB402120552F0F5
:10145300B40212055226B5021205526FB5021205E7
:1014630052009F031205520E9F03120552779F03EA
:10147300120552AF9F0312055202A0031205529E9A
:10148300A1031205527EA3031205525DA6031205A2
:101493005289A603120552A9A60312055207A703F0
:1014A30012055245A70312055283A703120552C919
:1014B300A70312055283DD031205520BDE03120547
:1014C30052D4DE03120552C7DF031205520AE003AA
:1014D300120552C2F903120552E0F9031205523103
:1014E300FA0312055276FA03120552C6D502120503
:1014F30052A3F603120552E8F703120552E5B703A8
:1015030012055268B80312055272B80312055299B4
:10151300B803120552ADB80312055213B9031205ED
:101523005243B90312055245BA0312055215BB03C0
:1015330012055275BB03120552BEBB031205527D41
:10154300DD021205525EBC031205528ABC0312056A
:101553005215BD031205526FBD03120552FEF4036B
:1015630012055217F50312055291F5031205523E67
:10157300F60312055266F6031205527AE3031205C7
:1015830052F4E303120552FFE30312055220E4036E
:1015930012055299F5011205529CF5011205525D8F
:1015A300F6011205528BF601120552E6F6011205F9
:1015B300520AF7011205522AF70112055274F70174
:1015C300120552A2F701120552D1F8011205520079
:1015D300F90112055221F9011205527CF901120594
:1015E300523FFA011205525FFA01120552D4FB0170
:1015F3001205526CFC0112055275FD01120552DEF3
:10160300FD011205520CFE01120552D1FE01120515
:101613005206FF0112055239FF0112055265F0020D
:101623001205526FF002120552B7F002120552254D
:10163300F10212055248F102120552E8F1021205B5
:101643005297F402120552A0F402120552EDF4026D
:1016530012055216F50212055276F5021205520CC6
:10166300F60212055240F6021205528DF6021205D9
:1016730052E7F60212055215F7021205529DF702C0
:10168300120552E2F70212055221F80212055256D0
:10169300F80212055268F8021205527AF80212058E
:1016A3005299F80212055250F90212055290F902AA
:1016B3001205520081041205529182041205528EC2
:1016C300EF03120552F2EF0312055216F00312054F
:1016D300520FF103120552FFE401120552DEE50138
:1016E3001205521AE601120552B7E701120552F923
:1016F300E701120552ADE901120552F1E9011205A4
:1017030052D2EA011205525FEB01120552EAEB01D4
:1017130012055240EC0112055280EC0112055222CF
:10172300EE01120552ABEF01120552C2F10112058F
:1017330052D0F10112055235F2011205527FF20126
:1017430012055258F5011205526D84041205528395
:1017530084041205522CDA031205523FDA031205F0
:1017630052DDDA0312055218DB0312055233DB0391
:1017730012055258DB031205529DDB03120552CEAC
:10178300DB03120552FFDB0312055276DD0312055C
:10179300523FF803120552B3F803120552F5F8034A
:1017A30012055205F9031205529DF903120552A7BA
:1017B300F903120552BFF9031205520EE502120591
:1017C300525CE50212055253E60212055212E70279
:1017D30012055227E70212055271E702120552C0A1
:1017E300E702120552D3E7021205521FE80212055F
:1017F300527CE80212055290E802120552C4E80234
:10180300120552DCE9021205525FEA021205526E1A
:10181300EA02120552AFEA02120552E3EA02120586
:101823005243EB0212055261EB02120552C4EB0262
:1018330012055243ED0212055265ED021205529A4A
:10184300ED02120552C5ED02120552D5ED02120545
:1018530052E1ED02120552E4ED0212055230EE029E
:10186300120552D5EE02120552FAEE021205520487
:10187300EF0212055214EF0212055288EF0212050D
:1018830052A3EF02120552C5EF0212055200F002F5
:101893001205520FF0021205521AF0021205522FCE
:1018A300830412055247830412055241B003120503
:1018B3005290B00312055234B203120552EAB30335
:1018C30012055232B40312055278B503120552C3FE
:1018D300B603120552E5B6031205522FB7031205DC
:1018E30052B1B7031205520080031205522180033F
:1018F300120552AB8003120552348103120552B014
:1019030081031205521382031205525F82031205EB
:1019130052CE8203120552588303120552CF83031A
:10192300120552118403120552D18703120552AED8
:101933008903120552E78903120552A18A0312058E
:1019430052A48A03120552848B03120552C98C03D5
:10195300120552638E03120552BF900312055246BD
:1019630091031205523C9203120552A695031205E8
:1019730052B6950312055216970312055291970317
:10198300120552E49803120552029A031205529665
:101993009A031205529B6B001205525A6C001205F2
:1019A30052D16C00120552E06C00120552656D00B5
:1019B300120552CE6D00120552CE6E00120552F77B
:1019C3006E00120552906F00120552D36F0012057C
:1019D300523070001205520A7300120552C473008C
:1019E300120552297400120552D075001205528453
:1019F30076001205521F7700120552787700120500
:101A030052E37700120552F37800120552B07A00C0
:101A1300120552E77B00120552807C00120552EA40
:101A23007C00120552E07D00120552B9F90212053D
:101A33005225FA021205528EFA02120552F9FA02DF
:101A430012055231FB02120552A5FB021205522167
:101A5300FC0212055253FC021205526CFC021205E1
:101A630052CDFC0212055221FD0212055299FD02CC
:101A73001205529EFD021205520AFE021205527E03
:101A8300FF02120552DCE8031205522BE90312058B
:101A930052E4E9031205524AEA03120552BBEA0370
:101AA30012055201E1031205525AE103120552D9FC
:101AB300E203120552E18204120552E88204120580
:101AC300524CF3031205525AF3031205528D840448
:101AD300120552FE81041205520E8204120552268B
:101AE3008204120552878204120552C0FD031205B7
:101AF30052E7FD031205526CFE03120552C5FE03A5
:101B0300120552DD9E03120552DEFE03120552003A
:101B1300FF031205526AFF0312055275FF031205F4
:101B230052B9FF03120552EEC203120552FCC2035F
:101B330012055238C30312055252C303120552CF82
:101B4300C303120552C9C403120552EEC40312059E
:101B5300520BC50312055228C5031205524DC50386
:101B630012055275C503120552C4C5031205523E30
:101B7300C603120552E2C603120552C7D603120565
:101B830052D5D6031205524FD7031205521BD80361
:101B9300120552C7D90312055235FB031205526EC3
:101BA300FB031205528BFB03120552E9FB031205DB
:101BB300524EFC031205528EBD03120552FBBD03A8
:101BC300120552B2BE031205521FBF031205523C47
:101BD300C003120552D8C1031205523CC2031205B9
:101BE3005291C2031205529AC203120552A9C203AB
:101BF300120552BCC203120552D2C203120552DBB4
:101C0300C203120552A1C703120552F4C7031205FA
:101C130052FCC9031205522ECA0312055250CA03BD
:101C230012055269CA0312055282CA03120552846D
:101C3300CB0312055212CC031205527DF103120598
:101C430052AFF103120552BBF103120552EEF10339
:101C53001205521FF2031205524DF203120552C22E
:101C6300F203120552F1F20312055246E60312057E
:101C7300526CE603120552A9E603120552BBE603B2
:101C8300120552D7E60312055245E7031205524ED9
:101C9300E703120552ADE703120552D1E70312051C
:101CA3005290E8031205529DE803120552AEE80371
:101CB30012055275FF01120552C2FF011205529F10
:101CC300D303120552E7D403120552F4D4031205C9
:101CD3005207D50312055226D5031205523CD503EC
:101CE30012055250D503120552CAD503120552608C
:101CF300D603120552A8D603120552B8D60312050D
:101D030052277F001205524B7F00120552737F004A
:101D13001205529B7F001205523EEB0312055257E8
:101D2300EB0312055263EB0312055277EB03120523
:101D33005295EB031205529FEB03120552A9EB03D5
:101D4300120552BCEB0312055210EC031205524963
:101D5300EC0312055278EC03120552C6EC0312058C
:101D63005215ED0312055230ED031205523AED03FD
:101D73001205524BED0312055291ED031205527CED
:101D8300830412055207A80312055233A803120550
:101D9300524FA80312055262A80312055278A803F2
:101DA300120552E4A80312055217A903120552742F
:101DB300AC031205529FAD03120552D2AD031205B7
:101DC3005237AE031205521FAF0312055247AF033A
:101DD3001205525CAF031205526CAF03120552B0E9
:101DE300AF0312055205B00312055215B0031205D5
:101DF300528DFC03120552A8FC03120552D1FC03B9
:101E0300120552EBFC0312055210FD031205522F6B
:101E1300FD0312055247FD0312055275FD0312051A
:101E2300528FFD03120552C07F00120552D9CF0312
:101E3300120552E0CF03120552ECD0031205521CD7
:101E4300D10312055242D10312055275D103120573
:101E53005287D103120552C1D10312055227D2036F
:101E630012055260D203120552ACD203120552D9A5
:101E7300D203120552F9D2031205529CED03120547
:101E830052B4ED03120552A6EE031205520080046C
:101E93001205525F80041205529D8004120552DE22
:101EA30080041205522C9B031205524B9B0312050F
:101EB30052969B03120552B29B03120552EA9B03EF
:101EC300120552F79B03120552149C03120552F795
:101ED3009C031205522E9D03120552359E031205D3
:101EE30052409E03120552529E031205525B9E03FB
:101EF300120552659E0312055251CC03120552CBB3
:101F0300CF03120552C48304120552408404120500
:101F1300520A8404120552D6FF02120552E1FF0150
:101F23001205526AD402120552BED302120552059B
:101F3300D20212055215D002120552A6CF02120583
:101F4300524BCF02120552D8CE02120552AECE0228
:101F53001205529CCC0212055274CC02120552197E
:101F6300CC02120552F6CB0212055225CB02120502
:101F730052CDCA0212055237C90212055234C902A0
:101F830012055234C80212055214C80212055264D3
:101F9300C702120552E6C502120552ADC50212056B
:101FA300527EC5021205525EDD02120552F6DC02B4
:101FB300120552A5DC02120552E9DB021205525B3F
:101FC300DB021205527BC5021205526DC5021205D2
:101FD3005259C5021205524EDB0212055246C50282
:101FE30012055248C402120552D8C3021205529E6A
:101FF300C302120552FBBB0312055221D80212057C
:102003005246C30212055215C3021205522DC002D5
:10201300120552EBBF02120552DFBF0212055252E4
:10202300BF02120552A0BE021205523FBC021205A6
:1020330052A9B90212055273B90212055207B80226
:10204300120552B3B702120552F7B602120552CA6D
:10205300B6021205521CB602120552EFB502120562
:1020630052B5B50212055220FB0300000080FBC2EB
:10207300C732E47300013636010100010201000199
:1020830003010001040106060502000007010034F4
:102093000801000F090401010D0100FF0E080000F3
:1020A30017020000190100FF1A0100011B0100FEC5
:1020B3001C0100081D0200001F0100012001000196
:1020C300210200002301000F240200002601000169
:1020D30027010008280200FF2A0100072B01024004
:1020E3002C0100002D0100012E0100012F0100FF32
:1020F30030010B1C310800003A0100083B01000FBE
:102103002F0100000302710230016002110270020C
:102113000102020202028002100261023A0041003F
:102123006302730272026202430200021302380066
:102133000002000204021202000200020002000276
:1021430004020402370037003C0244020002390053
:10215300000200026502000235028102000205024C
:1021630082028302000201017101010101011101D7
:1021730001013101010101018001100161013B00F5
:102183001400630173017201620143010001130131
:1021930006013D01350004011201000100010001A7
:1021A300000104010401330133013C014401320104
:1021B30036000001000165010001350081010001C5
:1021C3000501820183010001030471040204600418
:1021D30011047004020402040104020410046104E3
:1021E30000041404630473047204620443040004CB
:1021F300130406040004000404041204000400048D
:1022030000040004510464000004000400044404B6
:102213000004000400040004650400043504810480
:102223006400050400048304000401037103010333
:10223300010301030103010322030203010310034A
:102243000003000300030003000300030003420331
:1022530000032403060300030003040312032503FE
:1022630023032503230304030403000300030003E0
:102273004403000300032303000365032100350324
:10228300810300030503000300030003030071003F
:1022930030016000110070003102200350048000FF
:1022A30010006100000014006300730072006200FC
:1022B30043000000130006000000000004001200A9
:1022C3000000000000000000040004003700370095
:1022D3003C02440000000000000000006500000014
:1022E3003500810000000500000083000000360077
:1022F3000100060000000F000000000000000000C5
:102303000000000003FFFF00000403FFFF0000FFC5
:10231300FF0FF4010005C4040320000100000B00BB
:102323000000000000000003010F0000D11913009A
:102333004D190100D1190200051903000B190400FE
:10234300111905001719060023191100411914006A
:10235300471915003519FFFF000001910E06C10E44
:1023630008BB0E0BCD0E10190E02970E05AF0E070C
:102373009D0E0C790E0D850EFF0000030003000473
:1023830000080010001F003E007B00F600EC01D7A0
:1023930003AF075D0FB91E713D0000A512D512AB47
:1023A30012B112CF12C312BD12DB12E112E712F304
:1023B30012B7129F12991203EAF5E5D5D5C5B5A553
:1023C300959585857575656555554545353525253A
:1023D3001515059C36063A703DD9404344AD471761
:1023E3004B814EEA5100160F00000B150B02000241
:1023F300220F320000060001020304050607080944
:102403000A0B0C0D0E0F8F13A113A7136F12AD132D
:102413006912751201141F142514071413140D14D3
:10242300A911A311DF11E511D9119111303017183A
:102433001921301B1D1F3000034948424D18172531
:10244300050200383C3E363B3B352B432C303016DF
:10245300181920231A1C1E300C0E020B040B0A073A
:1024630008000F0001191618161615230300C912C8
:10247300ED121914F912FF12F513B313B913C5139F
:10248300BF13B511BB11AF11EB110005150D0910E9
:102493000804000000000000C111D31100BE040AAB
:1024A3000E0015000400010309280C05100C0A098D
:1024B3000004000C040F10080874F612036874FF7C
:1024C3001208EDE4851882851983F08582088583D7
:1024D30009780812082D7508017509007808120893
:1024E3002D123D1112085B740102443E74F612036F
:1024F300688C088D09780812082D75080B7509007A
:10250300780812082D123D1102443E74F612036836
:102513008C088D09780812082D75080B7509007849
:102523000812082D123D1C123C0702443EC082C013
:10253300838A828B83E0D2E7F012186F024489C04A
:1025430082C0837900124E3B90033212566CC3EA69
:102553009CEB9D5006122CC660010902448974F756
:10256300120368EA125522EB1258C51227BFAEF0C8
:1025730075F00BEDA42EFD900334E02CFEA3E03D9B
:10258300FFEA2403FCEB3400FD7401696005740267
:102593006970278A828B83A3124E458E828F83A311
:1025A300124180740269701DECFAEDFB120B43E9D2
:1025B3007013E48E828F83F0800BEE2403FAEF34E2
:1025C30000FB120B3DEEFAEFFB120B0102377C749A
:1025D300F21203688A088B09EA240BF50CEB125BF1
:1025E3002A79008A828B83E0606F890A890B805E77
:1025F300E50A75F00BA4FAACF075F00BE50B122AA3
:10260300587048AE82AF838508828509831265A31B
:10261300122B12A31258CB12440EE5082403FCE537
:10262300093400FDEE24030A0A0AEF3400FB120BFF
:102633003D850C82850D83E50AF0A3E50B124984E1
:10264300120B017901900332125DCD12265F122A1B
:1026530050E50A9AE50B9B40970240EBE50A2401FB
:10266300F50AE50B3400F50B2274F1120368EAFE58
:10267300EBFF740F120AAF123D09750E0185088234
:10268300F583A385820C85830DEE240BF8EF3400CC
:10269300F9EC7001ED6030EC125522ED12417679C0
:1026A30001EEFAEFFB120B0DE5087002E50970036A
:1026B300022737850C82850D83125B2F7902AA08C6
:1026C300AB09120B0D806DEE2403F50AEF1226679A
:1026D300E5087002E5096033125520E509124176D9
:1026E300E5082403FAE5093400122A48700CEEFACF
:1026F300EFFB120B13E9F50E80B9AA0AAB0B122AF2
:102703004970317903EEFAEFFB80B78E828F83A392
:10271300E064FE7004A3E064FF700A0A0A0AAB0BCC
:10272300122A49700CEEFAEFFB120B13E9F50E8037
:1027330003750E00A90E7F0702057974F71203686B
:10274300900332124180EA7001EB6031EA75F00BBD
:10275300A4FAACF075F00BEBA42CFBEAFEEBFF1232
:1027630016CB900334124180900334E07002A3E04F
:102773006012EEFCEFFD790012162F8007900334F0
:10278300E4F0A3F002377C74F61203687508007551
:102793000900780812082D9003321227BFAAF0759A
:1027A300F00BEDA42AFD7A237B0012173174021279
:1027B300085BE9FE6003120B2B023A971258F4EC04
:1027C30075F00BA4FC2274F71203687E007F00806F
:1027D3000AEEFAEFFB120AEF12398212282440F1B3
:1027E30002377C74F71203687E007F008016EEF8D0
:1027F300EFF912280FFCA3E039FDEEFAEFFB120A02
:10280300FB12398212282440E502377CE875F00B6D
:10281300A4F8AAF075F00BE9A42AF9900334E02890
:10282300229003321247BDC3EE98EF992274F71238
:1028330003687E007F008028EEF8EFF9E875F00B5F
:10284300A4F8AAF075F00BE9122B0DA2E7500EC203
:10285300E7F0AC82AD83EEFAEFFB120AF512398290
:1028630012282440D302377CC082C083EC7001ED70
:102873006005121E9F80097C087D00790012162FC7
:1028830002448974F61203687900EA7001EB60145C
:102893007C008C0812607E600479017C080CECC318
:1028A300940840EE02444174F712036874F312086B
:1028B300EDECFEEDFFE4851882851983F0740112B7
:1028C3000AAF123D5A120B617403120AAFAC82AD08
:1028D30083EEFAEFFB120B3DEEFAEFFB120B430212
:1028E300377774F712036874F31208EDECFEEDFF0B
:1028F300E4851882851983F0EAFCEBFD7403120A60
:10290300AF123D8F7401120AAF1258CB12440F74E9
:10291300FE68700374FF6960047901800279000224
:10292300377774F7120368EAFEEBFF12297370100E
:1029330012297E64FFFC8A828B83E05CF0120B0118
:1029430002404774F7120368EAFEEBFF7508008E36
:10295300828F83E06017122973701212297EFC8A1A
:10296300828B83E05C7006E04CF0120B010240475F
:10297300120B07E9F5087401650822EE12434C12A5
:1029830047BD12280FFAA3E039FB8E828F83E02222
:1029930074F01203688A088B09EA2403FEEB3400FF
:1029A300FF7C007D000A0A0AFB120B3DE508240B9D
:1029B300F50CE509125B2A7900850882850983A352
:1029C30085820A85830BE064FE7004A3E064FF60E4
:1029D30065890889098054E50875F00BA4FAACF001
:1029E30075F00BE509122A58603E850A82850B8330
:1029F300126782A3E06C7003A3E06D702BEA2403DB
:102A0300F50EEB3400F50F122A45700BAC0EAD0F2B
:102A1300EEFAEFFB120B3D850C82850D831259FFF5
:102A23007901900332123D09124415122A50E50828
:102A33009AE5099B40A18005740D12085B7F08028B
:102A430005790A0A0AFB120B43E964012290033257
:102A5300124E4FC322A42CFB900334E02AFAA3E0C6
:102A63003BFB8A828B83E0540F2274EF1203688A44
:102A7300828B83A385820E85830F125B2FEA240B3F
:102A8300F508EB12441D850882125B2D751000EAD0
:102A93002403F50CEB3400F50D122A457065750A15
:102AA30000750B008055E50A75F00BA4F8AAF075C4
:102AB300F00BE50B122B0D540F603DAE82AF83EE8E
:102AC3002403FCEF3400FDAA0CAB0D121E99E9643C
:102AD3000170258E828F83A312435C850E82850F3E
:102AE30083E8F0A3E9122B12E50AF0A3E50BF075D6
:102AF3001001900332125DCD12265F900332123B18
:102B0300FA40A3A9107F09020579122B9CE0221237
:102B13002B1622F08508828509832274F312036839
:102B2300EAFEEBFF8E828F83A385820A85830B12D5
:102B33005B2FEE2403F508EF12441D7C007D000A91
:102B43000A0AFB120B3DEEFAEFFB120B07E9F50C39
:102B53007401650C703EEE125522EF122BA675F030
:102B63000BA4F8AAF075F00BE9122B9CA3124E45A7
:102B7300850A82850B83124180E82403FEE9340031
:102B8300FFEEFAEF122A48700BEEFCEFFDAA08AB3A
:102B930009120B3DA90C02381912281BF8A3E039BE
:102BA300024D561243511247BDE82274EE120368D8
:102BB30074E61208EDEAFEEBFFEE240BF50AEF12C2
:102BC3002667850A82125B2D750E0175080075094B
:102BD30000751000751100E4851882851983F0EEE5
:102BE3002403FCEF3400FD7403120AAFAA82AB8303
:102BF300120B3D8E828F83A385820C85830D8518EE
:102C030082851983AA82AB83120B67E9640170344E
:102C1300740B120AAF12435C850A82850B8312443C
:102C23000F7401120AAF12435C850C82850D83E099
:102C3300687003A3E06960558518828519838582CE
:102C430008858309740D120AAFE41259F0F8A3E062
:102C5300F9740E120AAF12440F740D120AAFAA824E
:102C6300AB83120B61E96401700B740D120AAF851B
:102C73008210858311781012082DAC08AD09EEFA85
:102C8300EFFB120B19740212085BE9F50EEEFAEF73
:102C9300FB120B5BA90E741A0256C1C082C0837863
:102CA30000790080031235AD122A50E89AE99B504F
:102CB3000DE8FAE9FB122CC670EB7900800279016A
:102CC300024489EA75F00BA4FAACF075F00BEBA49F
:102CD3002CFB90033412690AF583E0540F22C0825F
:102CE300C0839024A5123717EC75F012A4FCAAF048
:102CF30075F012EDA42AFD79FF7AA77B1712162F20
:102D030002448974F61203687E007F007C007D0014
:102D130080348C088D09E50875F012A4F508ABF032
:102D230075F012E509A42BF509E50824ABF582E556
:102D3300093417F583E0FBC3994008EAC39B4003BA
:102D43001239821233A81231E3C3EC9508ED9509C9
:102D530040C0EEFAEFFB024441C082C083780079A1
:102D63000080031235AD9024A51238F750091231B3
:102D73002464FF70EE80047A007B0002448974F0BF
:102D830012036874F31208ED8A0A8B0BECFEEDFF55
:102D9300890CEE7001EF6011EEFAEFFB120BB58AAE
:102DA300088B09EA7001EB7050120B8B8A088B09B0
:102DB300EA7001EB60437401851882851983F01270
:102DC3000AAFE50AF0A3E50BF0EEFCEFFD74031286
:102DD3000AAF122F13740B120AAF12435C1244078B
:102DE300E4850882850983A3A3A3A3A3A31258ECB4
:102DF300AA0AAB0B1210F5800BE5087002E5097007
:102E030003022E8B7A00E50C6007C3940550027A07
:102E130004850882850983125A1EA3A3A3E50CF037
:102E2300EA850882850983A3A3A3A3A3F07402857B
:102E33000882850983A3A3A3A3A3A3A3A3F0740177
:102E4300850882850983A3A3A3A3A3A3A3A3122E07
:102E53009FA3A3A3F0E5082410F582E5091258C542
:102E6300E4F0122E9FF0125520E5091258C5E4F044
:102E7300908759780C120A70E508240CF582E5094D
:102E83001258C5780C120A611230854005E4901D72
:102E930002F0120FCFAA08AB09022A3BA312436B1D
:102EA3000258DE74F212036874F31208ED8A088B79
:102EB30009ECFEEDFF750A00EEFAEFFB120BB58A83
:102EC3000C8B0DA80CA90DE87001E9603E8882897E
:102ED30083E065087004A3E06509602F8882898315
:102EE300A3A3A3A3E0C3940550211259FB74018546
:102EF3001882851983F0120AAF1259FFEEFCEFFD19
:102F03007403120AAF122F13750A01A90A0240E6CD
:102F1300123D96120B732274F6120368122F7E7001
:102F230002E5836010A3A3A3A3E06009C394055043
:102F33000479018002790002444174F61203681295
:102F43002F7E7002E5836010A3A3A3A3E06009C3EF
:102F53009403500479018002790002444174F6120B
:102F63000368122F7E7002E583600BA3A3A3A3E083
:102F73007004790180027900024441120BAF8A8206
:102F83008B83E58222C082C083EAFCEBFD7A007B5F
:102F930000120BBB024489C082C0837C007D008089
:102FA300F074F212036874F31208ED8A0C8B0D8C23
:102FB3000A8D0B7E007F008021123492120AAF1219
:102FC300301C60137403120AAFAC82AD83AA0CAB3E
:102FD3000D121E99E970351239829024A512399287
:102FE300503012335C60F0E50C7002E50D70CA746A
:102FF300FF650A700474FF650B60DC850882850930
:1030030083E0650A7004A3E0650B70CBAA08AB09E3
:1030130080047A007B000240E6E8F0A3E9123DBA9F
:10302300120B6DE92274F412036874F31208ED7540
:103033000800120BB58A0A8B0BAE0AAF0BEE7001B8
:10304300EF602A7401851882851983124394F8A3CB
:10305300E0F9740B120AAF123DB2120B557C127DCC
:103063000079FFEEFAEFFB12162F75080112308577
:1030730050097401901D02F0120FCFA908740D02BC
:1030830044CA7A047900120B859024A5123998EA70
:1030930098EB992274F7120368E9FE74FE6A7003D1
:1030A30074FF6B780079007005804D1235AD902464
:1030B300A51235A05042E8FCE9FDEC75F012A4FC22
:1030C300AFF075F012EDA42FFDEC24A7FCED34173F
:1030D300FD8C828D83A3A3A3A3E064FF60CD8C82C8
:1030E3008D83E06A7003A3E06B70C08008EC600519
:1030F300C39405401C1235AD9024A51238F7501A1D
:10310300123124FCEE70E674016C600574036C707C
:10311300E48A828B83124E4580047AFE7BFF02375A
:103123007CE8FAE9FBEA75F012A4FAACF075F01248
:10313300EBA42C1233C722120BC7024489C082C0EE
:1031430083790180F274F01203688A0A8B0B7A0484
:103153007901120B858A0CEA7001EB6040EAC333F4
:10316300FAEB33FB1216CB8A088B09AE08AF09EED4
:103173007001EF60237AFE7BFF120BCD74FE6A7041
:103183000374FF6B601B850882850983124180E508
:1031930008240212441980E1750C0080047E007F2C
:1031A30000850A82850B83E50C124984022A407448
:1031B300F6120368750800750900780812082D12C5
:1031C30031E3740378081209EE1233507B001217AF
:1031D30031740212085BE9FE6003120BDF023A97B7
:1031E3009024A51231EA22E493F508740193F509BA
:1031F3002274F612036874FE1208ED123ACA0244EE
:103203002274F412036874DF1208ED7E00851882BD
:10321300851983858208858309780812082D750826
:10322300028E09780812082D7C007D00123C0512DD
:10323300085BE960030232DA1232E1124356C3EA51
:1032430098EB9950030232DA8077740F120AAF8534
:103253008208858309780812082D75080875090006
:10326300780812082D7403780A1209EE7402250AED
:10327300FCE4350BFD123C0512085BE97042740255
:10328300120AAF7401F07411120AAF12435C740D89
:10329300120AAF12440F7402120AAFAA82AB83124E
:1032A3000B6DE9601B7413120AAFE0F97405120A7F
:1032B300AFAC82AD83740F120AAF124E45120B915D
:1032C3000E8E8285820A750B00124356C3E50A9857
:1032D300E499500302324DEEF974210244CA90245A
:1032E300A5E493FA740193FB2274F612036874FE47
:1032F3001208ED851882851983E4F0A3F0FE80336C
:1033030012335C602B780812082D750808750900C4
:10331300780812082D7404120AAF123D0974037859
:10332300081209EE123350123D1412085B123CF9D5
:10333300123987FF9024A512399240C485188285DB
:10334300198385820885830978080244227402253B
:1033530008FCE43509FD7A2222EEF8EFF9E875F06E
:1033630012A4F8AAF075F012E9123477A3A3A3A369
:10337300E064FF2274F71203687C007D0080041967
:103383001233A812339F500D1233B1C3940550F07A
:10339300E970EC80047A007B0002377C1232E1C3CF
:1033A300EC9AED9B22EC24010CED3400FD22ECFAA7
:1033B300EDFBEA75F012A4FAAEF075F012EBA42E51
:1033C3001233C722FBEA24A7FAEB3417FB8A828B5A
:1033D3008302627B74F312036874F31208ED750AB7
:1033E30000750B008052E50C1258B28E828F831247
:1033F3005A77E0687003A3E06960257401120AAF8D
:10340300E0687003A3E0696017EE2402FCEF340068
:10341300FD7403120AAFAA82AB83121E99E96007F7
:10342300EEFAEFFB121101050C9024AFE493FAE5D9
:103433000CC39A40B112265F12348AE50A98E50B51
:1034430099502CE50A75F012A4F8AAF075F012E56C
:103453000B123477E064FF7004A3E064FF60D612BC
:103463003492120AAF12301C60CB750C0080BA7410
:103473000D023816A42AF9E824A7F508E93417F54C
:1034830009850882F583229024A5E41239992274D0
:103493000185188285198312436B1247BD740B2271
:1034A30074F6120368123A9C123717EC8508F0A4DD
:1034B300CCAAF08509F0A42AFA8508F0EDA42AFD28
:1034C30079FF7ABE7B1C12162F900337740FF0A37B
:1034D300740CF09003397409F0A3740CF090033B5F
:1034E3007433F0A3740CF090033D7445F0A3740C93
:1034F300F090033F744BF0A3740CF09003417451AC
:10350300F0A3740CF09003437457F0A3740CF0E42D
:10351300900336F0024441C082C083780079008072
:10352300031235AD1238F45024E8FAE9FBEA75F0DA
:103533000EA4FAACF075F00EEBA42CFBEA24BEF556
:1035430082EB123FA970DAAA82AB8380047A007BF4
:103553000002448974F71203687A007B00780079CB
:1035630000802FE8FCE9FDEC75F00EA4FCAEF075CD
:10357300F00EEDA42EFDEC24BEF582ED123FA96002
:103583000EA3A3A3A3A3E0FCEA2CFAEB3400FB12E3
:1035930035AD9024A71235A040C902377CE493FCD3
:1035A300740193FDC3E89CE99D22E8240108E934F2
:1035B30000F92274EC12036889108A088B098C0DB8
:1035C3008D0C7414120AAF125DCD7E007F00120CB5
:1035D3006FAA08AB09120C758A0E8B0F85088285BA
:1035E3000983A3A3A3A3A3A3A3A3E0640170077503
:1035F30008018E0980058E08850D0974FE650E701D
:103603000474FF650F70030236FA8E0D8002050DF8
:10361300850D129024A71265C45071E50D75F00E47
:10362300A424BEFEE5F0123A55651070E1A3E065EF
:103633000870DB8E828F83A3A3E0650E7004A3E082
:10364300650F70CA8E828F83A3A3A3A3E06509705D
:10365300BD750D00E50DC3950C40030236FAE50D6B
:10366300C333F8E433F9E50A28F508E50B39F5091E
:103673008508821263C4120C1BE9700C85088285CD
:1036830009831263C6120C27050D80C8120C038A26
:10369300128B13AE12AF13EE7001EF605A8E828F4E
:1036A30083E510F0A3E5081243F8A3E50EF0A3E5C4
:1036B3000F1243F8A3A3A3E509F09024B7E493C33F
:1036C300950C5004E493F50C8E828F83A3A3A3A3DC
:1036D300A3E50CF0850A08850B09750A0078081222
:1036E3000829E50CC333FCE433FDEE2406FAEF347A
:1036F30000125A1712085BEEFAEFFB7F0C020579F2
:10370300C082C08312371479FF12162F7901024445
:10371300899024A3E493FC740193FD2274F71203AC
:1037230068EA7001EB60498A828B83A3A3A3A3A3F6
:10373300A3E5827002E58360377E0080010E8A82F2
:103743008B83A3A3A3A3A3E0FFEEC39F5022EEC3E7
:1037530033F8E433F9EA28F582EB39F583A3A3A31D
:10376300A3A3A3E06C7003A3E06D70D17901800281
:1037730079008005740D12085B7F0102057974F3EB
:10378300120368EA2405F8EB3400F9E8FEE9FFEADE
:103793007001EB606F8E828F83E06073EA2406080A
:1037A300EB3400F9E0F50B750A00800B8E828F83F2
:1037B300E014F0605A050AE50AC3950B5046E50A82
:1037C300C333F508E433F509EA2508F508EB3509B1
:1037D300F50974062508F508E43509F50985088215
:1037E300F583E06C7003A3E06D60C18508828509F1
:1037F30083E0F508A3E01259F9E824020808E93444
:1038030000F980B18E828F83E060047901800279B0
:1038130000800312085B7F0502057974F7120368C1
:10382300EA7001EB6037126770C0E09024B7E4934D
:10383300FED0E0C39E502688828983E0C333FEE432
:1038430033FFEA2EF582EB3FF583A3A3A3A3A3A340
:10385300ECF0A3ED12628104F07901800279000299
:10386300377C74F212036889088C091239A1700538
:10387300125DC9800312397A74FE650A700474FFFD
:10388300650B70067A007B008064780079008018ED
:103893007401650C700F8C828D83E0650A7004A33C
:1038A300E0650B60491235AD1238F450D7123D3E36
:1038B3008A828B83E0650870ECA3E0F50CEA2402AE
:1038C300FCEB3400FD8E828F83E0640160C2E50C63
:1038D30070D38C828D83E0650A7004A3E0650B705E
:1038E300C48A828B83A3A3A3A3E0650970B70240B4
:1038F300EB9024A71232E4C3E89AE99B2274F212F4
:103903000368EA2408F8EB12438B64017005125D27
:10391300C9800312397A74FE650A700474FF650B5B
:1039230060527E007F008047EEF8EFF9E875F00EF5
:10393300A4F8AAF075F00EE9A42AF9E824BEFAE97E
:10394300341CFB850882850983E06401701B8A822D
:103953008B83A3E0640170148A828B83A3A3E06545
:103963000A7004A3E0650B7003120C15123982125E
:10397300398F40B40240EB120C5D8A0A8B0B221282
:103983003987FF22EE24010EEF3400229024A71280
:10399300399802282BE493F8740193F9C322EA249B
:1039A30008F8EB125B16E064012274F312036889D2
:1039B3000C8A0A8B0B7508007509007E007F008056
:1039C3001B123CD6650C7011AC0AAD0BAA82AB83FB
:1039D300120C1BE9600312441512398212398F400D
:1039E300E0AA08AB0902381974F1120368890D8A39
:1039F3000A8B0B8C0E750C00750800750900800589
:103A0300050C1244159024A712348DE50898E50996
:103A1300995038E50875F00EA4F8AAF075F00EE594
:103A230009A42AF9E824BEFEE9123A55650D70D2BD
:103A3300AC0AAD0BEEFAEFFB120C1BE960C4E50C0C
:103A4300C3950E40BBEEFAEFFB80047A007B0002C5
:103A53002739341CFF02298D74F612036875080098
:103A6300750900780812082D123A9C123CB3E9A498
:103A73002AF97583247582A3E49328FCA3E493397C
:103A8300FD7A417B00121731740212085BE9FE6074
:103A930003120C4BEEF90244419024A31231EA9035
:103AA30024A72274F612036874FE1208ED123ACAB0
:103AB30012082D750802750900780812082D7C007C
:103AC3007D007A41024436851882851983E4F0A388
:103AD300123D3285820885830978082274F4120323
:103AE3006874E71208ED7E007F00851882851983CC
:103AF300858208858309780812082D7508028E09C6
:103B0300780812082D7C007D007A41123C071208C8
:103B13005BE96003023BE98E0A8E0B805874021244
:103B23000AAFAC82AD83740D120AAF124E45120C6C
:103B330063740A120AAFE060397411120AAF858206
:103B430008858309780812082D7412120AAFE0FD64
:103B53007411120AAFE0FC7404120AAFAA82AB8399
:103B6300740D120AAFE0F9120C0F740212085B1203
:103B7300398212265F851882851983123BFA5066B3
:103B8300740B120AAF858208858309780812082D01
:103B93009024A31206DC9024A3123BF2E8850AF0DA
:103BA300A4C8AAF0850BF0A42AFA850AF0123CC82F
:103BB300123C0712085BE970B9740A120AAFE4F009
:103BC300740C120AAFE07003023B20740A120AAFAE
:103BD3007401F0740D120AAF12435C7402120AAF3F
:103BE30012440F023B3CEEFAEFFB74190244CAE4A1
:103BF30093F8740193F9221247BDC3E50A98E50BC4
:103C030099227A227B0012174374042274F512035B
:103C13006874F01208ED851882851983E4F0A3F027
:103C2300FE805A123CD664FF605085820885830962
:103C3300750A0078081208291237147405120AAF9E
:103C4300AA82AB83125A1812085B7402120AAF8558
:103C53008208858309780812082D9024A31206DCB4
:103C63007404120AAF123D099024A3123CB3123C10
:103C7300C8123D1412085B123CF9123987FF12393E
:103C83008F40A085188285198385820885830978EA
:103C93000812082D750802750900780812082D7C92
:103CA300007D007A41123D1412085B7410023F85B7
:103CB300123BF2E88508F0A4C8AAF08509F0A42A0B
:103CC300FA8508F022E9A42AF9740228FCE439FDF4
:103CD3007A4122123CDBE022EEF8EFF9E875F00EB0
:103CE300A4F8AAF075F00EE9A42AF9E824BEF58237
:103CF300E9341CF58322851882851983E02401F0B9
:103D0300A3E03400F022E0F508A3E0F50922123D18
:103D13001C7B0012173D740422EA75F00BA4FAAC65
:103D2300F075F00BEBA42CFBEAFCEBFD7A232212DB
:103D33003D3622F085188285198322E8FAE9FBEAE9
:103D430075F00EA4FAACF075F00EEBA42CFBEA248C
:103D5300BEFAEB341CFB22EAF0A3EB123DBA22C0FD
:103D630082C08374F31208ED123F236402700E12B3
:103D73003DA8120AAF123DB2120B61800CEAFCEBB4
:103D8300FD7403120AAF123D8F02447E123D961258
:103D93000B6722AA82AB83120B3D85188285198398
:103DA300AA82AB83228A828B831247BD740122E8E5
:103DB300F0A3E9123DBA22123DBE22123D3680E045
:103DC30074F712036874F31208EDECFEEDFF74044C
:103DD300851882851983F0740B120AAFEAF0A3EBFE
:103DE300123020F508601D74038E828F83A3A3A372
:103DF300A3A3A3A3A3F0120AAFAC82AD83EEFAEFA1
:103E0300FB121E9FA908023777C082C08374F31286
:103E130008ED7404851882851983F0740B120AAFB8
:103E2300123D5A120B6D7401024480124E4F740DF1
:103E33002274F612036874F31208ED900336E070EF
:103E43006E7404851882851983F0900375123DAC56
:103E5300120AAF12440F120F93EAFCEBFD74031224
:103E63000AAF122F13120F9F8A088B09A808A909FA
:103E73007401120AAFE0687003A3E069602B74FE5B
:103E830068700374FF6960217401120AAF12440F52
:103E93007403120AAFAA82AB83120FA58518828519
:103EA3001983AA82AB83120B737401900336F074E7
:103EB3000D02443EC082C08374F31208ED123F2307
:103EC300FC74026C701E123DA8120AAFE8F0A3E95D
:103ED30012572C7048851882851983AA82AB8312E6
:103EE3000B73803974036C7011EAFCEBFD740312DD
:103EF3000AAF123D8FE9702580DB74016C70128A62
:103F0300828B8312435C740B120AAFE8F0A3E9803F
:103F13000B740B120AAF74FEF0A374FFF002447E1D
:103F23007404851882851983F08A828B83A3A3A3E3
:103F3300A302627B74F5120368780079008808880D
:103F4300097C007D0080031233A89024A7E493FE2C
:103F5300740193FFC3EC9EED9F5021ECFEED123FE5
:103F63008D60E4AE08AF0974012EF508E43FF5094E
:103F7300EA6E7002EB6F70CFA882A983E8FAE9FBBF
:103F8300800312085B7F03020579FFEE75F00EA430
:103F9300FE85F00A75F00EEFA4250AFFEE24BEF5A8
:103FA30082EF123FA922341CF583E064FF22C08212
:103FB300C08390034A74A9F0A3740EF090034C7469
:103FC300A3F0A3740EF090035074DBF0A3740CF011
:103FD30002448974F7120368EAFEEBFF900384E05E
:103FE300FA74086A601974046A60148E828F83E01D
:103FF30064017046124347124F63E06406703B8EC0
:10400300828F83A3A312435C74FE68700374FF69F9
:104013006028900375E0687003A3E069700BEE24D9
:1040230015F582EF126084600AEEFA120F57E9F574
:1040330008800AEEFA120F5D80F47508C2EEFAEFFB
:10404300FB1216D1A90802377C74F21203688A089E
:104053008B098A828B83A385820A85830B8A828B51
:1040630083E0F8850A82850B83E028FAE43400FBB9
:104073001216CB8A0C8B0DAE0CAF0DEE7001EF60F8
:104083005C850882850983E0FC7D00790012162F88
:104093008E828F83A3A3125B2F120F998E828F833D
:1040A300A3A3A3A3124180850882850983E0F8EEC8
:1040B30028F8EF3400F91243471247A0C0E0125822
:1040C300BFD0E0F0120FABEE240E1258C2E9124338
:1040D30067E0C0E0EE24111258C2D0E0F0EEFAEF30
:1040E300FB8005740D12085B7F0602057974F412D8
:1040F300036874EB1208EDEAFEEBFF900346E070F1
:1041030002A3E070677A077B001216CB9003461276
:104113004180900346E07002A3E0604C9003461296
:10412300566C8F838E8274071207A78E828F8378D3
:1041330008120A708518828519837808120A618E1D
:10414300828F83A3A3A3A3E0C0E07405120AAFD0B8
:10415300E0126278C0E07404120AAFD0E0F0740792
:10416300120AAF1242C080067910800279017415D9
:104173000244CA124351124E4F88828983EAF0A344
:10418300EBF022C082C083900346E07002A3E0609C
:1041930010900346124E451216D1900346E4F0A345
:1041A300F0120EC71210A102448974F3120368744B
:1041B300EB1208EDECFEEDFF7422120AAF78081241
:1041C3000A707426120AAFE0FC7427120AAFE0FDEE
:1041D3007428120AAFE0F50C740F6C7005740F6D40
:1041E3006012901D7BE06402700579C10242BBEC52
:1041F300C39D40F69003857808120A61E990038B0A
:10420300F0EC900389F0ED90038AF0E50C90038CB9
:10421300F074FF6A700374FF6B701F901D88E06475
:10422300FF7004A3E064FF7005121641800C901D1B
:1042330088124360E8F0A3E98007900382EAF0A3C1
:10424300EBF0EE7001EF6017EEFAEFFB121161E98C
:104253006401700BEEFCEFFD7A967B03121E9F90B8
:104263000375E4F0A3F0900378F0A3F0900395F0C6
:10427300901D7BE06402700A740F900389F0900331
:104283008AF07405900384F07404120AAFE4F0908A
:1042930003857808120A70851882851983780812B5
:1042A3000A6190038BE0C0E07405120AAFD0E0F01E
:1042B3007407120AAF1242C07415023816E4124290
:1042C300C522123DBE121EC922E0F912177922C07F
:1042D30082C083900345E0700312193B120CAB02BA
:1042E3004489C082C083900345E07007E4901D01B8
:1042F300F080317401901D01F0900345E064FF608C
:10430300237C41E0C394415002E0FCECFAE0C39A01
:10431300F0EC75F0E8A4CCAAF075F003A42AFD7ABA
:10432300801243337A017B1D7941121EB7024489FF
:104333007B009003D0E0F912176D22F582EF124350
:1043430051740122EE12434C22240BF582EF340008
:10435300F583228518828519831247BD221247BD32
:104363009003822212436B22F0850882850983A37E
:10437300A322F8A3E0F922C082C083EB90038CF060
:10438300120EB5024489F8EF1245B68882F583E030
:10439300221243FCA3E02274F712036874F8120894
:1043A300EDEAFEEBFF7900900384E0640870418539
:1043B300188285198374FD125B31120F93740212F4
:1043C3000AAF1241807405120AAFE41243F8E0C049
:1043D300E07404120AAFD0E0124403C0E074061282
:1043E3000AAFD0E0F07407120AAF1247B1120FED13
:1043F30074080237791243FC22F08E828F83A32242
:10440300F002298D850882850983A3A3E8F0A3E937
:10441300F022E5082401F508E5093400F509221224
:10442300082D750802750900780812082D7C007D97
:10443300007A22123D1412085B740212085B7F0299
:10444300020579C082C0839003567465F0A3740D8E
:10445300F09003FC7447F0A37410F090035A749522
:10446300F0A3740DF090035C7465F0A3740DF090E9
:10447300035E749BF0A3740DF0800B740B120AAFF0
:10448300123E2E12085BD083D08202054574F412CB
:10449300036874F91208ED8A088B098C0A8D0B8561
:1044A30018828519837808120A617404120AAFE925
:1044B300F07405120AAFE4F07406120AAF1247B1A2
:1044C300120C937407800012085B7F040205797451
:1044D300F01203688A828B83125C21EE7001EF7005
:1044E300030245B3EA2402F8EB1245B6900312E047
:1044F3007002A3E0601388828983E0F9EEFAEFFB90
:10450300900312124F63122075EE2406F8EF340065
:10451300F9880A890BEE2409080808EF3400F988A2
:104523000C890D8882F583E06402704B850A8285CD
:104533000B83E054026052850882850983E064E9B5
:104543006047EE240A08EF126775700A901D7DE03C
:104553000488828983F0E014F07404850C82850D4D
:1045630083F0901D7E1258D9E8F0A3E912678A7090
:1045730001EB700312625D850C82850D83E0FA7492
:10458300026A600574066A7027850A82850B83E0D8
:10459300A2E0501C850882850983E0F9EEFAEFFB5F
:1045A300121F5F850A82850B83E054FEF0A3E0F0BF
:1045B300022A403400F9880889092274EC1203683E
:1045C30074DD1208EDEAFEEBFF8C128D13743712C3
:1045D3000AAF780C120A707510007405120AAFAC9A
:1045E30082AD83120ACBEE240BF508EF12441D743F
:1045F30005120AAFE0A2E55019751001AC82AD8334
:10460300850882850983124E45121F6BE9600302F8
:1046130047597405120AAFE0A2E650227406120A43
:10462300AFE0540370187405120AAFE0540CFA7427
:104633000C6A600A74086A600575110180037511BC
:10464300007405120AAFE05403FA74026A7013ACE3
:1046530082AD83850882850983124E45120ADD02E5
:104663004759EE2406F50AEF12266774016A70377C
:10467300E511600312478F7405120AAFA882A9835C
:104683007403120AAFE8F0A3E91247B685188285CE
:1046930019831247A0C0E07402120AAFD0E0124798
:1046A300B2122049024759EA600302475990036C4A
:1046B300E06401700C850A82850B83E07003024776
:1046C300597422120AAF74021247B6741A120AAF4F
:1046D30012440FE51160087405120AAF12478F7474
:1046E30005120AAFE0540C64047073EE240FF582D4
:1046F300EF126084C0E07417120AAFD0E0F09003A9
:1047030014E07002A3E0604E120F998A088B09A887
:1047130008A909741A120AAFE0687003A3E069706C
:1047230035780C120825E510F50878081208317859
:104733001212082DA911740C120AAFAC82AD837446
:1047430021120AAFAA82AB83900314124F63122083
:1047530075740712085B742312085B0236FE780C2B
:10476300120825781212082D9003821206AFA910A1
:104773007422120AAFAC82AD83740D120AAFAA82FF
:10478300AB83121F53740812085B80CAAC82AD83DB
:10479300850882850983124E4F120AD122E8F0A3BD
:1047A300E91247A822F0850A82850B83E022E412EE
:1047B3003DBA22122B161247BD22E0024375C08276
:1047C300C08312182D024489C082C0831218330299
:1047D3004489C082C083121839024489C082C083CD
:1047E30012183F02448974F71203687409120AAF5E
:1047F300E0F508780812083112184B740102377972
:10480300C082C083121857024489C082C083121821
:104813005D024489C082C08312186302448974F71D
:10482300120368EAFEEBFF74016970107900120D40
:10483300D77C1E7900EEFAEFFB120D5302377C741E
:10484300F412036874F91208ED8A088B098C0A8D37
:104853000B7413120AAF124E45901433E07002A387
:10486300E06027E9851882851983F07401120AAF85
:104873007808120A61EAF8EBF97405120AAF123DDF
:10488300B2901433124F631220750244C6C082C023
:104893008312189302448974F7120368901D04E08D
:1048A300F97F00800B124AD7540D64017001190F70
:1048B300124A945003E970ED02377C74F7120368CF
:1048C300901D05E0F97F00800B124AD7548D648157
:1048D3007001190F124A945003E970ED02377C748A
:1048E300F3120368890CE975F006A4F8A9F0740CB7
:1048F30028F508E439F509EA2508FAE43509FB1235
:1049030016CB8A0A8B0BAE0AAF0BEE7001EF602554
:10491300AC08AD09790012162F124347E50CF0EEEF
:104923002508F8EF3509F98E828F83A3A3A3A3A3E8
:10493300A3A312440DEEFAEFFB02381974F6120327
:1049430068EAFEEBFF120D2F901D03E0FAE9C39A0C
:104953004009900352124E45120D35EE2402F8EF32
:104963001245B6900354E088828983F0900354E0A3
:1049730004124984120D3B850882850983E0023ABB
:1049830098F0EEFAEFFB22C082C0837900900352C5
:10499300800109124E458A828B83E5827002E5838A
:1049A30070F002448974F7120368EAFEEBFFEE70BD
:1049B30001EF605E900352E07002A3E06054900345
:1049C300521251F67A007B00800FAA82AB831251F8
:1049D300F6E5827002E5836039EE65827003EF6568
:1049E3008370E78E828F8312435C90035212566C5E
:1049F300EE6C7002EF6D700590035280048A828B17
:104A03008312440FEEFAEFFB122019EEFAEFFB12BA
:104A130016D102377CC082C083900352E0F8A3E032
:104A23008003ECF8EDF9E87001E96009125668ECCF
:104A33007001ED70ED8A828B83E4F0A3F0E87001DE
:104A4300E9600688828983800390035212418002C1
:104A5300448974F712036890035280048A828B831B
:104A6300125B257001EB60227F0080010F124A94D4
:104A730050EAEF75F006A4FCADF0EA2CFCEB3DFD2B
:104A83007410124AEB6970E480047A007B000237E9
:104A93007C124AF8FCEFC39C2274F7120368780077
:104AA300800108124AF4FDE8C39D5025E875F0061D
:104AB300A4FEAFF0EA2EFEEB3FFFEE2410F582EFEB
:104AC3001260846970DCEE2411F582EF1260844C6D
:104AD300F002377CEF75F006A4FCADF0EA2CFCEB9A
:104AE3003DFD7411124AEB222CF582E43DF583E07F
:104AF30022124AF822EA240BF582EB3400F583E014
:104B03002274F6120368120E4F7A008010EA125ACA
:104B130072124B95125A7DF0124D4EF00A9024AD4D
:104B23001265BD40E87A00801E8A08750900740387
:104B330078081209EE12607388828983124B95A359
:104B4300A3A3A3A3A3F00A9024BA1265BD40DA7A03
:104B530000801A8A08750900740378081209EEE5C3
:104B6300082449F582E509341C125B2D0A1265BA43
:104B730040E19024A9E493900360F0124B84024433
:104B8300417CE87D037A107B009003D0E0F9121793
:104B93007322124B9922A374FEF0A374FFF0E488EE
:104BA300828983A32274F012036874F51208ED8AD4
:104BB300088B09890A8C0BE9A2E050147508FC756F
:104BC30009FFA2E15005D2E4024C72D2E3024C7217
:104BD300120E318A0C8B0DA80CA90D900375E06899
:104BE3007003A3E06970057900024D49AC0A7902AC
:104BF300AA08AB09120E2BE960EDE50AF50C780C57
:104C030012083179027CFE7DFFAA08AB09125364B6
:104C130012085BE96003024D47E50AC2E5F50A9015
:104C230003C2E0704CE50AA2E640467403120AAFE1
:104C3300AC82AD83AA08AB09120B49E9702D124E61
:104C430055F8EBF9EA7001EB6027E82402FEE9343A
:104C530000FF0A0AFB120B43E96016EEFCEFFD743A
:104C630003120AAFAA82AB83121E9FE50AD2E5F5AF
:104C73000A900355E0F50C900375E0F50EA3E0F5FB
:104C83000F780E12082D7D017C00900355E0F9AAE0
:104C93000EAB0F120DE3740212085BE9FA90035591
:104CA300E004F0EA6003024D47E50AA2E550047A06
:104CB3000E80027A067401120AAF125DDC8A0E8B33
:104CC3000FAE0EAF0FEE7001EF6075124D5C124325
:104CD30048123DAC88828983F07478550A124D4E90
:104CE300A3A3E50C126088E508F0E50988828983AF
:104CF300A3A3A3A3F0E488828983A3A3A3A3A3F01C
:104D0300E50AA2E550147403120AAFAC82AD83E83E
:104D13002406FAE93400FB121E9F8E828F83A3A31D
:104D230074FD125B31E50B600EC3941E5009EE2433
:104D3300131258C2E50BF0EEFAEFFB120C87800654
:104D43007910800279C7740B022A3DA3124D5322B6
:104D5300F08001F98882898322EE241712434E746E
:104D630001F0120F93EE241A12434EEAF0A3EBF074
:104D7300EE22C082C0839014D4E06401901D7C7045
:104D830006E0FC79018004E0FC79037A007B0012E1
:104D93000D5302448974F41203688A088B09E9FEEF
:104DA300121023E960067AFF7BFF8078901D7BE079
:104DB300640270637900124E2AEA7001EB604212BA
:104DC3006770FC74016C7022900374E08A828B8399
:104DD300A3A3A3A3F08A828B83A3A3124E4574FEDD
:104DE3006A700374FF6B6010803A74036C601A740A
:104DF300046C70047AFE80B088828983E064027058
:104E0300089003C1E06402700E124E557001EB600E
:104E130006AA08AB09800DAA08AB09900356124FE6
:104E2300631220750244CDAA08AB09124E32221236
:104E33000E31EEF9120E2522EA240BF582EB340033
:104E4300F583124E4F22850E82850F83E0FAA3E08D
:104E5300FB22124E5D1210E3EA22900382E0FCA3D0
:104E6300E0FDAA08AB092274F7120368EAFEEBFF20
:104E7300120B9DE9700AEEFAEFFB120BA9E960062B
:104E8300EEFAEFFB80047AFE7BFF02377C74F212AA
:104E930003688A088B098C0A8D0BE9FE7F001210C8
:104EA30023E979006003024F59AA08AB091268FB92
:104EB3007002E5836017A3A3A3A3A3E0FA74026AB5
:104EC300704F9003C1E064027003024F57AA08AB0E
:104ED3000990035C124F63122075120BAF8A0C8B7F
:104EE3000DA80CA90DE87001E96069E82405F582B5
:104EF300E9126084A2E0505C750C01A2E1501C79B8
:104F030001AC08AD09AA0AAB0B120D83E9700F803F
:104F13004374036A703E750C028003D2E1F0900380
:104F230075E0650A7004A3E0650B700E7C1EEEF954
:104F3300AA08AB09120D530F801AA90CAC08AD09CE
:104F4300AA0AAB0B120D83E9700A0FEEF9AA08AB9C
:104F530009120DD7EFF90240EBEEFAEFFB9003587D
:104F6300124F6722E0F8A3E0F58388822274E812E7
:104F7300036874F01208ED8A148B158C088D09747C
:104F830028120AAFE0F510A3E0F511900402E070D7
:104F930002A3E060121269017002E5836009A3E0D5
:104FA300700579000251D5E514241DF516E5153475
:104FB30000F5178516821251F4A3E0F50A88828959
:104FC30083125344FA88828983A3A3A3A3E0F9EA53
:104FD300FEE9FFAA08AB09120DDDE9FA1251FCE064
:104FE3002AF50B530A78E514240BF50EE515340066
:104FF300F50F780812082D7D001251E712085BE9BE
:10500300FA74036A609CEA70407418550A700302CC
:1050130050F3E50AD2E0F50AA2E45004D2E1F50A1E
:10502300E50AF50D780D1208311251DA12085BE921
:10503300701785108285118374FFF0A3F0850E82AB
:10504300850F83124E45121851851082851183E016
:1050530064FF7004A3E064FF60399003C1E064025D
:105063007003024FA5850E82850F83E0FAA3E01239
:105073004F5F122075EA65087003EB650960030250
:105083004FA5124F5C122075851082851183EAF0BB
:10509300A3EBF0780812082D7D011251E712085B8B
:1050A300A90AEEFAEFFB120E318A088B09A808A9A8
:1050B30009900375E0687003A3E06960030251CCB3
:1050C300EEFAEFFB122F7E7002E5836064A3A3A3C5
:1050D300A3E0FA74016A600574026A705485188249
:1050E300851983AC82AD83EEFAEFFB120B49805531
:1050F30090036EE0600FE50AF50D780D120831128A
:1051030051DA12085BE50AF50D780D1208317902C0
:105113007CFE7DFFEEFAEFFB12536412085BE9603D
:105123000302504C85108285118374FFF0A3025053
:1051330095120F93EAFCEBFD851882851983AA82E9
:10514300AB83121E9F851482851583A3A3A3A3A3F8
:10515300A3A3A3E06401701AE5142415F582E515F1
:105163001258C512566C7408120AAFAA82AB831286
:105173001E9F851682851783124F63A3E04430F583
:105183000878081208317401120AAF8582088583F2
:1051930009780812082D740B120AAF8582088583DB
:1051A30009780812082DE50CF508780812083179FA
:1051B30000EEFCEFFD850E82850F83124E45120D26
:1051C3007D740612085B024FA51251FCE50BF01229
:1051D3000FAB741002659B7901AC08AD09124E49FF
:1051E30012536422AC0BA90C124E49120DE3740244
:1051F30022F5831247BD024D578516828517831208
:105203004F670258DE74EE12036874F01208ED8AD9
:10521300108B11EA241DF50EEB3400F50F850E8279
:105223001251F4125344FC88828983A3A3A3A3E0FD
:10523300FBECFEEBFF88828983A3A3A3A3A3E0FC7B
:1052430088828983A3A3A3A3A3A3E0FAE4CAFBEC04
:10525300F508EBF50988828983A3A3A3A3A3A3A3DA
:10526300E0F50A88828983A3E05478F50BA2E45021
:1052730016E82408FCE93400FD7408120AAFAA8278
:10528300AB83121E9F7A08E50BA2E55024EAF8854A
:105293000E82850F83E028F8A3E03400F974082810
:1052A300FCE439FD851882851983AA82AB83121E1B
:1052B3009FAC0AA90CEEFAEFFB120DE9E9FA7403AD
:1052C3006A6079900375E06E7003A3E06F605EEA35
:1052D3007054E50BF50D780D120831125350120876
:1052E3005BE97058780B1208317401120AAF85829A
:1052F3000E85830F780E12082D740B120AAF858268
:105303000E85830F780E12082DE50CF50B780B1222
:105313000831A90AAC08AD09EEFAEFFB120D7D7452
:105323000612085B801674046A701180B7E50BF5EA
:105333000A780A12083112535012085B741002568D
:10534300C1A3A3E0F50C8882898302627C7901E51D
:1053530010240BF582E511124351124E601253646F
:1053630022120DA174012274E812036874F5120865
:10537300EDEAFEEBFF8C088D0989127423120AAF44
:10538300E0F50F7424120AAFE0F516A3E0F51774E5
:1053930028120AAFE0F50EA90F120DEF8A108B1138
:1053A3007401120AAF7408F0E50EA2E450037410FE
:1053B300F0E50EA2E55004E02408F0851882851973
:1053C30083AA82AB8312100B8A0C8B0DEA7001EB5C
:1053D300700302551BEA2417F582EB124341F012C6
:1053E3000F93E50C241AF582E50D1258C51241807E
:1053F300E50C2418F514E50D3400F515E50C241619
:10540300F50AE50D1226677403120AAFAC82AD8369
:10541300AA10AB11120B49E9601E7401850A82853B
:105423000B83F07403120AAFA882A98385148285C3
:105433001583E8F0A3E98025E50EA2E45020E510EA
:105443006E7003E5116F70167401850A82850B83F4
:10545300F0851482851583E516F0A3E517F0E50CB6
:10546300125522E50D1258C5125DCD7402850A82CC
:10547300850B83F0A3E50E125527E50FF0EE850AA1
:1054830082850B83A3A3A3F0EF850A82850B83A3F5
:10549300A3A3A3125527A3A3A3E508F0E509850A4F
:1054A30082850B83A3A3A3A3A3A3F0AA10AB11121A
:1054B3000DDDE92512850A82850B83A3A3A3A3A38C
:1054C300A3A3F0750800E50EA2E45014AC16AD17C3
:1054D300E50A2408FAE50B3400FB121E9F75080841
:1054E300E50EA2E5501C7426120AAF12566CE50AAB
:1054F3002508F8E50B3400F9740828FAE439FB129F
:105503001E9F850C82850D83A3A3E510F0A3E511EF
:10551300F0AA0CAB0D120C87740B02659BE50824F3
:105523000BF58222F0850A82850B83A3A32274F2F2
:105533001203688A088B09ECFEEDFF890A790012D1
:105543000E31900375122BA96A7002E96B7004790E
:1055530001802A750B01E865087003E9650960128B
:10556300A90AEEFCEFFDAA08AB0912105FE9F50BDF
:1055730080097901EEFAEFFB120D05A90B0240EB4E
:1055830074F51203687E917F1A7A101256707001B7
:10559300EB7003124B84900360E014F0700C9024C2
:1055A300A9E493900360F0120E3D750A008052EE59
:1055B3002404F582EF126084603D14F07039EE2408
:1055C300051243896403701579028E828F83125604
:1055D3006C8E828F83A3A3124E45120D838508829E
:1055E300850983E06401600F8E828F83125B2FE451
:1055F300850882850983F0050AEE2407FEEF34004F
:10560300FF9024AC12566040A6750A00802C850AD0
:1056130008750900740378081209EE12606E2407F6
:10562300F582E912608414F0700E88828983A312D4
:105633005B2FE488828983F0050A9024BA125660AE
:1056430040CC750A00800BE50A125A07600214F079
:10565300050A9024AD12566040ED023F88E493FAA8
:10566300E50AC39A22888289831258F4227B009028
:1056730003D0E0F912177FEA2274F6120368E97087
:1056830024790090035A124F631220758A088B09FC
:10569300AE08AF0974FE6E700374FF6F701A902426
:1056A300B3E4936013790190035A124F6312207588
:1056B3008A088B09AE08AF09120FCF022D551208C5
:1056C3005B7F0A02057974F612036874F31208ED1E
:1056D3001216418A088B09AE08AF09900375E06E74
:1056E3007003A3E06F60E9120F9FEA6E7002EB6F25
:1056F30060DEEEFAEFFB121023E970D4EE7001EFD7
:1057030060CEE4851882851983F07401120AAFEE26
:10571300F0A3EF12572C70B874FE6E700374FF6F12
:1057230060AEEEFAEFFB023EB2123DBA120B61E934
:1057330022C082C083120FCF02448974F21203681D
:10574300EAFEEBFF8C088D09890A740E120AAFE09A
:10575300F50B74FC6E700374FF6F700579000240E3
:10576300EB7900120E318A0C8B0DAE0CAF0D90034A
:1057730075E06E7003A3E06F7006E50BA2E650DCE4
:10578300A90B1258A57001E9701279007AFE7BFF0C
:105793001258A57001E97004790280C28882898356
:1057A300EEF0A3EFF074FE6508700474FF65096002
:1057B3000988828983A3A31259FFE82406F582E9A5
:1057C3001258C5E50BF0A2E05003D2E2F0E824043E
:1057D300FAE93400FBE82405F8E93400F9740165BB
:1057E3000A7026740188828983F0900374E08A82A8
:1057F3008B831258ECAA08AB0912110DEA7001EB66
:10580300600302575F7C00801E88828983E0640105
:10581300700302575F900373E08A828B83124D4FAC
:10582300E50AF002575F0C9024AFE493FAECC39AB5
:10583300400302575F7B0080010B9024AC1261632D
:1058430040F7EC1258B2EB75F007A42493F582E508
:10585300F0341A1258C9E0687003A3E069700302B8
:10586300575F9024ACE4936B70BC7C177D00790088
:10587300EEFAEFFB12162F8E828F831259FF9003DD
:10588300821258D9A3A3A3A3A3A3E8F0A3E91258B0
:10589300E47401F0EE240E12433EF01258BF74027A
:1058A3008080120E258A0C8B0DA80CA90DE8227599
:1058B300F017A42421FEE5F03419FF22EE240DF5A0
:1058C30082EF12435122F5831258CF22E0F8A3E06E
:1058D300F98E828F83221258CF8001A3A3A3A3A39F
:1058E30022F0EE240F12434E22F09003821258F45A
:1058F30022E0FCA3E0FD2274EF1203688A088B09FF
:105903008910ECFEEDFF9024B01269C440057905BF
:105913000259E0AA08121899AA08AB09125A67F5A6
:105923000A687001E470097AFE7BFF120DB3E9F88F
:10593300C3E8950AE49400C365D03340030259DEFB
:10594300E875F006A424A9F50AE5F0341BF50BE588
:105953000A2404F50CE50B125B207001EB600312C3
:1059630016D1E510C333F50EE433F50FE5106011DE
:10597300AA0EAB0F1259E37002A3E0700E790180F7
:105983005C850C82850D83E4F0A3F0850A82850B88
:1059930083A3A31259FF850A82850B83A3A882A937
:1059A30083E510F09003CAE0850A82850B831262B7
:1059B300816024850C82850D83125B257001EB6069
:1059C300168E088F09750A007808120829AC0EADE7
:1059D3000F125A1812085B790080027907022B080C
:1059E3001216CB850C82850D83EAF0A3EBF0850CB0
:1059F30082850D83E022F50988828983E508F0A377
:105A0300E509F02275F006A424A9F582E5F0341B1C
:105A1300F583E022FB121623740322E50AF0A3E5C3
:105A23000B122B16A32274F6120368ECFEEDFF741F
:105A33000A120AAF12435C88088909125A67FAC32B
:105A4300E89AE49400C365D0335014E8125A7212F2
:105A530065A3125A7D125A7712440F790080027996
:105A630004024441120DB3E9F89024ADE4932212E9
:105A73005B08A3221247BD022B17125A8122F0881A
:105A83008289830258DF74F7120368750800801B4C
:105A9300E50875F006A424ABF582E5F0341BF58325
:105AA300E06A7003A3E06B605905089024ADE493AA
:105AB300FCE508C39C40D9E4936508704574FE6A0D
:105AC300700374FF6B703B75080080020508902417
:105AD300ADE493FAE508C39A5028E508125B08E0A1
:105AE30070EAA3A3125B2FE82404F8E9125B1612F1
:105AF3005B257001EB600B1216D18E828F83E4F06D
:105B0300A3F002404775F006A424A9F8E5F0341B7E
:105B1300024D563400F9E8FEE9FF0258D4125B3710
