:020000040000FA
:06000000020A420201C2E7
:03002B0002206C44
:030033000206942E
:030043000208C0F0
:03004B0002075E4B
:0300530002011592
:03005B0002076D2C
:0300630002077918
:03006B0002067A10
:1000830002015E0101FF01010503010F10FEFF03E1
:100093000003000300030003000300030003000345
:1000A3000005000A00140028004F009E0000008F86
:1000B300138F138F138F134B1245128F1389220043
:1000C3000000002722000000000C0000000C0001CB
:1000D3000000FD140000000000009915000000005E
:1000E30000000000A305FF010200E8110000005B0F
:1000F3001264000202000800000502071E02051E2A
:10010300020A03B80B02803E0103320002FFFF0222
:100113000206C0E074F21203D4E5A7F8E5A1F9588A
:1001230054106008121C6553A1EF802AE8A2E0C0B6
:10013300D0E9A2E092F0120969158182F05017907C
:100143006198E0F8901565E0C398A2D265D033506A
:1001530002E8F053A1FE7F01020433C0E074F212FF
:1001630003D49061A4E0F8759B00E59158540860AE
:10017300087591F7121CA7802AE59158541060085E
:100183007591EF121CAD801BE8A2E0C0D0E591A2EF
:10019300E092F0120969158182F05007E0C2E0F0A5
:1001A300121DCD9061A3E0F8E5E9585404600E12E6
:1001B3001DA375E9FB906193E0A2E640F28097C02E
:1001C300E074F21203D49061A5E0F8E5BF5854043B
:1001D300600653BFFB121DE5020159C3E498F8E41E
:1001E30099F912021F8026C3E49AFAE49BFBE920E3
:1001F300E7E912021FE498F8E499F922C3E498F8B6
:10020300E499F912021FE498F8E499F9C3E49AFA1D
:10021300E49BFB22EB20E7CFE920E7E0B90010BB2A
:100223000008E88AF084F8AAF022E4FBC8FA22EB7B
:1002330070227B10C833C8C933C9335007C39AC36C
:10024300DBF280069A50012ADBEAC833F4C8C933CB
:10025300F4C9FA2275F008E4C833C8C933C933C9ED
:100263009AC99B5004C92AC93BD5F0ECFBC833F4A7
:10027300C8E4C9FA22080808EAC0E0EBC0E086F047
:10028300E7A4FA180986F0E7A42AFA180986F0E722
:10029300A42AFA180986F0E7A42AFA1986F0E7A433
:1002A300FBE5F02AFA190886F0E7A42BFBE5F03A00
:1002B300FA190886F0E7A42BFBE5F03AFA181809B7
:1002C30086F0E7A4C5F02BFBE43AFA1908E7C5F07A
:1002D300C6A426F6E5F03BFBE43AFA1886F0E7A459
:1002E300F6E5F00826F6E43B08F6E43A08F6D0E033
:1002F300FBD0E0FA22E4CFC0E0E4CEC0E0E4CDC01E
:10030300E0E4CCC0E075F020C3E633F608E633F64C
:1003130008E633F608E633F6181818EC33FCED3329
:10032300FDEE33FEEF33FFC3EC9709ED9709EE972C
:1003330009EF97191919400FFFEC97FC09ED97FD89
:1003430009EE97FE191906D5F0BEECF709EDF7098A
:10035300EEF709EFF7191919D0E0FCD0E0FDD0E072
:10036300FED0E0FF222518C582C0E0E51934FFC5A1
:1003730083C0E0E518C3958224F810AF088583197C
:100383008582188008858319858218D2AFCEF0A3A1
:10039300E520F0A37808E608F0A3DEFAEFF0A3E582
:1003A3008124FAF8E608F0A3E608F0A3E608F0A330
:1003B3000808E608F0A3E608F0A315811581D0E04C
:1003C300FED0E0F8158115811581E8C0E0EEC0E0AC
:1003D30022C0D02518C582C0E0E51934FFC583C00B
:1003E300E0E518C3958224F310AF0885831985824D
:1003F300188008858319858218D2AFC8F0A3E9F065
:10040300A3EAF0A3EBF0A37908E709F0A3D8FAEC89
:10041300F0A3EDF0A3EEF0A3EFF0A3D0E0F0A3D0B0
:10042300E0F0A3D0E0F0A3E520F0A3E5F0F0A322F1
:10043300851983851882E0C0E0A3E0F9A3E0FAA35D
:10044300E0FBA37808E0F608A3DFFAE0FCA3E0FDF5
:10045300A3E0FEA3E0FFA3E0C0E0A3E0C0E0A3E0CD
:10046300F5D0A3E0F520A3E0A3F5F010AF08858352
:10047300198582188008858319858218D2AFD082A6
:10048300D083D0E0F8D0E032120AA4B9000302040A
:10049300CDE490030178E679188002F0A3D8FCD963
:1004A300FA901AE6AA82AB8390008678907901804D
:1004B30015E493A3AC82AD838A828B83F0A3AA82D3
:1004C300AB838C828D83D8E9D9E77582B87583E0D5
:1004D300740312052F758267758320740012052F2C
:1004E300D083D082ECC0E0EDC0E0E493A3FCE493BE
:1004F300A3FDED4C600D120605EC24FFFCED34FF6B
:10050300FD80EFE493A3FCE493A3FDED4C600D1297
:100513000709EC24FFFCED34FFFD80EFD0E0FDD0B4
:10052300E0FCE493A3C0E0E493C0E022C0F0F5F064
:10053300E59F5407C0E0E59F54F845F0D0F0F59FE0
:10054300E473859FF053F0F8D0E045F0F59F22D097
:1005530083D082E59F5407C0E0E493C0E074019325
:10056300C0E07402935407C0F0F5F0E59F54F845DA
:10057300F0D0F0F59F22851983851882E0A3FEE071
:10058300A3F5207808E0A3F608DFFAE0A3FFE0A3D1
:10059300C0E0E0A3C0E0E0A3C0E0E0A3C0E0E0A3CC
:1005A300C0E010AF088582188583198008858218FA
:1005B300858319D2AFD083D082020545D083D08200
:1005C300E9C0E0E493A3C386F0C5F095F0F908E42D
:1005D30093A386F0C5F095F0700BE493A3C3994001
:1005E30005E9048002A3E475F002A42582F582E5FF
:1005F300F03583F583D0E0F9E493A3C0E0E493C03E
:10060300E022C0E0C3E49396087401939618400F68
:10061300E49366700808740193661870007019A358
:10062300A3C3E49396087401939618A3A3400DD033
:10063300E0D0E0D0E002051FA3A3A3A3A3A3D0E0CF
:1006430022D083D082C5F0E493A3C5F0C395F0F51F
:10065300F0E493A3C395F04005E5F0048001E4754D
:10066300F002A42582F582E5F03583F583E493A3B4
:10067300C0E0E493C0E022C0E074F21203D4E58941
:10068300A2E15003121B21758900C2C57F01020438
:1006930033C0E074F21203D4E58BA2E05003121BC3
:1006A30021758B00C2E880E4740480047402800026
:1006B300CCC0E0EDC0E0E518C39CCCAD1950011DE2
:1006C30010AF068C188D1980068C188D19D2AF12B5
:1006D30007A7D0E0FDD0E0FC2274028000CCC0E08C
:1006E300EDC0E0E518C39CCCAD1950011D10AF0659
:1006F3008C188D1980068C188D19D2AF120785D0EE
:10070300E0FDD0E0FC22C0E0C0F088F0E493667026
:10071300080874019366187000A8F0A3A3700BD0A7
:10072300F0D0E0D0E0D0E002051FA3A3D0F0D0E0EA
:1007330022D083D082CCC0E0E493A360061207E703
:100743001470FAE493A360061208D71470FAD0E089
:10075300FCE493A3C0E0E493C0E022C0E074F2128F
:1007630003D4121BA57F01020433C0E074F2120309
:10077300D4121BAB80EFC0E074F21203D4121BB18E
:1007830080E3CAC0E0E493A3C582CCC582C583CD10
:10079300C583F0A3C582CCC582C583CDC583DAE505
:1007A300D0E0CA22CAC0E0E0A3C582CCC582C5831B
:1007B300CDC583F0A3C582CCC582C583CDC583DAFD
:1007C300E6D0E0CA22700908080822601618181833
:1007D300C6C333C608C633C608C633C608C633C63F
:1007E300D5E0EA22C0E0E493A3D39C5010E493A3A2
:1007F300C39C400AD0E0D0E0D0E0020751A3A3A3FA
:10080300D0E022C008C3E096F50808A3E0964208AA
:1008130008A3E096420808A3E09645087001D3D0E8
:1008230008227404800A740380067402800274012F
:10083300C0E0F404120840D0E0120A7F222518F524
:100843008210AF08F518400215198008F518400208
:100853001519D2AF85198322C0D0251810AF08F51A
:1008630018500205198008F51850020519D2AFD0A7
:10087300D022BB0102E722C082C08389828A83BB64
:100883000003E08002E493D083D08222601608083C
:1008930008C6C313C618C613C618C613C618C6138C
:1008A300C6D5E0EA22C3E0C696F608A3E0C696F6EC
:1008B30008A3E0C696F608A3E0C696F622C0E07445
:1008C300F21203D4C2C0E5D1A2E45003121BDB7FB2
:1008D30001020433C0E0E493A36C7009D0E0D0E0DC
:1008E300D0E0020751A3A3D0E022251810AF08F5EA
:1008F30018400215198008F51840021519D2AF22C5
:10090300E066701008A3E066700A08A3E06670044E
:1009130008A3E06622C3E09608A3E09608A3E09646
:1009230008A3E096A2D265D03322C3E7960809E76D
:10093300960809E7960809E796A2D265D03322C341
:10094300E096F008A3E096F008A3E096F008A3E091
:1009530096F022E026F008A3E036F008A3E036F094
:1009630008A3E036F022C0E0E8C0E0E58124FCF80B
:10097300E6A2E7D0E0F8D0E022E647F60809E6472A
:10098300F60809E647F60809E647F622E026F608E0
:10099300A3E036F608A3E036F608A3E036F622E62F
:1009A30027F60809E637F60809E637F60809E637B1
:1009B300F622E657F60809E657F60809E657F60859
:1009C30009E657F622E056F608A3E056F608A3E038
:1009D30056F608A3E056F622E056F008A3E056F0D8
:1009E30008A3E056F008A3E056F022700422600D3D
:1009F30018C6C333C608C633C6D5E0F41822E4C309
:100A030096F608E496F608E496F608E496F622C607
:100A1300F4C608C6F4C608C6F4C608C6F4C622C39C
:100A2300E7960809E7960809E7960809E79622C3B7
:100A3300E09608A3E09608A3E09608A3E096227543
:100A4300D0007581407518017519030002048B608D
:100A53000C08C6C313C618C613C6D5E0F422E6F0C5
:100A630008A3E6F008A3E6F008A3E6F022E0F60800
:100A7300A3E0F608A3E0F608A3E0F622CAC0E0E686
:100A8300F0A308DAFAD0E0FA22E0FAA3E0FBA3E04D
:100A9300FCA3E0FD22EAF0A3EBF0A3ECF0A3EDF05E
:100AA30022E5C754F84401F5C77901222518F582D8
:100AB300E43519F58322120552B0DD02120552E521
:100AC300DD02120552B0DE021205527EDF0212056C
:100AD30052D6E10212055242E302120552DEE3024C
:100AE300120552B9E402120552D7E402120552B6B6
:100AF3002400120552E924001205520825001205AC
:100B0300522A25001205523C25001205525B25008E
:100B1300120552CC250012055266260012055238E2
:100B23002700120552842700120552C3270012051D
:100B330052E027001205522A2800120552652800A8
:100B4300120552802800120552A42800120552DF14
:100B530028001205521F29001205524029001205D0
:100B6300528D2900120552672A00120552182B00D4
:100B7300120552A82B00120552982C00120552DBC5
:100B83002C00120552002D00120552562D0012059D
:100B9300527B2D00120552A02E00120552142F0075
:100BA300120552372F001205525A2F001205528296
:100BB3002F00120552942F001205529E2F0012058A
:100BC300522230001205529130001205523A310080
:100BD300120552423100120552AC3100120552EE99
:100BE3003100120552FE3100120552E632001205A1
:100BF30052713300120552D133001205529D340055
:100C0300120552143500120552513500120552B027
:100C13003500120552FD3600120552193700120530
:100C2300527B37001205521838001205525F380004
:100C3300120552FA3800120552A73900120552E57F
:100C43003900120552553A00120552A03A00120516
:100C530052D93A00120552093C001205525C3D007C
:100C6300120552BD3D00120552063E001205522EDA
:100C73003E00120552B13E00120552313F001205EB
:100C830052AB3F00120552D03F00120552464000BE
:100C9300120552EA4000120552804100120552A784
:100CA3004100120552CC4200120552DF42001205E8
:100CB30052744300120552944300120552404400FB
:100CC3001205528A4400120552CC4400120552B850
:100CD3004500120552BB4700120552C547001205D5
:100CE30052CF4700120552D94700120552E347007D
:100CF300120552FD47001205520748001205521112
:100D030048001205521B48001205523C48001205C8
:100D1300528A4800120552944800120552B84800FE
:100D2300120552DC4800120552394900120552845B
:100D33004900120552A24900120552124A00120537
:100D4300524F4A00120552964A00120552FE4A00BB
:100D5300120552A24B001205526F4D00120552921A
:100D63004D00120552644E001205528A4E001205C0
:100D7300526A4F0012055202520012055264530088
:100D83001205522B55001205527D5500120552765D
:100D93005600120552C356001205522E5700120573
:100DA30052385700120552F45800120552235A00C4
:100DB300120552835A00120552395B001205522163
:100DC3005C00120552DE5D00120552FD5D00120546
:100DD30052595E00120552315F00120552565F00F0
:100DE300120552A75F00120552896000120552C115
:100DF3006000120552016100120552646100120580
:100E030052806200120552E06200120552C663006E
:100E1300120552CE6500120552EA65001205528F83
:100E23006700120552D56700120552B36800120518
:100E3300520D6900120552556900120552C5690029
:100E4300120552536A00120552D76A001205524323
:100E53006B00120552658701120552B7870112050F
:100E630052F189011205523D8A011205520F8B017D
:100E73001205527E8B01120552C18C011205520ECE
:100E83008F011205523590011205529C98011205EB
:100E930052199901120552999B01120552859C0121
:100EA300120552319D01120552629E0112055255DF
:100EB3009F011205526CA2011205526EA401120584
:100EC30052CEA4011205528FA501120552BAA501F3
:100ED3001205525BA6011205523FA7011205521AD1
:100EE300A801120552AEA801120552DBA801120592
:100EF30052FDA801120552F0AA01120552D0AB010E
:100F03001205521DAC011205527EAC01120552406E
:100F1300AD0112055275AD01120552C3AD011205A3
:100F230052F3AD0112055231AE0112055289AE01E1
:100F33001205528EAE01120552E9AE01120552118D
:100F4300AF0112055230B0011205529CB0011205D7
:100F53005206B10112055292B101120552A9B40110
:100F630012055275B501120552E5B6011205523943
:100F7300B901120552E1B90112055296BA011205DF
:100F83005224BC01120552C1BC0112055209BD0114
:100F9300120552A5BE01120552B9BE01120552C671
:100FA300BE01120552E1BE01120552EDBE0112054A
:100FB300520BBF01120552CFC0011205522EC101BF
:100FC30012055284C1011205528FC201120552EB60
:100FD300C201120552DEC30112055222C4011205D9
:100FE30052A5C401120552A6C50112055264C601D9
:100FF30012055203C801120552D8C80112055279CD
:10100300C90112055209CA0112055220CA0112056B
:101013005259CA0112055263CA011205526FCA011D
:101023001205528DCA01120552D1CA01120552226C
:10103300CB0112055243CB011205525DCB011205C0
:1010430052D5CB0112055216CD0112055260CD01C6
:1010530012055253CE011205526FCE01120552D220
:10106300CE0112055227CF01120552E5CF01120519
:1010730052F4D001120552A0D10112055277D201C8
:10108300120552E3D20112055277D30112055247DA
:10109300D40112055276D401120552D5D40112059A
:1010A3005283D501120552A9D50112055221D60149
:1010B30012055246D60112055269D601120552A4F1
:1010C300D60112055282D80112055265D9011205C3
:1010D300521DDA01120552B2DB0112055206DC0180
:1010E30012055249DC01120552B8DC011205522CDB
:1010F300DD0112055285DD01120552ABDD0112053A
:1011030052E6DD0112055212DE011205525DDE01C7
:10111300120552B6DE0112055232DF0112055210DA
:10112300E001120552A2E1011205520FE20112057C
:101133005238E2011205529EE201120552F5E20114
:101143001205522EE30112055283E301120552A840
:10115300E301120552EEE3011205520BE4011205FD
:1011630052B5E4011205526C8002120552A08002AE
:101173001205527681021205524A820212055275F5
:101183008302120552F98402120552778502120571
:10119300523E86021205525F8702120552D1870220
:1011A3001205523388021205528188021205528BAE
:1011B3008802120552C988021205523289021205A9
:1011C30052D189021205524F8A02120552048B0230
:1011D300120552768B021205529C8B02120552CCD9
:1011E3008B02120552F98B021205529F8C021205D3
:1011F30052AF8C02120552028D021205520E8D025D
:101203001205521A8D02120552238D0212055284C1
:101213008D02120552E48D02120552358E0212051B
:1012230052508E02120552808E02120552A18E0276
:10123300120552AD8E02120552EE8F021205520CA8
:1012430090021205527590021205528890021205FF
:10125300529F9002120552329102120552319202AC
:101263001205522D9302120552AF9302120552B981
:1012730093021205521C94021205522D9402120578
:1012830052709402120552B79402120552ED940261
:101293001205522395021205524195021205526519
:1012A3009502120552A6950212055299960212054D
:1012B30052DF96021205521A9702120552799702CB
:1012C300120552A19702120552DA9702120552E84B
:1012D3009702120552499802120552869802120586
:1012E30052C89802120552F998021205522D99021A
:1012F3001205523899021205525699021205521ECE
:101303009A02120552289A021205526D9A02120588
:1013130052D79A02120552EB9A02120552E39B022C
:10132300120552F69B021205520B9C02120552AB98
:101333009C021205520F9D02120552D29D02120504
:1013430052DD9D02120552FC9E02120552189F02A5
:10135300120552709F02120552A79F02120552C135
:101363009F0212055235A002120552C6A0021205B1
:10137300520EA10212055229A30212055293A3028F
:10138300120552FEA30212055257A6021205526716
:10139300A6021205526AA60212055276A602120589
:1013A300528AA60212055292A602120552C7A6023B
:1013B30012055275A702120552E5A70212055249FA
:1013C300A802120552E2A8021205527CA9021205D4
:1013D30052AAA90212055240AA021205526FAA028A
:1013E30012055291AA02120552B8AA021205521E00
:1013F300AB0212055288AC021205528BAC021205E5
:101403005202AD02120552EEAD02120552C6AE02F1
:1014130012055250AF0212055285B002120552371F
:10142300B10212055270B102120552A1B1021205A6
:1014330052AAB10212055296B20212055212B30217
:10144300120552A2B3021205526CB402120552F0F5
:10145300B40212055226B5021205526FB5021205E7
:1014630052009F031205520E9F03120552779F03EA
:10147300120552AF9F0312055202A0031205529E9A
:10148300A1031205527EA3031205525DA6031205A2
:101493005289A603120552A9A60312055207A703F0
:1014A30012055245A70312055283A703120552C919
:1014B300A70312055283DD031205520BDE03120547
:1014C300528FDE031205523CDF0312055275E0030F
:1014D300120552EDF9031205520BFA031205525C81
:1014E300FA03120552C6D5021205524BFB0312052D
:1014F30052CEF60312055213F803120552E5B70351
:1015030012055268B80312055272B80312055299B4
:10151300B803120552ADB80312055213B9031205ED
:101523005243B90312055245BA0312055215BB03C0
:1015330012055275BB03120552BEBB031205527D41
:10154300DD021205525EBC031205528ABC0312056A
:101553005215BD031205526FBD0312055229F5033F
:1015630012055242F503120552BCF50312055269E6
:10157300F60312055291F603120552A5E303120571
:10158300521FE4031205522AE4031205524BE403EB
:1015930012055289F5011205528CF5011205524DBF
:1015A300F6011205527BF601120552D6F601120519
:1015B30052FAF6011205521AF70112055264F701A5
:1015C30012055292F701120552C1F801120552F0A9
:1015D300F80112055211F9011205526CF9011205B5
:1015E300522FFA011205524FFA01120552C4FB01A0
:1015F3001205525CFC0112055265FD01120552CE23
:10160300FD01120552FCFD01120552C1FE01120536
:1016130052F6FE0112055229FF0112055265F0022E
:101623001205526FF002120552B7F002120552254D
:10163300F10212055248F102120552E8F1021205B5
:101643005297F402120552A0F402120552EDF4026D
:1016530012055216F50212055276F5021205520CC6
:10166300F60212055240F6021205528DF6021205D9
:1016730052E7F60212055215F7021205529DF702C0
:10168300120552E2F70212055221F80212055256D0
:10169300F80212055268F8021205527AF80212058E
:1016A3005299F80212055250F90212055290F902AA
:1016B30012055212820412055275FF03120552B924
:1016C300EF031205521DF00312055241F0031205F8
:1016D300523AF103120552EFE401120552CEE5012D
:1016E3001205520AE601120552A7E701120552E953
:1016F300E7011205529DE901120552E1E9011205C4
:1017030052C2EA011205524FEB01120552DAEB0104
:1017130012055230EC0112055270EC0112055212FF
:10172300EE011205529BEF01120552B2F1011205AF
:1017330052C0F10112055225F2011205526FF20156
:1017430012055248F501120552208404120552363F
:1017530084041205522CDA031205523FDA031205F0
:1017630052DDDA0312055218DB0312055233DB0391
:1017730012055258DB031205529DDB03120552CEAC
:10178300DB03120552FFDB0312055276DD0312055C
:10179300526AF803120552DEF80312055220F903C8
:1017A30012055230F903120552C8F903120552D239
:1017B300F903120552EAF9031205520EE502120566
:1017C300525CE50212055253E60212055212E70279
:1017D30012055227E70212055271E702120552C0A1
:1017E300E702120552D3E7021205521FE80212055F
:1017F300527CE80212055290E802120552C4E80234
:10180300120552DCE9021205525FEA021205526E1A
:10181300EA02120552AFEA02120552E3EA02120586
:101823005243EB0212055261EB02120552C4EB0262
:1018330012055243ED0212055265ED021205529A4A
:10184300ED02120552C5ED02120552D5ED02120545
:1018530052E1ED02120552E4ED0212055230EE029E
:10186300120552D5EE02120552FAEE021205520487
:10187300EF0212055214EF0212055288EF0212050D
:1018830052A3EF02120552C5EF0212055200F002F5
:101893001205520FF0021205521AF0021205525E9F
:1018A300830412055276830412055241B0031205D4
:1018B3005290B00312055234B203120552EAB30335
:1018C30012055232B40312055278B503120552C3FE
:1018D300B603120552E5B6031205522FB7031205DC
:1018E30052B1B7031205520080031205522180033F
:1018F300120552AB8003120552348103120552B014
:1019030081031205521382031205525F82031205EB
:1019130052CE8203120552588303120552CF83031A
:10192300120552118403120552D18703120552AED8
:101933008903120552E78903120552A18A0312058E
:1019430052A48A03120552848B03120552C98C03D5
:10195300120552638E03120552BF900312055246BD
:1019630091031205523C9203120552A695031205E8
:1019730052B6950312055216970312055291970317
:10198300120552E49803120552029A031205529665
:101993009A03120552956B00120552546C001205FE
:1019A30052CB6C00120552DA6C001205525F6D00C7
:1019B300120552C86D00120552C86E00120552F18D
:1019C3006E001205528A6F00120552CD6F00120588
:1019D300522A7000120552047300120552BE73009E
:1019E300120552237400120552CA75001205527E65
:1019F300760012055219770012055272770012050C
:101A030052DD7700120552ED7800120552AA7A00D2
:101A1300120552E17B001205527A7C00120552E452
:101A23007C00120552DA7D00120552B9F902120543
:101A33005225FA021205528EFA02120552F9FA02DF
:101A430012055231FB02120552A5FB021205522167
:101A5300FC0212055253FC021205526CFC021205E1
:101A630052CDFC0212055221FD0212055299FD02CC
:101A73001205529EFD021205520AFE021205527E03
:101A8300FF0212055207E90312055256E903120534
:101A9300520FEA0312055275EA03120552E6EA03EE
:101AA3001205522CE10312055285E103120552047B
:101AB300E30312055210830412055217830412051F
:101AC3005277F30312055285F3031205525E840421
:101AD30012055265FF0112055275FF011205528D61
:101AE300FF01120552EEFF01120552EBFD03120531
:101AF3005212FE0312055297FE03120552F0FE0323
:101B0300120552DD9E031205520080041205522273
:101B130080041205528C800412055297800412052A
:101B230052DB8004120552EEC203120552FCC203BB
:101B330012055238C30312055252C303120552CF82
:101B4300C303120552C9C403120552EEC40312059E
:101B5300520BC50312055228C5031205524DC50386
:101B630012055275C503120552C4C5031205523E30
:101B7300C603120552E2C603120552C7D603120565
:101B830052D5D6031205524FD7031205521BD80361
:101B9300120552C7D90312055260FB03120552996D
:101BA300FB03120552B6FB0312055214FC03120584
:101BB3005279FC031205528EBD03120552FBBD037D
:101BC300120552B2BE031205521FBF031205523C47
:101BD300C003120552D8C1031205523CC2031205B9
:101BE3005291C2031205529AC203120552A9C203AB
:101BF300120552BCC203120552D2C203120552DBB4
:101C0300C203120552A1C703120552F4C7031205FA
:101C130052FCC9031205522ECA0312055250CA03BD
:101C230012055269CA0312055282CA03120552846D
:101C3300CB0312055212CC03120552A8F10312056D
:101C430052DAF103120552E6F10312055219F203B7
:101C53001205524AF20312055278F203120552EDAD
:101C6300F2031205521CF30312055271E603120527
:101C73005297E603120552D4E603120552E6E60331
:101C830012055202E70312055270E7031205527957
:101C9300E703120552D8E703120552FCE7031205C6
:101CA30052BBE803120552C8E803120552D9E803F0
:101CB30012055209FF0312055256FF031205529FE4
:101CC300D303120552E7D403120552F4D4031205C9
:101CD3005207D50312055226D5031205523CD503EC
:101CE30012055250D503120552CAD503120552608C
:101CF300D603120552A8D603120552B8D60312050D
:101D030052217F00120552457F001205526D7F005C
:101D1300120552957F0012055269EB031205528298
:101D2300EB031205528EEB03120552A2EB031205CD
:101D330052C0EB03120552CAEB03120552D4EB0354
:101D4300120552E7EB031205523BEC0312055274E2
:101D5300EC03120552A3EC03120552F1EC03120536
:101D63005240ED031205525BED0312055265ED037C
:101D730012055276ED03120552BCED03120552AB68
:101D8300830412055207A80312055233A803120550
:101D9300524FA80312055262A80312055278A803F2
:101DA300120552E4A80312055217A903120552742F
:101DB300AC031205529FAD03120552D2AD031205B7
:101DC3005237AE031205521FAF0312055247AF033A
:101DD3001205525CAF031205526CAF03120552B0E9
:101DE300AF0312055205B00312055215B0031205D5
:101DF30052B8FC03120552D3FC03120552FCFC0338
:101E030012055216FD031205523BFD031205525AE9
:101E1300FD0312055272FD03120552A0FD031205C4
:101E230052BAFD03120552BA7F00120552D9CF03ED
:101E3300120552E0CF03120552ECD0031205521CD7
:101E4300D10312055242D10312055275D103120573
:101E53005287D103120552C1D10312055227D2036F
:101E630012055260D203120552ACD203120552D9A5
:101E7300D203120552F9D203120552C7ED0312051C
:101E830052DFED03120552D1EE0312055212810403
:101E9300120552718104120552AF8104120552F0EA
:101EA30081041205522C9B031205524B9B0312050E
:101EB30052969B03120552B29B03120552EA9B03EF
:101EC300120552F79B03120552149C03120552F795
:101ED3009C031205522E9D03120552359E031205D3
:101EE30052409E03120552529E031205525B9E03FB
:101EF300120552659E0312055251CC03120552CBB3
:101F0300CF03120552F38304120552C5FF031205D2
:101F130052D6FF021205524084041205526AD402BB
:101F2300120552BED30212055205D20212055215F2
:101F3300D002120552A6CF021205524BCF02120550
:101F430052D8CE02120552AECE021205529CCC02DA
:101F530012055274CC0212055219CC02120552F624
:101F6300CB0212055225CB02120552CDCA0212052D
:101F73005237C90212055234C90212055234C8023B
:101F830012055214C80212055264C702120552E622
:101F9300C502120552ADC5021205527EC5021205D5
:101FA300525EDD02120552F6DC02120552A5DC0276
:101FB300120552E9DB021205525BDB021205527B6A
:101FC300C5021205526DC50212055259C50212050A
:101FD300524EDB0212055246C50212055248C40294
:101FE300120552D8C3021205529EC302120552FBB8
:101FF300BB0312055221D80212055246C302120531
:102003005215C3021205522DC002120552EBBF0234
:10201300120552DFBF0212055252BF02120552A02F
:10202300BE021205523FBC02120552A9B9021205A3
:102033005273B90212055207B802120552B3B7021E
:10204300120552F7B602120552CAB6021205521C05
:10205300B602120552EFB502120552B5B5021205CA
:1020630052A1FA0300000080FBC2C732E4730001EF
:1020730036360101000102010001030100010401E0
:10208300060605020000070100340801000F0904D9
:1020930001010D0100FF0E080000170200001901E5
:1020A30000FF1A0100011B0100FE1C0100081D02B4
:1020B30000001F0100012001000121020000230193
:1020C300000F240200002601000127010008280256
:1020D30000FF2A0100072B0102402C0100002D0103
:1020E30000012E0100012F0100FF30010B1C3108FC
:1020F30000003A0100083B01000F2F01000003021A
:102103007102300160021102700201020202020236
:102113008002100261023A004100630273027202FC
:1021230062024302000213023800000200020402AA
:10213300120200020002000200020402040237003D
:1021430037003C024402000239000002000265022B
:1021530000023502810200020502820283020002AC
:1021630001017101010101011101010131010101AC
:1021730001018001100161013B001400630173013F
:102183007201620143010001130106013D013500A3
:102193000401120100010001000100010401040116
:1021A300330133013C0144013201360000010001D7
:1021B30065010001350081010001050182018301F0
:1021C3000001030471040204600411047004020496
:1021D30002040104020410046104000414046304EF
:1021E3007304720462044304000413040604000429
:1021F3000004040412040004000400040004510455
:102203006400000400040004440400040004000407
:10221300000465040004350481046400050400041B
:102223008304000401037103010301030103010398
:10223300010322030203010310030003000300034D
:102243000003000300030003420300032403060307
:1022530000030003040312032503230325032303BD
:102263000403040300030003000344030003000307
:1022730023030003650321003503810300030503E2
:10228300000300030003030071003001600011002C
:102293007000310220035004800010006100000030
:1022A3001400630073007200620043000000130017
:1022B30006000000000004001200000000000000FF
:1022C300000004000400370037003C024400000013
:1022D30000000000000065000000350081000000E0
:1022E3000500000083000000360001000600000026
:1022F3000F0000000000000000000000000003FFCA
:10230300FF00000403FFFF0000FFFF0FF4010005BF
:10231300C4040320000100000B00000000000000C3
:102323000003010F0000D11913004D190100D11949
:102333000200051903000B190400111905001719F0
:102343000600231911004119140047191500351906
:10235300FFFF000001910E06C10E08BB0E0BCD0E50
:1023630010190E02970E05AF0E079D0E0C790E0D78
:10237300850EFF0000030003000400080010001F87
:10238300003E007B00F600EC01D703AF075D0FB9F9
:102393001E713D0000A512D512AB12B112CF12C3AC
:1023A30012BD12DB12E112E712F312B7129F129958
:1023B3001203EAF5E5D5D5C5B5A59595858575755A
:1023C300656555554545353525251515059C360651
:1023D3003A703DD9404344AD47174B814EEA510013
:1023E300160F00000B150B020002220F320000062D
:1023F300000102030405060708090A0B0C0D0E0F62
:102403008F13A113A7136F12AD1369127512011461
:102413001F142514071413140D14A911A311DF118C
:10242300E511D9119111303017181921301B1D1FD7
:102433003000034948424D181725050200383C3E39
:10244300363B3B352B432C303016181920231A1CEE
:102453001E300C0E020B040B0A0708000F000119B3
:102463001618161615230300C912ED121914F912C2
:10247300FF12F513B313B913C513BF13B511BB1172
:10248300AF11EB110005150D091008040000000041
:102493000000C111D31100BE040A0E001500040090
:1024A300010309280C05100C0A090004000C040F91
:1024B30010080874F612036874FF1208EDE4851817
:1024C30082851983F0858208858309780812082D8F
:1024D300750801750900780812082D123D0B1208C2
:1024E3005B740102443874F61203688C088D097812
:1024F3000812082D75080B750900780812082D12AB
:102503003D0B02443874F61203688C088D09780871
:1025130012082D75080B750900780812082D123D55
:1025230016123C01024438C082C0838A828B83E046
:10253300D2E7F012186F024483C082C0837900127D
:102543004E35900332125666C3EA9CEB9D50061239
:102553002CC060010902448374F7120368EA125520
:102563001CEB1258BF1227B9AEF075F00BEDA42E79
:10257300FD900334E02CFEA3E03DFFEA2403FCEBD3
:102583003400FD740169600574026970278A828BC7
:1025930083A3124E3F8E828F83A312417A74026902
:1025A300701DECFAEDFB120B43E97013E48E828F7E
:1025B30083F0800BEE2403FAEF3400FB120B3DEEA5
:1025C300FAEFFB120B0102377674F21203688A08E2
:1025D3008B09EA240BF50CEB125B2479008A828BBE
:1025E30083E0606F890A890B805EE50A75F00BA4AE
:1025F300FAACF075F00BE50B122A527048AE82AFBD
:102603008385088285098312659D122B0CA31258BA
:10261300C5124408E5082403FCE5093400FDEE2453
:10262300030A0A0AEF3400FB120B3D850C82850D69
:1026330083E50AF0A3E50B12497E120B01790190A1
:102643000332125DC7122659122A4AE50A9AE50B8C
:102653009B40970240E5E50A2401F50AE50B3400A7
:10266300F50B2274F1120368EAFEEBFF740F120AF2
:10267300AF123D03750E01850882F583A385820C95
:1026830085830DEE240BF8EF3400F9EC7001ED6057
:1026930030EC12551CED1241707901EEFAEFFB128A
:1026A3000B0DE5087002E5097003022731850C82E2
:1026B300850D83125B297902AA08AB09120B0D80E1
:1026C3006DEE2403F50AEF122661E5087002E509B1
:1026D300603312551AE509124170E5082403FAE53F
:1026E300093400122A42700CEEFAEFFB120B13E9C5
:1026F300F50E80B9AA0AAB0B122A4370317903EEA7
:10270300FAEFFB80B78E828F83A3E064FE7004A38D
:10271300E064FF700A0A0A0AAB0B122A43700CEE3C
:10272300FAEFFB120B13E9F50E8003750E00A90EE9
:102733007F0702057974F712036890033212417A16
:10274300EA7001EB6031EA75F00BA4FAACF075F0B6
:102753000BEBA42CFBEAFEEBFF1216CB9003341217
:10276300417A900334E07002A3E06012EEFCEFFDC7
:10277300790012162F8007900334E4F0A3F0023798
:102783007674F61203687508007509007808120854
:102793002D9003321227B9AAF075F00BEDA42AFD90
:1027A3007A237B00121731740212085BE9FE60037F
:1027B300120B2B023A911258EEEC75F00BA4FC228B
:1027C30074F71203687E007F00800AEEFAEFFB12B3
:1027D3000AEF12397C12281E40F102377674F71281
:1027E30003687E007F008016EEF8EFF9122809FCDB
:1027F300A3E039FDEEFAEFFB120AFB12397C122833
:102803001E40E5023776E875F00BA4F8AAF075F0E0
:102813000BE9A42AF9900334E028229003321247EB
:10282300B7C3EE98EF992274F71203687E007F0016
:102833008028EEF8EFF9E875F00BA4F8AAF075F02C
:102843000BE9122B07A2E7500EC2E7F0AC82AD836F
:10285300EEFAEFFB120AF512397C12281E40D3025E
:102863003776C082C083EC7001ED6005121E9F8035
:10287300097C087D00790012162F02448374F61236
:1028830003687900EA7001EB60147C008C08126025
:1028930078600479017C080CECC3940840EE024490
:1028A3003B74F712036874F31208EDECFEEDFFE4DA
:1028B300851882851983F07401120AAF123D5412F0
:1028C3000B617403120AAFAC82AD83EEFAEFFB1215
:1028D3000B3DEEFAEFFB120B4302377174F7120351
:1028E3006874F31208EDECFEEDFFE4851882851998
:1028F30083F0EAFCEBFD7403120AAF123D89740105
:10290300120AAF1258C512440974FE68700374FFAB
:1029130069600479018002790002377174F7120348
:1029230068EAFEEBFF12296D701012297864FFFC30
:102933008A828B83E05CF0120B0102404174F71230
:102943000368EAFEEBFF7508008E828F83E0601751
:1029530012296D7012122978FC8A828B83E05C70D5
:1029630006E04CF0120B01024041120B07E9F50897
:102973007401650822EE1243461247B7122809FA7A
:10298300A3E039FB8E828F83E02274F01203688AFE
:10299300088B09EA2403FEEB3400FF7C007D000A68
:1029A3000A0AFB120B3DE508240BF50CE509125B43
:1029B300247900850882850983A385820A85830B90
:1029C300E064FE7004A3E064FF6065890889098000
:1029D30054E50875F00BA4FAACF075F00BE5091299
:1029E3002A52603E850A82850B8312677CA3E06CC2
:1029F3007003A3E06D702BEA2403F50EEB3400F5AE
:102A03000F122A3F700BAC0EAD0FEEFAEFFB120B59
:102A13003D850C82850D831259F979019003321299
:102A23003D0312440F122A4AE5089AE5099B40A187
:102A33008005740D12085B7F080205790A0A0AFBF8
:102A4300120B43E9640122900332124E49C322A4BC
:102A53002CFB900334E02AFAA3E03BFB8A828B83AE
:102A6300E0540F2274EF1203688A828B83A385825A
:102A73000E85830F125B29EA240BF508EB1244172A
:102A8300850882125B27751000EA2403F50CEB34EA
:102A930000F50D122A3F7065750A00750B0080550D
:102AA300E50A75F00BA4F8AAF075F00BE50B122BF1
:102AB30007540F603DAE82AF83EE2403FCEF340076
:102AC300FDAA0CAB0D121E99E9640170258E828F4D
:102AD30083A3124356850E82850F83E8F0A3E91280
:102AE3002B0CE50AF0A3E50BF075100190033212ED
:102AF3005DC7122659900332123BF440A3A9107FFD
:102B030009020579122B96E022122B1022F0850878
:102B1300828509832274F3120368EAFEEBFF8E8237
:102B23008F83A385820A85830B125B29EE2403F529
:102B330008EF1244177C007D000A0A0AFB120B3DC2
:102B4300EEFAEFFB120B07E9F50C7401650C703E0E
:102B5300EE12551CEF122BA075F00BA4F8AAF0751A
:102B6300F00BE9122B96A3124E3F850A82850B8345
:102B730012417AE82403FEE93400FFEEFAEF122A49
:102B830042700BEEFCEFFDAA08AB09120B3DA90C3A
:102B9300023813122815F8A3E039024D5012434BA3
:102BA3001247B7E82274EE12036874E61208EDEADE
:102BB300FEEBFFEE240BF50AEF122661850A821263
:102BC3005B27750E017508007509007510007511F6
:102BD30000E4851882851983F0EE2403FCEF3400AA
:102BE300FD7403120AAFAA82AB83120B3D8E828F50
:102BF30083A385820C85830D851882851983AA8218
:102C0300AB83120B67E964017034740B120AAF12C1
:102C13004356850A82850B831244097401120AAF55
:102C2300124356850C82850D83E0687003A3E06927
:102C33006055851882851983858208858309740DFB
:102C4300120AAFE41259EAF8A3E0F9740E120AAFBC
:102C5300124409740D120AAFAA82AB83120B61E905
:102C63006401700B740D120AAF858210858311788D
:102C73001012082DAC08AD09EEFAEFFB120B197414
:102C83000212085BE9F50EEEFAEFFB120B5BA90EDD
:102C9300741A0256BBC082C0837800790080031285
:102CA30035A7122A4AE89AE99B500DE8FAE9FB1284
:102CB3002CC070EB790080027901024483EA75F03D
:102CC3000BA4FAACF075F00BEBA42CFB90033412BD
:102CD3006904F583E0540F22C082C08390249F12BD
:102CE3003711EC75F012A4FCAAF075F012EDA42ACA
:102CF300FD79FF7A8F7B1512162F02448374F61227
:102D030003687E007F007C007D0080348C088D0981
:102D1300E50875F012A4F508ABF075F012E509A407
:102D23002BF509E5082493F582E5093415F583E0CD
:102D3300FBC3994008EAC39B400312397C1233A2B8
:102D43001231DDC3EC9508ED950940C0EEFAEFFBB7
:102D530002443BC082C0837800790080031235A708
:102D630090249F1238F1500912311E64FF70EE80D7
:102D7300047A007B0002448374F012036874F31234
:102D830008ED8A0A8B0BECFEEDFF890CEE7001EF68
:102D93006011EEFAEFFB120BB58A088B09EA70019A
:102DA300EB7050120B8B8A088B09EA7001EB6043BE
:102DB3007401851882851983F0120AAFE50AF0A31E
:102DC300E50BF0EEFCEFFD7403120AAF122F0D7446
:102DD3000B120AAF124356124401E4850882850997
:102DE30083A3A3A3A3A3A31258E6AA0AAB0B1210AF
:102DF300F5800BE5087002E5097003022E857A0061
:102E0300E50C6007C3940550027A0485088285099E
:102E130083125A18A3A3A3E50CF0EA850882850957
:102E230083A3A3A3A3A3F07402850882850983A3C4
:102E3300A3A3A3A3A3A3A3F0740185088285098395
:102E4300A3A3A3A3A3A3A3A3122E99A3A3A3F0E5D0
:102E5300082410F582E5091258BFE4F0122E99F008
:102E630012551AE5091258BFE4F0908749780C12FD
:102E73000A70E508240CF582E5091258BF780C1294
:102E83000A6112307F4005E4901AEAF0120FCFAACC
:102E930008AB09022A35A31243650258D874F2120B
:102EA300036874F31208ED8A088B09ECFEEDFF75D5
:102EB3000A00EEFAEFFB120BB58A0C8B0DA80CA9D6
:102EC3000DE87001E9603E88828983E0650870043B
:102ED300A3E06509602F88828983A3A3A3A3E0C32A
:102EE300940550211259F57401851882851983F0D0
:102EF300120AAF1259F9EEFCEFFD7403120AAF1276
:102F03002F0D750A01A90A0240E0123D90120B73BE
:102F13002274F6120368122F787002E5836010A3FF
:102F2300A3A3A3E06009C394055004790180027947
:102F33000002443B74F6120368122F787002E58393
:102F43006010A3A3A3A3E06009C394035004790111
:102F53008002790002443B74F6120368122F7870E2
:102F630002E583600BA3A3A3A3E0700479018002AD
:102F7300790002443B120BAF8A828B83E58222C025
:102F830082C083EAFCEBFD7A007B00120BBB024498
:102F930083C082C0837C007D0080F074F2120368DA
:102FA30074F31208ED8A0C8B0D8C0A8D0B7E007F57
:102FB30000802112348C120AAF123016601374038E
:102FC300120AAFAC82AD83AA0CAB0D121E99E97045
:102FD3003512397C90249F12398C5030123356604D
:102FE300F0E50C7002E50D70CA74FF650A70047495
:102FF300FF650B60DC850882850983E0650A700440
:10300300A3E0650B70CBAA08AB0980047A007B00B0
:103013000240E0E8F0A3E9123DB4120B6DE922741B
:10302300F412036874F31208ED750800120BB58AE5
:103033000A8B0BAE0AAF0BEE7001EF602A740185A9
:10304300188285198312438EF8A3E0F9740B120AD0
:10305300AF123DAC120B557C127D0079FFEEFAEFF7
:10306300FB12162F75080112307F50097401901A54
:10307300EAF0120FCFA908740D0244C47A04790050
:10308300120B8590249F123992EA98EB992274F7D8
:10309300120368E9FE74FE6A700374FF6B780079AB
:1030A300007005804D1235A790249F12359A504227
:1030B300E8FCE9FDEC75F012A4FCAFF075F012ED3D
:1030C300A42FFDEC248FFCED3415FD8C828D83A39E
:1030D300A3A3A3E064FF60CD8C828D83E06A7003B9
:1030E300A3E06B70C08008EC6005C39405401C121C
:1030F30035A790249F1238F1501A12311EFCEE703E
:10310300E674016C600574036C70E48A828B83122D
:103113004E3F80047AFE7BFF023776E8FAE9FBEA4A
:1031230075F012A4FAACF075F012EBA42C1233C1B3
:1031330022120BC7024483C082C083790180F274D8
:10314300F01203688A0A8B0B7A047901120B858AC1
:103153000CEA7001EB6040EAC333FAEB33FB12165F
:10316300CB8A088B09AE08AF09EE7001EF60237AB2
:10317300FE7BFF120BCD74FE6A700374FF6B601B42
:1031830085088285098312417AE5082402124413D3
:1031930080E1750C0080047E007F00850A82850B28
:1031A30083E50C12497E022A3A74F6120368750805
:1031B30000750900780812082D1231DD74037808B0
:1031C3001209EE12334A7B00121731740212085BA4
:1031D300E9FE6003120BDF023A9190249F1231E45F
:1031E30022E493F508740193F5092274F612036837
:1031F30074FE1208ED123AC402441C74F4120368FC
:1032030074DF1208ED7E0085188285198385820894
:10321300858309780812082D7508028E097808122B
:10322300082D7C007D00123BFF12085BE96003025E
:1032330032D41232DB124350C3EA98EB99500302A3
:1032430032D48077740F120AAF8582088583097898
:103253000812082D750808750900780812082D74DE
:1032630003780A1209EE7402250AFCE4350BFD12F9
:103273003BFF12085BE970427402120AAF7401F05B
:103283007411120AAF124356740D120AAF12440995
:103293007402120AAFAA82AB83120B6DE9601B742E
:1032A30013120AAFE0F97405120AAFAC82AD83744E
:1032B3000F120AAF124E3F120B910E8E8285820AB5
:1032C300750B00124350C3E50A98E4995003023288
:1032D30047EEF974210244C490249FE493FA7401E5
:1032E30093FB2274F612036874FE1208ED851882AC
:1032F300851983E4F0A3F0FE8033123356602B78F4
:103303000812082D750808750900780812082D742D
:1033130004120AAF123D03740378081209EE123344
:103323004A123D0E12085B123CF3123981FF9024BE
:103333009F12398C40C4851882851983858208853C
:103343008309780802441C74022508FCE43509FD4E
:103353007A2222EEF8EFF9E875F012A4F8AAF075D4
:10336300F012E9123471A3A3A3A3E064FF2274F75C
:103373001203687C007D008004191233A212339972
:10338300500D1233ABC3940550F0E970EC80047A0E
:10339300007B000237761232DBC3EC9AED9B22EC02
:1033A30024010CED3400FD22ECFAEDFBEA75F0127A
:1033B300A4FAAEF075F012EBA42E1233C122FBEA8D
:1033C300248FFAEB3415FB8A828B8302627574F3C4
:1033D30012036874F31208ED750A00750B0080522E
:1033E300E50C1258AC8E828F83125A71E068700319
:1033F300A3E06960257401120AAFE0687003A3E0DB
:10340300696017EE2402FCEF3400FD7403120AAF67
:10341300AA82AB83121E99E96007EEFAEFFB121141
:1034230001050C9024A9E493FAE50CC39A40B11268
:103433002659123484E50A98E50B99502CE50A7550
:10344300F012A4F8AAF075F012E50B123471E064DF
:10345300FF7004A3E064FF60D612348C120AAF122B
:10346300301660CB750C0080BA740D023810A42A94
:10347300F9E8248FF508E93415F509850882F58301
:103483002290249FE41239932274018518828519AE
:10349300831243651247B7740B2274F61203681242
:1034A3003A96123711EC8508F0A4CCAAF08509F0FE
:1034B300A42AFA8508F0EDA42AFD79FF7AA67B1ADF
:1034C30012162F900337740FF0A3740CF090033986
:1034D3007409F0A3740CF090033B7433F0A3740CE1
:1034E300F090033D7445F0A3740CF090033F744BCC
:1034F300F0A3740CF09003417451F0A3740CF0909A
:1035030003437457F0A3740CF0E4900336F00244C1
:103513003BC082C0837800790080031235A712383C
:10352300EE5024E8FAE9FBEA75F00EA4FAACF07564
:10353300F00EEBA42CFBEA24A6F582EB123FA3705A
:10354300DAAA82AB8380047A007B0002448374F797
:103553001203687A007B0078007900802FE8FCE989
:10356300FDEC75F00EA4FCAEF075F00EEDA42EFD8F
:10357300EC24A6F582ED123FA3600EA3A3A3A3A39D
:10358300E0FCEA2CFAEB3400FB1235A79024A112DD
:10359300359A40C9023776E493FC740193FDC3E87E
:1035A3009CE99D22E8240108E93400F92274EC1215
:1035B300036889108A088B098C0D8D0C7414120A08
:1035C300AF125DC77E007F00120C6FAA08AB091211
:1035D3000C758A0E8B0F850882850983A3A3A3A389
:1035E300A3A3A3A3E0640170077508018E098005F6
:1035F3008E08850D0974FE650E700474FF650F70E7
:10360300030236F48E0D8002050D850D129024A160
:103613001265BE5071E50D75F00EA424A6FEE5F00B
:10362300123A4F651070E1A3E0650870DB8E828F5C
:1036330083A3A3E0650E7004A3E0650F70CA8E82B6
:103643008F83A3A3A3A3E0650970BD750D00E50DEA
:10365300C3950C40030236F4E50DC333F8E433F9A4
:10366300E50A28F508E50B39F5098508821263BEDA
:10367300120C1BE9700C8508828509831263C01242
:103683000C27050D80C8120C038A128B13AE12AFE0
:1036930013EE7001EF605A8E828F83E510F0A3E57D
:1036A300081243F2A3E50EF0A3E50F1243F2A3A31E
:1036B300A3E509F09024B1E493C3950C5004E4937B
:1036C300F50C8E828F83A3A3A3A3A3E50CF0850A35
:1036D30008850B09750A007808120829E50CC3331D
:1036E300FCE433FDEE2406FAEF3400125A111208FB
:1036F3005BEEFAEFFB7F0C020579C082C0831237C1
:103703000E79FF12162F790102448390249DE493CE
:10371300FC740193FD2274F7120368EA7001EB60F5
:10372300498A828B83A3A3A3A3A3A3E5827002E5A3
:103733008360377E0080010E8A828B83A3A3A3A3B9
:10374300A3E0FFEEC39F5022EEC333F8E433F9EA5C
:1037530028F582EB39F583A3A3A3A3A3A3E06C709D
:1037630003A3E06D70D17901800279008005740DA7
:1037730012085B7F0102057974F3120368EA2405DA
:10378300F8EB3400F9E8FEE9FFEA7001EB606F8EB5
:10379300828F83E06073EA240608EB3400F9E0F5D6
:1037A3000B750A00800B8E828F83E014F0605A053C
:1037B3000AE50AC3950B5046E50AC333F508E4331B
:1037C300F509EA2508F508EB3509F5097406250816
:1037D300F508E43509F509850882F583E06C700383
:1037E300A3E06D60C1850882850983E0F508A3E045
:1037F3001259F3E824020808E93400F980B18E82F3
:103803008F83E06004790180027900800312085BF2
:103813007F0502057974F7120368EA7001EB6037DC
:1038230012676AC0E09024B1E493FED0E0C39E50D7
:103833002688828983E0C333FEE433FFEA2EF582D0
:10384300EB3FF583A3A3A3A3A3A3ECF0A3ED126221
:103853007B04F079018002790002377674F2120357
:103863006889088C0912399B7005125DC3800312A5
:10387300397474FE650A700474FF650B70067A0070
:103883007B0080647800790080187401650C700FE8
:103893008C828D83E0650A7004A3E0650B60491296
:1038A30035A71238EE50D7123D388A828B83E065F4
:1038B3000870ECA3E0F50CEA2402FCEB3400FD8E67
:1038C300828F83E0640160C2E50C70D38C828D83A8
:1038D300E0650A7004A3E0650B70C48A828B83A33E
:1038E300A3A3A3E0650970B70240E59024A11232B7
:1038F300DEC3E89AE99B2274F2120368EA2408F80B
:10390300EB12438564017005125DC38003123974A1
:1039130074FE650A700474FF650B60527E007F00BD
:103923008047EEF8EFF9E875F00EA4F8AAF075F009
:103933000EE9A42AF9E824A6FAE9341AFB850882D9
:10394300850983E06401701B8A828B83A3E0640191
:1039530070148A828B83A3A3E0650A7004A3E065D5
:103963000B7003120C1512397C12398940B40240D2
:10397300E5120C5D8A0A8B0B22123981FF22EE2499
:10398300010EEF3400229024A1123992022825E47B
:1039930093F8740193F9C322EA2408F8EB125B103D
:1039A300E064012274F3120368890C8A0A8B0B7595
:1039B30008007509007E007F00801B123CD0650C57
:1039C3007011AC0AAD0BAA82AB83120C1BE9600326
:1039D30012440F12397C12398940E0AA08AB09025C
:1039E300381374F1120368890D8A0A8B0B8C0E75D8
:1039F3000C007508007509008005050C12440F9032
:103A030024A1123487E50898E509995038E508752B
:103A1300F00EA4F8AAF075F00EE509A42AF9E8243B
:103A2300A6FEE9123A4F650D70D2AC0AAD0BEEFA61
:103A3300EFFB120C1BE960C4E50CC3950E40BBEE13
:103A4300FAEFFB80047A007B00022733341AFF026B
:103A5300298774F61203687508007509007808123F
:103A6300082D123A96123CADE9A42AF97583247500
:103A7300829DE49328FCA3E49339FD7A417B0012F1
:103A83001731740212085BE9FE6003120C4BEEF966
:103A930002443B90249D1231E49024A12274F61237
:103AA300036874FE1208ED123AC412082D75080259
:103AB300750900780812082D7C007D007A410244C4
:103AC30030851882851983E4F0A3123D2C85820882
:103AD30085830978082274F412036874E71208EDE9
:103AE3007E007F0085188285198385820885830976
:103AF300780812082D7508028E09780812082D7CA3
:103B0300007D007A41123C0112085BE96003023B2D
:103B1300E38E0A8E0B80587402120AAFAC82AD8317
:103B2300740D120AAF124E3F120C63740A120AAFDD
:103B3300E060397411120AAF858208858309780819
:103B430012082D7412120AAFE0FD7411120AAFE0CD
:103B5300FC7404120AAFAA82AB83740D120AAFE09D
:103B6300F9120C0F740212085B12397C1226598564
:103B73001882851983123BF45066740B120AAF85C1
:103B83008208858309780812082D90249D1206DC8B
:103B930090249D123BECE8850AF0A4C8AAF0850B9B
:103BA300F0A42AFA850AF0123CC2123C0112085B07
:103BB300E970B9740A120AAFE4F0740C120AAFE0A8
:103BC3007003023B1A740A120AAF7401F0740D12E7
:103BD3000AAF1243567402120AAF124409023B366B
:103BE300EEFAEFFB74190244C4E493F8740193F9F9
:103BF300221247B7C3E50A98E50B99227A227B0084
:103C030012174374042274F512036874F01208ED5A
:103C1300851882851983E4F0A3F0FE805A123CD004
:103C230064FF6050858208858309750A007808124D
:103C3300082912370E7405120AAFAA82AB83125AEF
:103C43001212085B7402120AAF8582088583097811
:103C53000812082D90249D1206DC7404120AAF1278
:103C63003D0390249D123CAD123CC2123D0E12083E
:103C73005B123CF3123981FF12398940A085188207
:103C8300851983858208858309780812082D7508AC
:103C930002750900780812082D7C007D007A411214
:103CA3003D0E12085B7410023F7F123BECE885085F
:103CB300F0A4C8AAF08509F0A42AFA8508F022E93D
:103CC300A42AF9740228FCE439FD7A4122123CD576
:103CD300E022EEF8EFF9E875F00EA4F8AAF075F01B
:103CE3000EE9A42AF9E824A6F582E9341AF5832219
:103CF300851882851983E02401F0A3E03400F022C3
:103D0300E0F508A3E0F50922123D167B0012173DEA
:103D1300740422EA75F00BA4FAACF075F00BEBA473
:103D23002CFBEAFCEBFD7A2322123D3022F08518AE
:103D33008285198322E8FAE9FBEA75F00EA4FAAC4E
:103D4300F075F00EEBA42CFBEA24A6FAEB341AFB75
:103D530022EAF0A3EB123DB422C082C08374F312B3
:103D630008ED123F1D6402700E123DA2120AAF123B
:103D73003DAC120B61800CEAFCEBFD7403120AAF3D
:103D8300123D89024478123D90120B6722AA82AB3E
:103D930083120B3D851882851983AA82AB83228AFD
:103DA300828B831247B7740122E8F0A3E9123DB472
:103DB30022123DB822123D3080E074F7120368747A
:103DC300F31208EDECFEEDFF740485188285198368
:103DD300F0740B120AAFEAF0A3EB12301AF5086085
:103DE3001D74038E828F83A3A3A3A3A3A3A3A3F012
:103DF300120AAFAC82AD83EEFAEFFB121E9FA90845
:103E0300023771C082C08374F31208ED74048518FD
:103E130082851983F0740B120AAF123D54120B6D95
:103E2300740102447A124E49740D2274F612036827
:103E330074F31208ED900336E0706E7404851882F3
:103E4300851983F0900375123DA6120AAF12440937
:103E5300120F93EAFCEBFD7403120AAF122F0D123B
:103E63000F9F8A088B09A808A9097401120AAFE0F9
:103E7300687003A3E069602B74FE68700374FF69C4
:103E830060217401120AAF1244097403120AAFAA23
:103E930082AB83120FA5851882851983AA82AB830F
:103EA300120B737401900336F0740D024438C08210
:103EB300C08374F31208ED123F1DFC74026C701E74
:103EC300123DA2120AAFE8F0A3E912572670488503
:103ED3001882851983AA82AB83120B73803974030A
:103EE3006C7011EAFCEBFD7403120AAF123D89E911
:103EF300702580DB74016C70128A828B83124356A7
:103F0300740B120AAFE8F0A3E9800B740B120AAF2B
:103F130074FEF0A374FFF00244787404851882855C
:103F23001983F08A828B83A3A3A3A302627574F51A
:103F330012036878007900880888097C007D008076
:103F4300031233A29024A1E493FE740193FFC3EC04
:103F53009EED9F5021ECFEED123F8760E4AE08AF6B
:103F63000974012EF508E43FF509EA6E7002EB6F60
:103F730070CFA882A983E8FAE9FB800312085B7F6C
:103F830003020579FFEE75F00EA4FE85F00A75F0C5
:103F93000EEFA4250AFFEE24A6F582EF123FA3221B
:103FA300341AF583E064FF22C082C08390034A740D
:103FB300A9F0A3740EF090034C74A3F0A3740EF055
:103FC30090035074DBF0A3740CF002448374F71273
:103FD3000368EAFEEBFF900384E0FA74086A601951
:103FE30074046A60148E828F83E064017046124306
:103FF30041124F5DE06406703B8E828F83A3A31250
:10400300435674FE68700374FF696028900375E07B
:10401300687003A3E069700BEE2415F582EF12605C
:104023007E600AEEFA120F57E9F508800AEEFA12DB
:104033000F5D80F47508C2EEFAEFFB1216D1A908E2
:1040430002377674F21203688A088B098A828B839B
:10405300A385820A85830B8A828B83E0F8850A8293
:10406300850B83E028FAE43400FB1216CB8A0C8B11
:104073000DAE0CAF0DEE7001EF605C850882850913
:1040830083E0FC7D00790012162F8E828F83A3A319
:10409300125B29120F998E828F83A3A3A3A31241CC
:1040A3007A850882850983E0F8EE28F8EF3400F971
:1040B30012434112479AC0E01258B9D0E0F0120FF0
:1040C300ABEE240E1258BCE9124361E0C0E0EE24CB
:1040D300111258BCD0E0F0EEFAEFFB8005740D121C
:1040E300085B7F0602057974F412036874EB120807
:1040F300EDEAFEEBFF900346E07002A3E070677AFF
:10410300077B001216CB90034612417A900346E0D8
:104113007002A3E0604C9003461256668F838E8232
:1041230074071207A78E828F837808120A70851886
:10413300828519837808120A618E828F83A3A3A3D1
:10414300A3E0C0E07405120AAFD0E0126272C0E0CF
:104153007404120AAFD0E0F07407120AAF1242BA25
:10416300800679108002790174150244C412434B0E
:10417300124E4988828983EAF0A3EBF022C082C001
:1041830083900346E07002A3E06010900346124E52
:104193003F1216D1900346E4F0A3F0120EC712109B
:1041A300A102448374F312036874EB1208EDECFE6E
:1041B300EDFF7422120AAF7808120A707426120AED
:1041C300AFE0FC7427120AAFE0FD7428120AAFE0D7
:1041D300F50C740F6C7005740F6D6012901B63E027
:1041E3006402700579C10242B5ECC39D40F69003A9
:1041F300857808120A61E990038BF0EC900389F04B
:10420300ED90038AF0E50C90038CF074FF6A700361
:1042130074FF6B701F901B70E064FF7004A3E06475
:10422300FF7005121641800C901B7012435AE8F080
:10423300A3E98007900382EAF0A3EBF0EE7001EFAD
:104243006017EEFAEFFB121161E96401700BEEFCEB
:10425300EFFD7A967B03121E9F900375E4F0A3F0A3
:10426300900378F0A3F0900395F0901B63E0640251
:10427300700A740F900389F090038AF07405900319
:1042830084F07404120AAFE4F09003857808120AEC
:10429300708518828519837808120A6190038BE070
:1042A300C0E07405120AAFD0E0F07407120AAF122F
:1042B30042BA7415023810E41242BF22123DB812FA
:1042C3001EC922E0F912177922C082C083900345E8
:1042D300E0700312193B120CAB024483C082C0830B
:1042E300900345E07007E4901AE9F080317401907F
:1042F3001AE9F0900345E064FF60237C41E0C39436
:10430300415002E0FCECFAE0C39AF0EC75F0E8A44B
:10431300CCAAF075F003A42AFD7A8012432D7AE922
:104323007B1A7941121EB70244837B009003D0E0CD
:10433300F912176D22F582EF12434B740122EE122C
:10434300434622240BF582EF3400F583228518823D
:104353008519831247B7221247B79003822212436B
:104363006522F0850882850983A3A322F8A3E0F9D7
:1043730022C082C083EB90038CF0120EB5024483FB
:10438300F8EF1245B08882F583E0221243F6A3E0EA
:104393002274F712036874F81208EDEAFEEBFF7952
:1043A30000900384E0640870418518828519837442
:1043B300FD125B2B120F937402120AAF12417A742F
:1043C30005120AAFE41243F2E0C0E07404120AAF2C
:1043D300D0E01243FDC0E07406120AAFD0E0F074DF
:1043E30007120AAF1247AB120FED740802377312AC
:1043F30043F622F08E828F83A322F0022987850859
:1044030082850983A3A3E8F0A3E9F022E508240148
:10441300F508E5093400F5092212082D750802751F
:104423000900780812082D7C007D007A22123D0EC7
:1044330012085B740212085B7F02020579C082C016
:10444300839003567465F0A3740DF09003FC7447D6
:10445300F0A37410F090035A7495F0A3740DF090C8
:10446300035C7465F0A3740DF090035E749BF0A37A
:10447300740DF0800B740B120AAF123E2812085B06
:10448300D083D08202054574F412036874F91208CC
:10449300ED8A088B098C0A8D0B8518828519837820
:1044A30008120A617404120AAFE9F07405120AAF24
:1044B300E4F07406120AAF1247AB120C9374078030
:1044C3000012085B7F0402057974F01203688A8284
:1044D3008B83125C1BEE7001EF70030245ADEA247F
:1044E30002F8EB1245B0900312E07002A3E06013F0
:1044F30088828983E0F9EEFAEFFB900312124F5D95
:1045030012206FEE2406F8EF3400F9880A890BEEC7
:104513002409080808EF3400F9880C890D8882F50E
:1045230083E06402704B850A82850B83E05402604A
:1045330052850882850983E064E96047EE240A080E
:10454300EF12676F700A901B65E00488828983F01D
:10455300E014F07404850C82850D83F0901B6612C1
:1045630058D3E8F0A3E91267847001EB7003126279
:1045730057850C82850D83E0FA74026A6005740620
:104583006A7027850A82850B83E0A2E0501C8508A8
:1045930082850983E0F9EEFAEFFB121F59850A823F
:1045A300850B83E054FEF0A3E0F0022A3A3400F9CD
:1045B300880889092274EC12036874DD1208EDEA95
:1045C300FEEBFF8C128D137437120AAF780C120AAC
:1045D300707510007405120AAFAC82AD83120ACB5A
:1045E300EE240BF508EF1244177405120AAFE0A28C
:1045F300E55019751001AC82AD8385088285098366
:10460300124E3F121F65E960030247537405120AF5
:10461300AFE0A2E650227406120AAFE0540370180A
:104623007405120AAFE0540CFA740C6A600A740839
:104633006A600575110180037511007405120AAFD4
:10464300E05403FA74026A7013AC82AD8385088266
:10465300850983124E3F120ADD024753EE2406F505
:104663000AEF12266174016A7037E511600312477D
:10467300897405120AAFA882A9837403120AAFE8EA
:10468300F0A3E91247B085188285198312479AC0AF
:10469300E07402120AAFD0E01247AC122043024783
:1046A30053EA600302475390036CE06401700C8586
:1046B3000A82850B83E070030247537422120AAF08
:1046C30074021247B0741A120AAF124409E511605A
:1046D300087405120AAF1247897405120AAFE05431
:1046E3000C64047073EE240FF582EF12607EC0E059
:1046F3007417120AAFD0E0F0900314E07002A3E045
:10470300604E120F998A088B09A808A909741A1216
:104713000AAFE0687003A3E0697035780C120825CE
:10472300E510F5087808120831781212082DA9113E
:10473300740C120AAFAC82AD837421120AAFAA8241
:10474300AB83900314124F5D12206F740712085B42
:10475300742312085B0236F8780C120825781212BB
:10476300082D9003821206AFA9107422120AAFAC6F
:1047730082AD83740D120AAFAA82AB83121F4D74EC
:104783000812085B80CAAC82AD83850882850983E1
:10479300124E49120AD122E8F0A3E91247A222F0ED
:1047A300850A82850B83E022E4123DB422122B108A
:1047B3001247B722E002436FC082C08312182D0252
:1047C3004483C082C083121833024483C082C083EF
:1047D300121839024483C082C08312183F024483F3
:1047E30074F71203687409120AAFE0F50878081227
:1047F300083112184B7401023773C082C083121838
:1048030057024483C082C08312185D024483C0826E
:10481300C08312186302448374F7120368EAFEEB41
:10482300FF74016970107900120DD77C1E7900EEB8
:10483300FAEFFB120D5302377674F412036874F91E
:104843001208ED8A088B098C0A8D0B7413120AAFB8
:10485300124E3F90121BE07002A3E06027E9851817
:1048630082851983F07401120AAF7808120A61EA8B
:10487300F8EBF97405120AAF123DAC90121B124FFC
:104883005D12206F0244C0C082C083121893024499
:104893008374F7120368901AECE0F97F00800B121F
:1048A3004AD1540D64017001190F124A8E5003E965
:1048B30070ED02377674F7120368901AEDE0F97F12
:1048C30000800B124AD1548D64817001190F124A72
:1048D3008E5003E970ED02377674F3120368890C86
:1048E300E975F006A4F8A9F0740C28F508E439F585
:1048F30009EA2508FAE43509FB1216CB8A0A8B0B61
:10490300AE0AAF0BEE7001EF6025AC08AD0979007C
:1049130012162F124341E50CF0EE2508F8EF350986
:10492300F98E828F83A3A3A3A3A3A3A3124407EEA9
:10493300FAEFFB02381374F6120368EAFEEBFF1278
:104943000D2F901AEBE0FAE9C39A40099003521233
:104953004E3F120D35EE2402F8EF1245B09003548A
:10496300E088828983F0900354E00412497E120D9B
:104973003B850882850983E0023A92F0EEFAEFFB69
:1049830022C082C0837900900352800109124E3FF6
:104993008A828B83E5827002E58370F0024483741C
:1049A300F7120368EAFEEBFFEE7001EF605E90031F
:1049B30052E07002A3E060549003521251F07A0067
:1049C3007B00800FAA82AB831251F0E5827002E56F
:1049D300836039EE65827003EF658370E78E828FA3
:1049E30083124356900352125666EE6C7002EF6DBB
:1049F300700590035280048A828B83124409EEFA75
:104A0300EFFB122013EEFAEFFB1216D1023776C03A
:104A130082C083900352E0F8A3E08003ECF8EDF941
:104A2300E87001E96009125662EC7001ED70ED8ADD
:104A3300828B83E4F0A3F0E87001E9600688828941
:104A430083800390035212417A02448374F7120362
:104A53006890035280048A828B83125B1F7001EB80
:104A630060227F0080010F124A8E50EAEF75F00634
:104A7300A4FCADF0EA2CFCEB3DFD7410124AE56991
:104A830070E480047A007B00023776124AF2FCEF6E
:104A9300C39C2274F71203687800800108124AEE5F
:104AA300FDE8C39D5025E875F006A4FEAFF0EA2E9D
:104AB300FEEB3FFFEE2410F582EF12607E6970DC9F
:104AC300EE2411F582EF12607E4CF0023776EF751B
:104AD300F006A4FCADF0EA2CFCEB3DFD7411124A88
:104AE300E5222CF582E43DF583E022124AF222EA24
:104AF300240BF582EB3400F583E02274F61203688D
:104B0300120E4F7A008010EA125A6C124B8F125A0F
:104B130077F0124D48F00A9024A71265B740E87A5F
:104B230000801E8A08750900740378081209EE12C2
:104B3300606D88828983124B8FA3A3A3A3A3A3F0E1
:104B43000A9024B41265B740DA7A00801A8A08758D
:104B53000900740378081209EEE5082431F582E5AB
:104B630009341A125B270A1265B440E19024A3E4C6
:104B730093900360F0124B7E02443B7CE87D037A02
:104B8300107B009003D0E0F912177322124B93228B
:104B9300A374FEF0A374FFF0E488828983A32274D4
:104BA300F012036874F51208ED8A088B09890A8CE0
:104BB3000BE9A2E050147508FC7509FFA2E150054A
:104BC300D2E4024C6CD2E3024C6C120E318A0C8B91
:104BD3000DA80CA90D900375E0687003A3E069703C
:104BE300057900024D43AC0A7902AA08AB09120EFB
:104BF3002BE960EDE50AF50C780C12083179027C9B
:104C0300FE7DFFAA08AB0912535E12085BE960033D
:104C1300024D41E50AC2E5F50A9003C2E0704CE596
:104C23000AA2E640467403120AAFAC82AD83AA0817
:104C3300AB09120B49E9702D124E4FF8EBF9EA70EC
:104C430001EB6027E82402FEE93400FF0A0AFB12A5
:104C53000B43E96016EEFCEFFD7403120AAFAA8260
:104C6300AB83121E9FE50AD2E5F50A900355E0F5E2
:104C73000C900375E0F50EA3E0F50F780E12082DE6
:104C83007D017C00900355E0F9AA0EAB0F120DE3F2
:104C9300740212085BE9FA900355E004F0EA60033A
:104CA300024D41E50AA2E550047A0E80027A0674A9
:104CB30001120AAF125DD68A0E8B0FAE0EAF0FEE46
:104CC3007001EF6075124D56124342123DA6888261
:104CD3008983F07478550A124D48A3A3E50C12603A
:104CE30082E508F0E50988828983A3A3A3A3F0E4FE
:104CF30088828983A3A3A3A3A3F0E50AA2E55014A2
:104D03007403120AAFAC82AD83E82406FAE93400D7
:104D1300FB121E9F8E828F83A3A374FD125B2BE570
:104D23000B600EC3941E5009EE24131258BCE50BFE
:104D3300F0EEFAEFFB120C8780067910800279C738
:104D4300740B022A37A3124D4D22F08001F9888299
:104D5300898322EE24171243487401F0120F93EE55
:104D6300241A124348EAF0A3EBF0EE22C082C08378
:104D73009012BCE06401901B647006E0FC79018032
:104D830004E0FC79037A007B00120D530244837420
:104D9300F41203688A088B09E9FE121023E96006FE
:104DA3007AFF7BFF8078901B63E064027063790075
:104DB300124E24EA7001EB604212676AFC74016CC4
:104DC3007022900374E08A828B83A3A3A3A3F08A47
:104DD300828B83A3A3124E3F74FE6A700374FF6B2E
:104DE3006010803A74036C601A74046C70047AFE69
:104DF30080B088828983E0640270089003C1E06414
:104E030002700E124E4F7001EB6006AA08AB0980C8
:104E13000DAA08AB09900356124F5D12206F02448E
:104E2300C7AA08AB09124E2C22120E31EEF9120E4C
:104E33002522EA240BF582EB3400F583124E492236
:104E4300850E82850F83E0FAA3E0FB22124E5712F0
:104E530010E3EA22900382E0FCA3E0FDAA08AB0979
:104E63002274F7120368EAFEEBFF120B9DE9700A46
:104E7300EEFAEFFB120BA9E96006EEFAEFFB8004F2
:104E83007AFE7BFF02377674F21203688A088B0975
:104E93008C0A8D0BE9FE7F00121023E97900600371
:104EA300024F53AA08AB091268F57002E583601735
:104EB300A3A3A3A3A3E0FA74026A704F9003C1E013
:104EC30064027003024F51AA08AB0990035C124FAE
:104ED3005D12206F120BAF8A0C8B0DA80CA90DE885
:104EE3007001E96069E82405F582E912607EA2E0B9
:104EF300505C750C01A2E1501C7901AC08AD09AA04
:104F03000AAB0B120D83E9700F804374036A703E82
:104F1300750C028003D2E1F0900375E0650A70041A
:104F2300A3E0650B700E7C1EEEF9AA08AB09120D07
:104F3300530F801AA90CAC08AD09AA0AAB0B120DCA
:104F430083E9700A0FEEF9AA08AB09120DD7EFF93E
:104F53000240E5EEFAEFFB900358124F6122E0F8AE
:104F6300A3E0F58388822274E812036874F01208C0
:104F7300ED8A148B158C088D097428120AAFE0F59D
:104F830010A3E0F511900402E07002A3E060121296
:104F930068FB7002E5836009A3E0700579000251A4
:104FA300CFE514241DF516E5153400F51785168293
:104FB3001251EEA3E0F50A8882898312533EFA88E0
:104FC300828983A3A3A3A3E0F9EAFEE9FFAA08ABBE
:104FD30009120DDDE9FA1251F6E02AF50B530A78AE
:104FE300E514240BF50EE5153400F50F78081208C7
:104FF3002D7D001251E112085BE9FA74036A609C8B
:10500300EA70407418550A70030250EDE50AD2E0C5
:10501300F50AA2E45004D2E1F50AE50AF50D780D8C
:105023001208311251D412085BE97017851082857A
:10503300118374FFF0A3F0850E82850F83124E3F18
:10504300121851851082851183E064FF7004A3E078
:1050530064FF60399003C1E064027003024F9F85CF
:105063000E82850F83E0FAA3E0124F5912206FEAF4
:1050730065087003EB65096003024F9F124F5612D8
:10508300206F851082851183EAF0A3EBF078081274
:10509300082D7D011251E112085BA90AEEFAEFFB1C
:1050A300120E318A088B09A808A909900375E068D4
:1050B3007003A3E06960030251C6EEFAEFFB122FFF
:1050C300787002E5836064A3A3A3A3E0FA74016A82
:1050D300600574026A7054851882851983AC82ADA9
:1050E30083EEFAEFFB120B49805590036EE0600FDD
:1050F300E50AF50D780D1208311251D412085BE55B
:105103000AF50D780D12083179027CFE7DFFEEFA67
:10511300EFFB12535E12085BE960030250468510F1
:105123008285118374FFF0A302508F120F93EAFC60
:10513300EBFD851882851983AA82AB83121E9F8596
:105143001482851583A3A3A3A3A3A3A3A3E064014C
:10515300701AE5142415F582E5151258BF12566628
:105163007408120AAFAA82AB83121E9F851682852A
:105173001783124F5DA3E04430F508780812083115
:105183007401120AAF858208858309780812082DF5
:10519300740B120AAF858208858309780812082DDB
:1051A300E50CF50878081208317900EEFCEFFD856F
:1051B3000E82850F83124E3F120D7D740612085B1B
:1051C300024F9F1251F6E50BF0120FAB74100265FC
:1051D300957901AC08AD09124E4312535E22AC0B14
:1051E300A90C124E43120DE3740222F5831247B742
:1051F300024D51851682851783124F610258D87468
:10520300EE12036874F01208ED8A108B11EA241D64
:10521300F50EEB3400F50F850E821251EE12533E5C
:10522300FC88828983A3A3A3A3E0FBECFEEBFF88A6
:10523300828983A3A3A3A3A3E0FC88828983A3A376
:10524300A3A3A3A3E0FAE4CAFBECF508EBF50988F2
:10525300828983A3A3A3A3A3A3A3E0F50A888289D6
:1052630083A3E05478F50BA2E45016E82408FCE984
:105273003400FD7408120AAFAA82AB83121E9F7A10
:1052830008E50BA2E55024EAF8850E82850F83E03A
:1052930028F8A3E03400F9740828FCE439FD8518E4
:1052A30082851983AA82AB83121E9FAC0AA90CEED6
:1052B300FAEFFB120DE9E9FA74036A60799003755A
:1052C300E06E7003A3E06F605EEA7054E50BF50DCA
:1052D300780D12083112534A12085BE97058780BA3
:1052E3001208317401120AAF85820E85830F780E7E
:1052F30012082D740B120AAF85820E85830F780E68
:1053030012082DE50CF50B780B120831A90AAC082D
:10531300AD09EEFAEFFB120D7D740612085B8016E1
:1053230074046A701180B7E50BF50A780A12083124
:1053330012534A12085B74100256BBA3A3E0F50C88
:10534300888289830262767901E510240BF582E570
:105353001112434B124E5A12535E22120DA17401C5
:105363002274E812036874F51208EDEAFEEBFF8C71
:10537300088D0989127423120AAFE0F50F74241201
:105383000AAFE0F516A3E0F5177428120AAFE0F5AB
:105393000EA90F120DEF8A108B117401120AAF744C
:1053A30008F0E50EA2E450037410F0E50EA2E550F8
:1053B30004E02408F0851882851983AA82AB83123E
:1053C300100B8A0C8B0DEA7001EB7003025515EA82
:1053D3002417F582EB12433BF0120F93E50C241ACA
:1053E300F582E50D1258BF12417AE50C2418F51425
:1053F300E50D3400F515E50C2416F50AE50D122626
:10540300617403120AAFAC82AD83AA10AB11120B05
:1054130049E9601E7401850A82850B83F0740312C7
:105423000AAFA882A983851482851583E8F0A3E9CE
:105433008025E50EA2E45020E5106E7003E5116FA0
:1054430070167401850A82850B83F0851482851595
:1054530083E516F0A3E517F0E50C12551CE50D12D4
:1054630058BF125DC77402850A82850B83F0A3E5DA
:105473000E125521E50FF0EE850A82850B83A3A357
:10548300A3F0EF850A82850B83A3A3A3A31255215F
:10549300A3A3A3E508F0E509850A82850B83A3A3EB
:1054A300A3A3A3A3F0AA10AB11120DDDE925128566
:1054B3000A82850B83A3A3A3A3A3A3A3F075080068
:1054C300E50EA2E45014AC16AD17E50A2408FAE57C
:1054D3000B3400FB121E9F750808E50EA2E5501C55
:1054E3007426120AAF125666E50A2508F8E50B344E
:1054F30000F9740828FAE439FB121E9F850C828593
:105503000D83A3A3E510F0A3E511F0AA0CAB0D12D4
:105513000C87740B026595E508240BF58222F08550
:105523000A82850B83A3A32274F21203688A088B71
:1055330009ECFEEDFF890A7900120E319003751212
:105543002BA36A7002E96B70047901802A750B0141
:10555300E865087003E965096012A90AEEFCEFFD2E
:10556300AA08AB0912105FE9F50B80097901EEFA7D
:10557300EFFB120D05A90B0240E574F51203687EDB
:10558300797F187A1012566A7001EB7003124B7E02
:10559300900360E014F0700C9024A3E493900360F4
:1055A300F0120E3D750A008052EE2404F582EF12CC
:1055B300607E603D14F07039EE240512438364036A
:1055C300701579028E828F831256668E828F83A323
:1055D300A3124E3F120D83850882850983E064017F
:1055E300600F8E828F83125B29E48508828509838D
:1055F300F0050AEE2407FEEF3400FF9024A61256AE
:105603005A40A6750A00802C850A087509007403A0
:1056130078081209EE1260682407F582E912607EA9
:1056230014F0700E88828983A3125B29E48882892F
:1056330083F0050A9024B412565A40CC750A0080B0
:105643000BE50A125A01600214F0050A9024A7120E
:10565300565A40ED023F82E493FAE50AC39A228840
:105663008289831258EE227B009003D0E0F912174F
:105673007FEA2274F6120368E97024790090035AD2
:10568300124F5D12206F8A088B09AE08AF0974FEB2
:105693006E700374FF6F701A9024ADE493601379F6
:1056A3000190035A124F5D12206F8A088B09AE08CE
:1056B300AF09120FCF022D4F12085B7F0A02057943
:1056C30074F612036874F31208ED1216418A088BFC
:1056D30009AE08AF09900375E06E7003A3E06F6035
:1056E300E9120F9FEA6E7002EB6F60DEEEFAEFFBDA
:1056F300121023E970D4EE7001EF60CEE4851882B6
:10570300851983F07401120AAFEEF0A3EF12572646
:1057130070B874FE6E700374FF6F60AEEEFAEFFB49
:10572300023EAC123DB4120B61E922C082C0831267
:105733000FCF02448374F2120368EAFEEBFF8C0876
:105743008D09890A740E120AAFE0F50B74FC6E70B2
:105753000374FF6F700579000240E57900120E3182
:105763008A0C8B0DAE0CAF0D900375E06E7003A326
:10577300E06F7006E50BA2E650DCA90B12589F7090
:1057830001E9701279007AFE7BFF12589F7001E9DC
:105793007004790280C288828983EEF0A3EFF074EB
:1057A300FE6508700474FF6509600988828983A314
:1057B300A31259F9E82406F582E91258BFE50BF064
:1057C300A2E05003D2E2F0E82404FAE93400FBE853
:1057D3002405F8E93400F97401650A702674018818
:1057E300828983F0900374E08A828B831258E6AA3D
:1057F30008AB0912110DEA7001EB60030257597CE3
:1058030000801E88828983E06401700302575990E7
:105813000373E08A828B83124D49E50AF0025759DC
:105823000C9024A9E493FAECC39A40030257597BE2
:105833000080010B9024A612615D40F7EC1258AC76
:10584300EB75F007A4247BF582E5F034181258C3F6
:10585300E0687003A3E06970030257599024A6E43B
:10586300936B70BC7C177D007900EEFAEFFB121688
:105873002F8E828F831259F99003821258D3A3A3D8
:10588300A3A3A3A3E8F0A3E91258DE7401F0EE2466
:105893000E124338F01258B974028080120E258A12
:1058A3000C8B0DA80CA90DE82275F017A42409FE92
:1058B300E5F03417FF22EE240DF582EF12434B225D
:1058C300F5831258C922E0F8A3E0F98E828F832270
:1058D3001258C98001A3A3A3A3A322F0EE240F129D
:1058E300434822F09003821258EE22E0FCA3E0FD2D
:1058F3002274EF1203688A088B098910ECFEEDFF0E
:105903009024AA1269BE400579050259DAAA081241
:105913001899AA08AB09125A61F50A687001E47074
:10592300097AFE7BFF120DB3E9F8C3E8950AE49404
:1059330000C365D03340030259D8E875F006A424A8
:1059430091F50AE5F03419F50BE50A2404F50CE5A5
:105953000B125B1A7001EB60031216D1E510C3330F
:10596300F50EE433F50FE5106011AA0EAB0F1259D3
:10597300DD7002A3E0700E7901805C850C82850DD9
:1059830083E4F0A3F0850A82850B83A3A31259F95C
:10599300850A82850B83A3A882A983E510F090036F
:1059A300CAE0850A82850B8312627B6024850C82A0
:1059B300850D83125B1F7001EB60168E088F0975CE
:1059C3000A007808120829AC0EAD0F125A121208F9
:1059D3005B790080027907022B021216CB850C82B9
:1059E300850D83EAF0A3EBF0850C82850D83E0221D
:1059F300F50988828983E508F0A3E509F02275F0AB
:105A030006A42491F582E5F03419F583E022FB1214
:105A13001623740322E50AF0A3E50B122B10A3222D
:105A230074F6120368ECFEEDFF740A120AAF124318
:105A33005688088909125A61FAC3E89AE49400C3A4
:105A430065D0335014E8125A6C12659D125A7712BE
:105A53005A7112440979008002790402443B120D01
:105A6300B3E9F89024A7E49322125B02A32212471E
:105A7300B7022B11125A7B22F0888289830258D9EC
:105A830074F7120368750800801BE50875F006A417
:105A93002493F582E5F03419F583E06A7003A3E0FB
:105AA3006B605905089024A7E493FCE508C39C4068
:105AB300D9E4936508704574FE6A700374FF6B70D4
:105AC3003B750800800205089024A7E493FAE508D3
:105AD300C39A5028E508125B02E070EAA3A3125BA5
:105AE30029E82404F8E9125B10125B1F7001EB60D4
:105AF3000B1216D18E828F83E4F0A3F0024041751E
:105B0300F006A42491F8E5F03419024D503400F95D
:105B1300E8FEE9FF0258CE125B31F583124E49EAE3
