:020000040000FA
:06000000020A420201C2E7
:03002B00021C1C98
:030033000206942E
:030043000208C0F0
:03004B0002075E4B
:0300530002011592
:03005B0002076D2C
:0300630002077918
:03006B0002067A10
:1000830002015E0101FF05030103000300030003F6
:10009300000300030003000300030005000A00142B
:1000A3000028004F009E0000003B103B103B103B1C
:1000B30010F70EF10E3B10D71D00000000B11C001D
:1000C3000000000C0000000C00010000AF11000054
:1000D300000000004B1200000000000000003F057C
:1000E300FF01010100820D000000D30DE80364004D
:1000F3006400B8010202000800000502071E0205A1
:100103001E0A03B80B020103320002FFFF020202C0
:100113000612C0E074F21203D4E5A7F8E5A1F9587A
:100123005410600812182153A1EF802AE8A2E0C0FE
:10013300D0E9A2E092F0120969158182F05017907C
:100143006198E0F89010D9E0C398A2D265D03350FB
:1001530002E8F053A1FE7F01020433C0E074F212FF
:1001630003D49061A4E0F8759B00E59158540860AE
:10017300087591F7121863802AE5915854106008A6
:100183007591EF121869801BE8A2E0C0D0E591A237
:10019300E092F0120969158182F05007E0C2E0F0A5
:1001A3001219899061A3E0F8E5E9585404600E122E
:1001B300195F75E9FB906193E0A2E640F28097C076
:1001C300E074F21203D49061A5E0F8E5BF5854043B
:1001D300600653BFFB1219A1020159C3E498F8E466
:1001E30099F912021F8026C3E49AFAE49BFBE920E3
:1001F300E7E912021FE498F8E499F922C3E498F8B6
:10020300E499F912021FE498F8E499F9C3E49AFA1D
:10021300E49BFB22EB20E7CFE920E7E0B90010BB2A
:100223000008E88AF084F8AAF022E4FBC8FA22EB7B
:1002330070227B10C833C8C933C9335007C39AC36C
:10024300DBF280069A50012ADBEAC833F4C8C933CB
:10025300F4C9FA2275F008E4C833C8C933C933C9ED
:100263009AC99B5004C92AC93BD5F0ECFBC833F4A7
:10027300C8E4C9FA22080808EAC0E0EBC0E086F047
:10028300E7A4FA180986F0E7A42AFA180986F0E722
:10029300A42AFA180986F0E7A42AFA1986F0E7A433
:1002A300FBE5F02AFA190886F0E7A42BFBE5F03A00
:1002B300FA190886F0E7A42BFBE5F03AFA181809B7
:1002C30086F0E7A4C5F02BFBE43AFA1908E7C5F07A
:1002D300C6A426F6E5F03BFBE43AFA1886F0E7A459
:1002E300F6E5F00826F6E43B08F6E43A08F6D0E033
:1002F300FBD0E0FA22E4CFC0E0E4CEC0E0E4CDC01E
:10030300E0E4CCC0E075F020C3E633F608E633F64C
:1003130008E633F608E633F6181818EC33FCED3329
:10032300FDEE33FEEF33FFC3EC9709ED9709EE972C
:1003330009EF97191919400FFFEC97FC09ED97FD89
:1003430009EE97FE191906D5F0BEECF709EDF7098A
:10035300EEF709EFF7191919D0E0FCD0E0FDD0E072
:10036300FED0E0FF222518C582C0E0E51934FFC5A1
:1003730083C0E0E518C3958224F810AF088583197C
:100383008582188008858319858218D2AFCEF0A3A1
:10039300E520F0A37808E608F0A3DEFAEFF0A3E582
:1003A3008124FAF8E608F0A3E608F0A3E608F0A330
:1003B3000808E608F0A3E608F0A315811581D0E04C
:1003C300FED0E0F8158115811581E8C0E0EEC0E0AC
:1003D30022C0D02518C582C0E0E51934FFC583C00B
:1003E300E0E518C3958224F310AF0885831985824D
:1003F300188008858319858218D2AFC8F0A3E9F065
:10040300A3EAF0A3EBF0A37908E709F0A3D8FAEC89
:10041300F0A3EDF0A3EEF0A3EFF0A3D0E0F0A3D0B0
:10042300E0F0A3D0E0F0A3E520F0A3E5F0F0A322F1
:10043300851983851882E0C0E0A3E0F9A3E0FAA35D
:10044300E0FBA37808E0F608A3DFFAE0FCA3E0FDF5
:10045300A3E0FEA3E0FFA3E0C0E0A3E0C0E0A3E0CD
:10046300F5D0A3E0F520A3E0A3F5F010AF08858352
:10047300198582188008858319858218D2AFD082A6
:10048300D083D0E0F8D0E032120AA4B9000302040A
:10049300CDE490030178EA79128002F0A3D8FCD965
:1004A300FA9014EAAA82AB8390008678907901804F
:1004B30015E493A3AC82AD838A828B83F0A3AA82D3
:1004C300AB838C828D83D8E9D9E775825A7583EE25
:1004D300740212052F75821775831C740012052F81
:1004E300D083D082ECC0E0EDC0E0E493A3FCE493BE
:1004F300A3FDED4C600D120605EC24FFFCED34FF6B
:10050300FD80EFE493A3FCE493A3FDED4C600D1297
:100513000709EC24FFFCED34FFFD80EFD0E0FDD0B4
:10052300E0FCE493A3C0E0E493C0E022C0F0F5F064
:10053300E59F5407C0E0E59F54F845F0D0F0F59FE0
:10054300E473859FF053F0F8D0E045F0F59F22D097
:1005530083D082E59F5407C0E0E493C0E074019325
:10056300C0E07402935407C0F0F5F0E59F54F845DA
:10057300F0D0F0F59F22851983851882E0A3FEE071
:10058300A3F5207808E0A3F608DFFAE0A3FFE0A3D1
:10059300C0E0E0A3C0E0E0A3C0E0E0A3C0E0E0A3CC
:1005A300C0E010AF088582188583198008858218FA
:1005B300858319D2AFD083D082020545D083D08200
:1005C300E9C0E0E493A3C386F0C5F095F0F908E42D
:1005D30093A386F0C5F095F0700BE493A3C3994001
:1005E30005E9048002A3E475F002A42582F582E5FF
:1005F300F03583F583D0E0F9E493A3C0E0E493C03E
:10060300E022C0E0C3E49396087401939618400F68
:10061300E49366700808740193661870007019A358
:10062300A3C3E49396087401939618A3A3400DD033
:10063300E0D0E0D0E002051FA3A3A3A3A3A3D0E0CF
:1006430022D083D082C5F0E493A3C5F0C395F0F51F
:10065300F0E493A3C395F04005E5F0048001E4754D
:10066300F002A42582F582E5F03583F583E493A3B4
:10067300C0E0E493C0E022C0E074F21203D4E58941
:10068300A2E150031216E3758900C2C57F0102047B
:1006930033C0E074F21203D4E58BA2E050031216C8
:1006A300E3758B00C2E880E4740480047402800064
:1006B300CCC0E0EDC0E0E518C39CCCAD1950011DE2
:1006C30010AF068C188D1980068C188D19D2AF12B5
:1006D30007A7D0E0FDD0E0FC2274028000CCC0E08C
:1006E300EDC0E0E518C39CCCAD1950011D10AF0659
:1006F3008C188D1980068C188D19D2AF120785D0EE
:10070300E0FDD0E0FC22C0E0C0F088F0E493667026
:10071300080874019366187000A8F0A3A3700BD0A7
:10072300F0D0E0D0E0D0E002051FA3A3D0F0D0E0EA
:1007330022D083D082CCC0E0E493A360061207E703
:100743001470FAE493A360061208D71470FAD0E089
:10075300FCE493A3C0E0E493C0E022C0E074F2128F
:1007630003D41217617F01020433C0E074F2120351
:10077300D412176780EFC0E074F21203D412176D1E
:1007830080E3CAC0E0E493A3C582CCC582C583CD10
:10079300C583F0A3C582CCC582C583CDC583DAE505
:1007A300D0E0CA22CAC0E0E0A3C582CCC582C5831B
:1007B300CDC583F0A3C582CCC582C583CDC583DAFD
:1007C300E6D0E0CA22700908080822601618181833
:1007D300C6C333C608C633C608C633C608C633C63F
:1007E300D5E0EA22C0E0E493A3D39C5010E493A3A2
:1007F300C39C400AD0E0D0E0D0E0020751A3A3A3FA
:10080300D0E022C008C3E096F50808A3E0964208AA
:1008130008A3E096420808A3E09645087001D3D0E8
:1008230008227404800A740380067402800274012F
:10083300C0E0F404120840D0E0120A7F222518F524
:100843008210AF08F518400215198008F518400208
:100853001519D2AF85198322C0D0251810AF08F51A
:1008630018500205198008F51850020519D2AFD0A7
:10087300D022BB0102E722C082C08389828A83BB64
:100883000003E08002E493D083D08222601608083C
:1008930008C6C313C618C613C618C613C618C6138C
:1008A300C6D5E0EA22C3E0C696F608A3E0C696F6EC
:1008B30008A3E0C696F608A3E0C696F622C0E07445
:1008C300F21203D4C2C0E5D1A2E450031217977FFA
:1008D30001020433C0E0E493A36C7009D0E0D0E0DC
:1008E300D0E0020751A3A3D0E022251810AF08F5EA
:1008F30018400215198008F51840021519D2AF22C5
:10090300E066701008A3E066700A08A3E06670044E
:1009130008A3E06622C3E09608A3E09608A3E09646
:1009230008A3E096A2D265D03322C3E7960809E76D
:10093300960809E7960809E796A2D265D03322C341
:10094300E096F008A3E096F008A3E096F008A3E091
:1009530096F022E026F008A3E036F008A3E036F094
:1009630008A3E036F022C0E0E8C0E0E58124FCF80B
:10097300E6A2E7D0E0F8D0E022E647F60809E6472A
:10098300F60809E647F60809E647F622E026F608E0
:10099300A3E036F608A3E036F608A3E036F622E62F
:1009A30027F60809E637F60809E637F60809E637B1
:1009B300F622E657F60809E657F60809E657F60859
:1009C30009E657F622E056F608A3E056F608A3E038
:1009D30056F608A3E056F622E056F008A3E056F0D8
:1009E30008A3E056F008A3E056F022700422600D3D
:1009F30018C6C333C608C633C6D5E0F41822E4C309
:100A030096F608E496F608E496F608E496F622C607
:100A1300F4C608C6F4C608C6F4C608C6F4C622C39C
:100A2300E7960809E7960809E7960809E79622C3B7
:100A3300E09608A3E09608A3E09608A3E096227543
:100A4300D0007581407518017519030002048B608D
:100A53000C08C6C313C618C613C6D5E0F422E6F0C5
:100A630008A3E6F008A3E6F008A3E6F022E0F60800
:100A7300A3E0F608A3E0F608A3E0F622CAC0E0E686
:100A8300F0A308DAFAD0E0FA22E0FAA3E0FBA3E04D
:100A9300FCA3E0FD22EAF0A3EBF0A3ECF0A3EDF05E
:100AA30022E5C754F84401F5C77901222518F582D8
:100AB300E43519F583221205528BB101120552DD7B
:100AC300B2011205526FB30112055242B40112056D
:100AD3005260B40112055290B401120552A2B4013E
:100AE300120552C1B40112055232B501120552BCAE
:100AF300B5011205528EB601120552FEB60112055A
:100B03005219B7011205523DB70112055278B701C8
:100B1300120552B8B70112055205B801120552DD8C
:100B2300B80112055280B90112055210BA0112051B
:100B33005223BB01120552A1BB01120552B3BB01E3
:100B4300120552BDBB01120552A5BC011205521C70
:100B5300BD0112055259BD01120552B8BD0112055E
:100B63005208BF0112055224BF0112055286BF016C
:100B730012055220C00112055267C001120552022C
:100B8300C101120552AFC101120552EDC101120597
:100B9300525DC201120552A8C201120552E1C201FF
:100BA3001205520FC40112055240C5011205529F8E
:100BB300C501120552E8C50112055210C6011205FE
:100BC3005293C60112055211C70112055286C7017D
:100BD30012055297C7011205520DC801120552BFE3
:100BE300C80112055201C90112055297C901120524
:100BF30052DEC90112055227CA0112055297CB01D1
:100C030012055265CD0112055249CE011205524318
:100C1300D0011205524DD00112055257D0011205D1
:100C23005261D0011205526BD00112055275D001E9
:100C33001205527FD001120552A0D001120552C4F1
:100C4300D001120552E8D00112055245D101120517
:100C53005294D101120552B2D10112055222D2018E
:100C63001205525FD201120552ADD2011205521F75
:100C7300D30112055258D501120552D2D5011205DE
:100C8300521FD8011205527BD801120552A0D80178
:100C9300120552CAD90112055209DA011205524F3F
:100CA300DA011205522DDB0112055287DB01120511
:100CB30052D9DB011205525DDC01120552D01F002F
:100CC3001205521C2000120552FA21001205523857
:100CD3002200120552842200120552292300120514
:100CE300528F2300120552DA2300120552FE24000C
:100CF3001205521E2600120552552900120552D222
:100D03002900120552C92A001205526E2B00120542
:100D130052842C00120552AE2F001205525430009B
:100D23001205528A30001205525E3100120552F547
:100D330031001205523F32001205526C3200120587
:100D4300528E32001205529C340012055271350046
:100D5300120552BE35001205522D3600120552DB24
:100D630036001205521037001205525E3700120585
:100D730052933700120552EB3700120552453800E3
:100D8300120552C53800120552263900120552A524
:100D93003900120552743B00120552363C0012050D
:100DA300526A3D00120552D73F0012055289400096
:100DB300120552234200120552C04200120552117D
:100DC3004300120552CC4400120552E044001205C0
:100DD30052ED44001205522145001205522D4500E3
:100DE3001205524B45001205524146001205527836
:100DF3004600120552854600120552E246001205CE
:100E030052E34700120552C94800120552624900D5
:100E1300120552D94900120552F049001205522910
:100E23004A00120552474A001205528B4A00120526
:100E330052AC4A00120552944B00120552F84B0073
:100E43001205526A4C001205526F4D00120552787A
:100E53004E00120552E34E00120552914F00120547
:100E630052B74F00120552A05000120552E3500032
:100E7300120552525100120552C851001205520573
:100E830052001205525052001205527752001205B9
:100E930052FC52001205528E5400120552FB5400AC
:100EA300120552615500120552BD55001205521527
:100EB30056001205527B5700120552DC57001205EB
:100EC300523C58001205528D5800120552A8580082
:100ED300120552D85800120552F95800120552054E
:100EE3005900120552465A00120552645A0012055F
:100EF30052CD5A00120552E05A00120552F75A0019
:100F03001205528A5B00120552895C001205528554
:100F13005D00120552075E00120552115E001205B4
:100F230052745E00120552855E00120552C85E00BF
:100F33001205520F5F00120552455F001205527BE6
:100F43005F00120552995F00120552BD5F00120542
:100F530052FE5F00120552F1600012055237610024
:100F6300120552726100120552CF6100120552F749
:100F730061001205523062001205523E62001205F2
:100F8300529F6200120552DC62001205521E63007A
:100F93001205524F63001205528363001205528EED
:100FA3006300120552AC630012055274640012050B
:100FB300527E6400120552BD6400120552D36400D0
:100FC300120552DC64001205524665001205525A9E
:100FD300650012055252660012055265660012053D
:100FE300527A66001205521A67001205527E670094
:100FF3001205524168001205524C68001205526BEB
:101003006900120552876900120552DF6900120553
:1010130052166A00120552306A001205526F6A00B6
:101023001205528A6C00120552F46C001205525FCD
:101033006D00120552B66F00120552C66F001205FD
:1010430052C96F00120552D56F00120552E96F00A5
:10105300120552F16F00120552267000120552D488
:101063007000120552447100120552A87100120556
:1010730052417200120552DB7200120552027300D4
:101083001205529273001205529E7300120552CD3F
:101093007300120552EF7300120552167400120505
:1010A300527C7400120552E67500120552E9750070
:1010B3001205526076001205524C77001205522435
:1010C3007800120552AE7800120552E3790012053A
:1010D30052957A00120552CE7A00120552FF7A0019
:1010E300120552087B00120552F47B001205527060
:1010F3007C00120552FD7C00120552C77D001205CB
:10110300524B7E00120552817E00120552CA7E00A8
:1011130012055218A50212055226A5021205528F76
:10112300A502120552C7A5021205521AA6021205FC
:1011330052B6A70212055296A90212055275AC02C5
:10114300120552A1AC02120552C1AC021205521F84
:10115300AD021205525DAD021205529BAD0212059E
:1011630052E1AD0212055235E802120552A9E80216
:1011730012055240E9021205521FEA02120552ED0E
:10118300EA021205524F86031205526D86031205B9
:1011930052BE8603120552038703120552AD87031D
:1011A300120552A58103120552EA82031205525118
:1011B300BF02120552D4BF02120552DEBF0212054E
:1011C3005205C00212055219C0021205527FC00215
:1011D300120552AFC002120552B1C102120552816B
:1011E300C202120552E1C2021205522AC3021205BB
:1011F3005267C302120552CAC302120552F6C30252
:1012030012055281C402120552DBC40212055200B8
:1012130080031205521980031205529380031205AD
:101223005240810312055268810312055247F102AD
:10123300120552C1F102120552CCF102120552ED10
:10124300F1021205523C9B021205523F9B0212050A
:1012530052009C021205522E9C02120552899C02D6
:10126300120552AD9C02120552CD9C021205521773
:101273009D02120552459D02120552749E021205EB
:1012830052A39E02120552C49E021205521F9F02D0
:10129300120552E29F0212055202A0021205527772
:1012A300A1021205520FA20212055218A30212053F
:1012B3005281A302120552AFA30212055239A601AD
:1012C300120552A9A402120552DCA4021205521FF0
:1012D300AE0212055229AE0212055271AE02120578
:1012E30052DFAE0212055202AF02120552A2AF0242
:1012F30012055251B2021205525AB202120552A7F6
:10130300B202120552D0B20212055230B3021205D4
:1013130052C6B3021205523AAF0112055247B40244
:10132300120552A1B40212055229B5021205526EDA
:10133300B502120552ADB502120552E2B50212050D
:1013430052F4B50212055206B60212055225B60230
:10135300120552EEB6021205527D8D031205526438
:101363008F0312055269FB02120552CDFB021205CF
:1013730052F1FB02120552EAFC02120552A9ED01D9
:1013830012055288EE01120552C4EE011205526194
:10139300F001120552A3F00112055257F201120592
:1013A300529BF2011205527CF30112055209F4011A
:1013B30012055294F401120552EAF4011205522A5D
:1013C300F501120552CCF60112055255F80112052A
:1013D300526CFA011205527AFA01120552DFFA0130
:1013E30012055229FB0112055202FE01120552A0F9
:1013F3009003120552DEE402120552F1E4021205D3
:10140300528FE502120552CAE502120552E5E502C2
:101413001205520AE6021205524FE60212055280E5
:10142300E602120552B1E60212055228E80212053D
:1014330052CF840312055243850312055285850357
:101443001205529585031205522D86031205523754
:101453008603120552B98F02120552079002120534
:1014630052B890021205524F9102120552999102FD
:10147300120552F691021205520A9202120552DB2C
:1014830093021205525894021205528294021205D5
:10149300523996021205525496021205529596023B
:1014A300120552D196021205522A9702120552458D
:1014B3009702120552A89702120552329902120599
:1014C300525A9902120552839902120552E3990264
:1014D300120552009A02120552039A02120552068D
:1014E3009A02120552719A021205528C9A0212053F
:1014F30052F29A021205522D9B021205527B8E0361
:10150300120552878E03120552C18E031205520033
:1015130080021205522B8002120552F78002120537
:1015230052808102120552E381021205522F820278
:101533001205529E82021205522883021205529FFF
:101543008302120552E18302120552A1870212059A
:1015530052678902120552A08902120552428A0279
:10156300120552228B02120552128D021205528D60
:101573008D02120552E1DC01120552A0DD011205B4
:101583005217DE0112055226DE01120552ABDE01AF
:1015930012055214DF0112055214E0011205523DE7
:1015A300E001120552D6E00112055219E1011205BC
:1015B3005276E101120552A5E2011205525FE301E1
:1015C300120552C4E3011205526FE50112055227B9
:1015D300E601120552C2E60112055221E701120586
:1015E300528CE7011205529FE80112055272EA017B
:1015F3001205520BEB0112055275EB0112055273E2
:10160300EC011205520ACF021205527CCF021205D9
:1016130052E5CF0212055253D0021205528BD0026B
:1016230012055213D1021205525CD102120552B9AE
:10163300D10212055231D20212055236D2021205DC
:1016430052A8D202120552A9F602120552F8F60266
:10165300120552B1F70212055217F8021205528809
:10166300F802120552CEEE0212055227EF021205BE
:1016730052A6F002120552B07F00120552B77F0046
:1016830012055243FE0112055251FE01120552B6D4
:10169300900312055227FF0212055237FF0212056B
:1016A300524FFF02120552B0FF021205524D8A0338
:1016B300120552748A03120552F98A031205525213
:1016C3008B03120552DD9E031205526B8B03120529
:1016D300528D8B03120552F78B03120552028C03B2
:1016E300120552468C0312055246D3021205525478
:1016F300D30212055290D302120552AAD302120545
:101703005234D40212055259D40212055276D4022D
:1017130012055293D402120552B8D402120552E0B4
:10172300D4021205522FD502120552A9D502120571
:10173300524DD60212055279E10212055287E10297
:1017430012055201E202120552CDE202120552794C
:10175300E402120552C28703120552FB87031205E6
:1017630052188803120552768803120552DB880348
:10177300120552FAC40212055267C5021205521E1F
:10178300C6021205528BC602120552A8C7021205E1
:101793005244C902120552A8C902120552FDC902D8
:1017A30012055206CA0212055215CA021205522820
:1017B300CA021205523ECA0212055247CA02120554
:1017C300525ACA02120552ADCA02120552B5CC02D0
:1017D300120552E7CC0212055209CD02120552221C
:1017E300CD021205523BCD021205523DCE02120527
:1017F30052CBCE0212055258FD021205528AFD0247
:1018030012055296FD02120552C9FD02120552FA43
:10181300FD0212055228FE021205529DFE02120518
:1018230052CCFE0212055213F40212055239F4028D
:1018330012055276F40212055288F402120552A4DC
:10184300F40212055212F5021205521BF50212059B
:10185300527AF5021205529EF5021205525DF60206
:101863001205526AF6021205527BF602120552F86D
:101873008E03120552458F0312055251DE021205E3
:101883005299DF02120552A6DF02120552B9DF0296
:10189300120552D8DF02120552EEDF021205520280
:1018A300E0021205527CE00212055212E102120517
:1018B300525AE1021205526AE102120552177F00E1
:1018C3001205523B7F00120552637F001205528BB3
:1018D3007F001205520BF90212055224F902120578
:1018E3005230F90212055244F90212055262F9020A
:1018F3001205526CF90212055276F9021205528949
:10190300F902120552DDF90212055216FA02120506
:101913005245FA0212055293FA02120552E2FA02F2
:10192300120552FDFA0212055207FB021205521864
:10193300FB021205525EFB02120552AF8F03120522
:101943005217B70212055243B7021205525FB7028C
:1019530012055272B70212055288B702120552F4E9
:10196300B70212055227B80212055284BB021205B0
:1019730052AFBC02120552E2BC0212055247BD022D
:101983001205522FBE0212055257BE021205526CA7
:10199300BE021205527CBE02120552C0BE021205DF
:1019A3005215BF0212055225BF021205521A8903AE
:1019B3001205523589031205525E890312055278C6
:1019C30089031205529D8903120552BC890312052E
:1019D30052D48903120552028A031205521C8A0348
:1019E300120552BAFF021205520CD7021205521306
:1019F300D7021205521FD8021205524FD802120500
:101A03005275D802120552A8D802120552BAD8024A
:101A1300120552F4D8021205525AD90212055293F2
:101A2300D902120552DFD9021205520CDA0212054D
:101A3300522CDA02120552418303120552538303D7
:101A43001205524284031205527D8C03120552DCA7
:101A53008C031205521A8D031205525B8D03120576
:101A63005252EB021205526EEB02120552B9EB020F
:101A7300120552D5EB0212055206EC021205522D45
:101A8300EC0212055210ED021205521AED02120574
:101A93005227ED021205522EEE0212055242EE02B9
:101AA3001205524BEE021205528CDA02120552064F
:101AB300DE021205522D9003120552F78F03120511
:101AC300525A90031205528290031205527BA401CD
:101AD30012055287A20112055218A201120552BD26
:101AE300A1011205525EA10112055234A101120592
:101AF300521A9F01120552F29E01120552A69E012F
:101B0300120552839E01120552669D011205520E63
:101B13009D01120552779B01120552749B01120518
:101B230052559A01120552359A011205528E9901A6
:101B3300120552119801120552D89701120552A9A4
:101B43009701120552A697011205529897011205A3
:101B530052CAAE0112055279AE01120552E2AD012D
:101B6300120552D5AD0112055290AA011205527AFF
:101B730097011205526397011205527096011205DF
:101B83005238A801120552069601120552D3950147
:101B93001205527B95011205524A9501120552FA1C
:101BA300B302120552F1A601120552579201120512
:101BB30052589101120552EE9001120552AE900156
:101BC3001205527790011205526B9001120552DEF5
:101BD3008F011205522C8F01120552548D011205EB
:101BE30052CE8A01120552988A011205522F890199
:101BF300120552DE8801120552168801120552772A
:101C030087011205525087011205521687011205EA
:101C13005274A40200000080FBC2C732E4730001C7
:101C23003636010100010201000103010001040134
:101C3300060605020000070100340801000F09042D
:101C430001010D0100FF0E08000017020000190139
:101C530000FF1A0100011B0100FE1C0100081D0208
:101C630000001F01000120010001210200002301E7
:101C7300000F2402000026010001270100082802AA
:101C830000FF2A0100072B0102402C0100002D0157
:101C930000012E0100012F0100FF30010B1C310850
:101CA30000003A0100083B01000F2F01000001036F
:101CB300710301030103010301030103220302036F
:101CC30001031003000300030003000300030003E8
:101CD3000003420300032403060300030003040379
:101CE300120325032303250323030403040300032F
:101CF30000030003440300030003230300036503FD
:101D030021003503810300030503000300030003DF
:101D13000302710230016002110270020102020229
:101D230002028002100261023A0041006302730260
:101D33007202620243020002130238000002000230
:101D43000402120200020002000200020402040262
:101D5300370037003C02440200023900000200024F
:101D6300650200023502810200020502820283023B
:101D730000020101710101010101110101013101A0
:101D8300010101018001100161013B0014006301A5
:101D930073017201620143010001130106013D0158
:101DA30035000401120100010001000100010401DA
:101DB3000401330133013C014401320136000001C7
:101DC3000001650100013500810100010501820167
:101DD30083010001030071003001600011007000F5
:101DE3003102200350048000100061000000140041
:101DF30063007300720062004300000013000600DA
:101E030000000000040012000000000000000000B9
:101E130004000400370037003C02440000000000C7
:101E2300000000006500000035008100000005008F
:101E330000008300000036000100060000000F00D0
:101E430000000000000000000000000003FFFF008E
:101E5300000403FFFF0000FFFF0FF4010005C404AB
:101E63000320000100000B0000000000000000033D
:101E7300010F0100B1150200271503002D15040001
:101E83003315050039150600451511005D151400BD
:101E9300631515005715FFFF00000300030004003E
:101EA300080010001F003E007B00F600EC01D70382
:101EB300AF075D0FB91E713D000003EAF5E5D5D507
:101EC300C5B5A5959585857575656555554545359F
:101ED300352525151505510F810F570F5D0F7B0F05
:101EE3006F0F690F870F8D0F930F9F0F630F4B0FAB
:101EF300450F0A2F0D02FF0C05110D07050D0CE709
:101F03000C0DF30CFF00009C36063A703DD940439C
:101F130044AD47174B814EEA5100160F00000B15D5
:101F23000B020002220F3200000600010203040527
:101F3300060708090A0B0C0D0E0F3B104D1053102A
:101F43001B0F5910150F210FB310D110D710B91053
:101F5300C510BF1000034948424D1817250502005C
:101F63000119161816161523030000383C3E363B9C
:101F73003B352B432C0C0E020B040B0A0708000FF6
:101F8300303017181921301B1D1F30303016181927
:101F930020231A1C1E30750F990FCB10A50FAB0F02
:101FA300A7105F10651071106B100005150D091057
:101FB300080400000000000000BE040A150004002D
:101FC3000E0028080C0C0A090504040F08C082C07F
:101FD30083E99003BEF0E4900372F0121A37900382
:101FE300C2E4F0A3F09003BFF0A3F0120E67121A3D
:101FF3003D900341E4F0A3F09003DDE07002A3E021
:1020030060099003DD1246A0121C1F901FCEE493BB
:10201300FA7902121A9702430174F2120368EAFE74
:10202300EBFF74805FF9E47001E960619003BEE047
:10203300F912130B8A088B09EA7001EB60467B00E7
:1020430080010BEB75F003A424F5F8E5F0341EF9D9
:1020530088828983E493FA74FF6A60218508828504
:102063000983E06A70DCAA08AB0988828983A3E448
:1020730093C0E0740193F583D082121C1FAA08ABAE
:10208300091212FFEEFA74806FFB0221E474105FF1
:10209300F9E47001E9601D120D898A088B09EA7061
:1020A30001EB600A120CF3AA08AB091212FFEEFA55
:1020B300741080D4EEA2E0501A900377E0640F709E
:1020C3000B7900120CC9E960031221F074016EFA56
:1020D300EF80B6542070030221B0750C0012348EC9
:1020E3007001EB70107C027D007A207B009003BEB0
:1020F300E0F91214137C0079047A007B00120D6559
:102103008A088B09800D740188828983F0850A0807
:10211300850B09E5087002E50960707C007904AA63
:1021230008AB09120D658A0A8B0B750C01E50824AF
:1021330004F8E509123B3D24FFF0A3E034FF123F0E
:10214300B57002A3E070C6E5082409F8E509340078
:10215300F9850882850983A3A3A3A3A3A3A3A3A3A8
:10216300A3E0640170A0850882850983A3A3A3A3C8
:10217300A3A3E05404708F740688828983F07AB72E
:1021830085088285098312231D8082120D357C0008
:1021930079017A007B00120D65EA7001EB7009E5A5
:1021A3000C70057A2012463674200220D174025F27
:1021B300F9E47001E9600A120E61EEFA740202207A
:1021C3008B74045FF9E47001E9601212477E1243D5
:1021D300F27901122ABFEEFA740402208B7A007B93
:1021E300008005740312085B7F060205799015537E
:1021F3001238B8120CE122C082C08374EA1208EDCF
:10220300851882851983AA82AB83794B121A6D7460
:1022130008120AAF7402F07409120AAFAA82AB83E0
:102223007950121A6D7413120AAF124B85121A8B5E
:1022330074160242FE74F712036874E11208EDEAA1
:10224300FEEBFFEE7001EF6033851882851983ACD6
:1022530082AD83120DAD7406120AAFE0601E7417CF
:10226300120AAFE0FD7401120AAFE0FCEEFAEFFBD5
:102273007900120ACBE9600479A48002790002385C
:102283006C74F6120368EAFEEBFF8E828F83A3A3BE
:10229300A3A3A3A3E05440601B12469C1247B5605E
:1022A300067AFF7BFF801A8E828F83123B64FAA328
:1022B300E0FB8003120DD174FE6A700374FF6B6040
:1022C3004112469C1247DD120E25E98E828F8360F0
:1022D30006122316E480051223167401F07CCF7DC9
:1022E3000C8E828F8312451D121A91E9F508701521
:1022F300EE7001EF60097901EEFAEFFB120D410276
:10230300468E7508CDAA088E828F8312231DE9603D
:10231300DF80ECE0240D123D4622E0240C123D4602
:10232300E0F9120CDB2274F6120368E9FEEAFF7A85
:102333000F7B001212F9EA7001EB6019740C8A82A8
:102343008B83F0EEA3A3F0EF8A828B83A3F0124674
:10235300CA79008034EEF9120D6B8A088B09A8083C
:10236300A909E87001E9601F740688828983A3A321
:10237300A3A3A3A3A312503FA3A3A3A3A3E0F91270
:102383000C93EEF9120D477910024697C082C08371
:10239300900377E0640F7018EA7001EB601290030A
:1023A30072E0FC74086C600574046C70031223B64D
:1023B300024301EAFCEBFD7A017B009003BEE0F9E6
:1023C30012140D2212479D640222EE2409F8EF3401
:1023D30000F9880A890B2274F212036874FD12084B
:1023E300ED8A088B09EA2402F50CEB123F85F912FA
:1023F3000D6B8A0A8B0BAE0AAF0BEE7001EF700305
:102403000224E6850882850983A385820A85830BD6
:10241300E064F16014E064CD600FE0641A600AE0E8
:1024230064E96005E064E1701C7900120D41E96024
:10243300148E828F83A3A3A3A3A3A3E04420F0A3BA
:10244300E0F00224D0850A82850B83E0C0E07402A9
:10245300120AAFD0E0F0124ED7EE240B12502985AA
:102463001882851983AA82AB837005120C0380033B
:10247300120E0D850A82850B83E064F1604FE064E0
:10248300CD604AE0641A6045E064E16040E064F0D6
:10249300603B7402120AAFE0FC74B76C602F122425
:1024A300F2750A01780A120831ECF50A780A120863
:1024B30031E508240CF582E5091252F8122F6AFC63
:1024C300A3E0FD8A828B83122F8412085BEE24091A
:1024D3001223C770037406F0850C82850D83E0F91F
:1024E300120D47120D359015571221F30221E68E76
:1024F300828F83123C30E8FAE9FB2274F2120368FC
:10250300EAFEEBFF750A00EE24091243E2240512EA
:1025130025F9F583E06034750A0885088285098307
:10252300123B4F7001EB600D750A2C850C82850DF3
:1025330083E0D2E0F0850C82850D83E054036401CF
:1025430060030225F4430A110225F4EE2418125005
:10255300296032EE241A125029FA701885088285F0
:10256300098312260F7003A3E06960030225F47543
:102573000A22807DEE241B124E6BEE24191250307A
:10258300120C81806C8508828509831226187003DA
:10259300750A018508828509831243087003A3E045
:1025A3006B7006E50AD2E1F50A123483E50A601579
:1025B300850882850983E07006E50AD2E58004E593
:1025C3000AD2E6F50A120E25E964017006E50AD27D
:1025D300E0F50A850882850983E06015EE241DF580
:1025E30082EF340012260564016006E50AC2E0F5B5
:1025F3000AA90A0221EBF8EF3400F9880C890D8847
:102603008222123B69E0F9120E13E922123C309048
:102613000363E068221247B964022274E812036874
:1026230074DE1208EDEAFEEBFFEE2404123B2A608F
:1026330010901555E07002A3E06006901555122125
:10264300F3EE2402F50CEF122F467403120AAFAC1B
:1026530082AD83850882850983122F60FAA3E0FB8C
:10266300120DADEE241B1238767410120AAF12430A
:10267300F27409120AAFE0601C741A120AAFE0FD8B
:102683007404120AAFE0FC1245177901120ACBE970
:1026930060030229307403120AAFAA82AB83120CBF
:1026A300EDE9F50A7409120AAFE0700E90035AE0DF
:1026B3006008E9A2E14003022930E9A2E650277449
:1026C30020120AAF124C5FE064037006A3E0640DAE
:1026D30060147403120AAFAA82AB83120E37E96443
:1026E300017003022930EE2412F514EF3400F515BE
:1026F300EE242A123486EE242EF516EF3400F51755
:10270300EE242C1252F5122C7DE0687003A3E069CD
:10271300701E750B00780B120831780B1208318587
:102723001682851783E0F9122945122F8412085B5C
:102733007406120AAFE0FA900360E06A60030229AC
:10274300307409120AAFE0700302280812294512F7
:10275300451D120E858A088B09A808A909E870018E
:10276300E970030228A97404120AAF12293AFAA3E2
:10277300E03400FB740D2AF582E43BF583E0FAE8CC
:102783002404F508E9123489E82403F582E9125098
:102793002C6A601FEAF09087057810120A7085088A
:1027A30082850983E510F0A3E511F0A3E512F0A3F8
:1027B300E513F07904E9120AAF12293AFCA3E034D5
:1027C300008C82F583A3AA82AB831212E78A0C8B57
:1027D3000D8C0E8D0F8508828509837810120A707F
:1027E3007810790C120A225003022930908701785D
:1027F3000C12098F850882850983124E54A3E50EB6
:10280300F0A3E50FF0900372E0FA74046A600874B1
:10281300096A6003022930E50AA2E540030228EBB6
:10282300851682851783E0851882851983F0EE2447
:102833002F125029C0E07401120AAFD0E0F0EE2449
:1028430030125029C0E07402120AAFD0E0F07414C1
:10285300120AAFE064017028740E120AAF12387CBA
:10286300851482851583E0687003A3E06970117491
:102873000C120AAF12261870077414120AAFE4F090
:10288300EE24241252F51206AB7404120AAFAC8282
:10289300AD837407120AAFAA82AB83120C097404C6
:1028A30012085B0229309003B7E064016003022839
:1028B300087420120AAF123B6464067009E50AA289
:1028C300E650030228087410120AAFE064FF700494
:1028D300A3E064FF6057EEFCEFFD7403120AAFAA96
:1028E30082AB83120CF98045A2E650417420120A90
:1028F300AF123B64FA74046A7018741A120AAFE0D8
:10290300640270297403120AAFAA82AB83120E0108
:10291300801B74076A7016741A120AAFE06404709D
:102923000C7403120AAFAA82AB83120DFB7422123A
:10293300085B7F10020579E0FA850C82850D83E040
:102943002A22850882850983124E72851482851591
:10295300832274F2120368EAFEEBFF8C088D0912DE
:1029630023CD79008882F58312451D120C9F8A823C
:102973008B83E5827002E583603AA3A3A3A3A3A399
:10298300E05418602FE508241BF582E5091252F87C
:102993001206AFE5082412F582E5091252F8120671
:1029A300AFEE24181250301229C2120CB174041263
:1029B300085B800879001229C2120C750221EB858D
:1029C3000A82850B83124E72EE240B1238B12274E5
:1029D300F612036874F71208ED8A088B09900372E4
:1029E300E0FA74036A600D74016A600874096A602E
:1029F30003022AB18508828B83A3AE82AF83E06092
:102A030003022A967C007D007A027B00121A43E5BA
:102A1300082402122AB412387C9003631243F27919
:102A230053121A737900122ABF900372E06409608B
:102A33000990037012451D120E7F74011246BD7476
:102A430004900372F07401120AAFAA82AB83794A2D
:102A5300121A6D7401120AAFAC82AD837A687B03DC
:102A6300121A5B900363124E6E7A037B00121A43B1
:102A7300900366124E6E7A047B00121A4390035D34
:102A8300E0A2E35004D2F08002C2F01246A5122164
:102A9300F08018FC7D007A037B10121A438E828F1C
:102AA30083E0F9122ABFE4900372F0120D1D02466F
:102AB30092FAE5093400FB8A828B83229003701219
:102AC30038B8120C1522C082C083900341E0700213
:102AD300A3E07041900372E0120734000301EB2A74
:102AE30005FA2A06092B182B900349E07002A3E08C
:102AF3006076900349806B900345E07002A3E06029
:102B030067900345805C900347E07002A3E0605840
:102B1300900347804D900341E07002A3E0600912E7
:102B230031EDFC74016C702379009003BF800909B7
:102B3300EA1246D3EB1252F81237597001EB70EFD9
:102B43009003BF12451D120C0F801D74026C70059B
:102B5300120E5580139003DFE07002A3E06009902A
:102B630003DF1246A0121C1F02430174F412036810
:102B730074FB1208ED8A088B097A0F7B001212F995
:102B83008A0A8B0BAE0AAF0BEE7001EF7003022CB7
:102B93007874028E828F83124B867950121A6D8558
:102BA3000882850983A3858208858309E06003027F
:102BB3002C61900370125038700374FF69602F7496
:102BC300FE68700374FF696025851882851983E0A8
:102BD300687003A3E069601674EA85088285098337
:102BE300122F967A707B037950121A7380708518AE
:102BF30082851983122C7D1243F27A637B03795306
:102C0300121A6D9003631243ED7A667B03794B12BC
:102C13001A6D7A657B0379E1121A6D900377E0C32D
:102C2300940F5022900365E0C0E07402120AAFD003
:102C3300E0F07404120AAF7401F07402120AAFAA2E
:102C430082AB83121A85750A00780A120831780A52
:102C5300120831901577E0F9122F7B12085B850873
:102C630082850983122F4BF07403900372F0EEFAFE
:102C7300EFFB1246CA7405023988123C3090037088
:102C83002274EC12036874ED1208ED8A828B83A31D
:102C9300122F50EA2408123990FEE9FF8518828525
:102CA3001983AC82AD838E828F83122F6AFAA3E0DD
:102CB300FB120D23851882851983E070708E828F35
:102CC30083E0C3940B4066850882850983A3A3A38D
:102CD300A3A3A3A3A3E064027053900372E0FAE5F5
:102CE300082410F510E5093400F511E5082409124C
:102CF3002F4274026A603B74066A6036900341E0B7
:102D03007002A3E060071231ED6401605574086A34
:102D1300600574046A70167402120AAFE0F974074E
:102D2300120AAFAC82AD83124517120D2974130238
:102D33004E25900341E07002A3E07026750A0078E7
:102D43000A120831780A120831851082851183121C
:102D53002F60FCA3E0FD850882850983122F84126E
:102D6300085B9003BF12509A9003BF124E1DE508F3
:102D7300240DF50EE5093400F50F80308E828F8324
:102D8300E0F8A3122F60687003A3E06970128E82CB
:102D93008F83A3A3E0FA850E82850F83E06A606DBB
:102DA3008E0A8F0BEE1246D3EF125097EE7001EF9F
:102DB30070CA7A187B001213718A128B13AE12AF8A
:102DC30013EE7001EF7003022D307C181251EA12DA
:102DD30051F4EE240C1252F574FFF0E508240BF8BD
:102DE300E509123B3D122F38123FB5C4122F38A309
:102DF300F09003BFE07002A3E070059003BF800A68
:102E0300E50A1246D3E50B1252F8124EDD74011295
:102E13000AAF122F5AA3F07402120AAF122F5AF0FC
:102E2300850E82850F83122F4BA3F012506F12422F
:102E33001C240DFAEF3400FB7402120AAFE06401A4
:102E4300600E7407120AAFAC82AD83121A5B80095D
:102E53007C087D0079FF1212E17412120AAFE0C000
:102E6300E0EE24151252F5D0E0122F8DFC90157769
:102E7300E0C39C4003022D30124C561252F8A3E0DB
:102E83005480F9E47001E97009900D79E070030250
:102E93002D307D00EE240CF8EF3400F9EE240BFA0C
:102EA300EF3400FB9003AFE06402701D8A828B83D2
:102EB300E0F50AC39C500D7405120AAFE0C39414E5
:102EC300401B801AE50A6C70157405120AAFE0C046
:102ED300E088828983E0FCD0E0C39C50010D740636
:102EE300120AAFE06035ED602585088285098312FB
:102EF3004BEDECF0A3ED122F8D8A828B83F07405DA
:102F0300120AAF123B597406120AAFE0600D740146
:102F13008E828F83A3A3A3A3A3A3F07404120AAF87
:102F2300E07003022D3074018E828F83A3A3A3A3C9
:102F3300A3F0022D30540F8E828F83A3A3A322F517
:102F43000CE5093400F50D22123084A322A3A3E07B
:102F5300F508A3E0F50922123084023D5EE0F9850D
:102F63000C82850D83E022E0F98A828B83A3A3A3DD
:102F7300A3A3A3A3A3A3E022900370124E72900312
:102F8300661238B8120DE3740222F085108285119F
:102F930083E022F07A637B037953122FA122121A62
:102FA300737A667B03794B121A732274F0120368E7
:102FB30074F81208ED8A0C8B0D8C0A8D0B890E8523
:102FC3001882851983AC82AD837583867582A87454
:102FD300081207A7F50FAC0CAD0D85188285198370
:102FE300AA82AB83124E667003750F019003BF80F4
:102FF30030AC0CAD0DEE240DFAEF34001252EE603E
:103003001A850882850983E0650E700F8E828F838F
:10301300E0650A7004A3E0650B602FEE24161252DC
:10302300F51237E47001EF6021123483E50F70C1AC
:103033008E828F83E0650A7004A3E0650B70DC85E4
:103043000882850983E0650E70D1EEFAEFFB02502A
:103053004E74F71203689003BF12407F800CEA247A
:1030630016125094121377EEFAEFFBEA7001EB702D
:10307300ED9003BFE4F0A3F00238717F07020579F6
:10308300A3E08E828F832274F1120368EAFEEBFFC2
:10309300890A8C088D098E828F83E08C828D83123E
:1030A3004441AE82AF83E01242B0123159C412429E
:1030B300B012314DE054038C828D83123157A2E25A
:1030C300E492E08C828D83123156131313541F1232
:1030D30042B0A3123156A2E7E492E08C828D83A31F
:1030E300A3A3A312314D8E0C8F0D750E00780C1215
:1030F30008297C087D00E508240712314112085B8A
:10310300124E3C8E0C8F0D780C1208297C037D0027
:10311300E508240F12314112085BE5082412F8E593
:10312300093400F9E50AC3940F400A8E828F83A302
:10313300A3A3E08001E488828983F002307EFAE56C
:10314300093400FB1212D5740322A3A31244410EC7
:10315300AF8322A3A3A3A3F0024D6974F4120368FF
:1031630074F91208EDEAFEEBFF900341E07002A34D
:10317300E060101231ED64027009EEFAEFFB120EFB
:103183004F8062900370E06E7003A3E06F7056741B
:10319300016960097A847B03124E6670487A007B6A
:1031A300021234927001EB703C9003737808120A98
:1031B300708518828519837808120A61900379E073
:1031C300C0E07404120AAFD0E0F07405120AAF74C1
:1031D30001F07406120AAF7402124B86120BE5E972
:1031E3006098120BEB7407023988900341123D5328
:1031F300E02274F71203688A828B83A3AE82AF83C3
:10320300E0F9120C2D8E828F83E0FA74EB6A60056D
:1032130074E16A7002E4F01221F075080178081273
:1032230008318E828F83E0F508780812083179001F
:10323300122F7B12085B120D3502387174F61203DC
:10324300689003C1E0701F7C0079017A007B001253
:103253000D65EA7001EB600E8A828B83E07002A336
:10326300E06003120CD5024697C082C0831236C4B5
:10327300401079FF120D5FE9FA901FC7E493C39AD8
:10328300500479018002790002430174EE1203684D
:103293008A088B09890D750E00EA2408F50AEB34B8
:1032A30000F50B850A82F583E0F9120D6B8A108B0A
:1032B30011AE10AF11750C01EE7001EF6003023314
:1032C30051850882850983A3A3A3A3A3A3124E6EEA
:1032D300850A82850B8312408412451D120D538A81
:1032E3000A8B0BAE0AAF0BEE7001EF700302347B57
:1032F3008E828F83A3A3A3A3E4F0A3F0E508240B9A
:10330300FAE509124203C0E01252F2D0E0F0120EC5
:103313002BEE240C1247D6750E01EE2406F8EF129D
:1033230036D3E0547FF0A3E054FC12356C540460B0
:10333300030233E390155B1240787407780812098F
:10334300EE8A828B83E04508F0A3E04509F0EE2482
:1033530006F8EF123992FCE9FD8C828D8312451D2C
:1033630074805AF50874035BF50974077808120A28
:1033730052E508F510EE2404F50AEF3400F50BEEE0
:103383002409123486E50D6060740285088285097C
:103393008312315A240D123D42E0A2E2500F9003F2
:1033A3005E12387C850A82850B831243F2E5107026
:1033B30003023442747F5AFA74FC5BFB74FF2510DA
:1033C300F51074FF3400F511740778101209EEE557
:1033D300104AF8E5114BF98C828D831243F2805F1A
:1033E300E04480F0A3E0023350E5107005750C0053
:1033F300804DEA542060151212F38A10747F551021
:10340300F8745F28850A82850B83801BEA54106059
:103413000E1212F38A10740F5510F8740F80E4859E
:103423000A82850B837401F0A3E4F0740485088297
:10343300850983F012348E7001EB700312466B74AE
:1034430001650E7036850A82850B83124E6E8508E0
:1034530082850983E0F9EEFAEFFB120D59E9601B4F
:10346300EE240C1252F51237597001EB600312135C
:1034730077EEFAEFFB121377750C00A90C0241F7F4
:10348300EE2402F508EF3400F509227A207B009040
:1034930003BEE0F912141FEA2274F612036874F7EC
:1034A3001208ED7E00120D6BEA7001EB700302351A
:1034B300678A828B83A3A3A3A3A3A3A3A3A3E06489
:1034C3000660030235678A828B83A3A3A3A3A3A306
:1034D300A3E0FF8A828B83123D4DE0C0E0740812A3
:1034E3000AAFD0E012356C1246A11248C31243F260
:1034F300120D7D74085FF9E47001E9606585188237
:10350300851983124E6E7A007B00120D4DEA70010D
:10351300EB704F900370123997121A9D7C007D0057
:103523007A007B0080268E828F83E01238807004BD
:10353300A3E064FF602C900370124E6E1217C7E96C
:10354300641A601E7C007D00EEFAEFFB120D4D8ABB
:10355300088B09AE08AF09EE7001EF70C97900124C
:103563001AA37E01EEF9024692123622E02274F784
:10357300120368EA7001EB70059003C280068A8229
:103583008B83A3A31237597001EB60288A828B8344
:10359300A3A3A3A3A3A3A3E05408F9E47001E960E0
:1035A300DDEC7001ED6011123B606C7003A3E06D04
:1035B30070CC80047A007B0002387174F2120368C5
:1035C300EAFEEBFF890A8C088D097A0E7B00121341
:1035D30071EA7001EB603AE48A828B83A3A3A3A30D
:1035E300A3A3A3A3123626E50A12388CE508F0A399
:1035F300E509125020E4F0123626A3A31236221254
:103603004EDDEA240CF582EB123B49123617F0A388
:10361300F00221EBA312361C22123622A3A322F0BE
:10362300022ABAA3123890A3A32274F5120368EAFC
:10363300FEEBFF890A8C088D09EE7001EF6056746A
:1036430001650A70147901120D5FE9FA901FCFE446
:1036530093C39A500F791180657404650A70301210
:1036630036C440F18E828F83A3A3A3A3A3A3A3A3F2
:10367300A3E50A124210125549E4F0A3F09003C2E5
:10368300E07002A3E09003C2602412387C800A74C5
:1036930002650A60CF79C18025E824020808E9128F
:1036A30036D312378E7001E970EF8A828B83124E04
:1036B300DD12348E7001EB700312466B79000255F4
:1036C300AD7904120D5FE9FA901FCBE493C39A22FC
:1036D300123992FAE9022AB9C082C083E9FC79005F
:1036E3009003C2801D8A828B83A3A3A3A3A3A3A356
:1036F300A3A3E06C600574FF6C7001098A828B835D
:10370300A3A31237597001EB70DB02430174F71264
:103713000368EA7001EB70059003C280068A828B0E
:1037230083A3A31237597001EB60248A828B83A38E
:10373300A3A3A3A3A3A3A3A3E06970E1EC60148AEA
:10374300828B83E0240D124D63A2E240D080047A81
:10375300007B000238711238B8EA22C082C083901D
:1037630003C280068A828B83A3A31237597001EBAD
:1037730060128A828B83A3A3A3A3A3A3A3A3E06959
:1037830070E280047A007B00024301123C30E8229D
:1037930074F11203688A0A8B0B8C0C8D0D7508006B
:1037A300750900EA7001EB60319003C280068E82D6
:1037B3008F83A3A31237E47001EF601EAC0CAD0D31
:1037C300EEFAEFFB850A82850B83121C1FE9640165
:1037D30070DCEEF8EFF988088909AA08AB09023012
:1037E3007EE0FEA3E0FFEE2274F71203689003C2AB
:1037F30012387C7C007D008007E8FCE9FD12387CF0
:10380300E87001E9603AE82402F582E91252F8EA25
:10381300687002EB6970E212451D9003C212509A60
:10382300E86E7002E96F70099003C2EAF0A3EB80BF
:103833000EEAF8EBF98C828D83A3A3E8F0A3E9F0F9
:10384300802C74F7120368EAFEEBFFEE7001EF6061
:1038530016120D77123896EA7001EB600312137794
:10386300EEFAEFFB1213778005741F12085B7F01DA
:10387300020579F582EF12508C123C3022FAA3E054
:10388300FB8A828B83E064FF221238902212362255
:10389300023D5F8E828F83E0241C123D461238BDA9
:1038A3008E828F831238BDEE240C1238B122F5823A
:1038B300EF3400F58312407FFB2212407FFB12138B
:1038C3007722C082C083EAFCEBFDEC7001ED70044B
:1038D3007905804CEC24FBF582ED34FFF583E07031
:1038E30002A3E07011EC24FFF8ED34FFF98882891C
:1038F30083E064FF60051212FF80D59003BE123B84
:1039030059901FC9E493F97AC47B03121329E9641C
:1039130001700B7A007B1012466F790080027904E4
:1039230002430174F4120368A2AFE492E0F508C203
:10393300AF9003C41237E47001EF603DEE24FBF552
:1039430082EF34FFF583E07002A3E07A007B1090EE
:1039530003BE60051246728005E0F9121335750A3D
:1039630000750B00780A12082DEEFCEFFD7AC47B7C
:1039730003121323740212085BE508A2E092AFEE70
:10398300FAEFFB800312085B7F04020579F8EB343E
:1039930000F9E822124E72851882851983AA82AB38
:1039A300832274EE12036874FC1208EDEAFEEBFF47
:1039B300750CFE750DFF120D3BE960057911023B95
:1039C30025EE240FF50EEF3400F50FEE2402F50A71
:1039D300EF3400F50BEE2415123B2A603E9015716F
:1039E300E0C43354E0C0E0E0333354FCFAD0E04A9F
:1039F300850882850983F0850A82850B83123B4FF4
:103A03007001EB6016750CFF850E82850F83E04411
:103A130004F0A3E0123D66E0D2E0F0850A82850B54
:103A2300831247B56006EE2412123B46EE241312AE
:103A330050297003741EF0EE2411F8EF1247A6709C
:103A430019900E27E0600D90035AE0700D8E828F5F
:103A530083E07006E488828983F0EE241408080862
:103A6300123B3C700C90034F123B5990034FE00400
:103A7300F08E828F83E0640170171252F2123B645E
:103A83006402700D850E82850F83E04440F0A3E04D
:103A9300F0851882851983AC82AD83EEFAEFFB12B1
:103AA3000DA18A088B0974FE650C700474FF64FF12
:103AB3007009850A82850B83123F99EA7001EB60D6
:103AC3005D8E828F83E0C0E07401120AAFD0E0F014
:103AD3007402120AAF124EDD7401120AAF85820A14
:103AE30085830B780A12082D850E82850F831206B3
:103AF300AF125026F50A780A1208317405120AAF7C
:103B0300E0F9AC0CAD0D120D9B740512085BE9FED8
:103B130074106E700BAA08AB0912137780027E1023
:103B2300EEF974040241F4F508EF3400F509850851
:103B330082F583E022EE2405F8EF123B4122125571
:103B4300B8E022F582EF12508CE4F0221238B879F3
:103B5300FF121B57EA22E088828983F0228A828B34
:103B630083123B6BE022F583E0F8A3E0F5838882C0
:103B730022C082C08374DE1208ED8A828B83A3A3E2
:103B8300A3A312387C740E120AAFE8F0A3E9123C27
:103B930029740C120AAF123C22240DF582EB125049
:103BA3002CC0E0741A120AAFD0E0F0EA240BF582BD
:103BB300EB1238797420120AAF123C222415F582D5
:103BC300EB12502CC0E07408120AAFD0E0F0EA24E4
:103BD3001CF582EB1238797412120AAF1243F27495
:103BE300FF851882851983F07401120AAF74FFF000
:103BF3007402120AAF74FFF09087051206AB7404C7
:103C0300120AAFAC82AD837407120AAFAA82AB83E8
:103C1300120C09740412085B790074220242FEE854
:103C2300F0A3E9F0EA2212361C123C3022E0F8A39A
:103C3300E0F92274EF12036874F01208ED8A0C8B1A
:103C43000DECFEEDFF89107421120AAFE0F50F743D
:103C530022120AAF124E1D7424120AAF122F52758C
:103C63000E107A1E7B001213717402120AAF1247F0
:103C7300DD7402120AAFE07002A3E07003023D3666
:103C8300851882851983AA82AB83795012450D1258
:103C9300451D7402120AAF123D4DA31247DD740293
:103CA300120AAFE0240B123D427402F0120AAF1263
:103CB3003D4D7402F0120AAF1246A0124EDD74029B
:103CC300120AAF1249C6E510F07402120AAFE024DB
:103CD3000C123D42E50FF07402120AAFE0241C12ED
:103CE3003D42124E547408120AAFE50AF0A3E50BE5
:103CF300F0740A120AAFE50F123D66C082C08374E6
:103D03000D120AAFAC82AD83D083D0827403120745
:103D1300A7F97402120AAFAA82AB83120D41E964B8
:103D2300017005750E00800B7402120AAF12451D57
:103D3300121377A90E741012085B7F09020579121A
:103D43003D4622F8A3E01255B822123D53A3A32205
:103D5300E0F8A3E0F58388828002A3A3A3A3A3A32F
:103D6300A3A322F002478D74E8120368EAFEEBFF77
:103D73008C088D098E828F83A385821285831374A9
:103D830008F0EE2416F50CEF123F856009741085D8
:103D93001282851383F0EE2417F50EEF3400F50F2E
:103DA300850E82F583E0600A851282851383E02401
:103DB30008F0EE24151250296009851282851383B9
:103DC300E004F0EE2407F514EF3400F515EE2406B5
:103DD300F516EF3400F517851682F583E060158537
:103DE3001482851583E0C3332402FA851282851376
:103DF30083E02AF0EE2411123B3B6005750A0E8026
:103E030003750A00851282851383E0C0E0EE240D5A
:103E13001252F5D0E0FAE02A250A8C828D83123FF4
:103E2300B5601390035BE0F9120AD1E9FA850882C1
:103E3300850983E02AF0850882850983E0FAC39423
:103E4300754009750800750900023F7A7B00124F1F
:103E53008B7001EB7003023F7AEEFAEFFB120DA7B2
:103E6300EA8508828509831247DEEE2402F81247A9
:103E730088123FBCF0EE24040808124788A3A3125B
:103E83003FBCA3A3F0EE2413123FA1F0EE241412BF
:103E93003FA1A3F0751008850C82850D83E06010A7
:103EA300EE2418124E6BE5082408124E13751010F9
:103EB300850E82850F83E06016EE241A124E6B8501
:103EC300100CE508250C124E1374082510F5108507
:103ED3001682851783E06060851482851583E0C0B0
:103EE300E085100CE508250CF582E5091252F8D09F
:103EF300E0123FABE0C0E085100CE508250CF5822D
:103F0300E5091252F8D0E0123FABA3123F9012081A
:103F130029851482851583E0C333FCE433FD8510C2
:103F23000CE508250C12314112085B8514828515B6
:103F330083E0C3332510F510EE24151250296010C9
:103F4300C0E0E5082510F582E5091252F8D0E0F04B
:103F53001252F2123F90120829EE240D125029FC3E
:103F63007D00851282851383124462E50A28FAE4F0
:103F730039123F8112085BAA08AB09022935FB02FB
:103F830031473400F50D850C82F583E022123F9909
:103F9300750E00780C22E0F50CA3E0F50D2212500B
:103FA30089123FCCA3A3A322F005108E828F830234
:103FB3003D5DF088828983E022123FC3123FCC2209
:103FC300A3A3F088828983A322E0850882850983DD
:103FD300A3A3A32274F6120368EA2415F582EB1255
:103FE300502C60047C0180027C008A828B83E0FE7B
:103FF300900360124078740278081209EEE5084EC7
:10400300FEAF09EA2412124072740678081209EE10
:10401300E5084EF8E5094FF9ECFDE8FCED49FDEA4A
:104023002411124072740978081209EEE5094DFD56
:10403300EA2416124072740B78081209EEE5094D52
:10404300FDEA2417124072740C78081209EEE50990
:104053004DFD8A828B83A3A3A3A3A3A312407874E9
:104063000A78081209EEECFAE5094DFB024697F5CA
:1040730082EB12508CE0F50875090022E0FAA3E008
:1040830022E0F902478D74EE1203688A088B09EC6B
:10409300FEEDFFE98E828F83F0124477C0E0EE24B9
:1040A300111252F5D0E012440EC0E0EE2412125267
:1040B300F5D0E012443060061243D41244548E8289
:1040C3008F83A3A3A3A3A3A3A3A3E06003124448E2
:1040D300123B386003124414EE2419F8EF3400F94C
:1040E300E488828983F0EE241BF510EF3400F51188
:1040F300851082F583E4F0A3F0EE2418FAEF124260
:10410300037003024190850A82850B83E0FCE50876
:104113002C12441FFCE5082CF582E50912502CC033
:10412300E0EE241A1252F5D0E012442A88828983E1
:10413300E0FC6053901FC8E493C39C5005750F0CBB
:1041430080028C0F850A82850B83E0F8E50828F549
:104153000CE5091241FC120829E50FC333FCE433D3
:10416300FD7AEF7B1312314712085B8510828511AC
:104173008374EFF0A37413F0E50FC333FA850A8257
:10418300850B83E02A8005E48A828B83F0850A828B
:10419300850B83E0F50AF50CE508250CF8E50934F1
:1041A30000F9EE241DFAEF3400FBEAFCEBFD8C82F0
:1041B3008D8312421C2417FAEF3400FB8A088B0903
:1041C3008E828F83E0C3950A8A828B83124210A367
:1041D300A3E0601B8A828B83E024F2F0E8240EF8CC
:1041E300E91243F8FA850882850983E0C39AF080CF
:1041F3000312085B7F0A0205793400F50D023F9331
:10420300124207223400FB8A828B83E0221242147B
:1042130022F08E828F83023D61E8F0A3E9F0EE2263
:1042230074F41203688A088B09EA1242B7F0EA139E
:1042330013543F1242B0A3A3A3F0EAC413131242D0
:10424300B7A3A3F0EB12429DF08A0A8B0B74097893
:104253000A120A52E50A12429DA3F08A0A8B0B74D2
:104263000A780A120A52E50A5401C0E0EC2418F550
:1042730082ED1252F8D0E0F08A0A8B0B740B780AA5
:10428300120A52E50A1242AAF0740C7808120A5272
:10429300E5081242AAA3F002398B1242A12254016B
:1042A3008C828D83023D601242A1A3A322540F8C02
:1042B300828D832254038C828D83A3A322C082C068
:1042C30083790090035A124775A3A3A3A3E0600F59
:1042D300EC70268A828B83A3A3E0701D09801AECFD
:1042E30060178A828B83A3A3A3A3A3A3A3A3A3126D
:1042F30043087003A3E06B70E3800312085BD08371
:10430300D0820205451238B8900363E06A2274EE46
:104313001203688A088B09890CECFEEDFF124477BF
:10432300C0E0EE24111252F5D0E012440EC0E0EECC
:1043330024121252F5D0E012443060061243D41214
:1043430044548E828F83A3A3A3A3A3A3A3A3E06058
:1043530003124448123B386003124414EEFAEFFB95
:10436300120DB9E9F50D7064850A82850B83E0F5BA
:104373000EF510E5082510FAE5093400FBEE2417C5
:104383001243E2241DF8EF123992FCE9FD8E828F6D
:1043930083A3A3A3A3A3A3E07012EAF8EBF98C828F
:1043A3008D831243F2E50CC3950E8019EA240EF8AF
:1043B300EB1243F8FB850A82850B83E0FAE50CC315
:1043C3009A24F2C39B850882850983F0A90D0241D3
:1043D300F7E5082408F8E5093400F9EE241322F878
:1043E300EF3400F988088909EE22125079A3A3E873
:1043F300F0A3E9F0223400F98C828D83E8F0A3E97D
:10440300F090035BE0F9120AD1E9221244C2022FB1
:1044130076850A82850B83E0FAE5082AF582E509A9
:104423001247A08882898312446E04F02212444109
:1044330085820A85830B7408124214022F76F08E4C
:10444300828F83A322850A82850B83124462EE2422
:1044530015125089E8F0A3E912446E2408F022E013
:10446300F8E50828F8E5093400F922F0850A828581
:104473000B83E0228A828B831238B8120DB385082E
:1044830082850983A3A31244B6E0F9EA8E828F835F
:10449300A3A3A3A3A3A3A3A3A31244BB1244B6A39E
:1044A300A3E0F9EAF8EE240B125089E81244BBA307
:1044B300A3E022E0FA023FCDF0A3E91244C222F0C6
:1044C300850882850983023D61C082C0837AD27BDD
:1044D3000379E2121A6D7AD27B03024301C082C0D0
:1044E3008390036312451D024301C082C08374FE9F
:1044F3001208ED851882851983AA82AB83794B1242
:10450300450D12451D74020242FE121A6D85188272
:1045130085198322850C82850D831238B822C082C7
:10452300C083794A121A6D02430174F6120368902C
:1045330003DAE0FE04F0EEF9120D6BEA7001EB70A2
:10454300EEEE60EBF902469774EE120368EAFEEBB7
:10455300FF8C088D09890A7412120AAFE0F50B74F7
:1045630013120AAFE0F50C750D00750E00120E85DF
:104573008A108B11AC10AD11EC7001ED7014E50CC9
:10458300704DA90AAC08AD09EEFAEFFB120E9D02BD
:104593004631EC2402F8ED3400F9E50A601988820B
:1045A3008983E0FA850A08E5082AFAE4340013EA65
:1045B30013F070037401F0E50C6020E50B70108CB0
:1045C300828D83E0600914F064027003750E017438
:1045D30001650C7035E50B7016802A901577E0C0E5
:1045E300E088828983E0FAD0E0C39A504180DD906D
:1045F30003E1E004F0C0E090155CE0FAD0E0C39A78
:104603004008750D01E49003E1F0E50E7004E50D3B
:10461300601CE50D6018900366E06E7003A3E06F05
:10462300700CEEFAEFFB7901120C271246340241AB
:10463300F77A017B009003BEE0F912141922C082BD
:10464300C08374016A7001EB70077A0112466D80B2
:10465300149015531247DDEA7001EB60051223B67F
:1046630080031246340243017A207B009003BEE0AC
:10467300F912132F22C082C0839015551247DD0211
:104683004301C082C08390155780F1A90880057447
:104693000912085B7F020205798E828F83E0123B49
:1046A3006C22A2F0E492E01246B37952121A7322FA
:1046B300851882851983F00239A01246B379421214
:1046C3001A7322AA08AB099003BEE0F9121305225C
:1046D3002416F58222F582EF3400F58374012274E7
:1046E300F4120368EAFEEBFF7A007B0412463812E9
:1046F300477E1243F27409900372F0120DC58A08C3
:104703008B09AC08AD09EE24131252F512451D12A4
:104713004E666401704E7A0F12476A7001EB604473
:1047230074028A828B83F0EE241DF8EF1255B412C3
:10473300451D8A828B83A3124775E0FBEC850882B3
:10474300850983A3A31247DE888289831246A0A327
:10475300A3A312478C124794FAA3E0FB794A121AD7
:10476300731246C602398B7B001212F98A088B0931
:10477300EA22E0FC8A828B83A3A322900343123CA8
:104783003090155722EF1255B8E0850882850983CA
:1047930022A3F0EE241512479D22F582EF3400F593
:1047A30083E022123B41640122A3A3A3A3A3A3A3F7
:1047B300A3A31247B92212407FFB120E25E922124E
:1047C3004B8E120E1922EE24171246D8F0120DC585
:1047D300EE241AF582EF3400F583EAF0A3EBF0221E
:1047E30074F412036874F31208EDEAFEEBFF7C0D18
:1047F3007D007900851882851983AA82AB83121202
:10480300E1EE241D1252F51246A0A3E0F8542060F5
:1048130008740C120AAF7401F0E854806008740B3A
:10482300120AAF7401F0E85440600A740A120AAF26
:104833007401F0800A740A120AAFE064017005EE95
:1048430024138003EE2415124E6B7402120AAFAACE
:1048530082AB83121A5BEE240BF8EF3400F988085D
:1048630089098882F5831248C31243F2740A120A33
:10487300AFE0640170388E828F831247AC703C12B4
:104883000DD18A0A8B0BA80AA90B85088285098397
:10489300E0687003A3E0697022120DC5EAFCEBFD2A
:1048A3007402120AAFAA82AB83124E66600D85189A
:1048B30082851983AA82AB83120C21740D02398875
:1048C300123C3002451074F612036874F31208EDBB
:1048D3008A088B09ECFEEDFF7C0D7D0079008518BD
:1048E30082851983AA82AB831251EEA3A3A3A3A348
:1048F300A3A3A3A31248C3E8F0A3E9124953FAA25E
:10490300E55008740B120AAF7401F0EAA2E75008ED
:10491300740A120AAF7401F0EAA2E6EE50042413FB
:1049230080022415124E6B7402120AAF124949A376
:10493300A3E0C0E0740C120AAFD0E0124B86120C55
:104943001B740D024694AA82AB83121A5B02478D35
:10495300F0EE241DF582EF3400123B69A3E02274CC
:10496300F712036874E11208EDEAFEEBFF1224F27A
:10497300EA2406F8EB123B3DA2E0504454FEF0A3B8
:10498300E01249CD8A828B831249C6E0F98A828B71
:1049930083E0241CFAA3E0122AB712451D120DBFAF
:1049A300E9701D741D120AAF123B64640470118513
:1049B3001882851983AC82AD83EEFAEFFB120E07E2
:1049C30002386CE0241B123D46221249D5AC82AD5D
:1049D3008322F0024510E9FA790074046A600A74CC
:1049E3000A6A600574036A70010902054574F612C8
:1049F300036874208A828B83F07401A3A3F0120BE3
:104A0300D98A088B09AE08AF09EE7001EF6007740D
:104A1300018E828F83F09003B0E070031247C9EEDA
:104A2300FAEFFB024697C082C08374019003C6F07D
:104A3300E9A2E350037403F0E9A2E15004E0D2E2F7
:104A4300F002430174F612036879007C008A088B34
:104A53000978081205BFF8FF077A4A784A784A7836
:104A63004A784A714A754A7A4A6E4A0C80097C042C
:104A730080050C80F67C089003C6E05C6003098027
:104A830003EC60010902469774F61203688A828B6D
:104A930083E0700EA31237597001EB6005121B7B84
:104AA30080047A007B0002469774F512036874F35E
:104AB3001208ED8A088B09ECFEEDFF750A12EA7005
:104AC30001EB70057900024B7D900363E06508708C
:104AD30004A3E065097014120DC5EAFCEBFD125244
:104AE300EB7005750A018003750A00E48518828559
:104AF3001983F07401120AAFE508F0A3E509124B1C
:104B030086120B19E960277403120AAFAA82AB83DA
:104B1300120B01E964017016750A017403120AAFDE
:104B2300AC82AD831252EB6021750A00801C7412B3
:104B3300650A70169003AFE06402700EEEFCEFFDA1
:104B4300AA08AB09120B31E970DFEEFCEFFDAA08EE
:104B5300AB09120E8BE9FA740A6A7005750A0180B3
:104B63001774A06A7012EEFCEFFDAA08AB09120ECF
:104B730097AA08AB09120EA9A90A740D12085B02C1
:104B830055ADE4124B8A22124B8E221249D50239BB
:104B9300A074F7120368EAFEEBFF7508008E828F9C
:104BA30083A3A3A3A3A3A3A3A3E06014EE241512DA
:104BB30052F51229C8120E31E96401700375080118
:104BC3008E828F83A3A3A3A3A3A3A3E06017EE24E2
:104BD300131252F5124BED12451D120E31E9640109
:104BE3007003750801A908023871124E728E828F04
:104BF30083A3023D5D74F212036874FD1208ED8A0B
:104C0300088B09ECFEEDFF890A750B017401120A8A
:104C1300AF74041250497001EB6033EA240BF58240
:104C2300EB123879740388828983F0A3E50AF0EEE6
:104C330088828983A3A3F0EF88828983A3A3123692
:104C430017E508F0A3E509F0120BD3E9F50BA90B5F
:104C53000221E6E508240BF582E50922123C3080A7
:104C630001F9888289832274EC12036874F51208AF
:104C7300ED8A0C8B0D89108C0A8D0B741F120AAFF1
:104C8300E0F5117420120AAFE0F50EA3E0F50F7EF4
:104C930001EE120AAF740AF0E97007E511C3332479
:104CA3000AF0851882851983AA82AB83120E198AAA
:104CB300088B09EA7001EB7003024D5C125091748A
:104CC30009124E454511124E5FAC0AAD0B124E2D23
:104CD300E510702D7C008023ECC333F8E433F9E551
:104CE3000E28F8E50F39F988828983124E5C888291
:104CF3008983123083F0A30EAF830CECC39511406C
:104D0300D7E508241712505E120DC5E508241AF5DD
:104D130082E5091247D97403120AAFAC82AD83AAA4
:104D23000CAB0D120B07E9601EE508241612505E4A
:104D33007403120AAFA882A983E5082418F582E553
:104D4300091252F81243F2850882850983124E52E2
:104D5300AA08AB09120BD3E9FEEEF9740B024E2538
:104D6300FEA3E03400FF8E828F83E02274EC1203F3
:104D7300688A0C8B0D89118C0E8D0F7414120AAF77
:104D8300E0F5107415120AAF124E1D900D96E070E7
:104D930002A3E06078E510C333F508E433F5097442
:104DA3000E2508FAE43509FB1212F98A128B13AEA9
:104DB30012AF13EE7001EF605474D48E828F83F0C0
:104DC300124E528E828F83A3A3A3A3E511F0AC0EE0
:104DD300AD0FEE2405FAEF124E16EE240D1252F526
:104DE300E510F0850A0C850B0D750E00780C120882
:104DF30029AC08AD09EE240EFAEF12314412085B18
:104E0300EEFAEFFB900D961246A0121C1F024E28DD
:104E1300FAE5093400FB121A5B22E0F50AA3E0F578
:104E23000B2212085B7F0C020579EEFAEFFB124EA0
:104E33003522121A5B124E3C22EE2408FEEF340098
:104E4300FF228E828F83F0A3E510C43354E022A3A4
:104E5300A3E50CF0A3E50DF022123084F0A3AE829B
:104E6300AF8322121A55E922125089124E7222E0A0
:104E7300FCA3E0FD2274F6120368EAFEEBFF900345
:104E8300C7801388828983E06E7003A3E06F603B61
:104E930088828983A3A312378E7001E970E57A04AF
:104EA3007B001213718A088B09A808A909E870010D
:104EB300E9601888828983124EDD9003C7124ED1B0
:104EC300A3A31247DD9003C71243F2024697123899
:104ED300B8024C65851882851983EEF0A3EFF022A2
:104EE30074F41203687E009003C780070E888289DA
:104EF30083A3A312378E7001E970F1EEC333FAE492
:104F030033FB124F8B7001EB60787F009003C780F7
:104F13002488828983124E6EEFC333FAE433FBE5B0
:104F2300082AF582E5093BF583ECF0A3EDF00F8841
:104F3300828983A3A312378E7001E970D49003B9D9
:104F43001243087003A3E06B7808701612082DEE65
:104F5300F50A780A1208317C847D037900120E4920
:104F6300801412082DEEF50A780A1208317C847D2C
:104F7300037900120E43740312085BAA08AB0912EB
:104F83001377120BEB02398B12137102476FC08236
:104F9300C08380128A828B83A3A312387C9003C7B9
:104FA3001243F21213779003C71237597001EB7053
:104FB300E302430174F612036890037012509A904F
:104FC30003DB122C7D1243F27ADB7B037950121A36
:104FD300739003DB125067120EA39003DB12509AF7
:104FE300900D98E07002A3E060307A067B00121205
:104FF300F9EA7001EB602374D58A828B83F0E4A312
:10500300A3F074018A828B83A3A3A3125020124EB0
:10501300DD900D981246A0121C1F02469712361CF3
:10502300A3A322EE240EF582EF1247A022F582EF0E
:105033001247A0F922123C3074FF68221250432217
:10504300123FC3A3A3221247C2EA22740812085BC9
:105053007F0802057908E93400F922F582E509128F
:1050630046DBF022124E72EEFAEFFB22850C8285AC
:105073000D8312507922E0F8A3E0F9023085F0EEB7
:10508300240F12508922F582EF3400F58322EA249B
:105093000BF582EB12508CE0FEA3E0FF2274F712B3
:1050A30003687E008008EE125243120E790E901FA1
:1050B300CDE493FAEEC39A40ED7E00EE1250D51282
:1050C30051FCE488828983F00EEEC3940340EC0222
:1050D300387175F003A424C9F8E5F03403024C6475
:1050E30074F71203687800790080031251C2901F8D
:1050F300CDE493FEC3E89EE99400504CE8FEE9FF3B
:10510300EE75F017A4FE85F00875F017EFA42508D7
:10511300FFEE247BFEEF1256036A7003A3E06B706D
:10512300CA8E828F83A3A3A3A3A3A3A3A3A3A3E052
:105133006C7003A3E06D600A74FF6C700374FF6D01
:1051430070A9EEFAEFFB80047A007B0002387174D9
:10515300F61203687CFF7DFF7AFE7BFF120E6DEA79
:105163007001EB7057750800750900803FE50875FD
:10517300F017A4F8ACF075F017E509A42CF9E824AE
:105183007BFEE93412FFEE240F1250296005125002
:1051930026700E8A828B8312451D120CB7EEFAEF2E
:1051A300FBE5082401F508E509123489901FCDE4D5
:1051B30093F8C3E50898E509940040B1024697E8DF
:1051C300240102505874F7120368EAFEEBFFEE70F5
:1051D30001EF600E1251E81251FD8E828F83A312EC
:1051E30051F40238717C177D0079001212E102300C
:1051F30085A3A3A3A3A3A3A3A3A374FEF0A374FFF4
:10520300F02274F7120368EAFEEBFF7508008021B1
:10521300E5081252438A828B83A3A3A3A3A3A3A368
:10522300A3A3A3E06E7003A3E06F6003120E7905DE
:1052330008901FCDE493FAE508C39A40D30238716E
:1052430075F017A4247BFAE5F03412FB2274F612EE
:105253000368120E6D8A088B09A808A909E8700172
:10526300E9600AE8240DFAE93400FB80047A007B44
:105273000002469774F01203688A0A8B0BECFEED6A
:10528300FF750E00750F00804AE50F75F017A42413
:105293007BF50CE5F03412F50DE50C2402F508E579
:1052A3000D123489AA08FB120B01E96024850C82D4
:1052B300850D83E0650A7004A3E0650B7003750E2A
:1052C3000AEEFCEFFDAA08AB09124E666003430E1B
:1052D300A0050F901FCDE493FAE50FC39A5004E5A0
:1052E3000E60A6A90E025053EEFAEFFB024E66EED5
:1052F300240BF582EF12508C2274F01203688A0893
:105303008B09ECFEEDFF7410120AAF124E1D750CE3
:10531300007C007D0180101212F3E50CF5F0EA84A5
:10532300ACF0750C007D007800790080031251C247
:105333001254605070E8FAE9FBEA75F017A4FA8595
:10534300F00D75F017EBA4250DFBEA247BFAEB3483
:105353001212547D700474FF650F60D1E508650E69
:105363007004E509650F60C5EE650E7003EF650F08
:1053730060BBE50A650E7004E50B650F60AFEA24B8
:105383000EF582EB12502C60A4C39407509F740156
:105393006D050C6098E50CC39C40928A828B831246
:1053A300451D02545D7800790080031251C21254E6
:1053B3006D4003025444E8FAE9FBEA75F012A4FADB
:1053C30085F00D75F012EBA4250DFBEA2401FAEB31
:1053D300341112547D700474FF650F60CEE50865C7
:1053E3000E7004E509650F60C2EE650E7003EF658C
:1053F3000F60B8E50A650E7004E50B650F60AC8AB3
:10540300828B83A3A3A3A3A3A3A3A3A3E0609CC3AF
:10541300940750978A828B83A3A3A3A3E0F50D740B
:1054230001650D60867402650D608074016D050C65
:1054330070030253AEE50CC39C50030253AE0253F8
:105443009EE50C6011EC700E7401650C6003025351
:105453001A7C010253257AFE7BFF025053901FCD25
:10546300E493FAC3E89AE9940022901FBFE493FA05
:10547300740193FBC3E89AE99B22FB8A828B83E046
:10548300F50EA3E0F50F74FE650E2274F2120368A5
:105493008A0A8B0B8C0C8D0D7E007F008008EE2416
:1054A300010EEF3400FF901FCDE493F8C3EE98EFA5
:1054B30094005036EEF8EFF9E875F017A4F8AAF067
:1054C30075F017E9A42AF9E8247BF508E93412F505
:1054D30009AC0CAD0D1254F0124E6660C185088202
:1054E300850983E50AF0A3E50BF00221EBE5082427
:1054F30002FAE5093400FB2274F01203688A088B70
:10550300098C0A8D0B890C12553C7001EF60271230
:1055130051E8125549A3A3A3A3A3A3A3A3E50AF0A8
:10552300A3E50B125081E50C70027401F0EE240E1A
:105533001252F5125554025053120E738A0E8B0FEA
:10554300AE0EAF0FEE22E508F0A3E509124441A326
:10555300227401F0EE240D1250897402F02274F5C6
:105563001203688A088B09ECFEEDFF750A00800DB3
:10557300EE6C7002EF6D6003120E79050A901FCD79
:10558300E493FAE50AC39A5021E50A125243EA2446
:105593000A1255B2124E6EE5086C7003E5096D7080
:1055A300CF88828983124EDD80D17F03020579F88B
:1055B300EB1255B8223400024C6474F51203688A66
:1055C300088B09750A00801DE50A1255F6650870F7
:1055D30004A3E06509700C1256087007EEFAEFFB9E
:1055E300120E79050A901FCDE493FAE50AC39A4097
:1055F300D780B775F017A4247BFEE5F0125603227B
:105603003412024D68EE2402FAEF3400FB120B0150
:10561300E922C082C08374F81208ED8518828519C7
:1056230083AC82AD837583867582B074081207A735
:10563300851882851983AC82AD83124E666401702E
:105643000479008002790174080242FEF582EB12AC
:105653006FA2A2E222740912085B7F04020579E0BB
:10566300F508750900750A00750B002234FFF583F0
:10567300221270CEE822EE2412FAEF3400FB12104D
:1056830017E9227905121023740222125FB7120858
:105693005B7F08020579F09003EBE02212110D9075
:1056A30004551270CE7A147B002279031A1AEFFB89
:1056B30012101D7402221256C2E8F0A3E9F022244C
:1056C300FFF8A3E034FFF98A828B8322E0F50CA371
:1056D300E0F50D22E0026F458E828F83A3A3A3A37F
:1056E30022A3E08E828F831256EE22F0EE24FF1E59
:1056F300EF34FFFF227F0A020579E50824FBF582D8
:10570300E50902566FF582EF126FA2227F060205AA
:1057130079126F8CE0227AE27B0312132374022244
:10572300E0FEA3E0FF2212572D22EE126F3DEF128F
:105733005736223400F583E022A2AFE492E0FAC2A6
:10574300AF9003E9E004F0EAA2E092AF22EE240E68
:10575300F582EF3400F58322E0FEA3E0FFEE22EEB4
:10576300240D126F9F640122A3A30256DF7F070259
:105773000579F0EEFAEFFB22C082C08374FE1208B3
:10578300ED80077AE27B031257C09003E2E07002D8
:10579300A3E070EF9003E4E07002A3E060097AE411
:1057A3007B031257C080ED9003E2E4F0A3F0900373
:1057B300E8F09003E9F09003EAF0025F9512131DFD
:1057C300851882851983EAF0A3EB1257D4121005CA
:1057D30022125A21AA82AB832274F41203688982AB
:1057E300AE82EE246DF582E4341FF583E493F5086D
:1057F300FA7B001212F9EA7001EB6012EA25081233
:105803006537E48A828B83A3A3A3A3F080287A025B
:105813007B001212F9EA7001EB6017EE2483F58224
:10582300E4341FF583E4938A828B83F0741AA31202
:105833005B807A007B0002565DC008740629FBEA90
:10584300A2E0501EEB75F00A84AAF0EA6014740A11
:105853002BC39AFBEAC394054004740A2BFB740B15
:105863002BFBE9C394134004781480027806E82BD9
:10587300FB8B0874092508F8E43400F97A0A7B00E5
:10588300120217E8F9D008020545C082C0839004CC
:1058930008E05402600A121AAFE960047901800239
:1058A3007900025F36C082C083900408E05402602E
:1058B3001F9003E8E070159003EBE07002A3E06033
:1058C3000F9003EBE02410125C7B500479018002FB
:1058D3007900025F36C082C0839003EAE0C0E090A3
:1058E30086E1E0FCD0E0C39C50051212F980047AF3
:1058F300007B00025F36C082C0831210057900026C
:105903005F36C082C08374FE1208ED851882851944
:1059130083125A381206440003E65926597559E68C
:10592300599959900435E0640F6012120FDBE97046
:105933000C126F51901514125DF7121C1F90045D29
:10594300E0C0E01259FDA3D0E0125A297414125A90
:1059530018FCA3E0FD7AE47B03121B9FA2AFE49241
:10596300E0FAC2AF9003EA1257477920120FC90237
:105973005F95120FD5E98518828519836011125D31
:10598300F7740D125A18FAA3E0FB121AA980E01259
:105993005DF7741580B8851882851983E024041295
:1059A3005A11603F14125A291259F6C0E01259FDD8
:1059B300D0E0125A182402125A11125C65888289A7
:1059C30083125A38FA601CC3940A5017740A2AC007
:1059D300E0851882851983125A31D0E0125A3C04AB
:1059E300025951851882851983AA82AB8312100547
:1059F300025972A3A3125DFBE022851882851983E5
:105A0300125A0722127BE9A3A3A322E0240FF8A3CF
:105A1300E0125C8422125A1C22125A21E022F085E1
:105A2300188285198322125A2D22125A1CF8A3E0D8
:105A3300F583888222EAF0A3EB125A2DA3A3A3A332
:105A4300A3E022C082C0839003EDE07002A3E06074
:105A53000B9003ED125DF7121C1F80027900025FA9
:105A63003674F7120368EAFEEBFFEE240D12575368
:105A73007401F0EE242F125708C0E0125750D0E003
:105A8300F0EE2430125708C0E0EE2412125753D020
:105A9300E0126F97C0E0EE2413125753D0E0F0EEFC
:105AA300242B1257531206AFEE2422FCEF3400FDD1
:105AB300EE242D125708F91256B312085BE970074A
:105AC300EEFAEFFB120F0F026288C082C083120F3F
:105AD300DBE96004792080027901025F36C082C06D
:105AE30083EA126F3DEB12570BD2E08003F0A3E081
:105AF300F0025F36C082C083EA240DF582EB1257B1
:105B03000BFCEA240FF582EB12575674016C7011EB
:105B1300E0A2E3400C8A828B83A3E0F9120FCF80CB
