:020000040000FA
:06000000020A520201C2D7
:03002B00021C3E76
:030033000206942E
:030043000208C0F0
:03004B0002075E4B
:0300530002011592
:03005B0002076D2C
:0300630002077918
:03006B0002067A10
:1000830002015E0101FF05030103000300030003F6
:10009300000300030003000300030005000A00142B
:1000A3000028004F009E00000051105110511051C4
:1000B300100D0F070F5110F91D00000000D31C0095
:1000C3000000000C0000000C00010000C51100003E
:1000D30000000000611200000000000000003F0566
:1000E300FF01010100820D000000D30DE80364004D
:1000F3006400B8010202000800000502071E0205A1
:100103001E0A03B80B020103320002FFFF020202C0
:100113000612C0E074F21203D4E5A7F8E5A1F9587A
:100123005410600812183D53A1EF802AE8A2E0C0E2
:10013300D0E9A2E092F012098F158182F050179056
:100143006198E0F89010D9E0C398A2D265D03350FB
:1001530002E8F053A1FE7F01020433C0E074F212FF
:1001630003D49061A4E0F8759B00E59158540860AE
:10017300087591F712187F802AE59158541060088A
:100183007591EF121885801BE8A2E0C0D0E591A21B
:10019300E092F012098F158182F05007E0C2E0F07F
:1001A3001219A59061A3E0F8E5E9585404600E1212
:1001B300197B75E9FB906193E0A2E640F28097C05A
:1001C300E074F21203D49061A5E0F8E5BF5854043B
:1001D300600653BFFB1219BD020159C3E498F8E44A
:1001E30099F912021F8026C3E49AFAE49BFBE920E3
:1001F300E7E912021FE498F8E499F922C3E498F8B6
:10020300E499F912021FE498F8E499F9C3E49AFA1D
:10021300E49BFB22EB20E7CFE920E7E0B90010BB2A
:100223000008E88AF084F8AAF022E4FBC8FA22EB7B
:1002330070227B10C833C8C933C9335007C39AC36C
:10024300DBF280069A50012ADBEAC833F4C8C933CB
:10025300F4C9FA2275F008E4C833C8C933C933C9ED
:100263009AC99B5004C92AC93BD5F0ECFBC833F4A7
:10027300C8E4C9FA22080808EAC0E0EBC0E086F047
:10028300E7A4FA180986F0E7A42AFA180986F0E722
:10029300A42AFA180986F0E7A42AFA1986F0E7A433
:1002A300FBE5F02AFA190886F0E7A42BFBE5F03A00
:1002B300FA190886F0E7A42BFBE5F03AFA181809B7
:1002C30086F0E7A4C5F02BFBE43AFA1908E7C5F07A
:1002D300C6A426F6E5F03BFBE43AFA1886F0E7A459
:1002E300F6E5F00826F6E43B08F6E43A08F6D0E033
:1002F300FBD0E0FA22E4CFC0E0E4CEC0E0E4CDC01E
:10030300E0E4CCC0E075F020C3E633F608E633F64C
:1003130008E633F608E633F6181818EC33FCED3329
:10032300FDEE33FEEF33FFC3EC9709ED9709EE972C
:1003330009EF97191919400FFFEC97FC09ED97FD89
:1003430009EE97FE191906D5F0BEECF709EDF7098A
:10035300EEF709EFF7191919D0E0FCD0E0FDD0E072
:10036300FED0E0FF222518C582C0E0E51934FFC5A1
:1003730083C0E0E518C3958224F810AF088583197C
:100383008582188008858319858218D2AFCEF0A3A1
:10039300E520F0A37808E608F0A3DEFAEFF0A3E582
:1003A3008124FAF8E608F0A3E608F0A3E608F0A330
:1003B3000808E608F0A3E608F0A315811581D0E04C
:1003C300FED0E0F8158115811581E8C0E0EEC0E0AC
:1003D30022C0D02518C582C0E0E51934FFC583C00B
:1003E300E0E518C3958224F310AF0885831985824D
:1003F300188008858319858218D2AFC8F0A3E9F065
:10040300A3EAF0A3EBF0A37908E709F0A3D8FAEC89
:10041300F0A3EDF0A3EEF0A3EFF0A3D0E0F0A3D0B0
:10042300E0F0A3D0E0F0A3E520F0A3E5F0F0A322F1
:10043300851983851882E0C0E0A3E0F9A3E0FAA35D
:10044300E0FBA37808E0F608A3DFFAE0FCA3E0FDF5
:10045300A3E0FEA3E0FFA3E0C0E0A3E0C0E0A3E0CD
:10046300F5D0A3E0F520A3E0A3F5F010AF08858352
:10047300198582188008858319858218D2AFD082A6
:10048300D083D0E0F8D0E032120AB4B900030204FA
:10049300CDE490030178EA79128002F0A3D8FCD965
:1004A300FA9014EAAA82AB8390008678907901804F
:1004B30015E493A3AC82AD838A828B83F0A3AA82D3
:1004C300AB838C828D83D8E9D9E775825A7583EE25
:1004D300740212052F75823975831C740012052F5F
:1004E300D083D082ECC0E0EDC0E0E493A3FCE493BE
:1004F300A3FDED4C600D120605EC24FFFCED34FF6B
:10050300FD80EFE493A3FCE493A3FDED4C600D1297
:100513000709EC24FFFCED34FFFD80EFD0E0FDD0B4
:10052300E0FCE493A3C0E0E493C0E022C0F0F5F064
:10053300E59F5407C0E0E59F54F845F0D0F0F59FE0
:10054300E473859FF053F0F8D0E045F0F59F22D097
:1005530083D082E59F5407C0E0E493C0E074019325
:10056300C0E07402935407C0F0F5F0E59F54F845DA
:10057300F0D0F0F59F22851983851882E0A3FEE071
:10058300A3F5207808E0A3F608DFFAE0A3FFE0A3D1
:10059300C0E0E0A3C0E0E0A3C0E0E0A3C0E0E0A3CC
:1005A300C0E010AF088582188583198008858218FA
:1005B300858319D2AFD083D082020545D083D08200
:1005C300E9C0E0E493A3C386F0C5F095F0F908E42D
:1005D30093A386F0C5F095F0700BE493A3C3994001
:1005E30005E9048002A3E475F002A42582F582E5FF
:1005F300F03583F583D0E0F9E493A3C0E0E493C03E
:10060300E022C0E0C3E49396087401939618400F68
:10061300E49366700808740193661870007019A358
:10062300A3C3E49396087401939618A3A3400DD033
:10063300E0D0E0D0E002051FA3A3A3A3A3A3D0E0CF
:1006430022D083D082C5F0E493A3C5F0C395F0F51F
:10065300F0E493A3C395F04005E5F0048001E4754D
:10066300F002A42582F582E5F03583F583E493A3B4
:10067300C0E0E493C0E022C0E074F21203D4E58941
:10068300A2E150031216FF758900C2C57F0102045F
:1006930033C0E074F21203D4E58BA2E050031216C8
:1006A300FF758B00C2E880E4740480047402800048
:1006B300CCC0E0EDC0E0E518C39CCCAD1950011DE2
:1006C30010AF068C188D1980068C188D19D2AF12B5
:1006D30007A7D0E0FDD0E0FC2274028000CCC0E08C
:1006E300EDC0E0E518C39CCCAD1950011D10AF0659
:1006F3008C188D1980068C188D19D2AF120785D0EE
:10070300E0FDD0E0FC22C0E0C0F088F0E493667026
:10071300080874019366187000A8F0A3A3700BD0A7
:10072300F0D0E0D0E0D0E002051FA3A3D0F0D0E0EA
:1007330022D083D082CCC0E0E493A360061207E703
:100743001470FAE493A360061208D71470FAD0E089
:10075300FCE493A3C0E0E493C0E022C0E074F2128F
:1007630003D412177D7F01020433C0E074F2120335
:10077300D412178380EFC0E074F21203D4121789E6
:1007830080E3CAC0E0E493A3C582CCC582C583CD10
:10079300C583F0A3C582CCC582C583CDC583DAE505
:1007A300D0E0CA22CAC0E0E0A3C582CCC582C5831B
:1007B300CDC583F0A3C582CCC582C583CDC583DAFD
:1007C300E6D0E0CA22700908080822601618181833
:1007D300C6C333C608C633C608C633C608C633C63F
:1007E300D5E0EA22C0E0E493A3D39C5010E493A3A2
:1007F300C39C400AD0E0D0E0D0E0020751A3A3A3FA
:10080300D0E022C008C3E096F50808A3E0964208AA
:1008130008A3E096420808A3E09645087001D3D0E8
:1008230008222518F58210AF08F518400215198023
:1008330008F51840021519D2AF8519832274048074
:100843000A74038006740280027401C0E0F4041287
:100853000825D0E0120A8F22C0D0251810AF08F562
:1008630018500205198008F51850020519D2AFD0A7
:10087300D022BB0102E722C082C08389828A83BB64
:100883000003E08002E493D083D08222601608083C
:1008930008C6C313C618C613C618C613C618C6138C
:1008A300C6D5E0EA22C3E0C696F608A3E0C696F6EC
:1008B30008A3E0C696F608A3E0C696F622C0E07445
:1008C300F21203D4C2C0E5D1A2E450031217B37FDE
:1008D30001020433C0E0E493A36C7009D0E0D0E0DC
:1008E300D0E0020751A3A3D0E022251810AF08F5EA
:1008F30018400215198008F51840021519D2AF22C5
:10090300E066701008A3E066700A08A3E06670044E
:1009130008A3E06622C3E09608A3E09608A3E09646
:1009230008A3E096A2D265D03322C3E7960809E76D
:10093300960809E7960809E796A2D265D03322C341
:10094300E096F008A3E096F008A3E096F008A3E091
:1009530096F022E026F008A3E036F008A3E036F094
:1009630008A3E036F022E627F60809E637F6080979
:10097300E637F60809E637F622E026F608A3E0365E
:10098300F608A3E036F608A3E036F622C0E0E8C096
:10099300E0E58124FCF8E6A2E7D0E0F8D0E022709D
:1009A3000422600D18C6C333C608C633C6D5E0F4A7
:1009B3001822E657F60809E657F60809E657F60837
:1009C30009E657F622E056F608A3E056F608A3E038
:1009D30056F608A3E056F622E056F008A3E056F0D8
:1009E30008A3E056F008A3E056F022E647F608090C
:1009F300E647F60809E647F60809E647F622E4C3A0
:100A030096F608E496F608E496F608E496F622C30A
:100A1300E7960809E7960809E7960809E79622C6C4
:100A2300F4C608C6F4C608C6F4C608C6F4C62260EF
:100A33000D08C6A2E713C618C613C6D5E0F322C332
:100A4300E09608A3E09608A3E09608A3E096227533
:100A5300D0007581407518017519030002048B607D
:100A63000C08C6C313C618C613C6D5E0F422E6F0B5
:100A730008A3E6F008A3E6F008A3E6F022E0F608F0
:100A8300A3E0F608A3E0F608A3E0F622CAC0E0E676
:100A9300F0A308DAFAD0E0FA22E0FAA3E0FBA3E03D
:100AA300FCA3E0FD22EAF0A3EBF0A3ECF0A3EDF04E
:100AB30022E5C754F84401F5C77901222518F582C8
:100AC300E43519F58322120552DDB2011205526F86
:100AD300B30112055242B40112055260B40112056A
:100AE3005290B401120552A2B401120552C1B401CD
:100AF30012055232B501120552BCB5011205528ED0
:100B0300B601120552FEB60112055219B7011205BC
:100B1300523DB70112055278B701120552B8B70119
:100B230012055205B801120552DDB80112055280B3
:100B3300B90112055210BA0112055223BB01120565
:100B430052A1BB01120552B3BB01120552BDBB0139
:100B5300120552A5BC011205521CBD0112055259C2
:100B6300BD01120552B8BD0112055208BF0112059D
:100B73005224BF0112055286BF0112055220C00143
:100B830012055267C00112055202C101120552AF8C
:100B9300C101120552EDC1011205525DC2011205D8
:100BA30052A8C201120552E1C2011205520FC4013B
:100BB30012055240C5011205529FC501120552E8A4
:100BC300C50112055210C60112055293C601120542
:100BD3005211C70112055286C70112055297C70168
:100BE3001205520DC801120552BFC8011205520168
:100BF300C90112055297C901120552DEC901120536
:100C03005227CA0112055297CB0112055265CD0135
:100C130012055249CE0112055243D0011205524D1D
:100C2300D00112055257D00112055261D0011205AD
:100C3300526BD00112055275D0011205527FD001BB
:100C4300120552A0D001120552C4D001120552E878
:100C5300D00112055245D10112055294D10112055A
:100C630052B2D10112055222D2011205525FD201B2
:100C7300120552ADD2011205521FD301120552586B
:100C8300D501120552D2D5011205521FD801120502
:100C9300527BD801120552A0D801120552CAD901BC
:100CA30012055209DA011205524FDA011205522DCB
:100CB300DB0112055287DB01120552D9DB01120554
:100CC300525DDC01120552F21F001205523E200054
:100CD3001205521C22001205525A2200120552A676
:100CE30022001205524B2300120552B123001205B4
:100CF30052FC230012055220250012055240260003
:100D0300120552772900120552F42900120552EBFD
:100D13002A00120552902B00120552A62C00120530
:100D230052D02F00120552763000120552AC30001B
:100D3300120552803100120552173200120552611A
:100D430032001205528E3200120552B032001205E3
:100D530052BE3400120552933500120552E035009D
:100D63001205524F3600120552FD3600120552325B
:100D73003700120552803700120552B537001205AD
:100D8300520D3800120552673800120552E7380039
:100D9300120552483900120552C7390012055296FE
:100DA3003B00120552583C001205528C3D001205BF
:100DB30052F93F00120552AB400012055245420062
:100DC300120552E24200120552334300120552EE5D
:100DD30044001205520245001205520F4500120548
:100DE300524345001205524F45001205526D45000E
:100DF3001205526346001205529A4600120552A785
:100E03004600120552044700120552054800120518
:100E130052EB4800120552844900120552FB490067
:100E2300120552124A001205524B4A00120552692A
:100E33004A00120552AD4A00120552CE4A0012056D
:100E430052B64B001205521A4C001205528C4C003C
:100E5300120552914D001205529A4E001205520589
:100E63004F00120552B34F00120552D94F0012051D
:100E730052C250001205520551001205527451001E
:100E8300120552EA510012055227520012055272FE
:100E930052001205529952001205521E53001205B8
:100EA30052B054001205521D5500120552835500CD
:100EB300120552DF55001205523756001205529E95
:100EC3009003120552E990031205529D5700120533
:100ED30052FE57001205525E5800120552AF5800D9
:100EE300120552CA5800120552FA58001205521B35
:100EF3005900120552275900120552685A0012056B
:100F030052865A00120552EF5A00120552025B0034
:100F1300120552195B00120552AC5B00120552AB6D
:100F23005C00120552A75D00120552295E001205EE
:100F330052335E00120552965E00120552A75E0000
:100F4300120552EA5E00120552315F001205526724
:100F53005F001205529D5F00120552BB5F00120530
:100F630052DF5F0012055220600012055213610028
:100F7300120552596100120552946100120552F193
:100F830061001205521962001205525262001205E5
:100F930052606200120552C16200120552FE6200E5
:100FA300120552406300120552716300120552A5E7
:100FB3006300120552B06300120552CE630012059E
:100FC30052966400120552A06400120552DF6400B9
:100FD300120552F56400120552FE640012055268B0
:100FE30065001205527C65001205527466001205F5
:100FF300528766001205529C66001205523C670038
:10100300120552A067001205526368001205526E62
:1010130068001205528D6900120552A96900120574
:1010230052016A00120552386A00120552526A00D0
:10103300120552916A00120552AC6C001205521649
:101043006D00120552816D00120552D86F00120512
:1010530052E86F00120552EB6F00120552F76F0052
:101063001205520B700012055213700012055248FC
:101073007000120552F670001205526671001205D7
:1010830052CA7100120552637200120552FD7200BA
:10109300120552247300120552B47300120552C094
:1010A3007300120552EF73001205521174001205FA
:1010B300523874001205529E7400120552087600CD
:1010C3001205520B76001205528276001205526EFB
:1010D3007700120552467800120552D078001205A7
:1010E30052057A00120552B77A00120552F07A00BF
:1010F300120552217B001205522A7B00120552165B
:101103007C00120552927C001205521F7D001205CD
:1011130052E97D001205526D7E00120552A37E0036
:10112300120552EC7E0012055218A5021205522632
:10113300A5021205528FA502120552C7A502120578
:10114300521AA602120552B6A70212055296A90216
:1011530012055275AC02120552A1AC02120552C11E
:10116300AC021205521FAD021205525DAD0212050B
:10117300529BAD02120552E1AD0212055235E8024F
:10118300120552A9E80212055240E9021205521F44
:10119300EA02120552EDEA021205524F86031205C6
:1011A300526D8603120552BE86031205520387034E
:1011B300120552AD8703120552A58103120552EAA7
:1011C300820312055251BF02120552D4BF02120507
:1011D30052DEBF0212055205C00212055219C002A7
:1011E3001205527FC002120552AFC002120552B15E
:1011F300C10212055281C202120552E1C202120556
:10120300522AC30212055267C302120552CAC3020D
:10121300120552F6C30212055281C402120552DBB3
:10122300C4021205520080031205521980031205ED
:1012330052938003120552408103120552688103C1
:1012430012055247F102120552C1F102120552CCA6
:10125300F102120552EDF1021205523C9B021205F6
:10126300523F9B02120552009C021205522E9C0211
:10127300120552899C02120552AD9C02120552CDF1
:101283009C02120552179D02120552459D0212053A
:1012930052749E02120552A39E02120552C49E026C
:1012A3001205521F9F02120552E29F0212055202BB
:1012B300A00212055277A1021205520FA2021205D3
:1012C3005218A30212055281A302120552AFA302C0
:1012D300120552F1A601120552A9A402120552DC0D
:1012E300A4021205521FAE0212055229AE021205C4
:1012F3005271AE02120552DFAE0212055202AF0264
:10130300120552A2AF0212055251B2021205525AED
:10131300B202120552A7B202120552D0B20212054E
:101323005230B302120552C6B3021205528BB101F9
:1013330012055247B402120552A1B40212055229F2
:10134300B5021205526EB502120552ADB502120571
:1013530052E2B502120552F4B50212055206B60264
:1013630012055225B602120552EEB602120552B705
:101373008E03120552F3900312055269FB02120504
:1013830052CDFB02120552F1FB02120552EAFC0296
:10139300120552A9ED0112055288EE01120552C43D
:1013A300EE0112055261F001120552A3F00112057C
:1013B3005257F2011205529BF2011205527CF301BE
:1013C30012055209F40112055294F401120552EA6E
:1013D300F4011205522AF501120552CCF601120549
:1013E3005255F8011205526CFA011205527AFA01AC
:1013F300120552DFFA0112055229FB0112055202AE
:10140300FE01120552029203120552DEE402120596
:1014130052F1E4021205528FE502120552CAE502A7
:10142300120552E5E5021205520AE6021205524F71
:10143300E60212055280E602120552B1E6021205D7
:101443005228E802120552CF840312055243850342
:101453001205528585031205529585031205522DF7
:101463008603120552378603120552B98F021205FD
:1014730052079002120552B890021205524F910280
:10148300120552999102120552F691021205520A5F
:101493009202120552DB930212055258940212056E
:1014A3005282940212055239960212055254960240
:1014B300120552959602120552D196021205522A2E
:1014C3009702120552459702120552A89702120578
:1014D300523299021205525A990212055283990205
:1014E300120552E39902120552009A0212055203A1
:1014F3009A02120552069A02120552719A021205B5
:10150300528C9A02120552F29A021205522D9B0234
:10151300120552B58F03120552C18F03120552FBF8
:101523008F031205520080021205522B800212050E
:1015330052F78002120552808102120552E38102A2
:101543001205522F82021205529E82021205522860
:1015530083021205529F8302120552E18302120590
:1015630052A18702120552678902120552A089020D
:10157300120552428A02120552228B02120552129E
:101583008D021205528D8D02120552E1DC01120506
:1015930052A0DD0112055217DE0112055226DE01AB
:1015A300120552ABDE0112055214DF01120552146B
:1015B300E0011205523DE001120552D6E001120589
:1015C3005219E10112055276E101120552A5E20119
:1015D3001205525FE301120552C4E3011205526F73
:1015E300E50112055227E601120552C2E601120572
:1015F3005221E7011205528CE7011205529FE801BF
:1016030012055272EA011205520BEB0112055275D3
:10161300EB0112055273EC011205520ACF021205B7
:10162300527CCF02120552E5CF0212055253D0026B
:101633001205528BD00212055213D1021205525CCD
:10164300D102120552B9D10212055231D20212054A
:101653005236D202120552A8D202120552A9F6023C
:10166300120552F8F602120552B1F702120552178B
:10167300F80212055288F802120552CEEE02120544
:101683005227EF02120552A6F0021205521A8903DD
:101693001205525489031205520F8A03120552434D
:1016A300FE0112055251FE01120552189203120552
:1016B3005227FF0212055237FF0212055255FF024D
:1016C300120552B6FF02120552878B03120552AE62
:1016D3008B03120552338C031205528C8C031205B3
:1016E30052DD9E03120552A58C03120552C78C03CB
:1016F300120552318D031205523C8D03120552809F
:101703008D0312055246D30212055254D302120519
:101713005290D302120552AAD30212055234D402B4
:1017230012055259D40212055276D402120552936D
:10173300D402120552B8D402120552E0D4021205A3
:10174300522FD502120552A9D5021205524DD602C7
:1017530012055279E10212055287E1021205520184
:10176300E202120552CDE20212055279E402120599
:1017730052C28703120552FB8703120552188803CE
:10178300120552768803120552DB8803120552FABA
:10179300C40212055267C5021205521EC602120583
:1017A300528BC602120552A8C70212055244C9023F
:1017B300120552A8C902120552FDC90212055206AA
:1017C300CA0212055215CA0212055228CA0212058C
:1017D300523ECA0212055247CA021205525ACA029F
:1017E300120552ADCA02120552B5CC02120552E7D8
:1017F300CC0212055209CD0212055222CD02120566
:10180300523BCD021205523DCE02120552CBCE02FF
:1018130012055258FD021205528AFD021205529614
:10182300FD02120552C9FD02120552FAFD0212050C
:101833005228FE021205529DFE02120552CCFE02F0
:1018430012055213F40212055239F40212055276AC
:10185300F40212055288F402120552A4F40212058E
:101863005212F5021205521BF5021205527AF502C5
:101873001205529EF5021205525DF6021205526AD6
:10188300F6021205527BF60212055232900312053C
:10189300527F900312055251DE0212055299DF0264
:1018A300120552A6DF02120552B9DF02120552D801
:1018B300DF02120552EEDF0212055202E0021205A8
:1018C300527CE00212055212E1021205525AE10261
:1018D3001205526AE102120552397F001205525D68
:1018E3007F00120552857F00120552AD7F0012055D
:1018F300520BF90212055224F90212055230F90271
:1019030012055244F90212055262F9021205526C91
:10191300F90212055276F90212055289F9021205EB
:1019230052DDF90212055216FA0212055245FA0265
:1019330012055293FA02120552E2FA02120552FDFF
:10194300FA0212055207FB0212055218FB02120596
:10195300525EFB021205523E910312055217B70263
:1019630012055243B7021205525FB70212055272B3
:10197300B70212055288B702120552F4B7021205D4
:101983005227B80212055284BB02120552AFBC02A1
:10199300120552E2BC0212055247BD021205522F34
:1019A300BE0212055257BE021205526CBE02120548
:1019B300527CBE02120552C0BE0212055215BF026E
:1019C30012055225BF02120552548A031205526FA3
:1019D3008A03120552988A03120552B28A0312052A
:1019E30052D78A03120552F68A031205520E8B034D
:1019F3001205523C8B03120552568B03120552C03B
:101A0300FF021205520CD70212055213D702120518
:101A1300521FD8021205524FD80212055275D8022E
:101A2300120552A8D802120552BAD802120552F46E
:101A3300D8021205525AD90212055293D90212053D
:101A430052DFD9021205520CDA021205522CDA02C5
:101A53001205524183031205525383031205524266
:101A63008403120552B78D03120552168E03120515
:101A730052548E03120552958E0312055252EB02F5
:101A83001205526EEB02120552B9EB02120552D542
:101A9300EB0212055206EC021205522DEC0212055E
:101AA3005210ED021205521AED0212055227ED02F1
:101AB3001205522EEE0212055242EE021205524B4D
:101AC300EE021205528CDA0212055206DE021205EC
:101AD30052D27F00120552869103120552BC910324
:101AE300120552E4910312055239A6011205527BE5
:101AF300A40112055287A20112055218A201120570
:101B030052BDA1011205525EA10112055234A10179
:101B13001205521A9F01120552F29E01120552A696
:101B23009E01120552839E01120552669D01120504
:101B3300520E9D01120552779B01120552749B01AF
:101B4300120552559A01120552359A011205528E09
:101B53009901120552119801120552D897011205E5
:101B630052A99701120552A697011205523AAF01E5
:101B7300120552CAAE0112055279AE01120552E2A4
:101B8300AD01120552D5AD01120552989701120508
:101B9300527A97011205526397011205527096010A
:101BA30012055290AA01120552069601120552D34C
:101BB30095011205527B95011205524A95011205B2
:101BC30052FAB30212055238A80112055257920174
:101BD300120552589101120552EE9001120552AEB0
:101BE30090011205527790011205526B9001120574
:101BF30052DE8F011205522C8F01120552548D01B2
:101C0300120552CE8A01120552988A011205522FEB
:101C13008901120552DE8801120552168801120548
:101C23005277870112055250870112055216870118
:101C330012055274A40200000080FBC2C732E47391
:101C43000001363601010001020100010301000118
:101C53000401060605020000070100340801000F15
:101C6300090401010D0100FF0E0800001702000026
:101C7300190100FF1A0100011B0100FE1C010008ED
:101C83001D0200001F0100012001000121020000CC
:101C93002301000F24020000260100012701000890
:101CA300280200FF2A0100072B0102402C0100003B
:101CB3002D0100012E0100012F0100FF30010B1C3B
:101CC300310800003A0100083B01000F2F0100001A
:101CD3000103710301030103010301030103220350
:101CE30002030103100300030003000300030003C6
:101CF300000300034203000324030603000300035D
:101D0300040312032503230325032303040304030A
:101D13000003000300034403000300032303000341
:101D2300650321003503810300030503000300035A
:101D3300000303027102300160021102700201020A
:101D4300020202028002100261023A0041006302B1
:101D5300730272026202430200021302380000029D
:101D63000002040212020002000200020002040246
:101D73000402370037003C0244020002390000022B
:101D8300000265020002350281020002050282029E
:101D9300830200020101710101010101110101012D
:101DA3003101010101018001100161013B001400B7
:101DB3006301730172016201430100011301060112
:101DC3003D01350004011201000100010001000181
:101DD30004010401330133013C01440132013600A3
:101DE30000010001650100013500810100010501C9
:101DF30082018301000103007100300160001100C2
:101E030070003102200350048000100061000000C4
:101E130014006300730072006200430000001300AB
:101E23000600000000000400120000000000000093
:101E3300000004000400370037003C0244000000A7
:101E43000000000000006500000035008100000074
:101E530005000000830000003600010006000000BA
:101E63000F0000000000000000000000000003FF5E
:101E7300FF00000403FFFF0000FFFF0FF401000554
:101E8300C4040320000100000B0000000000000058
:101E93000003010F0100C71502003D1503004315A0
:101EA3000400491505004F1506005B151100731555
:101EB3001400791515006D15FFFF000003000300E2
:101EC3000400080010001F003E007B00F600EC0138
:101ED300D703AF075D0FB91E713D000003EAF5E5B7
:101EE300D5D5C5B5A595958585757565655555454F
:101EF3004535352525151505670F970F6D0F730F9D
:101F0300910F850F7F0F9D0FA30FA90FB50F790FAA
:101F1300610F5B0F0A390D02090D051B0D070F0D2C
:101F23000CF10C0DFD0CFF00009C36063A703DD9F8
:101F3300404344AD47174B814EEA5100160F000052
:101F43000B150B020002220F3200000600010203F0
:101F53000405060708090A0B0C0D0E0F5110631038
:101F63006910310F6F102B0F370FC910E710ED10E9
:101F7300CF10DB10D51000034948424D1817250533
:101F830002000119161816161523030000383C3EEB
:101F9300363B3B352B432C0C0E020B040B0A070874
:101FA300000F303017181921301B1D1F3030301629
:101FB300181920231A1C1E308B0FAF0FE110BB0F13
:101FC300C10FBD1075107B10871081100005150D12
:101FD3000910080400000000000000BE040A1500F8
:101FE30004000E0028080C0C0A090504040F08C09D
:101FF30082C083E99003BEF0E4900372F0121A5397
:102003009003C2E4F0A3F09003BFF0A3F0120E71AB
:10201300121A59900341E4F0A3F09003DDE070023B
:10202300A3E060099003DD1246C2121C41901FF029
:10203300E493FA7902121AB302432374F212036887
:10204300EAFEEBFF74805FF9E47001E960619003DD
:10205300BEE0F91213218A088B09EA7001EB60468E
:102063007B0080010BEB75F003A42417F8E5F03433
:102073001FF988828983E493FA74FF6A60218508D3
:1020830082850983E06A70DCAA08AB0988828983A8
:10209300A3E493C0E0740193F583D082121C41AA98
:1020A30008AB09121315EEFA74806FFB0222067453
:1020B300105FF9E47001E9601D120D938A088B0922
:1020C300EA7001EB600A120CFDAA08AB09121315A2
:1020D300EEFA741080D4EEA2E0501A900377E06415
:1020E3000F700B7900120CD3E960031222127401F2
:1020F3006EFAEF80B6542070030221D2750C0012E1
:1021030034B07001EB70107C027D007A207B00906C
:1021130003BEE0F91214297C0079047A007B0012D3
:102123000D6F8A088B09800D740188828983F0857D
:102133000A08850B09E5087002E50960707C0079DF
:1021430004AA08AB09120D6F8A0A8B0B750C01E503
:10215300082404F8E509123B5F24FFF0A3E034FFF1
:10216300123FD77002A3E070C6E5082409F8E50919
:102173003400F9850882850983A3A3A3A3A3A3A39A
:10218300A3A3A3E0640170A0850882850983A3A3A8
:10219300A3A3A3A3E05404708F740688828983F0F9
:1021A3007AB785088285098312233F8082120D3F07
:1021B3007C0079017A007B00120D6FEA7001EB70ED
:1021C30009E50C70057A2012465874200220F37436
:1021D300025FF9E47001E9600A120E6BEEFA740211
:1021E3000220AD74045FF9E47001E960121247A0A4
:1021F3001244147901122AE1EEFA74040220AD7A32
:10220300007B008005740312085B7F06020579904A
:1022130015531238DA120CEB22C082C08374EA120F
:1022230008ED851882851983AA82AB83794B121A2C
:10223300897408120ABF7402F07409120ABFAA82D1
:10224300AB837950121A897413120ABF124BA71267
:102253001AA7741602432074F712036874E1120874
:10226300EDEAFEEBFFEE7001EF603385188285190E
:1022730083AC82AD83120DB77406120ABFE0601EF1
:102283007417120ABFE0FD7401120ABFE0FCEEFAF4
:10229300EFFB7900120AD5E9600479A48002790082
:1022A30002388E74F6120368EAFEEBFF8E828F8388
:1022B300A3A3A3A3A3A3E05440601B1246BE1247EB
:1022C300D760067AFF7BFF801A8E828F83123B864C
:1022D300FAA3E0FB8003120DDB74FE6A700374FF44
:1022E3006B60411246BE1247FF120E2FE98E828F9A
:1022F300836006122338E480051223387401F07CCE
:10230300D97D0C8E828F8312453F121AADE9F508F1
:102313007015EE7001EF60097901EEFAEFFB120D13
:102323004B0246B07508CDAA088E828F8312233FD5
:10233300E960DF80ECE0240D123D6822E0240C12FA
:102343003D68E0F9120CE52274F6120368E9FEEA2F
:10235300FF7A0F7B0012130FEA7001EB6019740C04
:102363008A828B83F0EEA3A3F0EF8A828B83A3F0A0
:102373001246EC79008034EEF9120D758A088B0948
:10238300A808A909E87001E9601F74068882898397
:10239300A3A3A3A3A3A3A3125061A3A3A3A3A3E0F3
:1023A300F9120C9DEEF9120D5179100246B9C08253
:1023B300C083900377E0640F7018EA7001EB60123A
:1023C300900372E0FC74086C600574046C70031273
:1023D30023D8024323EAFCEBFD7A017B009003BE82
:1023E300E0F9121423221247BF640222EE2409F8F3
:1023F300EF3400F9880A890B2274F212036874FD22
:102403001208ED8A088B09EA2402F50CEB123FA7A8
:10241300F9120D758A0A8B0BAE0AAF0BEE7001EF42
:102423007003022508850882850983A385820A85AE
:10243300830BE064F16014E064CD600FE0641A6024
:102443000AE064E96005E064E1701C7900120D4B59
:10245300E960148E828F83A3A3A3A3A3A3E04420E4
:10246300F0A3E0F00224F2850A82850B83E0C0E04A
:102473007402120ABFD0E0F0124EF9EE240B125090
:102483004B851882851983AA82AB837005120C0DC4
:102493008003120E17850A82850B83E064F1604F77
:1024A300E064CD604AE0641A6045E064E16040E0C6
:1024B30064F0603B7402120ABFE0FC74B76C602FD7
:1024C300122514750A01780A12084CECF50A780AE9
:1024D30012084CE508240CF582E50912531A122F51
:1024E3008CFCA3E0FD8A828B83122FA612085BEE7D
:1024F30024091223E970037406F0850C82850D8389
:10250300E0F9120D51120D3F9015571222150222B8
:10251300088E828F83123C52E8FAE9FB2274F2128E
:102523000368EAFEEBFF750A00EE24091244042453
:102533000512261BF583E06034750A088508828539
:102543000983123B717001EB600D750A2C850C82B7
:10255300850D83E0D2E0F0850C82850D83E0540382
:1025630064016003022616430A11022616EE24189C
:1025730012504B6032EE241A12504BFA7018850831
:10258300828509831226317003A3E0696003022662
:1025930016750A22807DEE241B124E8DEE2419122D
:1025A3005052120C8B806C85088285098312263A5F
:1025B3007003750A0185088285098312432A700313
:1025C300A3E06B7006E50AD2E1F50A1234A5E50A29
:1025D3006015850882850983E07006E50AD2E580E7
:1025E30004E50AD2E6F50A120E2FE964017006E546
:1025F3000AD2E0F50A850882850983E06015EE2496
:102603001DF582EF340012262764016006E50AC235
:10261300E0F50AA90A02220DF8EF3400F9880C89C3
:102623000D888222123B8BE0F9120E1DE922123C27
:1026330052900363E068221247DB64022274E812BB
:10264300036874DE1208EDEAFEEBFFEE2404123B8E
:102653004C6010901555E07002A3E060069015558C
:10266300122215EE2402F50CEF122F687403120ADE
:10267300BFAC82AD83850882850983122F82FAA3BA
:10268300E0FB120DB7EE241B1238987410120ABF28
:102693001244147409120ABFE0601C741A120ABFB0
:1026A300E0FD7404120ABFE0FC1245397901120AF5
:1026B300D5E960030229527403120ABFAA82AB83CD
:1026C300120CF7E9F50A7409120ABFE0700E9003C1
:1026D3005AE06008E9A2E14003022952E9A2E65068
:1026E300277420120ABF124C81E064037006A3E032
:1026F300640D60147403120ABFAA82AB83120E41E5
:10270300E964017003022952EE2412F514EF340038
:10271300F515EE242A1234A8EE242EF516EF340014
:10272300F517EE242C125317122C9FE0687003A3A5
:10273300E069701E750B00780B12084C780B1208B9
:102743004C851682851783E0F9122967122FA6128A
:10275300085B7406120ABFE0FA900360E06A600344
:102763000229527409120ABFE0700302282A1229AF
:102773006712453F120E8F8A088B09A808A909E83A
:102783007001E970030228CB7404120ABF12295C9A
:10279300FAA3E03400FB740D2AF582E43BF583E0F1
:1027A300FAE82404F508E91234ABE82403F582E9D6
:1027B30012504E6A601FEAF09087057810120A8063
:1027C300850882850983E510F0A3E511F0A3E512DE
:1027D300F0A3E513F07904E9120ABF12295CFCA304
:1027E300E034008C82F583A3AA82AB831212FD8AA4
:1027F3000C8B0D8C0E8D0F85088285098378101242
:102803000A807810790C120A125003022952908719
:1028130001780C12097C850882850983124E76A300
:10282300E50EF0A3E50FF0900372E0FA74046A601A
:102833000874096A6003022952E50AA2E54003020B
:10284300290D851682851783E0851882851983F003
:10285300EE242F12504BC0E07401120ABFD0E0F0F7
:10286300EE243012504BC0E07402120ABFD0E0F0E5
:102873007414120ABFE064017028740E120ABF12A6
:10288300389E851482851583E0687003A3E0697020
:1028930011740C120ABF12263A70077414120ABF7D
:1028A300E4F0EE24241253171206AB7404120ABF89
:1028B300AC82AD837407120ABFAA82AB83120C13D6
:1028C300740412085B0229529003B7E064016003A9
:1028D30002282A7420120ABF123B8664067009E597
:1028E3000AA2E6500302282A7410120ABFE064FF0A
:1028F3007004A3E064FF6057EEFCEFFD7403120A5B
:10290300BFAA82AB83120D038045A2E65041742017
:10291300120ABF123B86FA74046A7018741A120AF8
:10292300BFE0640270297403120ABFAA82AB831248
:102933000E0B801B74076A7016741A120ABFE064C8
:1029430004700C7403120ABFAA82AB83120E0574BF
:102953002212085B7F10020579E0FA850C82850D4F
:1029630083E02A22850882850983124E9485148286
:102973008515832274F2120368EAFEEBFF8C088D3F
:10298300091223EF79008882F58312453F120CA9BF
:102993008A828B83E5827002E583603AA3A3A3A3B3
:1029A300A3A3E05418602FE508241BF582E5091260
:1029B300531A1206AFE5082412F582E50912531AD9
:1029C3001206AFEE24181250521229E4120CBB74F3
:1029D3000412085B800879001229E4120C7F02229A
:1029E3000D850A82850B83124E94EE240B1238D385
:1029F3002274F612036874F71208ED8A088B0990A3
:102A03000372E0FA74036A600D74016A6008740962
:102A13006A6003022AD38508828B83A3AE82AF83C5
:102A2300E06003022AB87C007D007A027B00121A60
:102A33005FE5082402122AD612389E9003631244DB
:102A4300147953121A8F7900122AE1900372E06409
:102A530009600990037012453F120E8974011246F2
:102A6300DF7404900372F07401120ABFAA82AB836D
:102A7300794A121A897401120ABFAC82AD837A684B
:102A83007B03121A77900363124E907A037B001232
:102A93001A5F900366124E907A047B00121A5F90BD
:102AA300035DE0A2E35004D2F08002C2F01246C7F5
:102AB3001222128018FC7D007A037B10121A5F8E9B
:102AC300828F83E0F9122AE1E4900372F0120D275A
:102AD3000246B4FAE5093400FB8A828B8322900311
:102AE300701238DA120C1F22C082C083900341E0B7
:102AF3007002A3E07041900372E0120734000301F7
:102B03000D2B051C2B062B2B3A2B900349E070024F
:102B1300A3E06076900349806B900345E07002A3C5
:102B2300E06067900345805C900347E07002A3E098
:102B33006058900347804D900341E07002A3E0602A
:102B43000912320FFC74016C702379009003BF806B
:102B53000909EA1246F5EB12531A12377B7001EB9F
:102B630070EF9003BF12453F120C19801D74026C65
:102B73007005120E5F80139003DFE07002A3E06024
:102B8300099003DF1246C2121C4102432374F4125C
:102B9300036874FB1208ED8A088B097A0F7B001215
:102BA300130F8A0A8B0BAE0AAF0BEE7001EF7003A3
:102BB300022C9A74028E828F83124BA87950121AB8
:102BC30089850882850983A3858208858309E06056
:102BD30003022C8390037012505A700374FF6960D0
:102BE3002F74FE68700374FF696025851882851948
:102BF30083E0687003A3E069601674EA8508828540
:102C03000983122FB87A707B037950121A8F807060
:102C1300851882851983122C9F1244147A637B03CF
:102C23007953121A8990036312440F7A667B0379EE
:102C33004B121A897A657B0379E1121A899003771B
:102C4300E0C3940F5022900365E0C0E07402120ABF
:102C5300BFD0E0F07404120ABF7401F07402120AC8
:102C6300BFAA82AB83121AA1750A00780A12084C14
:102C7300780A12084C901577E0F9122F9D12085B21
:102C8300850882850983122F6DF07403900372F017
:102C9300EEFAEFFB1246EC74050239AA123C52908D
:102CA30003702274EC12036874ED1208ED8A828BB0
:102CB30083A3122F72EA24081239B2FEE9FF8518A2
:102CC30082851983AC82AD838E828F83122F8CFA17
:102CD300A3E0FB120D2D851882851983E070708E99
:102CE300828F83E0C3940B4066850882850983A3A2
:102CF300A3A3A3A3A3A3A3E064027053900372E06E
:102D0300FAE5082410F510E5093400F511E5082467
:102D130009122F6474026A603B74066A603690037A
:102D230041E07002A3E0600712320F640160557442
:102D3300086A600574046A70167402120ABFE0F927
:102D43007407120ABFAC82AD83124539120D337476
:102D530013024E47900341E07002A3E07026750A08
:102D630000780A12084C780A12084C8510828511E3
:102D730083122F82FCA3E0FD850882850983122F2D
:102D8300A612085B9003BF1250BC9003BF124E3FC4
:102D9300E508240DF50EE5093400F50F80308E8229
:102DA3008F83E0F8A3122F82687003A3E069701287
:102DB3008E828F83A3A3E0FA850E82850F83E06A58
:102DC300606D8E0A8F0BEE1246F5EF1250B9EE705E
:102DD30001EF70CA7A187B001213878A128B13AE25
:102DE30012AF13EE7001EF7003022D527C181252D2
:102DF3000C125216EE240C12531774FFF0E508243C
:102E03000BF8E509123B5F122F5A123FD7C4122F5A
:102E13005AA3F09003BFE07002A3E070059003BFD4
:102E2300800AE50A1246F5E50B12531A124EFF7497
:102E330001120ABF122F7CA3F07402120ABF122FD1
:102E43007CF0850E82850F83122F6DA3F0125091B3
:102E530012423E240DFAEF3400FB7402120ABFE063
:102E63006401600E7407120ABFAC82AD83121A7735
:102E730080097C087D0079FF1212F77412120ABFD1
:102E8300E0C0E0EE2415125317D0E0122FAFFC90F0
:102E93001577E0C39C4003022D52124C7812531A4B
:102EA300A3E05480F9E47001E97009900D79E070B2
:102EB30003022D527D00EE240CF8EF3400F9EE24CA
:102EC3000BFAEF3400FB9003AFE06402701D8A82BB
:102ED3008B83E0F50AC39C500D7405120ABFE0C34F
:102EE3009414401B801AE50A6C70157405120ABF0E
:102EF300E0C0E088828983E0FCD0E0C39C50010DF0
:102F03007406120ABFE06035ED60258508828509E5
:102F130083124C0FECF0A3ED122FAF8A828B83F058
:102F23007405120ABF123B7B7406120ABFE0600DE0
:102F330074018E828F83A3A3A3A3A3A3F0740412AB
:102F43000ABFE07003022D5274018E828F83A3A304
:102F5300A3A3A3F0022D52540F8E828F83A3A3A3A6
:102F630022F50CE5093400F50D221230A6A322A3A5
:102F7300A3E0F508A3E0F509221230A6023D80E0A4
:102F8300F9850C82850D83E022E0F98A828B83A385
:102F9300A3A3A3A3A3A3A3A3E022900370124E941D
:102FA3009003661238DA120DED740222F085108256
:102FB300851183E022F07A637B037953122FC322B6
:102FC300121A8F7A667B03794B121A8F2274F012CE
:102FD300036874F81208ED8A0C8B0D8C0A8D0B892B
:102FE3000E851882851983AC82AD837583867582BD
:102FF300A874081207A7F50FAC0CAD0D85188285D0
:103003001983AA82AB83124E887003750F01900354
:10301300BF8030AC0CAD0DEE240DFAEF340012532B
:1030230010601A850882850983E0650E700F8E8211
:103033008F83E0650A7004A3E0650B602FEE24160E
:103043001253171238067001EF60211234A5E50FF1
:1030530070C18E828F83E0650A7004A3E0650B70F4
:10306300DC850882850983E0650E70D1EEFAEFFBFB
:1030730002507074F71203689003BF1240A1800CD2
:10308300EA24161250B612138DEEFAEFFBEA700122
:10309300EB70ED9003BFE4F0A3F00238937F0702D7
:1030A3000579A3E08E828F832274F1120368EAFE0E
:1030B300EBFF890A8C088D098E828F83E08C828DC9
:1030C30083124463AE82AF83E01242D212317BC4D7
:1030D3001242D212316FE054038C828D8312317904
:1030E300A2E2E492E08C828D83123178131313549D
:1030F3001F1242D2A3123178A2E7E492E08C828DB0
:1031030083A3A3A3A312316F8E0C8F0D750E0078CA
:103113000C1208447C087D00E50824071231631271
:10312300085B124E5E8E0C8F0D780C1208447C03E4
:103133007D00E508240F12316312085BE5082412B1
:10314300F8E5093400F9E50AC3940F400A8E828F2B
:1031530083A3A3A3E08001E488828983F00230A0E3
:10316300FAE5093400FB1212EB740322A3A3124401
:10317300630EAF8322A3A3A3A3F0024D8B74F412B7
:10318300036874F91208EDEAFEEBFF900341E07067
:1031930002A3E0601012320F64027009EEFAEFFB33
:1031A300120E598062900370E06E7003A3E06F709B
:1031B3005674016960097A847B03124E8870487AD9
:1031C300007B021234B47001EB703C9003737808F7
:1031D300120A808518828519837808120A71900370
:1031E30079E0C0E07404120ABFD0E0F07405120A5B
:1031F300BF7401F07406120ABF7402124BA8120BBB
:10320300EFE96098120BF574070239AA9003411293
:103213003D75E02274F71203688A828B83A3AE8222
:10322300AF83E0F9120C378E828F83E0FA74EB6A76
:10323300600574E16A7002E4F012221275080178E5
:103243000812084C8E828F83E0F508780812084C28
:103253007900122F9D12085B120D3F02389374F60A
:103263001203689003C1E0701F7C0079017A007B30
:1032730000120D6FEA7001EB600E8A828B83E0709F
:1032830002A3E06003120CDF0246B9C082C08312BE
:1032930036E6401079FF120D69E9FA901FE9E493CD
:1032A300C39A500479018002790002432374EE1219
:1032B30003688A088B09890D750E00EA2408F50A4C
:1032C300EB3400F50B850A82F583E0F9120D758A5C
:1032D300108B11AE10AF11750C01EE7001EF60038E
:1032E300023373850882850983A3A3A3A3A3A3122F
:1032F3004E90850A82850B831240A612453F120D1C
:103303005D8A0A8B0BAE0AAF0BEE7001EF700302FE
:10331300349D8E828F83A3A3A3A3E4F0A3F0E508D7
:10332300240BFAE509124225C0E0125314D0E0F051
:10333300120E35EE240C1247F8750E01EE2406F832
:10334300EF1236F5E0547FF0A3E054FC12358E54AF
:1033530004600302340590155B12409A74077808E1
:103363001209A28A828B83E04508F0A3E04509F0A5
:10337300EE2406F8EF1239B4FCE9FD8C828D83123A
:10338300453F74805AF50874035BF50974077808A0
:10339300120A62E508F510EE2404F50AEF3400F58D
:1033A3000BEE24091234A8E50D60607402850882CF
:1033B30085098312317C240D123D64E0A2E2500F93
:1033C30090035E12389E850A82850B83124414E5AE
:1033D300107003023464747F5AFA74FC5BFB74FF4D
:1033E3002510F51074FF3400F511740778101209D5
:1033F300A2E5104AF8E5114BF98C828D831244142F
:10340300805FE04480F0A3E0023372E5107005753D
:103413000C00804DEA542060151213098A10747F42
:103423005510F8745F28850A82850B83801BEA5444
:1034330010600E1213098A10740F5510F8740F8060
:10344300E4850A82850B837401F0A3E4F074048598
:103453000882850983F01234B07001EB70031246C1
:103463008D7401650E7036850A82850B83124E902A
:10347300850882850983E0F9EEFAEFFB120D63E913
:10348300601BEE240C12531712377B7001EB6003A1
:1034930012138DEEFAEFFB12138D750C00A90C02BB
:1034A3004219EE2402F508EF3400F509227A207B55
:1034B300009003BEE0F9121435EA2274F612036891
:1034C30074F71208ED7E00120D75EA7001EB7003BC
:1034D3000235898A828B83A3A3A3A3A3A3A3A3A354
:1034E300E0640660030235898A828B83A3A3A3A3C6
:1034F300A3A3A3E0FF8A828B83123D6FE0C0E07435
:1035030008120ABFD0E012358E1246C31248E512E4
:103513004414120D8774085FF9E47001E96065854E
:103523001882851983124E907A007B00120D57EA98
:103533007001EB704F9003701239B9121AB97C0005
:103543007D007A007B0080268E828F83E01238A272
:103553007004A3E064FF602C900370124E90121766
:10356300E3E9641A601E7C007D00EEFAEFFB120DA6
:10357300578A088B09AE08AF09EE7001EF70C9795D
:1035830000121ABF7E01EEF90246B4123644E0225D
:1035930074F7120368EA7001EB70059003C28006AA
:1035A3008A828B83A3A312377B7001EB60288A8204
:1035B3008B83A3A3A3A3A3A3A3E05408F9E47001FB
:1035C300E960DDEC7001ED6011123B826C7003A3C6
:1035D300E06D70CC80047A007B0002389374F212A1
:1035E3000368EAFEEBFF890A8C088D097A0E7B00DB
:1035F300121387EA7001EB603AE48A828B83A3A3F8
:10360300A3A3A3A3A3A3123648E50A1238AEE50881
:10361300F0A3E509125042E4F0123648A3A3123690
:1036230044124EFFEA240CF582EB123B6B1236393F
:10363300F0A3F002220DA312363E22123644A3A3B6
:1036430022F0022ADCA31238B2A3A32274F51203D8
:1036530068EAFEEBFF890A8C088D09EE7001EF60C2
:10366300567401650A70147901120D69E9FA901F05
:10367300F1E493C39A500F791180657404650A705D
:10368300301236E640F18E828F83A3A3A3A3A3A3B4
:10369300A3A3A3E50A12423212556BE4F0A3F09000
:1036A30003C2E07002A3E09003C2602412389E803C
:1036B3000A7402650A60CF79C18025E824020808EC
:1036C300E91236F51237B07001E970EF8A828B8305
:1036D300124EFF1234B07001EB700312468D790065
:1036E3000255CF7904120D69E9FA901FEDE493C3F3
:1036F3009A221239B4FAE9022ADBC082C083E9FCB8
:1037030079009003C2801D8A828B83A3A3A3A3A302
:10371300A3A3A3A3E06C600574FF6C7001098A8204
:103723008B83A3A312377B7001EB70DB02432374FB
:10373300F7120368EA7001EB70059003C280068AF2
:10374300828B83A3A312377B7001EB60248A828B65
:1037530083A3A3A3A3A3A3A3A3A3E06970E1EC6042
:10376300148A828B83E0240D124D85A2E240D0801F
:10377300047A007B000238931238DAEA22C082C04E
:10378300839003C280068A828B83A3A312377B7044
:1037930001EB60128A828B83A3A3A3A3A3A3A3A396
:1037A300E06970E280047A007B00024323123C52FA
:1037B300E82274F11203688A0A8B0B8C0C8D0D7549
:1037C3000800750900EA7001EB60319003C28006BE
:1037D3008E828F83A3A31238067001EF601EAC0C98
:1037E300AD0DEEFAEFFB850A82850B83121C41E9CE
:1037F300640170DCEEF8EFF988088909AA08AB09BF
:103803000230A0E0FEA3E0FFEE2274F712036890FB
:1038130003C212389E7C007D008007E8FCE9FD129C
:10382300389EE87001E9603AE82402F582E9125310
:103833001AEA687002EB6970E212453F9003C21204
:1038430050BCE86E7002E96F70099003C2EAF0A3FE
:10385300EB800EEAF8EBF98C828D83A3A3E8F0A347
:10386300E9F0802C74F7120368EAFEEBFFEE7001B7
:10387300EF6016120D811238B8EA7001EB60031283
:10388300138DEEFAEFFB12138D8005741F12085B84
:103893007F01020579F582EF1250AE123C5222FAF3
:1038A300A3E0FB8A828B83E064FF221238B22212E8
:1038B3003644023D818E828F83E0241C123D6812C0
:1038C30038DF8E828F831238DFEE240C1238D32236
:1038D300F582EF3400F5831240A1FB221240A1FBD5
:1038E30012138D22C082C083EAFCEBFDEC7001ED64
:1038F30070047905804CEC24FBF582ED34FFF583ED
:10390300E07002A3E07011EC24FFF8ED34FFF988B6
:10391300828983E064FF600512131580D59003BE8E
:10392300123B7B901FEBE493F97AC47B0312133FA2
:10393300E96401700B7A007B1012469179008002D2
:10394300790402432374F4120368A2AFE492E0F50E
:1039530008C2AF9003C41238067001EF603DEE2435
:10396300FBF582EF34FFF583E07002A3E07A007B7E
:10397300109003BE60051246948005E0F912134BC4
:10398300750A00750B00780A120848EEFCEFFD7A01
:10399300C47B03121339740212085BE508A2E09298
:1039A300AFEEFAEFFB800312085B7F04020579F8A0
:1039B300EB3400F9E822124E94851882851983AA04
:1039C30082AB832274EE12036874FC1208EDEAFEE4
:1039D300EBFF750CFE750DFF120D45E960057911BE
:1039E300023B47EE240FF50EEF3400F50FEE2402F1
:1039F300F50AEF3400F50BEE2415123B4C603E90B4
:103A03001571E0C43354E0C0E0E0333354FCFAD022
:103A1300E04A850882850983F0850A82850B831233
:103A23003B717001EB6016750CFF850E82850F8369
:103A3300E04404F0A3E0123D88E0D2E0F0850A827E
:103A4300850B831247D76006EE2412123B68EE24DF
:103A53001312504B7003741EF0EE2411F8EF12474B
:103A6300C87019900E27E0600D90035AE0700D8E18
:103A7300828F83E07006E488828983F0EE24140841
:103A83000808123B5E700C90034F123B7B90034F70
:103A9300E004F08E828F83E06401701712531412D6
:103AA3003B866402700D850E82850F83E04440F0EF
:103AB300A3E0F0851882851983AC82AD83EEFAEF1B
:103AC300FB120DAB8A088B0974FE650C700474FF3E
:103AD30064FF7009850A82850B83123FBBEA70017C
:103AE300EB605D8E828F83E0C0E07401120ABFD069
:103AF300E0F07402120ABF124EFF7401120ABF856E
:103B0300820A85830B780A120848850E82850F8303
:103B13001206AF125048F50A780A12084C740512BF
:103B23000ABFE0F9AC0CAD0D120DA5740512085BCC
:103B3300E9FE74106E700BAA08AB0912138D800294
:103B43007E10EEF97404024216F508EF3400F5090D
:103B5300850882F583E022EE2405F8EF123B632209
:103B63001255DAE022F582EF1250AEE4F022123859
:103B7300DA79FF121B79EA22E088828983F0228AAC
:103B8300828B83123B8DE022F583E0F8A3E0F5837B
:103B9300888222C082C08374DE1208ED8A828B83FE
:103BA300A3A3A3A312389E740E120ABFE8F0A3E9DD
:103BB300123C4B740C120ABF123C44240DF582EBE9
:103BC30012504EC0E0741A120ABFD0E0F0EA240B80
:103BD300F582EB12389B7420120ABF123C44241561
:103BE300F582EB12504EC0E07408120ABFD0E0F029
:103BF300EA241CF582EB12389B7412120ABF12449A
:103C03001474FF851882851983F07401120ABF7436
:103C1300FFF07402120ABF74FFF09087051206AB1F
:103C23007404120ABFAC82AD837407120ABFAA825E
:103C3300AB83120C13740412085B790074220243E1
:103C430020E8F0A3E9F0EA2212363E123C5222E0C9
:103C5300F8A3E0F92274EF12036874F01208ED8AF6
:103C63000C8B0DECFEEDFF89107421120ABFE0F5F9
:103C73000F7422120ABF124E3F7424120ABF122F6E
:103C830074750E107A1E7B001213877402120ABF1A
:103C93001247FF7402120ABFE07002A3E07003022E
:103CA3003D58851882851983AA82AB8379501245C2
:103CB3002F12453F7402120ABF123D6FA31247FF32
:103CC3007402120ABFE0240B123D647402F0120A5C
:103CD300BF123D6F7402F0120ABF1246C2124EFFAA
:103CE3007402120ABF1249E8E510F07402120ABF07
:103CF300E0240C123D64E50FF07402120ABFE024C5
:103D03001C123D64124E767408120ABFE50AF0A332
:103D1300E50BF0740A120ABFE50F123D88C082C09A
:103D230083740D120ABFAC82AD83D083D082740337
:103D33001207A7F97402120ABFAA82AB83120D4BB2
:103D4300E964017005750E00800B7402120ABF123C
:103D5300453F12138DA90E741012085B7F090205EB
:103D630079123D6822F8A3E01255DA22123D75A3B9
:103D7300A322E0F8A3E0F58388828002A3A3A3A390
:103D8300A3A3A3A322F00247AF74E8120368EAFED9
:103D9300EBFF8C088D098E828F83A3858212858326
:103DA300137408F0EE2416F50CEF123FA7600974A4
:103DB30010851282851383F0EE2417F50EEF34007D
:103DC300F50F850E82F583E0600A851282851383E1
:103DD300E02408F0EE241512504B60098512828509
:103DE3001383E004F0EE2407F514EF3400F515EE29
:103DF3002406F516EF3400F517851682F583E06087
:103E030015851482851583E0C3332402FA85128253
:103E1300851383E02AF0EE2411123B5D6005750AD9
:103E23000E8003750A00851282851383E0C0E0EEDD
:103E3300240D125317D0E0FAE02A250A8C828D83D1
:103E4300123FD7601390035BE0F9120ADBE9FA85AE
:103E53000882850983E02AF0850882850983E0FAD0
:103E6300C394754009750800750900023F9C7B00E7
:103E7300124FAD7001EB7003023F9CEEFAEFFB12A1
:103E83000DB1EA850882850983124800EE2402F801
:103E93001247AA123FDEF0EE240408081247AAA331
:103EA300A3123FDEA3A3F0EE2413123FC3F0EE24CC
:103EB30014123FC3A3F0751008850C82850D83E0AF
:103EC3006010EE2418124E8DE5082408124E357545
:103ED3001010850E82850F83E06016EE241A124EB1
:103EE3008D85100CE508250C124E3574082510F548
:103EF30010851682851783E060608514828515839B
:103F0300E0C0E085100CE508250CF582E5091253A5
:103F13001AD0E0123FCDE0C0E085100CE508250C77
:103F2300F582E50912531AD0E0123FCDA3123FB236
:103F3300120844851482851583E0C333FCE433FD02
:103F430085100CE508250C12316312085B85148279
:103F5300851583E0C3332510F510EE241512504B5D
:103F63006010C0E0E5082510F582E50912531AD068
:103F7300E0F0125314123FB2120844EE240D125013
:103F83004BFC7D00851282851383124484E50A2845
:103F9300FAE439123FA312085BAA08AB09022957B6
:103FA300FB0231693400F50D850C82F583E02212A2
:103FB3003FBB750E00780C22E0F50CA3E0F50D2253
:103FC3001250AB123FEEA3A3A322F005108E828FF3
:103FD30083023D7FF088828983E022123FE5123F0E
:103FE300EE22A3A3F088828983A322E08508828539
:103FF3000983A3A3A32274F6120368EA2415F582A6
:10400300EB12504E60047C0180027C008A828B8319
:10401300E0FE90036012409A740278081209A2E548
:10402300084EFEAF09EA241212409474067808126F
:1040330009A2E5084EF8E5094FF9ECFDE8FCED4966
:10404300FDEA2411124094740978081209A2E509C3
:104053004DFDEA2416124094740B78081209A2E568
:10406300094DFDEA2417124094740C78081209A232
:10407300E5094DFD8A828B83A3A3A3A3A3A31240C7
:104083009A740A78081209A2ECFAE5094DFB024674
:10409300B9F582EB1250AEE0F50875090022E0FA9B
:1040A300A3E022E0F90247AF74EE1203688A088B9B
:1040B30009ECFEEDFFE98E828F83F0124499C0E094
:1040C300EE2411125317D0E0124430C0E0EE241254
:1040D300125317D0E012445260061243F61244768C
:1040E3008E828F83A3A3A3A3A3A3A3A3E06003123E
:1040F300446A123B5A6003124436EE2419F8EF3433
:1041030000F9E488828983F0EE241BF510EF340074
:10411300F511851082F583E4F0A3F0EE2418FAEF8D
:1041230012422570030241B2850A82850B83E0FCAB
:10413300E5082C124441FCE5082CF582E5091250F0
:104143004EC0E0EE241A125317D0E012444C88827A
:104153008983E0FC6053901FEAE493C39C50057588
:104163000F0C80028C0F850A82850B83E0F8E5082B
:1041730028F50CE50912421E120844E50FC333FC6F
:10418300E433FD7AEF7B1312316912085B851082E9
:1041930085118374EFF0A37413F0E50FC333FA852D
:1041A3000A82850B83E02A8005E48A828B83F0856B
:1041B3000A82850B83E0F50AF50CE508250CF8E582
:1041C300093400F9EE241DFAEF3400FBEAFCEBFDA1
:1041D3008C828D8312423E2417FAEF3400FB8A0847
:1041E3008B098E828F83E0C3950A8A828B83124266
:1041F30032A3A3E0601B8A828B83E024F2F0E824DD
:104203000EF8E912441AFA850882850983E0C39AF5
:10421300F0800312085B7F0A0205793400F50D0272
:104223003FB5124229223400FB8A828B83E022129B
:10423300423622F08E828F83023D83E8F0A3E9F0B9
:10424300EE2274F41203688A088B09EA1242D9F049
:10425300EA1313543F1242D2A3A3A3F0EAC41313E5
:104263001242D9A3A3F0EB1242BFF08A0A8B0B745C
:1042730009780A120A62E50A1242BFA3F08A0A8B7E
:104283000B740A780A120A62E50A5401C0E0EC24AE
:1042930018F582ED12531AD0E0F08A0A8B0B740BD7
:1042A300780A120A62E50A1242CCF0740C780812FA
:1042B3000A62E5081242CCA3F00239AD1242C322CE
:1042C30054018C828D83023D821242C3A3A32254E4
:1042D3000F8C828D832254038C828D83A3A322C0EF
:1042E30082C083790090035A124797A3A3A3A3E044
:1042F300600FEC70268A828B83A3A3E0701D098074
:104303001AEC60178A828B83A3A3A3A3A3A3A3A3FB
:10431300A312432A7003A3E06B70E3800312085BCC
:10432300D083D0820205451238DA900363E06A2213
:1043330074EE1203688A088B09890CECFEEDFF12F8
:104343004499C0E0EE2411125317D0E0124430C058
:10435300E0EE2412125317D0E012445260061243C7
:10436300F61244768E828F83A3A3A3A3A3A3A3A34E
:10437300E0600312446A123B5A6003124436EEFAB9
:10438300EFFB120DC3E9F50D7064850A82850B837B
:10439300E0F50EF510E5082510FAE5093400FBEE0B
:1043A3002417124404241DF8EF1239B4FCE9FD8EDE
:1043B300828F83A3A3A3A3A3A3E07012EAF8EBF96C
:1043C3008C828D83124414E50CC3950E8019EA2464
:1043D3000EF8EB12441AFB850A82850B83E0FAE59B
:1043E3000CC39A24F2C39B850882850983F0A90D27
:1043F300024219E5082408F8E5093400F9EE24130C
:1044030022F8EF3400F988088909EE2212509BA3A1
:10441300A3E8F0A3E9F0223400F98C828D83E8F05D
:10442300A3E9F090035BE0F9120ADBE9221244E40A
:10443300022F98850A82850B83E0FAE5082AF58224
:10444300E5091247C28882898312449004F022123C
:10445300446385820A85830B7408124236022F98BF
:10446300F08E828F83A322850A82850B8312448474
:10447300EE24151250ABE8F0A3E91244902408F09F
:1044830022E0F8E50828F8E5093400F922F0850A66
:1044930082850B83E0228A828B831238DA120DBD68
:1044A300850882850983A3A31244D8E0F9EA8E82A2
:1044B3008F83A3A3A3A3A3A3A3A3A31244DD1244A3
:1044C300D8A3A3E0F9EAF8EE240B1250ABE81244A8
:1044D300DDA3A3E022E0FA023FEFF0A3E91244E4F4
:1044E30022F0850882850983023D83C082C0837AD6
:1044F300D27B0379E2121A897AD27B03024323C067
:1045030082C08390036312453F024323C082C0836A
:1045130074FE1208ED851882851983AA82AB83790C
:104523004B12452F12453F7402024320121A89850C
:10453300188285198322850C82850D831238DA222D
:10454300C082C083794A121A8902432374F6120384
:10455300689003DAE0FE04F0EEF9120D75EA7001DB
:10456300EB70EEEE60EBF90246B974EE120368EA03
:10457300FEEBFF8C088D09890A7412120ABFE0F55D
:104583000B7413120ABFE0F50C750D00750E0012C3
:104593000E8F8A108B11AC10AD11EC7001ED7014FD
:1045A300E50C704DA90AAC08AD09EEFAEFFB120E4B
:1045B300A7024653EC2402F8ED3400F9E50A60192A
:1045C30088828983E0FA850A08E5082AFAE4340038
:1045D30013EA13F070037401F0E50C6020E50B702F
:1045E300108C828D83E0600914F064027003750EF1
:1045F300017401650C7035E50B7016802A901577F0
:10460300E0C0E088828983E0FAD0E0C39A50418019
:10461300DD9003E1E004F0C0E090155CE0FAD0E047
:10462300C39A4008750D01E49003E1F0E50E7004B0
:10463300E50D601CE50D6018900366E06E7003A342
:10464300E06F700CEEFAEFFB7901120C3112465653
:104653000242197A017B009003BEE0F912142F2263
:10466300C082C08374016A7001EB70077A0112463D
:104673008F80149015531247FFEA7001EB60051207
:1046830023D880031246560243237A207B009003EB
:10469300BEE0F912134522C082C08390155512471C
:1046A300FF024323C082C08390155780F1A908807D
:1046B30005740912085B7F020205798E828F83E0FD
:1046C300123B8E22A2F0E492E01246D57952121ADE
:1046D3008F22851882851983F00239C21246D57953
:1046E30042121A8F22AA08AB099003BEE0F91213F3
:1046F3001B222416F58222F582EF3400F583740120
:104703002274F4120368EAFEEBFF7A007B0412467C
:104713005A1247A01244147409900372F0120DCF79
:104723008A088B09AC08AD09EE24131253171245FE
:104733003F124E886401704E7A0F12478C7001EB62
:10474300604474028A828B83F0EE241DF8EF1255C5
:10475300D612453F8A828B83A3124797E0FBEC85F1
:104763000882850983A3A31248008882898312469D
:10477300C2A3A3A31247AE1247B6FAA3E0FB794A3A
:10478300121A8F1246E80239AD7B0012130F8A0802
:104793008B09EA22E0FC8A828B83A3A32290034342
:1047A300123C5290155722EF1255DAE085088285A4
:1047B300098322A3F0EE24151247BF22F582EF34BA
:1047C30000F583E022123B63640122A3A3A3A3A306
:1047D300A3A3A3A31247DB221240A1FB120E2FE9CE
:1047E30022124BB0120E2322EE24171246FAF012B5
:1047F3000DCFEE241AF582EF3400F583EAF0A3EB34
:10480300F02274F412036874F31208EDEAFEEBFF6E
:104813007C0D7D007900851882851983AA82AB837C
:104823001212F7EE241D1253171246C2A3E0F854D6
:10483300206008740C120ABF7401F0E85480600809
:10484300740B120ABF7401F0E85440600A740A1230
:104853000ABF7401F0800A740A120ABFE06401708F
:1048630005EE24138003EE2415124E8D7402120AF2
:10487300BFAA82AB83121A77EE240BF8EF3400F948
:10488300880889098882F5831248E5124414740A5A
:10489300120ABFE0640170388E828F831247CE7094
:1048A3003C120DDB8A0A8B0BA80AA90B85088285AB
:1048B3000983E0687003A3E0697022120DCFEAFC5C
:1048C300EBFD7402120ABFAA82AB83124E88600DFD
:1048D300851882851983AA82AB83120C2B740D026F
:1048E30039AA123C5202453274F612036874F31269
:1048F30008ED8A088B09ECFEEDFF7C0D7D00790045
:10490300851882851983AA82AB83125210A3A3A3AD
:10491300A3A3A3A3A3A31248E5E8F0A3E91249754F
:10492300FAA2E55008740B120ABF7401F0EAA2E779
:104933005008740A120ABF7401F0EAA2E6EE5004AA
:10494300241380022415124E8D7402120ABF1249D9
:104953006BA3A3E0C0E0740C120ABFD0E0124BA813
:10496300120C25740D0246B6AA82AB83121A770283
:1049730047AFF0EE241DF582EF3400123B8BA3E02A
:104983002274F712036874E11208EDEAFEEBFF12DA
:104993002514EA2406F8EB123B5FA2E0504454FED0
:1049A300F0A3E01249EF8A828B831249E8E0F98A87
:1049B300828B83E0241CFAA3E0122AD912453F120A
:1049C3000DC9E9701D741D120ABF123B8664047081
:1049D30011851882851983AC82AD83EEFAEFFB1241
:1049E3000E1102388EE0241B123D68221249F7ACE7
:1049F30082AD8322F0024532E9FA790074046A60D9
:104A03000A740A6A600574036A7001090205457431
:104A1300F612036874208A828B83F07401A3A3F0D7
:104A2300120BE38A088B09AE08AF09EE7001EF6041
:104A33000774018E828F83F09003B0E070031247F6
:104A4300EBEEFAEFFB0246B9C082C0837401900318
:104A5300C6F0E9A2E350037403F0E9A2E15004E0D5
:104A6300D2E2F002432374F612036879007C008AD1
:104A7300088B0978081205BFF8FF079C4A9A4A9ADF
:104A83004A9A4A9A4A934A974A9C4A904A0C8009FE
:104A93007C0480050C80F67C089003C6E05C600310
:104AA300098003EC6001090246B974F61203688AAF
:104AB300828B83E0700EA312377B7001EB600512CB
:104AC3001B9D80047A007B000246B974F5120368CB
:104AD30074F31208ED8A088B09ECFEEDFF750A12D8
:104AE300EA7001EB70057900024B9F900363E06568
:104AF300087004A3E065097014120DCFEAFCEBFD06
:104B030012530D7005750A018003750A00E48518B8
:104B130082851983F07401120ABFE508F0A3E50941
:104B2300124BA8120B23E960277403120ABFAA824F
:104B3300AB83120B0BE964017016750A017403123F
:104B43000ABFAC82AD8312530D6021750A00801C2D
:104B53007412650A70169003AFE06402700EEEFCE7
:104B6300EFFDAA08AB09120B3BE970DFEEFCEFFD8A
:104B7300AA08AB09120E95E9FA740A6A7005750A58
:104B830001801774A06A7012EEFCEFFDAA08AB094E
:104B9300120EA1AA08AB09120EB3A90A740D1208CA
:104BA3005B0255CFE4124BAC22124BB0221249F7F1
:104BB3000239C274F7120368EAFEEBFF7508008E30
:104BC300828F83A3A3A3A3A3A3A3A3E06014EE24D0
:104BD300151253171229EA120E3BE964017003758B
:104BE30008018E828F83A3A3A3A3A3A3A3E06017CB
:104BF300EE2413125317124C0F12453F120E3BE9CA
:104C030064017003750801A908023893124E948E4B
:104C1300828F83A3023D7F74F212036874FD12082E
:104C2300ED8A088B09ECFEEDFF890A750B0174010F
:104C3300120ABF740412506B7001EB6033EA240B49
:104C4300F582EB12389B740388828983F0A3E50A0B
:104C5300F0EE88828983A3A3F0EF88828983A3A3DC
:104C6300123639E508F0A3E509F0120BDDE9F50B7F
:104C7300A90B022208E508240BF582E50922123C60
:104C8300528001F9888289832274EC12036874F5D7
:104C93001208ED8A0C8B0D89108C0A8D0B741F1270
:104CA3000ABFE0F5117420120ABFE0F50EA3E0F588
:104CB3000F7E01EE120ABF740AF0E97007E511C313
:104CC30033240AF0851882851983AA82AB83120ED6
:104CD300238A088B09EA7001EB7003024D7E1250A0
:104CE300B37409124E674511124E81AC0AAD0B1213
:104CF3004E4FE510702D7C008023ECC333F8E43372
:104D0300F9E50E28F8E50F39F988828983124E7E7A
:104D1300888289831230A5F0A30EAF830CECC39570
:104D23001140D7E5082417125080120DCFE508244F
:104D33001AF582E5091247FB7403120ABFAC82AD70
:104D430083AA0CAB0D120B11E9601EE508241612A1
:104D530050807403120ABFA882A983E5082418F5BA
:104D630082E50912531A12441485088285098312B5
:104D73004E74AA08AB09120BDDE9FEEEF9740B02BF
:104D83004E47FEA3E03400FF8E828F83E02274EC53
:104D93001203688A0C8B0D89118C0E8D0F741412FB
:104DA3000ABFE0F5107415120ABF124E3F900D961C
:104DB300E07002A3E06078E510C333F508E433F54F
:104DC30009740E2508FAE43509FB12130F8A128BB6
:104DD30013AE12AF13EE7001EF605474D48E828F52
:104DE30083F0124E748E828F83A3A3A3A3E511F0E5
:104DF300AC0EAD0FEE2405FAEF124E38EE240D1271
:104E03005317E510F0850A0C850B0D750E00780C11
:104E1300120844AC08AD09EE240EFAEF1231661203
:104E2300085BEEFAEFFB900D961246C2121C41028C
:104E33004E4AFAE5093400FB121A7722E0F50AA379
:104E4300E0F50B2212085B7F0C020579EEFAEFFB0B
:104E5300124E5722121A77124E5E22EE2408FEEFEC
:104E63003400FF228E828F83F0A3E510C43354E015
:104E730022A3A3E50CF0A3E50DF0221230A6F0A3C4
:104E8300AE82AF8322121A71E9221250AB124E94F2
:104E930022E0FCA3E0FD2274F6120368EAFEEBFFB6
:104EA3009003C7801388828983E06E7003A3E06F49
:104EB300603B88828983A3A31237B07001E970E550
:104EC3007A047B001213878A088B09A808A909E8CA
:104ED3007001E9601888828983124EFF9003C7121C
:104EE3004EF3A3A31247FF9003C71244140246B91B
:104EF3001238DA024C87851882851983EEF0A3EF06
:104F0300F02274F41203687E009003C780070E88B2
:104F1300828983A3A31237B07001E970F1EEC33322
:104F2300FAE433FB124FAD7001EB60787F0090031E
:104F3300C7802488828983124E90EFC333FAE43307
:104F4300FBE5082AF582E5093BF583ECF0A3EDF0D8
:104F53000F88828983A3A31237B07001E970D490BC
:104F630003B912432A7003A3E06B78087016120882
:104F730048EEF50A780A12084C7C847D0379001206
:104F83000E538014120848EEF50A780A12084C7C76
:104F9300847D037900120E4D740312085BAA08ABDB
:104FA3000912138D120BF50239AD121387024791C3
:104FB300C082C08380128A828B83A3A312389E90FF
:104FC30003C712441412138D9003C712377B700169
:104FD300EB70E302432374F61203689003701250DC
:104FE300BC9003DB122C9F1244147ADB7B037950B1
:104FF300121A8F9003DB125089120EAD9003DB124D
:1050030050BC900D98E07002A3E060307A067B00FC
:1050130012130FEA7001EB602374D58A828B83F03D
:10502300E4A3A3F074018A828B83A3A3A312504247
:10503300124EFF900D981246C2121C410246B9123D
:10504300363EA3A322EE240EF582EF1247C222F5C9
:1050530082EF1247C2F922123C5274FF68221250A7
:105063006522123FE5A3A3221247E4EA2274081241
:10507300085B7F0802057908E93400F922F582E527
:10508300091246FDF022124E94EEFAEFFB22850C34
:1050930082850D8312509B22E0F8A3E0F90230A72A
:1050A300F0EE240F1250AB22F582EF3400F5832289
:1050B300EA240BF582EB1250AEE0FEA3E0FF22746C
:1050C300F71203687E008008EE125265120E830EFB
:1050D300901FEFE493FAEEC39A40ED7E00EE125078
:1050E300F712521EE488828983F00EEEC3940340C4
:1050F300EC02389375F003A424C9F8E5F0340302F5
:105103004C8674F71203687800790080031251E427
:10511300901FEFE493FEC3E89EE99400504CE8FE31
:10512300E9FFEE75F017A4FE85F00875F017EFA4FC
:105133002508FFEE247BFEEF1256256A7003A3E0D9
:105143006B70CA8E828F83A3A3A3A3A3A3A3A3A3DA
:10515300A3E06C7003A3E06D600A74FF6C700374CA
:10516300FF6D70A9EEFAEFFB80047A007B00023832
:105173009374F61203687CFF7DFF7AFE7BFF120EA9
:1051830077EA7001EB7057750800750900803FE5F9
:105193000875F017A4F8ACF075F017E509A42CF91D
:1051A300E8247BFEE93412FFEE240F12504B600516
:1051B300125048700E8A828B8312453F120CC1EE47
:1051C300FAEFFBE5082401F508E5091234AB901F5B
:1051D300EFE493F8C3E50898E509940040B102466B
:1051E300B9E8240102507A74F7120368EAFEEBFF70
:1051F300EE7001EF600E12520A12521F8E828F83DD
:10520300A31252160238937C177D0079001212F70D
:105213000230A7A3A3A3A3A3A3A3A3A374FEF0A3F2
:1052230074FFF02274F7120368EAFEEBFF750800BF
:105233008021E5081252658A828B83A3A3A3A3A3CB
:10524300A3A3A3A3A3E06E7003A3E06F6003120EF6
:10525300830508901FEFE493FAE508C39A40D3024D
:10526300389375F017A4247BFAE5F03412FB22740B
:10527300F6120368120E778A088B09A808A909E8B1
:105283007001E9600AE8240DFAE93400FB80047A2E
:10529300007B000246B974F01203688A0A8B0BEC98
:1052A300FEEDFF750E00750F00804AE50F75F017D0
:1052B300A4247BF50CE5F03412F50DE50C2402F57E
:1052C30008E50D1234ABAA08FB120B0BE960248529
:1052D3000C82850D83E0650A7004A3E0650B7003FF
:1052E300750E0AEEFCEFFDAA08AB09124E886003A7
:1052F300430EA0050F901FEFE493FAE50FC39A50F6
:1053030004E50E60A6A90E025075EEFAEFFB024EFD
:1053130088EE240BF582EF1250AE2274F01203686C
:105323008A088B09ECFEEDFF7410120ABF124E3F80
:10533300750C007C007D018010121309E50CF5F05B
:10534300EA84ACF0750C007D0078007900800312CC
:1053530051E41254825070E8FAE9FBEA75F017A49D
:10536300FA85F00D75F017EBA4250DFBEA247BFA03
:10537300EB341212549F700474FF650F60D1E5087B
:10538300650E7004E509650F60C5EE650E7003EFE9
:10539300650F60BBE50A650E7004E50B650F60AF32
:1053A300EA240EF582EB12504E60A4C39407509F7B
:1053B30074016D050C6098E50CC39C40928A828B46
:1053C3008312453F02547F7800790080031251E431
:1053D30012548F4003025466E8FAE9FBEA75F012AF
:1053E300A4FA85F00D75F012EBA4250DFBEA240158
:1053F300FAEB341112549F700474FF650F60CEE50D
:1054030008650E7004E509650F60C2EE650E700352
:10541300EF650F60B8E50A650E7004E50B650F6074
:10542300AC8A828B83A3A3A3A3A3A3A3A3A3E060B8
:105433009CC3940750978A828B83A3A3A3A3E0F50D
:105443000D7401650D60867402650D608074016DD5
:10545300050C70030253D0E50CC39C50030253D0D8
:105463000253C0E50C6011EC700E7401650C60030F
:1054730002533C7C010253477AFE7BFF0250759036
:105483001FEFE493FAC3E89AE9940022901FE1E442
:1054930093FA740193FBC3E89AE99B22FB8A828BFC
:1054A30083E0F50EA3E0F50F74FE650E2274F2128D
:1054B30003688A0A8B0B8C0C8D0D7E007F0080089D
:1054C300EE24010EEF3400FF901FEFE493F8C3EED8
:1054D30098EF94005036EEF8EFF9E875F017A4F85A
:1054E300AAF075F017E9A42AF9E8247BF508E93452
:1054F30012F509AC0CAD0D125512124E8860C18520
:105503000882850983E50AF0A3E50BF002220DE585
:10551300082402FAE5093400FB2274F01203688AB6
:10552300088B098C0A8D0B890C12555E7001EF6094
:105533002712520A12556BA3A3A3A3A3A3A3A3E504
:105543000AF0A3E50B1250A3E50C70027401F0EE10
:10555300240E125317125576025075120E7D8A0EC1
:105563008B0FAE0EAF0FEE22E508F0A3E509124450
:1055730063A3227401F0EE240D1250AB7402F022E7
:1055830074F51203688A088B09ECFEEDFF750A00B7
:10559300800DEE6C7002EF6D6003120E83050A90AE
:1055A3001FEFE493FAE50AC39A5021E50A12526504
:1055B300EA240A1255D4124E90E5086C7003E509EB
:1055C3006D70CF88828983124EFF80D17F030205DD
:1055D30079F8EB1255DA223400024C8674F5120383
:1055E300688A088B09750A00801DE50A125618653A
:1055F300087004A3E06509700C12562A7007EEFACE
:10560300EFFB120E83050A901FEFE493FAE50AC33A
:105613009A40D780B775F017A4247BFEE5F01256A5
:1056230025223412024D8AEE2402FAEF3400FB12D3
:105633000B0BE922C082C08374F81208ED8518822F
:10564300851983AC82AD837583867582B074081225
:1056530007A7851882851983AC82AD83124E8864AF
:105663000170047900800279017408024320F582F5
:10567300EB126FC4A2E222740912085B7F040205D5
:1056830079E0F508750900750A00750B002234FFEF
:10569300F583221270F0E822EE2412FAEF3400FBB5
:1056A30012102DE9227905121039740222125FD9E2
:1056B30012085B7F08020579F09003EBE0221211D8
:1056C300239004551270F07A147B002279031A1A7E
:1056D300EFFB1210337402221256E4E8F0A3E9F050
:1056E3002224FFF8A3E034FFF98A828B8322E0F5BA
:1056F3000CA3E0F50D22E0026F678E828F83A3A3D4
:10570300A3A322A3E08E828F8312571022F0EE24EC
:10571300FF1EEF34FFFF227F0A020579E50824FB11
:10572300F582E509025691F582EF126FC4227F06D6
:10573300020579126FAEE0227AE27B031213397409
:105743000222E0FEA3E0FF2212574F22EE126F5F08
:10575300EF125758223400F583E022A2AFE492E01F
:10576300FAC2AF9003E9E004F0EAA2E092AF22EEBE
:10577300240EF582EF3400F58322E0FEA3E0FFEE72
:1057830022EE240D126FC1640122A3A30257017FED
:1057930007020579F0EEFAEFFB22C082C08374FEA4
:1057A3001208ED80077AE27B031257E29003E2E0EE
:1057B3007002A3E070EF9003E4E07002A3E06009DD
:1057C3007AE47B031257E280ED9003E2E4F0A3F066
:1057D3009003E8F09003E9F09003EAF0025FB71258
:1057E3001333851882851983EAF0A3EB1257F61257
:1057F300101B22125A43AA82AB832274F412036849
:105803008982AE82EE248FF582E4341FF583E4931C
:10581300F508FA7B0012130FEA7001EB6012EA2518
:1058230008126559E48A828B83A3A3A3A3F080287B
:105833007A027B0012130FEA7001EB6017EE24A5C6
:10584300F582E4341FF583E4938A828B83F0741A20
:10585300A3125BA27A007B0002567FC0087406295C
:10586300FBEAA2E0501EEB75F00A84AAF0EA60148A
:10587300740A2BC39AFBEAC394054004740A2BFBF6
:10588300740B2BFBE9C3941340047814800278064D
:10589300E82BFB8B0874092508F8E43400F97A0A2D
:1058A3007B00120217E8F9D008020545C082C083C5
:1058B300900408E05402600A121ACBE960047901EB
:1058C30080027900025F58C082C083900408E054CC
:1058D30002601F9003E8E070159003EBE07002A3F1
:1058E300E0600F9003EBE02410125C9D50047901FB
:1058F30080027900025F58C082C0839003EAE0C04F
:10590300E09086E1E0FCD0E0C39C500512130F80C9
:10591300047A007B00025F58C082C08312101B7997
:1059230000025F58C082C08374FE1208ED8518829E
:10593300851983125A5A1206440003085A48599784
:1059430059085ABB59900435E0640F6012120FF1E5
:10595300E9700C126F73901514125E19121C4190AA
:10596300045DE0C0E0125A1FA3D0E0125A4B741436
:10597300125A3AFCA3E0FD7AE47B03121BC1A2AFE7
:10598300E492E0FAC2AF9003EA1257697920120F4A
:10599300DF025FB7120FEBE9851882851983601167
:1059A300125E19740D125A3AFAA3E0FB121AC5805B
:1059B300E0125E19741580B8851882851983E02476
:1059C30004125A33603F14125A4B125A18C0E01291
:1059D3005A1FD0E0125A3A2402125A33125C8788B3
:1059E300828983125A5AFA601CC3940A5017740AA4
:1059F3002AC0E0851882851983125A53D0E0125ABF
:105A03005E04025973851882851983AA82AB8312B7
:105A1300101B025994A3A3125E1DE02285188285F0
:105A23001983125A2922127C0BA3A3A322E0240F69
:105A3300F8A3E0125CA622125A3E22125A43E02235
:105A4300F085188285198322125A4F22125A3EF882
:105A5300A3E0F583888222EAF0A3EB125A4FA3A3B3
:105A6300A3A3A3E022C082C0839003EDE07002A34E
:105A7300E0600B9003ED125E19121C418002790065
:105A8300025F5874F7120368EAFEEBFFEE240D126F
:105A930057757401F0EE242F12572AC0E012577283
:105AA300D0E0F0EE243012572AC0E0EE2412125751
:105AB30075D0E0126FB9C0E0EE2413125775D0E031
:105AC300F0EE242B1257751206AFEE2422FCEF34AE
:105AD30000FDEE242D12572AF91256D512085BE960
:105AE3007007EEFAEFFB120F250262AAC082C08391
:105AF300120FF1E96004792080027901025F58C036
:105B030082C083EA126F5FEB12572DD2E08003F05D
:105B1300A3E0F0025F58C082C083EA240DF582EB54
